{
	"contracts/AMM.sol": {
		"AMM": {
			"abi": [
				{
					"inputs": [
						{
							"internalType": "address",
							"name": "_tokenX",
							"type": "address"
						},
						{
							"internalType": "address",
							"name": "_tokenY",
							"type": "address"
						}
					],
					"stateMutability": "nonpayable",
					"type": "constructor"
				},
				{
					"inputs": [
						{
							"internalType": "address",
							"name": "target",
							"type": "address"
						}
					],
					"name": "AddressEmptyCode",
					"type": "error"
				},
				{
					"inputs": [
						{
							"internalType": "address",
							"name": "account",
							"type": "address"
						}
					],
					"name": "AddressInsufficientBalance",
					"type": "error"
				},
				{
					"inputs": [
						{
							"internalType": "address",
							"name": "spender",
							"type": "address"
						},
						{
							"internalType": "uint256",
							"name": "allowance",
							"type": "uint256"
						},
						{
							"internalType": "uint256",
							"name": "needed",
							"type": "uint256"
						}
					],
					"name": "ERC20InsufficientAllowance",
					"type": "error"
				},
				{
					"inputs": [
						{
							"internalType": "address",
							"name": "sender",
							"type": "address"
						},
						{
							"internalType": "uint256",
							"name": "balance",
							"type": "uint256"
						},
						{
							"internalType": "uint256",
							"name": "needed",
							"type": "uint256"
						}
					],
					"name": "ERC20InsufficientBalance",
					"type": "error"
				},
				{
					"inputs": [
						{
							"internalType": "address",
							"name": "approver",
							"type": "address"
						}
					],
					"name": "ERC20InvalidApprover",
					"type": "error"
				},
				{
					"inputs": [
						{
							"internalType": "address",
							"name": "receiver",
							"type": "address"
						}
					],
					"name": "ERC20InvalidReceiver",
					"type": "error"
				},
				{
					"inputs": [
						{
							"internalType": "address",
							"name": "sender",
							"type": "address"
						}
					],
					"name": "ERC20InvalidSender",
					"type": "error"
				},
				{
					"inputs": [
						{
							"internalType": "address",
							"name": "spender",
							"type": "address"
						}
					],
					"name": "ERC20InvalidSpender",
					"type": "error"
				},
				{
					"inputs": [],
					"name": "FailedInnerCall",
					"type": "error"
				},
				{
					"inputs": [
						{
							"internalType": "address",
							"name": "token",
							"type": "address"
						}
					],
					"name": "SafeERC20FailedOperation",
					"type": "error"
				},
				{
					"anonymous": false,
					"inputs": [
						{
							"indexed": true,
							"internalType": "address",
							"name": "owner",
							"type": "address"
						},
						{
							"indexed": true,
							"internalType": "address",
							"name": "spender",
							"type": "address"
						},
						{
							"indexed": false,
							"internalType": "uint256",
							"name": "value",
							"type": "uint256"
						}
					],
					"name": "Approval",
					"type": "event"
				},
				{
					"anonymous": false,
					"inputs": [
						{
							"indexed": false,
							"internalType": "uint256",
							"name": "oldFee",
							"type": "uint256"
						},
						{
							"indexed": false,
							"internalType": "uint256",
							"name": "newFee",
							"type": "uint256"
						}
					],
					"name": "FeeUpdated",
					"type": "event"
				},
				{
					"anonymous": false,
					"inputs": [
						{
							"indexed": true,
							"internalType": "address",
							"name": "governor",
							"type": "address"
						}
					],
					"name": "GovernorAdded",
					"type": "event"
				},
				{
					"anonymous": false,
					"inputs": [
						{
							"indexed": true,
							"internalType": "address",
							"name": "governor",
							"type": "address"
						}
					],
					"name": "GovernorRemoved",
					"type": "event"
				},
				{
					"anonymous": false,
					"inputs": [
						{
							"indexed": true,
							"internalType": "address",
							"name": "provider",
							"type": "address"
						},
						{
							"indexed": false,
							"internalType": "uint256",
							"name": "amountX",
							"type": "uint256"
						},
						{
							"indexed": false,
							"internalType": "uint256",
							"name": "amountY",
							"type": "uint256"
						},
						{
							"indexed": false,
							"internalType": "uint256",
							"name": "liquidity",
							"type": "uint256"
						}
					],
					"name": "LiquidityAdded",
					"type": "event"
				},
				{
					"anonymous": false,
					"inputs": [
						{
							"indexed": true,
							"internalType": "address",
							"name": "provider",
							"type": "address"
						},
						{
							"indexed": false,
							"internalType": "uint256",
							"name": "amountX",
							"type": "uint256"
						},
						{
							"indexed": false,
							"internalType": "uint256",
							"name": "amountY",
							"type": "uint256"
						},
						{
							"indexed": false,
							"internalType": "uint256",
							"name": "liquidity",
							"type": "uint256"
						}
					],
					"name": "LiquidityRemoved",
					"type": "event"
				},
				{
					"anonymous": false,
					"inputs": [
						{
							"indexed": true,
							"internalType": "address",
							"name": "swapper",
							"type": "address"
						},
						{
							"indexed": false,
							"internalType": "uint256",
							"name": "amountIn",
							"type": "uint256"
						},
						{
							"indexed": false,
							"internalType": "uint256",
							"name": "amountOut",
							"type": "uint256"
						},
						{
							"indexed": false,
							"internalType": "address",
							"name": "tokenIn",
							"type": "address"
						},
						{
							"indexed": false,
							"internalType": "address",
							"name": "tokenOut",
							"type": "address"
						}
					],
					"name": "Swap",
					"type": "event"
				},
				{
					"anonymous": false,
					"inputs": [
						{
							"indexed": true,
							"internalType": "address",
							"name": "from",
							"type": "address"
						},
						{
							"indexed": true,
							"internalType": "address",
							"name": "to",
							"type": "address"
						},
						{
							"indexed": false,
							"internalType": "uint256",
							"name": "value",
							"type": "uint256"
						}
					],
					"name": "Transfer",
					"type": "event"
				},
				{
					"anonymous": false,
					"inputs": [
						{
							"indexed": false,
							"internalType": "uint256",
							"name": "newTwapPriceX",
							"type": "uint256"
						},
						{
							"indexed": false,
							"internalType": "uint256",
							"name": "newTwapPriceY",
							"type": "uint256"
						},
						{
							"indexed": false,
							"internalType": "uint256",
							"name": "timestamp",
							"type": "uint256"
						}
					],
					"name": "TwapUpdated",
					"type": "event"
				},
				{
					"inputs": [],
					"name": "BASIS_POINTS_DIVISOR",
					"outputs": [
						{
							"internalType": "uint256",
							"name": "",
							"type": "uint256"
						}
					],
					"stateMutability": "view",
					"type": "function"
				},
				{
					"inputs": [
						{
							"internalType": "address",
							"name": "_governor",
							"type": "address"
						}
					],
					"name": "addGovernor",
					"outputs": [],
					"stateMutability": "nonpayable",
					"type": "function"
				},
				{
					"inputs": [
						{
							"internalType": "uint256",
							"name": "amountX",
							"type": "uint256"
						},
						{
							"internalType": "uint256",
							"name": "amountY",
							"type": "uint256"
						}
					],
					"name": "addLiquidity",
					"outputs": [
						{
							"internalType": "uint256",
							"name": "liquidity",
							"type": "uint256"
						}
					],
					"stateMutability": "nonpayable",
					"type": "function"
				},
				{
					"inputs": [
						{
							"internalType": "address",
							"name": "owner",
							"type": "address"
						},
						{
							"internalType": "address",
							"name": "spender",
							"type": "address"
						}
					],
					"name": "allowance",
					"outputs": [
						{
							"internalType": "uint256",
							"name": "",
							"type": "uint256"
						}
					],
					"stateMutability": "view",
					"type": "function"
				},
				{
					"inputs": [
						{
							"internalType": "address",
							"name": "spender",
							"type": "address"
						},
						{
							"internalType": "uint256",
							"name": "value",
							"type": "uint256"
						}
					],
					"name": "approve",
					"outputs": [
						{
							"internalType": "bool",
							"name": "",
							"type": "bool"
						}
					],
					"stateMutability": "nonpayable",
					"type": "function"
				},
				{
					"inputs": [
						{
							"internalType": "address",
							"name": "account",
							"type": "address"
						}
					],
					"name": "balanceOf",
					"outputs": [
						{
							"internalType": "uint256",
							"name": "",
							"type": "uint256"
						}
					],
					"stateMutability": "view",
					"type": "function"
				},
				{
					"inputs": [],
					"name": "decimals",
					"outputs": [
						{
							"internalType": "uint8",
							"name": "",
							"type": "uint8"
						}
					],
					"stateMutability": "view",
					"type": "function"
				},
				{
					"inputs": [],
					"name": "feeBasisPoints",
					"outputs": [
						{
							"internalType": "uint256",
							"name": "",
							"type": "uint256"
						}
					],
					"stateMutability": "view",
					"type": "function"
				},
				{
					"inputs": [
						{
							"internalType": "uint256",
							"name": "inputAmount",
							"type": "uint256"
						},
						{
							"internalType": "uint256",
							"name": "inputReserve",
							"type": "uint256"
						},
						{
							"internalType": "uint256",
							"name": "outputReserve",
							"type": "uint256"
						}
					],
					"name": "getAmountOut",
					"outputs": [
						{
							"internalType": "uint256",
							"name": "",
							"type": "uint256"
						}
					],
					"stateMutability": "view",
					"type": "function"
				},
				{
					"inputs": [],
					"name": "getReserves",
					"outputs": [
						{
							"internalType": "uint256",
							"name": "",
							"type": "uint256"
						},
						{
							"internalType": "uint256",
							"name": "",
							"type": "uint256"
						}
					],
					"stateMutability": "view",
					"type": "function"
				},
				{
					"inputs": [
						{
							"internalType": "uint256",
							"name": "",
							"type": "uint256"
						}
					],
					"name": "governorList",
					"outputs": [
						{
							"internalType": "address",
							"name": "",
							"type": "address"
						}
					],
					"stateMutability": "view",
					"type": "function"
				},
				{
					"inputs": [
						{
							"internalType": "address",
							"name": "",
							"type": "address"
						}
					],
					"name": "governors",
					"outputs": [
						{
							"internalType": "bool",
							"name": "",
							"type": "bool"
						}
					],
					"stateMutability": "view",
					"type": "function"
				},
				{
					"inputs": [],
					"name": "lastTwapPriceX",
					"outputs": [
						{
							"internalType": "uint256",
							"name": "",
							"type": "uint256"
						}
					],
					"stateMutability": "view",
					"type": "function"
				},
				{
					"inputs": [],
					"name": "lastTwapPriceY",
					"outputs": [
						{
							"internalType": "uint256",
							"name": "",
							"type": "uint256"
						}
					],
					"stateMutability": "view",
					"type": "function"
				},
				{
					"inputs": [],
					"name": "lastTwapTimestamp",
					"outputs": [
						{
							"internalType": "uint256",
							"name": "",
							"type": "uint256"
						}
					],
					"stateMutability": "view",
					"type": "function"
				},
				{
					"inputs": [],
					"name": "name",
					"outputs": [
						{
							"internalType": "string",
							"name": "",
							"type": "string"
						}
					],
					"stateMutability": "view",
					"type": "function"
				},
				{
					"inputs": [
						{
							"internalType": "address",
							"name": "_governor",
							"type": "address"
						}
					],
					"name": "removeGovernor",
					"outputs": [],
					"stateMutability": "nonpayable",
					"type": "function"
				},
				{
					"inputs": [
						{
							"internalType": "uint256",
							"name": "liquidity",
							"type": "uint256"
						}
					],
					"name": "removeLiquidity",
					"outputs": [
						{
							"internalType": "uint256",
							"name": "amountX",
							"type": "uint256"
						},
						{
							"internalType": "uint256",
							"name": "amountY",
							"type": "uint256"
						}
					],
					"stateMutability": "nonpayable",
					"type": "function"
				},
				{
					"inputs": [
						{
							"internalType": "uint256",
							"name": "_feeBasisPoints",
							"type": "uint256"
						}
					],
					"name": "setFee",
					"outputs": [],
					"stateMutability": "nonpayable",
					"type": "function"
				},
				{
					"inputs": [
						{
							"internalType": "uint256",
							"name": "amountXIn",
							"type": "uint256"
						},
						{
							"internalType": "uint256",
							"name": "minAmountYOut",
							"type": "uint256"
						}
					],
					"name": "swapXForY",
					"outputs": [
						{
							"internalType": "uint256",
							"name": "amountYOut",
							"type": "uint256"
						}
					],
					"stateMutability": "nonpayable",
					"type": "function"
				},
				{
					"inputs": [
						{
							"internalType": "uint256",
							"name": "amountYIn",
							"type": "uint256"
						},
						{
							"internalType": "uint256",
							"name": "minAmountXOut",
							"type": "uint256"
						}
					],
					"name": "swapYForX",
					"outputs": [
						{
							"internalType": "uint256",
							"name": "amountXOut",
							"type": "uint256"
						}
					],
					"stateMutability": "nonpayable",
					"type": "function"
				},
				{
					"inputs": [],
					"name": "symbol",
					"outputs": [
						{
							"internalType": "string",
							"name": "",
							"type": "string"
						}
					],
					"stateMutability": "view",
					"type": "function"
				},
				{
					"inputs": [],
					"name": "tokenX",
					"outputs": [
						{
							"internalType": "contract IERC20",
							"name": "",
							"type": "address"
						}
					],
					"stateMutability": "view",
					"type": "function"
				},
				{
					"inputs": [],
					"name": "tokenY",
					"outputs": [
						{
							"internalType": "contract IERC20",
							"name": "",
							"type": "address"
						}
					],
					"stateMutability": "view",
					"type": "function"
				},
				{
					"inputs": [],
					"name": "totalSupply",
					"outputs": [
						{
							"internalType": "uint256",
							"name": "",
							"type": "uint256"
						}
					],
					"stateMutability": "view",
					"type": "function"
				},
				{
					"inputs": [
						{
							"internalType": "address",
							"name": "to",
							"type": "address"
						},
						{
							"internalType": "uint256",
							"name": "value",
							"type": "uint256"
						}
					],
					"name": "transfer",
					"outputs": [
						{
							"internalType": "bool",
							"name": "",
							"type": "bool"
						}
					],
					"stateMutability": "nonpayable",
					"type": "function"
				},
				{
					"inputs": [
						{
							"internalType": "address",
							"name": "from",
							"type": "address"
						},
						{
							"internalType": "address",
							"name": "to",
							"type": "address"
						},
						{
							"internalType": "uint256",
							"name": "value",
							"type": "uint256"
						}
					],
					"name": "transferFrom",
					"outputs": [
						{
							"internalType": "bool",
							"name": "",
							"type": "bool"
						}
					],
					"stateMutability": "nonpayable",
					"type": "function"
				},
				{
					"inputs": [],
					"name": "twapInterval",
					"outputs": [
						{
							"internalType": "uint256",
							"name": "",
							"type": "uint256"
						}
					],
					"stateMutability": "view",
					"type": "function"
				}
			],
			"devdoc": {
				"details": "This contract implements a basic Automated Market Maker (AMM) using the constant product formula x * y = k. It supports adding/removing liquidity and swapping between two ERC20 tokens.",
				"errors": {
					"AddressEmptyCode(address)": [
						{
							"details": "There's no code at `target` (it is not a contract)."
						}
					],
					"AddressInsufficientBalance(address)": [
						{
							"details": "The ETH balance of the account is not enough to perform the operation."
						}
					],
					"ERC20InsufficientAllowance(address,uint256,uint256)": [
						{
							"details": "Indicates a failure with the `spender`’s `allowance`. Used in transfers.",
							"params": {
								"allowance": "Amount of tokens a `spender` is allowed to operate with.",
								"needed": "Minimum amount required to perform a transfer.",
								"spender": "Address that may be allowed to operate on tokens without being their owner."
							}
						}
					],
					"ERC20InsufficientBalance(address,uint256,uint256)": [
						{
							"details": "Indicates an error related to the current `balance` of a `sender`. Used in transfers.",
							"params": {
								"balance": "Current balance for the interacting account.",
								"needed": "Minimum amount required to perform a transfer.",
								"sender": "Address whose tokens are being transferred."
							}
						}
					],
					"ERC20InvalidApprover(address)": [
						{
							"details": "Indicates a failure with the `approver` of a token to be approved. Used in approvals.",
							"params": {
								"approver": "Address initiating an approval operation."
							}
						}
					],
					"ERC20InvalidReceiver(address)": [
						{
							"details": "Indicates a failure with the token `receiver`. Used in transfers.",
							"params": {
								"receiver": "Address to which tokens are being transferred."
							}
						}
					],
					"ERC20InvalidSender(address)": [
						{
							"details": "Indicates a failure with the token `sender`. Used in transfers.",
							"params": {
								"sender": "Address whose tokens are being transferred."
							}
						}
					],
					"ERC20InvalidSpender(address)": [
						{
							"details": "Indicates a failure with the `spender` to be approved. Used in approvals.",
							"params": {
								"spender": "Address that may be allowed to operate on tokens without being their owner."
							}
						}
					],
					"FailedInnerCall()": [
						{
							"details": "A call to an address target failed. The target may have reverted."
						}
					],
					"SafeERC20FailedOperation(address)": [
						{
							"details": "An operation with an ERC20 token failed."
						}
					]
				},
				"events": {
					"Approval(address,address,uint256)": {
						"details": "Emitted when the allowance of a `spender` for an `owner` is set by a call to {approve}. `value` is the new allowance."
					},
					"Transfer(address,address,uint256)": {
						"details": "Emitted when `value` tokens are moved from one account (`from`) to another (`to`). Note that `value` may be zero."
					}
				},
				"kind": "dev",
				"methods": {
					"addGovernor(address)": {
						"params": {
							"_governor": "The address of the new governor."
						}
					},
					"addLiquidity(uint256,uint256)": {
						"details": "The liquidity provider must approve the tokens to be transferred before calling this function.",
						"params": {
							"amountX": "The amount of Token X to add.",
							"amountY": "The amount of Token Y to add."
						},
						"returns": {
							"liquidity": "The amount of liquidity tokens minted."
						}
					},
					"allowance(address,address)": {
						"details": "See {IERC20-allowance}."
					},
					"approve(address,uint256)": {
						"details": "See {IERC20-approve}. NOTE: If `value` is the maximum `uint256`, the allowance is not updated on `transferFrom`. This is semantically equivalent to an infinite approval. Requirements: - `spender` cannot be the zero address."
					},
					"balanceOf(address)": {
						"details": "See {IERC20-balanceOf}."
					},
					"constructor": {
						"details": "Initializes the contract with two ERC20 tokens.",
						"params": {
							"_tokenX": "Address of the first token (Token X).",
							"_tokenY": "Address of the second token (Token Y)."
						}
					},
					"decimals()": {
						"details": "Returns the number of decimals used to get its user representation. For example, if `decimals` equals `2`, a balance of `505` tokens should be displayed to a user as `5.05` (`505 / 10 ** 2`). Tokens usually opt for a value of 18, imitating the relationship between Ether and Wei. This is the default value returned by this function, unless it's overridden. NOTE: This information is only used for _display_ purposes: it in no way affects any of the arithmetic of the contract, including {IERC20-balanceOf} and {IERC20-transfer}."
					},
					"getAmountOut(uint256,uint256,uint256)": {
						"params": {
							"inputAmount": "The amount of input tokens.",
							"inputReserve": "The reserve of input tokens.",
							"outputReserve": "The reserve of output tokens."
						},
						"returns": {
							"_0": "The amount of output tokens."
						}
					},
					"getReserves()": {
						"returns": {
							"_0": "reserveX The reserve of Token X.",
							"_1": "reserveY The reserve of Token Y."
						}
					},
					"name()": {
						"details": "Returns the name of the token."
					},
					"removeGovernor(address)": {
						"params": {
							"_governor": "The address of the governor to remove."
						}
					},
					"removeLiquidity(uint256)": {
						"details": "The liquidity provider receives the proportionate share of the reserves.",
						"params": {
							"liquidity": "The amount of liquidity tokens to remove."
						},
						"returns": {
							"amountX": "The amount of Token X returned.",
							"amountY": "The amount of Token Y returned."
						}
					},
					"setFee(uint256)": {
						"params": {
							"_feeBasisPoints": "The new fee in basis points."
						}
					},
					"swapXForY(uint256,uint256)": {
						"params": {
							"amountXIn": "The amount of Token X to swap.",
							"minAmountYOut": "The minimum amount of Token Y to receive."
						},
						"returns": {
							"amountYOut": "The amount of Token Y received."
						}
					},
					"swapYForX(uint256,uint256)": {
						"params": {
							"amountYIn": "The amount of Token Y to swap.",
							"minAmountXOut": "The minimum amount of Token X to receive."
						},
						"returns": {
							"amountXOut": "The amount of Token X received."
						}
					},
					"symbol()": {
						"details": "Returns the symbol of the token, usually a shorter version of the name."
					},
					"totalSupply()": {
						"details": "See {IERC20-totalSupply}."
					},
					"transfer(address,uint256)": {
						"details": "See {IERC20-transfer}. Requirements: - `to` cannot be the zero address. - the caller must have a balance of at least `value`."
					},
					"transferFrom(address,address,uint256)": {
						"details": "See {IERC20-transferFrom}. Emits an {Approval} event indicating the updated allowance. This is not required by the EIP. See the note at the beginning of {ERC20}. NOTE: Does not update the allowance if the current allowance is the maximum `uint256`. Requirements: - `from` and `to` cannot be the zero address. - `from` must have a balance of at least `value`. - the caller must have allowance for ``from``'s tokens of at least `value`."
					}
				},
				"title": "AMM",
				"version": 1
			},
			"evm": {
				"assembly": "    /* \"contracts/AMM.sol\":635:10140  contract AMM is ERC20, ReentrancyGuard {... */\n  mstore(0x40, 0x80)\n    /* \"contracts/AMM.sol\":961:963  30 */\n  0x1e\n    /* \"contracts/AMM.sol\":929:963  uint256 public feeBasisPoints = 30 */\n  0x0a\n  sstore\n    /* \"contracts/AMM.sol\":1235:1242  1 hours */\n  0x0e10\n    /* \"contracts/AMM.sol\":1205:1242  uint256 public twapInterval = 1 hours */\n  0x0d\n  sstore\n    /* \"contracts/AMM.sol\":2247:2483  constructor(address _tokenX, address _tokenY) ERC20(\"AMM Liquidity Token\", \"AMMLT\") {... */\n  callvalue\n  dup1\n  iszero\n  tag_1\n  jumpi\n  0x00\n  dup1\n  revert\ntag_1:\n  pop\n  mload(0x40)\n  sub(codesize, bytecodeSize)\n  dup1\n  bytecodeSize\n  dup4\n  codecopy\n  dup2\n  dup2\n  add\n  0x40\n  mstore\n  dup2\n  add\n  swap1\n  tag_2\n  swap2\n  swap1\n  tag_3\n  jump\t// in\ntag_2:\n    /* \"@openzeppelin/contracts/token/ERC20/ERC20.sol\":1896:2009  constructor(string memory name_, string memory symbol_) {... */\n  mload(0x40)\n  dup1\n  0x40\n  add\n  0x40\n  mstore\n  dup1\n  0x13\n  dup2\n  mstore\n  0x20\n  add\n  0x414d4d204c697175696469747920546f6b656e00000000000000000000000000\n  dup2\n  mstore\n  pop\n  mload(0x40)\n  dup1\n  0x40\n  add\n  0x40\n  mstore\n  dup1\n  0x05\n  dup2\n  mstore\n  0x20\n  add\n  0x414d4d4c54000000000000000000000000000000000000000000000000000000\n  dup2\n  mstore\n  pop\n    /* \"@openzeppelin/contracts/token/ERC20/ERC20.sol\":1970:1975  name_ */\n  dup2\n    /* \"@openzeppelin/contracts/token/ERC20/ERC20.sol\":1962:1967  _name */\n  0x03\n    /* \"@openzeppelin/contracts/token/ERC20/ERC20.sol\":1962:1975  _name = name_ */\n  swap1\n  dup2\n  tag_8\n  swap2\n  swap1\n  tag_9\n  jump\t// in\ntag_8:\n  pop\n    /* \"@openzeppelin/contracts/token/ERC20/ERC20.sol\":1995:2002  symbol_ */\n  dup1\n    /* \"@openzeppelin/contracts/token/ERC20/ERC20.sol\":1985:1992  _symbol */\n  0x04\n    /* \"@openzeppelin/contracts/token/ERC20/ERC20.sol\":1985:2002  _symbol = symbol_ */\n  swap1\n  dup2\n  tag_10\n  swap2\n  swap1\n  tag_9\n  jump\t// in\ntag_10:\n  pop\n    /* \"@openzeppelin/contracts/token/ERC20/ERC20.sol\":1896:2009  constructor(string memory name_, string memory symbol_) {... */\n  pop\n  pop\n    /* \"@openzeppelin/contracts/security/ReentrancyGuard.sol\":1716:1717  1 */\n  0x01\n    /* \"@openzeppelin/contracts/security/ReentrancyGuard.sol\":1821:1828  _status */\n  0x05\n    /* \"@openzeppelin/contracts/security/ReentrancyGuard.sol\":1821:1843  _status = _NOT_ENTERED */\n  dup2\n  swap1\n  sstore\n  pop\n    /* \"contracts/AMM.sol\":2357:2364  _tokenX */\n  dup2\n    /* \"contracts/AMM.sol\":2341:2347  tokenX */\n  0x06\n  0x00\n    /* \"contracts/AMM.sol\":2341:2365  tokenX = IERC20(_tokenX) */\n  0x0100\n  exp\n  dup2\n  sload\n  dup2\n  0xffffffffffffffffffffffffffffffffffffffff\n  mul\n  not\n  and\n  swap1\n  dup4\n  0xffffffffffffffffffffffffffffffffffffffff\n  and\n  mul\n  or\n  swap1\n  sstore\n  pop\n    /* \"contracts/AMM.sol\":2391:2398  _tokenY */\n  dup1\n    /* \"contracts/AMM.sol\":2375:2381  tokenY */\n  0x07\n  0x00\n    /* \"contracts/AMM.sol\":2375:2399  tokenY = IERC20(_tokenY) */\n  0x0100\n  exp\n  dup2\n  sload\n  dup2\n  0xffffffffffffffffffffffffffffffffffffffff\n  mul\n  not\n  and\n  swap1\n  dup4\n  0xffffffffffffffffffffffffffffffffffffffff\n  and\n  mul\n  or\n  swap1\n  sstore\n  pop\n    /* \"contracts/AMM.sol\":2433:2437  true */\n  0x01\n    /* \"contracts/AMM.sol\":2409:2418  governors */\n  0x0b\n    /* \"contracts/AMM.sol\":2409:2430  governors[msg.sender] */\n  0x00\n    /* \"contracts/AMM.sol\":2419:2429  msg.sender */\n  caller\n    /* \"contracts/AMM.sol\":2409:2430  governors[msg.sender] */\n  0xffffffffffffffffffffffffffffffffffffffff\n  and\n  0xffffffffffffffffffffffffffffffffffffffff\n  and\n  dup2\n  mstore\n  0x20\n  add\n  swap1\n  dup2\n  mstore\n  0x20\n  add\n  0x00\n  keccak256\n  0x00\n    /* \"contracts/AMM.sol\":2409:2437  governors[msg.sender] = true */\n  0x0100\n  exp\n  dup2\n  sload\n  dup2\n  0xff\n  mul\n  not\n  and\n  swap1\n  dup4\n  iszero\n  iszero\n  mul\n  or\n  swap1\n  sstore\n  pop\n    /* \"contracts/AMM.sol\":2447:2459  governorList */\n  0x0c\n    /* \"contracts/AMM.sol\":2465:2475  msg.sender */\n  caller\n    /* \"contracts/AMM.sol\":2447:2476  governorList.push(msg.sender) */\n  swap1\n  dup1\n  0x01\n  dup2\n  sload\n  add\n  dup1\n  dup3\n  sstore\n  dup1\n  swap2\n  pop\n  pop\n  0x01\n  swap1\n  sub\n  swap1\n  0x00\n  mstore\n  keccak256(0x00, 0x20)\n  add\n  0x00\n  swap1\n  swap2\n  swap1\n  swap2\n  swap1\n  swap2\n  0x0100\n  exp\n  dup2\n  sload\n  dup2\n  0xffffffffffffffffffffffffffffffffffffffff\n  mul\n  not\n  and\n  swap1\n  dup4\n  0xffffffffffffffffffffffffffffffffffffffff\n  and\n  mul\n  or\n  swap1\n  sstore\n  pop\n    /* \"contracts/AMM.sol\":2247:2483  constructor(address _tokenX, address _tokenY) ERC20(\"AMM Liquidity Token\", \"AMMLT\") {... */\n  pop\n  pop\n    /* \"contracts/AMM.sol\":635:10140  contract AMM is ERC20, ReentrancyGuard {... */\n  jump(tag_14)\n    /* \"#utility.yul\":88:205   */\ntag_16:\n    /* \"#utility.yul\":197:198   */\n  0x00\n    /* \"#utility.yul\":194:195   */\n  dup1\n    /* \"#utility.yul\":187:199   */\n  revert\n    /* \"#utility.yul\":334:460   */\ntag_18:\n    /* \"#utility.yul\":371:378   */\n  0x00\n    /* \"#utility.yul\":411:453   */\n  0xffffffffffffffffffffffffffffffffffffffff\n    /* \"#utility.yul\":404:409   */\n  dup3\n    /* \"#utility.yul\":400:454   */\n  and\n    /* \"#utility.yul\":389:454   */\n  swap1\n  pop\n    /* \"#utility.yul\":334:460   */\n  swap2\n  swap1\n  pop\n  jump\t// out\n    /* \"#utility.yul\":466:562   */\ntag_19:\n    /* \"#utility.yul\":503:510   */\n  0x00\n    /* \"#utility.yul\":532:556   */\n  tag_48\n    /* \"#utility.yul\":550:555   */\n  dup3\n    /* \"#utility.yul\":532:556   */\n  tag_18\n  jump\t// in\ntag_48:\n    /* \"#utility.yul\":521:556   */\n  swap1\n  pop\n    /* \"#utility.yul\":466:562   */\n  swap2\n  swap1\n  pop\n  jump\t// out\n    /* \"#utility.yul\":568:690   */\ntag_20:\n    /* \"#utility.yul\":641:665   */\n  tag_50\n    /* \"#utility.yul\":659:664   */\n  dup2\n    /* \"#utility.yul\":641:665   */\n  tag_19\n  jump\t// in\ntag_50:\n    /* \"#utility.yul\":634:639   */\n  dup2\n    /* \"#utility.yul\":631:666   */\n  eq\n    /* \"#utility.yul\":621:684   */\n  tag_51\n  jumpi\n    /* \"#utility.yul\":680:681   */\n  0x00\n    /* \"#utility.yul\":677:678   */\n  dup1\n    /* \"#utility.yul\":670:682   */\n  revert\n    /* \"#utility.yul\":621:684   */\ntag_51:\n    /* \"#utility.yul\":568:690   */\n  pop\n  jump\t// out\n    /* \"#utility.yul\":696:839   */\ntag_21:\n    /* \"#utility.yul\":753:758   */\n  0x00\n    /* \"#utility.yul\":784:790   */\n  dup2\n    /* \"#utility.yul\":778:791   */\n  mload\n    /* \"#utility.yul\":769:791   */\n  swap1\n  pop\n    /* \"#utility.yul\":800:833   */\n  tag_53\n    /* \"#utility.yul\":827:832   */\n  dup2\n    /* \"#utility.yul\":800:833   */\n  tag_20\n  jump\t// in\ntag_53:\n    /* \"#utility.yul\":696:839   */\n  swap3\n  swap2\n  pop\n  pop\n  jump\t// out\n    /* \"#utility.yul\":845:1352   */\ntag_3:\n    /* \"#utility.yul\":924:930   */\n  0x00\n    /* \"#utility.yul\":932:938   */\n  dup1\n    /* \"#utility.yul\":981:983   */\n  0x40\n    /* \"#utility.yul\":969:978   */\n  dup4\n    /* \"#utility.yul\":960:967   */\n  dup6\n    /* \"#utility.yul\":956:979   */\n  sub\n    /* \"#utility.yul\":952:984   */\n  slt\n    /* \"#utility.yul\":949:1068   */\n  iszero\n  tag_55\n  jumpi\n    /* \"#utility.yul\":987:1066   */\n  tag_56\n  tag_16\n  jump\t// in\ntag_56:\n    /* \"#utility.yul\":949:1068   */\ntag_55:\n    /* \"#utility.yul\":1107:1108   */\n  0x00\n    /* \"#utility.yul\":1132:1196   */\n  tag_57\n    /* \"#utility.yul\":1188:1195   */\n  dup6\n    /* \"#utility.yul\":1179:1185   */\n  dup3\n    /* \"#utility.yul\":1168:1177   */\n  dup7\n    /* \"#utility.yul\":1164:1186   */\n  add\n    /* \"#utility.yul\":1132:1196   */\n  tag_21\n  jump\t// in\ntag_57:\n    /* \"#utility.yul\":1122:1196   */\n  swap3\n  pop\n    /* \"#utility.yul\":1078:1206   */\n  pop\n    /* \"#utility.yul\":1245:1247   */\n  0x20\n    /* \"#utility.yul\":1271:1335   */\n  tag_58\n    /* \"#utility.yul\":1327:1334   */\n  dup6\n    /* \"#utility.yul\":1318:1324   */\n  dup3\n    /* \"#utility.yul\":1307:1316   */\n  dup7\n    /* \"#utility.yul\":1303:1325   */\n  add\n    /* \"#utility.yul\":1271:1335   */\n  tag_21\n  jump\t// in\ntag_58:\n    /* \"#utility.yul\":1261:1335   */\n  swap2\n  pop\n    /* \"#utility.yul\":1216:1345   */\n  pop\n    /* \"#utility.yul\":845:1352   */\n  swap3\n  pop\n  swap3\n  swap1\n  pop\n  jump\t// out\n    /* \"#utility.yul\":1358:1457   */\ntag_22:\n    /* \"#utility.yul\":1410:1416   */\n  0x00\n    /* \"#utility.yul\":1444:1449   */\n  dup2\n    /* \"#utility.yul\":1438:1450   */\n  mload\n    /* \"#utility.yul\":1428:1450   */\n  swap1\n  pop\n    /* \"#utility.yul\":1358:1457   */\n  swap2\n  swap1\n  pop\n  jump\t// out\n    /* \"#utility.yul\":1463:1643   */\ntag_23:\n    /* \"#utility.yul\":1511:1588   */\n  0x4e487b7100000000000000000000000000000000000000000000000000000000\n    /* \"#utility.yul\":1508:1509   */\n  0x00\n    /* \"#utility.yul\":1501:1589   */\n  mstore\n    /* \"#utility.yul\":1608:1612   */\n  0x41\n    /* \"#utility.yul\":1605:1606   */\n  0x04\n    /* \"#utility.yul\":1598:1613   */\n  mstore\n    /* \"#utility.yul\":1632:1636   */\n  0x24\n    /* \"#utility.yul\":1629:1630   */\n  0x00\n    /* \"#utility.yul\":1622:1637   */\n  revert\n    /* \"#utility.yul\":1649:1829   */\ntag_24:\n    /* \"#utility.yul\":1697:1774   */\n  0x4e487b7100000000000000000000000000000000000000000000000000000000\n    /* \"#utility.yul\":1694:1695   */\n  0x00\n    /* \"#utility.yul\":1687:1775   */\n  mstore\n    /* \"#utility.yul\":1794:1798   */\n  0x22\n    /* \"#utility.yul\":1791:1792   */\n  0x04\n    /* \"#utility.yul\":1784:1799   */\n  mstore\n    /* \"#utility.yul\":1818:1822   */\n  0x24\n    /* \"#utility.yul\":1815:1816   */\n  0x00\n    /* \"#utility.yul\":1808:1823   */\n  revert\n    /* \"#utility.yul\":1835:2155   */\ntag_25:\n    /* \"#utility.yul\":1879:1885   */\n  0x00\n    /* \"#utility.yul\":1916:1917   */\n  0x02\n    /* \"#utility.yul\":1910:1914   */\n  dup3\n    /* \"#utility.yul\":1906:1918   */\n  div\n    /* \"#utility.yul\":1896:1918   */\n  swap1\n  pop\n    /* \"#utility.yul\":1963:1964   */\n  0x01\n    /* \"#utility.yul\":1957:1961   */\n  dup3\n    /* \"#utility.yul\":1953:1965   */\n  and\n    /* \"#utility.yul\":1984:2002   */\n  dup1\n    /* \"#utility.yul\":1974:2055   */\n  tag_63\n  jumpi\n    /* \"#utility.yul\":2040:2044   */\n  0x7f\n    /* \"#utility.yul\":2032:2038   */\n  dup3\n    /* \"#utility.yul\":2028:2045   */\n  and\n    /* \"#utility.yul\":2018:2045   */\n  swap2\n  pop\n    /* \"#utility.yul\":1974:2055   */\ntag_63:\n    /* \"#utility.yul\":2102:2104   */\n  0x20\n    /* \"#utility.yul\":2094:2100   */\n  dup3\n    /* \"#utility.yul\":2091:2105   */\n  lt\n    /* \"#utility.yul\":2071:2089   */\n  dup2\n    /* \"#utility.yul\":2068:2106   */\n  sub\n    /* \"#utility.yul\":2065:2149   */\n  tag_64\n  jumpi\n    /* \"#utility.yul\":2121:2139   */\n  tag_65\n  tag_24\n  jump\t// in\ntag_65:\n    /* \"#utility.yul\":2065:2149   */\ntag_64:\n    /* \"#utility.yul\":1886:2155   */\n  pop\n    /* \"#utility.yul\":1835:2155   */\n  swap2\n  swap1\n  pop\n  jump\t// out\n    /* \"#utility.yul\":2161:2302   */\ntag_26:\n    /* \"#utility.yul\":2210:2214   */\n  0x00\n    /* \"#utility.yul\":2233:2236   */\n  dup2\n    /* \"#utility.yul\":2225:2236   */\n  swap1\n  pop\n    /* \"#utility.yul\":2256:2259   */\n  dup2\n    /* \"#utility.yul\":2253:2254   */\n  0x00\n    /* \"#utility.yul\":2246:2260   */\n  mstore\n    /* \"#utility.yul\":2290:2294   */\n  0x20\n    /* \"#utility.yul\":2287:2288   */\n  0x00\n    /* \"#utility.yul\":2277:2295   */\n  keccak256\n    /* \"#utility.yul\":2269:2295   */\n  swap1\n  pop\n    /* \"#utility.yul\":2161:2302   */\n  swap2\n  swap1\n  pop\n  jump\t// out\n    /* \"#utility.yul\":2308:2401   */\ntag_27:\n    /* \"#utility.yul\":2345:2351   */\n  0x00\n    /* \"#utility.yul\":2392:2394   */\n  0x20\n    /* \"#utility.yul\":2387:2389   */\n  0x1f\n    /* \"#utility.yul\":2380:2385   */\n  dup4\n    /* \"#utility.yul\":2376:2390   */\n  add\n    /* \"#utility.yul\":2372:2395   */\n  div\n    /* \"#utility.yul\":2362:2395   */\n  swap1\n  pop\n    /* \"#utility.yul\":2308:2401   */\n  swap2\n  swap1\n  pop\n  jump\t// out\n    /* \"#utility.yul\":2407:2514   */\ntag_28:\n    /* \"#utility.yul\":2451:2459   */\n  0x00\n    /* \"#utility.yul\":2501:2506   */\n  dup3\n    /* \"#utility.yul\":2495:2499   */\n  dup3\n    /* \"#utility.yul\":2491:2507   */\n  shl\n    /* \"#utility.yul\":2470:2507   */\n  swap1\n  pop\n    /* \"#utility.yul\":2407:2514   */\n  swap3\n  swap2\n  pop\n  pop\n  jump\t// out\n    /* \"#utility.yul\":2520:2913   */\ntag_29:\n    /* \"#utility.yul\":2589:2595   */\n  0x00\n    /* \"#utility.yul\":2639:2640   */\n  0x08\n    /* \"#utility.yul\":2627:2637   */\n  dup4\n    /* \"#utility.yul\":2623:2641   */\n  mul\n    /* \"#utility.yul\":2662:2759   */\n  tag_70\n    /* \"#utility.yul\":2692:2758   */\n  0xffffffffffffffffffffffffffffffffffffffffffffffffffffffffffffffff\n    /* \"#utility.yul\":2681:2690   */\n  dup3\n    /* \"#utility.yul\":2662:2759   */\n  tag_28\n  jump\t// in\ntag_70:\n    /* \"#utility.yul\":2780:2819   */\n  tag_71\n    /* \"#utility.yul\":2810:2818   */\n  dup7\n    /* \"#utility.yul\":2799:2808   */\n  dup4\n    /* \"#utility.yul\":2780:2819   */\n  tag_28\n  jump\t// in\ntag_71:\n    /* \"#utility.yul\":2768:2819   */\n  swap6\n  pop\n    /* \"#utility.yul\":2852:2856   */\n  dup1\n    /* \"#utility.yul\":2848:2857   */\n  not\n    /* \"#utility.yul\":2841:2846   */\n  dup5\n    /* \"#utility.yul\":2837:2858   */\n  and\n    /* \"#utility.yul\":2828:2858   */\n  swap4\n  pop\n    /* \"#utility.yul\":2901:2905   */\n  dup1\n    /* \"#utility.yul\":2891:2899   */\n  dup7\n    /* \"#utility.yul\":2887:2906   */\n  and\n    /* \"#utility.yul\":2880:2885   */\n  dup5\n    /* \"#utility.yul\":2877:2907   */\n  or\n    /* \"#utility.yul\":2867:2907   */\n  swap3\n  pop\n    /* \"#utility.yul\":2596:2913   */\n  pop\n  pop\n    /* \"#utility.yul\":2520:2913   */\n  swap4\n  swap3\n  pop\n  pop\n  pop\n  jump\t// out\n    /* \"#utility.yul\":2919:2996   */\ntag_30:\n    /* \"#utility.yul\":2956:2963   */\n  0x00\n    /* \"#utility.yul\":2985:2990   */\n  dup2\n    /* \"#utility.yul\":2974:2990   */\n  swap1\n  pop\n    /* \"#utility.yul\":2919:2996   */\n  swap2\n  swap1\n  pop\n  jump\t// out\n    /* \"#utility.yul\":3002:3062   */\ntag_31:\n    /* \"#utility.yul\":3030:3033   */\n  0x00\n    /* \"#utility.yul\":3051:3056   */\n  dup2\n    /* \"#utility.yul\":3044:3056   */\n  swap1\n  pop\n    /* \"#utility.yul\":3002:3062   */\n  swap2\n  swap1\n  pop\n  jump\t// out\n    /* \"#utility.yul\":3068:3210   */\ntag_32:\n    /* \"#utility.yul\":3118:3127   */\n  0x00\n    /* \"#utility.yul\":3151:3204   */\n  tag_75\n    /* \"#utility.yul\":3169:3203   */\n  tag_76\n    /* \"#utility.yul\":3178:3202   */\n  tag_77\n    /* \"#utility.yul\":3196:3201   */\n  dup5\n    /* \"#utility.yul\":3178:3202   */\n  tag_30\n  jump\t// in\ntag_77:\n    /* \"#utility.yul\":3169:3203   */\n  tag_31\n  jump\t// in\ntag_76:\n    /* \"#utility.yul\":3151:3204   */\n  tag_30\n  jump\t// in\ntag_75:\n    /* \"#utility.yul\":3138:3204   */\n  swap1\n  pop\n    /* \"#utility.yul\":3068:3210   */\n  swap2\n  swap1\n  pop\n  jump\t// out\n    /* \"#utility.yul\":3216:3291   */\ntag_33:\n    /* \"#utility.yul\":3259:3262   */\n  0x00\n    /* \"#utility.yul\":3280:3285   */\n  dup2\n    /* \"#utility.yul\":3273:3285   */\n  swap1\n  pop\n    /* \"#utility.yul\":3216:3291   */\n  swap2\n  swap1\n  pop\n  jump\t// out\n    /* \"#utility.yul\":3297:3566   */\ntag_34:\n    /* \"#utility.yul\":3407:3446   */\n  tag_80\n    /* \"#utility.yul\":3438:3445   */\n  dup4\n    /* \"#utility.yul\":3407:3446   */\n  tag_32\n  jump\t// in\ntag_80:\n    /* \"#utility.yul\":3468:3559   */\n  tag_81\n    /* \"#utility.yul\":3517:3558   */\n  tag_82\n    /* \"#utility.yul\":3541:3557   */\n  dup3\n    /* \"#utility.yul\":3517:3558   */\n  tag_33\n  jump\t// in\ntag_82:\n    /* \"#utility.yul\":3509:3515   */\n  dup5\n    /* \"#utility.yul\":3502:3506   */\n  dup5\n    /* \"#utility.yul\":3496:3507   */\n  sload\n    /* \"#utility.yul\":3468:3559   */\n  tag_29\n  jump\t// in\ntag_81:\n    /* \"#utility.yul\":3462:3466   */\n  dup3\n    /* \"#utility.yul\":3455:3560   */\n  sstore\n    /* \"#utility.yul\":3373:3566   */\n  pop\n    /* \"#utility.yul\":3297:3566   */\n  pop\n  pop\n  pop\n  jump\t// out\n    /* \"#utility.yul\":3572:3645   */\ntag_35:\n    /* \"#utility.yul\":3617:3620   */\n  0x00\n    /* \"#utility.yul\":3572:3645   */\n  swap1\n  jump\t// out\n    /* \"#utility.yul\":3651:3840   */\ntag_36:\n    /* \"#utility.yul\":3728:3760   */\n  tag_85\n  tag_35\n  jump\t// in\ntag_85:\n    /* \"#utility.yul\":3769:3834   */\n  tag_86\n    /* \"#utility.yul\":3827:3833   */\n  dup2\n    /* \"#utility.yul\":3819:3825   */\n  dup5\n    /* \"#utility.yul\":3813:3817   */\n  dup5\n    /* \"#utility.yul\":3769:3834   */\n  tag_34\n  jump\t// in\ntag_86:\n    /* \"#utility.yul\":3704:3840   */\n  pop\n    /* \"#utility.yul\":3651:3840   */\n  pop\n  pop\n  jump\t// out\n    /* \"#utility.yul\":3846:4032   */\ntag_37:\n    /* \"#utility.yul\":3906:4026   */\ntag_88:\n    /* \"#utility.yul\":3923:3926   */\n  dup2\n    /* \"#utility.yul\":3916:3921   */\n  dup2\n    /* \"#utility.yul\":3913:3927   */\n  lt\n    /* \"#utility.yul\":3906:4026   */\n  iszero\n  tag_90\n  jumpi\n    /* \"#utility.yul\":3977:4016   */\n  tag_91\n    /* \"#utility.yul\":4014:4015   */\n  0x00\n    /* \"#utility.yul\":4007:4012   */\n  dup3\n    /* \"#utility.yul\":3977:4016   */\n  tag_36\n  jump\t// in\ntag_91:\n    /* \"#utility.yul\":3950:3951   */\n  0x01\n    /* \"#utility.yul\":3943:3948   */\n  dup2\n    /* \"#utility.yul\":3939:3952   */\n  add\n    /* \"#utility.yul\":3930:3952   */\n  swap1\n  pop\n    /* \"#utility.yul\":3906:4026   */\n  jump(tag_88)\ntag_90:\n    /* \"#utility.yul\":3846:4032   */\n  pop\n  pop\n  jump\t// out\n    /* \"#utility.yul\":4038:4581   */\ntag_38:\n    /* \"#utility.yul\":4139:4141   */\n  0x1f\n    /* \"#utility.yul\":4134:4137   */\n  dup3\n    /* \"#utility.yul\":4131:4142   */\n  gt\n    /* \"#utility.yul\":4128:4574   */\n  iszero\n  tag_93\n  jumpi\n    /* \"#utility.yul\":4173:4211   */\n  tag_94\n    /* \"#utility.yul\":4205:4210   */\n  dup2\n    /* \"#utility.yul\":4173:4211   */\n  tag_26\n  jump\t// in\ntag_94:\n    /* \"#utility.yul\":4257:4286   */\n  tag_95\n    /* \"#utility.yul\":4275:4285   */\n  dup5\n    /* \"#utility.yul\":4257:4286   */\n  tag_27\n  jump\t// in\ntag_95:\n    /* \"#utility.yul\":4247:4255   */\n  dup2\n    /* \"#utility.yul\":4243:4287   */\n  add\n    /* \"#utility.yul\":4440:4442   */\n  0x20\n    /* \"#utility.yul\":4428:4438   */\n  dup6\n    /* \"#utility.yul\":4425:4443   */\n  lt\n    /* \"#utility.yul\":4422:4471   */\n  iszero\n  tag_96\n  jumpi\n    /* \"#utility.yul\":4461:4469   */\n  dup2\n    /* \"#utility.yul\":4446:4469   */\n  swap1\n  pop\n    /* \"#utility.yul\":4422:4471   */\ntag_96:\n    /* \"#utility.yul\":4484:4564   */\n  tag_97\n    /* \"#utility.yul\":4540:4562   */\n  tag_98\n    /* \"#utility.yul\":4558:4561   */\n  dup6\n    /* \"#utility.yul\":4540:4562   */\n  tag_27\n  jump\t// in\ntag_98:\n    /* \"#utility.yul\":4530:4538   */\n  dup4\n    /* \"#utility.yul\":4526:4563   */\n  add\n    /* \"#utility.yul\":4513:4524   */\n  dup3\n    /* \"#utility.yul\":4484:4564   */\n  tag_37\n  jump\t// in\ntag_97:\n    /* \"#utility.yul\":4143:4574   */\n  pop\n  pop\n    /* \"#utility.yul\":4128:4574   */\ntag_93:\n    /* \"#utility.yul\":4038:4581   */\n  pop\n  pop\n  pop\n  jump\t// out\n    /* \"#utility.yul\":4587:4704   */\ntag_39:\n    /* \"#utility.yul\":4641:4649   */\n  0x00\n    /* \"#utility.yul\":4691:4696   */\n  dup3\n    /* \"#utility.yul\":4685:4689   */\n  dup3\n    /* \"#utility.yul\":4681:4697   */\n  shr\n    /* \"#utility.yul\":4660:4697   */\n  swap1\n  pop\n    /* \"#utility.yul\":4587:4704   */\n  swap3\n  swap2\n  pop\n  pop\n  jump\t// out\n    /* \"#utility.yul\":4710:4879   */\ntag_40:\n    /* \"#utility.yul\":4754:4760   */\n  0x00\n    /* \"#utility.yul\":4787:4838   */\n  tag_101\n    /* \"#utility.yul\":4835:4836   */\n  0x00\n    /* \"#utility.yul\":4831:4837   */\n  not\n    /* \"#utility.yul\":4823:4828   */\n  dup5\n    /* \"#utility.yul\":4820:4821   */\n  0x08\n    /* \"#utility.yul\":4816:4829   */\n  mul\n    /* \"#utility.yul\":4787:4838   */\n  tag_39\n  jump\t// in\ntag_101:\n    /* \"#utility.yul\":4783:4839   */\n  not\n    /* \"#utility.yul\":4868:4872   */\n  dup1\n    /* \"#utility.yul\":4862:4866   */\n  dup4\n    /* \"#utility.yul\":4858:4873   */\n  and\n    /* \"#utility.yul\":4848:4873   */\n  swap2\n  pop\n    /* \"#utility.yul\":4761:4879   */\n  pop\n    /* \"#utility.yul\":4710:4879   */\n  swap3\n  swap2\n  pop\n  pop\n  jump\t// out\n    /* \"#utility.yul\":4884:5179   */\ntag_41:\n    /* \"#utility.yul\":4960:4964   */\n  0x00\n    /* \"#utility.yul\":5106:5135   */\n  tag_103\n    /* \"#utility.yul\":5131:5134   */\n  dup4\n    /* \"#utility.yul\":5125:5129   */\n  dup4\n    /* \"#utility.yul\":5106:5135   */\n  tag_40\n  jump\t// in\ntag_103:\n    /* \"#utility.yul\":5098:5135   */\n  swap2\n  pop\n    /* \"#utility.yul\":5168:5171   */\n  dup3\n    /* \"#utility.yul\":5165:5166   */\n  0x02\n    /* \"#utility.yul\":5161:5172   */\n  mul\n    /* \"#utility.yul\":5155:5159   */\n  dup3\n    /* \"#utility.yul\":5152:5173   */\n  or\n    /* \"#utility.yul\":5144:5173   */\n  swap1\n  pop\n    /* \"#utility.yul\":4884:5179   */\n  swap3\n  swap2\n  pop\n  pop\n  jump\t// out\n    /* \"#utility.yul\":5184:6579   */\ntag_9:\n    /* \"#utility.yul\":5301:5338   */\n  tag_105\n    /* \"#utility.yul\":5334:5337   */\n  dup3\n    /* \"#utility.yul\":5301:5338   */\n  tag_22\n  jump\t// in\ntag_105:\n    /* \"#utility.yul\":5403:5421   */\n  0xffffffffffffffff\n    /* \"#utility.yul\":5395:5401   */\n  dup2\n    /* \"#utility.yul\":5392:5422   */\n  gt\n    /* \"#utility.yul\":5389:5445   */\n  iszero\n  tag_106\n  jumpi\n    /* \"#utility.yul\":5425:5443   */\n  tag_107\n  tag_23\n  jump\t// in\ntag_107:\n    /* \"#utility.yul\":5389:5445   */\ntag_106:\n    /* \"#utility.yul\":5469:5507   */\n  tag_108\n    /* \"#utility.yul\":5501:5505   */\n  dup3\n    /* \"#utility.yul\":5495:5506   */\n  sload\n    /* \"#utility.yul\":5469:5507   */\n  tag_25\n  jump\t// in\ntag_108:\n    /* \"#utility.yul\":5554:5621   */\n  tag_109\n    /* \"#utility.yul\":5614:5620   */\n  dup3\n    /* \"#utility.yul\":5606:5612   */\n  dup3\n    /* \"#utility.yul\":5600:5604   */\n  dup6\n    /* \"#utility.yul\":5554:5621   */\n  tag_38\n  jump\t// in\ntag_109:\n    /* \"#utility.yul\":5648:5649   */\n  0x00\n    /* \"#utility.yul\":5672:5676   */\n  0x20\n    /* \"#utility.yul\":5659:5676   */\n  swap1\n  pop\n    /* \"#utility.yul\":5704:5706   */\n  0x1f\n    /* \"#utility.yul\":5696:5702   */\n  dup4\n    /* \"#utility.yul\":5693:5707   */\n  gt\n    /* \"#utility.yul\":5721:5722   */\n  0x01\n    /* \"#utility.yul\":5716:6334   */\n  dup2\n  eq\n  tag_111\n  jumpi\n    /* \"#utility.yul\":6378:6379   */\n  0x00\n    /* \"#utility.yul\":6395:6401   */\n  dup5\n    /* \"#utility.yul\":6392:6469   */\n  iszero\n  tag_112\n  jumpi\n    /* \"#utility.yul\":6444:6453   */\n  dup3\n    /* \"#utility.yul\":6439:6442   */\n  dup8\n    /* \"#utility.yul\":6435:6454   */\n  add\n    /* \"#utility.yul\":6429:6455   */\n  mload\n    /* \"#utility.yul\":6420:6455   */\n  swap1\n  pop\n    /* \"#utility.yul\":6392:6469   */\ntag_112:\n    /* \"#utility.yul\":6495:6562   */\n  tag_113\n    /* \"#utility.yul\":6555:6561   */\n  dup6\n    /* \"#utility.yul\":6548:6553   */\n  dup3\n    /* \"#utility.yul\":6495:6562   */\n  tag_41\n  jump\t// in\ntag_113:\n    /* \"#utility.yul\":6489:6493   */\n  dup7\n    /* \"#utility.yul\":6482:6563   */\n  sstore\n    /* \"#utility.yul\":6351:6573   */\n  pop\n    /* \"#utility.yul\":5686:6573   */\n  jump(tag_110)\n    /* \"#utility.yul\":5716:6334   */\ntag_111:\n    /* \"#utility.yul\":5768:5772   */\n  0x1f\n    /* \"#utility.yul\":5764:5773   */\n  not\n    /* \"#utility.yul\":5756:5762   */\n  dup5\n    /* \"#utility.yul\":5752:5774   */\n  and\n    /* \"#utility.yul\":5802:5839   */\n  tag_114\n    /* \"#utility.yul\":5834:5838   */\n  dup7\n    /* \"#utility.yul\":5802:5839   */\n  tag_26\n  jump\t// in\ntag_114:\n    /* \"#utility.yul\":5861:5862   */\n  0x00\n    /* \"#utility.yul\":5875:6083   */\ntag_115:\n    /* \"#utility.yul\":5889:5896   */\n  dup3\n    /* \"#utility.yul\":5886:5887   */\n  dup2\n    /* \"#utility.yul\":5883:5897   */\n  lt\n    /* \"#utility.yul\":5875:6083   */\n  iszero\n  tag_117\n  jumpi\n    /* \"#utility.yul\":5968:5977   */\n  dup5\n    /* \"#utility.yul\":5963:5966   */\n  dup10\n    /* \"#utility.yul\":5959:5978   */\n  add\n    /* \"#utility.yul\":5953:5979   */\n  mload\n    /* \"#utility.yul\":5945:5951   */\n  dup3\n    /* \"#utility.yul\":5938:5980   */\n  sstore\n    /* \"#utility.yul\":6019:6020   */\n  0x01\n    /* \"#utility.yul\":6011:6017   */\n  dup3\n    /* \"#utility.yul\":6007:6021   */\n  add\n    /* \"#utility.yul\":5997:6021   */\n  swap2\n  pop\n    /* \"#utility.yul\":6066:6068   */\n  0x20\n    /* \"#utility.yul\":6055:6064   */\n  dup6\n    /* \"#utility.yul\":6051:6069   */\n  add\n    /* \"#utility.yul\":6038:6069   */\n  swap5\n  pop\n    /* \"#utility.yul\":5912:5916   */\n  0x20\n    /* \"#utility.yul\":5909:5910   */\n  dup2\n    /* \"#utility.yul\":5905:5917   */\n  add\n    /* \"#utility.yul\":5900:5917   */\n  swap1\n  pop\n    /* \"#utility.yul\":5875:6083   */\n  jump(tag_115)\ntag_117:\n    /* \"#utility.yul\":6111:6117   */\n  dup7\n    /* \"#utility.yul\":6102:6109   */\n  dup4\n    /* \"#utility.yul\":6099:6118   */\n  lt\n    /* \"#utility.yul\":6096:6275   */\n  iszero\n  tag_118\n  jumpi\n    /* \"#utility.yul\":6169:6178   */\n  dup5\n    /* \"#utility.yul\":6164:6167   */\n  dup10\n    /* \"#utility.yul\":6160:6179   */\n  add\n    /* \"#utility.yul\":6154:6180   */\n  mload\n    /* \"#utility.yul\":6212:6260   */\n  tag_119\n    /* \"#utility.yul\":6254:6258   */\n  0x1f\n    /* \"#utility.yul\":6246:6252   */\n  dup10\n    /* \"#utility.yul\":6242:6259   */\n  and\n    /* \"#utility.yul\":6231:6240   */\n  dup3\n    /* \"#utility.yul\":6212:6260   */\n  tag_40\n  jump\t// in\ntag_119:\n    /* \"#utility.yul\":6204:6210   */\n  dup4\n    /* \"#utility.yul\":6197:6261   */\n  sstore\n    /* \"#utility.yul\":6119:6275   */\n  pop\n    /* \"#utility.yul\":6096:6275   */\ntag_118:\n    /* \"#utility.yul\":6321:6322   */\n  0x01\n    /* \"#utility.yul\":6317:6318   */\n  0x02\n    /* \"#utility.yul\":6309:6315   */\n  dup9\n    /* \"#utility.yul\":6305:6319   */\n  mul\n    /* \"#utility.yul\":6301:6323   */\n  add\n    /* \"#utility.yul\":6295:6299   */\n  dup9\n    /* \"#utility.yul\":6288:6324   */\n  sstore\n    /* \"#utility.yul\":5723:6334   */\n  pop\n  pop\n  pop\n    /* \"#utility.yul\":5686:6573   */\ntag_110:\n  pop\n    /* \"#utility.yul\":5276:6579   */\n  pop\n  pop\n  pop\n    /* \"#utility.yul\":5184:6579   */\n  pop\n  pop\n  jump\t// out\n    /* \"contracts/AMM.sol\":635:10140  contract AMM is ERC20, ReentrancyGuard {... */\ntag_14:\n  dataSize(sub_0)\n  dup1\n  dataOffset(sub_0)\n  0x00\n  codecopy\n  0x00\n  return\nstop\n\nsub_0: assembly {\n        /* \"contracts/AMM.sol\":635:10140  contract AMM is ERC20, ReentrancyGuard {... */\n      mstore(0x40, 0x80)\n      callvalue\n      dup1\n      iszero\n      tag_1\n      jumpi\n      0x00\n      dup1\n      revert\n    tag_1:\n      pop\n      jumpi(tag_2, lt(calldatasize, 0x04))\n      shr(0xe0, calldataload(0x00))\n      dup1\n      0x58d50f0a\n      gt\n      tag_31\n      jumpi\n      dup1\n      0xa9059cbb\n      gt\n      tag_32\n      jumpi\n      dup1\n      0xc7f8a78d\n      gt\n      tag_33\n      jumpi\n      dup1\n      0xc7f8a78d\n      eq\n      tag_27\n      jumpi\n      dup1\n      0xdd62ed3e\n      eq\n      tag_28\n      jumpi\n      dup1\n      0xe3eece26\n      eq\n      tag_29\n      jumpi\n      dup1\n      0xeecdac88\n      eq\n      tag_30\n      jumpi\n      jump(tag_2)\n    tag_33:\n      dup1\n      0xa9059cbb\n      eq\n      tag_24\n      jumpi\n      dup1\n      0xb7d19fc4\n      eq\n      tag_25\n      jumpi\n      dup1\n      0xb8606eef\n      eq\n      tag_26\n      jumpi\n      jump(tag_2)\n    tag_32:\n      dup1\n      0x95d89b41\n      gt\n      tag_34\n      jumpi\n      dup1\n      0x95d89b41\n      eq\n      tag_20\n      jumpi\n      dup1\n      0x9c8f9f23\n      eq\n      tag_21\n      jumpi\n      dup1\n      0x9cd441da\n      eq\n      tag_22\n      jumpi\n      dup1\n      0x9d6f09c1\n      eq\n      tag_23\n      jumpi\n      jump(tag_2)\n    tag_34:\n      dup1\n      0x58d50f0a\n      eq\n      tag_17\n      jumpi\n      dup1\n      0x69fe0e2d\n      eq\n      tag_18\n      jumpi\n      dup1\n      0x70a08231\n      eq\n      tag_19\n      jumpi\n      jump(tag_2)\n    tag_31:\n      dup1\n      0x16dc165b\n      gt\n      tag_35\n      jumpi\n      dup1\n      0x31018339\n      gt\n      tag_36\n      jumpi\n      dup1\n      0x31018339\n      eq\n      tag_13\n      jumpi\n      dup1\n      0x313ce567\n      eq\n      tag_14\n      jumpi\n      dup1\n      0x3c1d5df0\n      eq\n      tag_15\n      jumpi\n      dup1\n      0x3c4a25d0\n      eq\n      tag_16\n      jumpi\n      jump(tag_2)\n    tag_36:\n      dup1\n      0x16dc165b\n      eq\n      tag_10\n      jumpi\n      dup1\n      0x18160ddd\n      eq\n      tag_11\n      jumpi\n      dup1\n      0x23b872dd\n      eq\n      tag_12\n      jumpi\n      jump(tag_2)\n    tag_35:\n      dup1\n      0x0902f1ac\n      gt\n      tag_37\n      jumpi\n      dup1\n      0x0902f1ac\n      eq\n      tag_6\n      jumpi\n      dup1\n      0x095ea7b3\n      eq\n      tag_7\n      jumpi\n      dup1\n      0x10f669b3\n      eq\n      tag_8\n      jumpi\n      dup1\n      0x126082cf\n      eq\n      tag_9\n      jumpi\n      jump(tag_2)\n    tag_37:\n      dup1\n      0x02aac7b2\n      eq\n      tag_3\n      jumpi\n      dup1\n      0x054d50d4\n      eq\n      tag_4\n      jumpi\n      dup1\n      0x06fdde03\n      eq\n      tag_5\n      jumpi\n    tag_2:\n      0x00\n      dup1\n      revert\n        /* \"contracts/AMM.sol\":1116:1145  address[] public governorList */\n    tag_3:\n      tag_38\n      0x04\n      dup1\n      calldatasize\n      sub\n      dup2\n      add\n      swap1\n      tag_39\n      swap2\n      swap1\n      tag_40\n      jump\t// in\n    tag_39:\n      tag_41\n      jump\t// in\n    tag_38:\n      mload(0x40)\n      tag_42\n      swap2\n      swap1\n      tag_43\n      jump\t// in\n    tag_42:\n      mload(0x40)\n      dup1\n      swap2\n      sub\n      swap1\n      return\n        /* \"contracts/AMM.sol\":6720:7161  function getAmountOut(... */\n    tag_4:\n      tag_44\n      0x04\n      dup1\n      calldatasize\n      sub\n      dup2\n      add\n      swap1\n      tag_45\n      swap2\n      swap1\n      tag_46\n      jump\t// in\n    tag_45:\n      tag_47\n      jump\t// in\n    tag_44:\n      mload(0x40)\n      tag_48\n      swap2\n      swap1\n      tag_49\n      jump\t// in\n    tag_48:\n      mload(0x40)\n      dup1\n      swap2\n      sub\n      swap1\n      return\n        /* \"@openzeppelin/contracts/token/ERC20/ERC20.sol\":2074:2163  function name() public view virtual returns (string memory) {... */\n    tag_5:\n      tag_50\n      tag_51\n      jump\t// in\n    tag_50:\n      mload(0x40)\n      tag_52\n      swap2\n      swap1\n      tag_53\n      jump\t// in\n    tag_52:\n      mload(0x40)\n      dup1\n      swap2\n      sub\n      swap1\n      return\n        /* \"contracts/AMM.sol\":7339:7447  function getReserves() external view returns (uint256, uint256) {... */\n    tag_6:\n      tag_54\n      tag_55\n      jump\t// in\n    tag_54:\n      mload(0x40)\n      tag_56\n      swap3\n      swap2\n      swap1\n      tag_57\n      jump\t// in\n    tag_56:\n      mload(0x40)\n      dup1\n      swap2\n      sub\n      swap1\n      return\n        /* \"@openzeppelin/contracts/token/ERC20/ERC20.sol\":4293:4479  function approve(address spender, uint256 value) public virtual returns (bool) {... */\n    tag_7:\n      tag_58\n      0x04\n      dup1\n      calldatasize\n      sub\n      dup2\n      add\n      swap1\n      tag_59\n      swap2\n      swap1\n      tag_60\n      jump\t// in\n    tag_59:\n      tag_61\n      jump\t// in\n    tag_58:\n      mload(0x40)\n      tag_62\n      swap2\n      swap1\n      tag_63\n      jump\t// in\n    tag_62:\n      mload(0x40)\n      dup1\n      swap2\n      sub\n      swap1\n      return\n        /* \"contracts/AMM.sol\":1283:1312  uint256 public lastTwapPriceY */\n    tag_8:\n      tag_64\n      tag_65\n      jump\t// in\n    tag_64:\n      mload(0x40)\n      tag_66\n      swap2\n      swap1\n      tag_49\n      jump\t// in\n    tag_66:\n      mload(0x40)\n      dup1\n      swap2\n      sub\n      swap1\n      return\n        /* \"contracts/AMM.sol\":981:1033  uint256 public constant BASIS_POINTS_DIVISOR = 10000 */\n    tag_9:\n      tag_67\n      tag_68\n      jump\t// in\n    tag_67:\n      mload(0x40)\n      tag_69\n      swap2\n      swap1\n      tag_49\n      jump\t// in\n    tag_69:\n      mload(0x40)\n      dup1\n      swap2\n      sub\n      swap1\n      return\n        /* \"contracts/AMM.sol\":747:767  IERC20 public tokenX */\n    tag_10:\n      tag_70\n      tag_71\n      jump\t// in\n    tag_70:\n      mload(0x40)\n      tag_72\n      swap2\n      swap1\n      tag_73\n      jump\t// in\n    tag_72:\n      mload(0x40)\n      dup1\n      swap2\n      sub\n      swap1\n      return\n        /* \"@openzeppelin/contracts/token/ERC20/ERC20.sol\":3144:3241  function totalSupply() public view virtual returns (uint256) {... */\n    tag_11:\n      tag_74\n      tag_75\n      jump\t// in\n    tag_74:\n      mload(0x40)\n      tag_76\n      swap2\n      swap1\n      tag_49\n      jump\t// in\n    tag_76:\n      mload(0x40)\n      dup1\n      swap2\n      sub\n      swap1\n      return\n        /* \"@openzeppelin/contracts/token/ERC20/ERC20.sol\":5039:5283  function transferFrom(address from, address to, uint256 value) public virtual returns (bool) {... */\n    tag_12:\n      tag_77\n      0x04\n      dup1\n      calldatasize\n      sub\n      dup2\n      add\n      swap1\n      tag_78\n      swap2\n      swap1\n      tag_79\n      jump\t// in\n    tag_78:\n      tag_80\n      jump\t// in\n    tag_77:\n      mload(0x40)\n      tag_81\n      swap2\n      swap1\n      tag_63\n      jump\t// in\n    tag_81:\n      mload(0x40)\n      dup1\n      swap2\n      sub\n      swap1\n      return\n        /* \"contracts/AMM.sol\":5753:6381  function swapYForX(uint256 amountYIn, uint256 minAmountXOut) external nonReentrant returns (uint256 amountXOut) {... */\n    tag_13:\n      tag_82\n      0x04\n      dup1\n      calldatasize\n      sub\n      dup2\n      add\n      swap1\n      tag_83\n      swap2\n      swap1\n      tag_84\n      jump\t// in\n    tag_83:\n      tag_85\n      jump\t// in\n    tag_82:\n      mload(0x40)\n      tag_86\n      swap2\n      swap1\n      tag_49\n      jump\t// in\n    tag_86:\n      mload(0x40)\n      dup1\n      swap2\n      sub\n      swap1\n      return\n        /* \"@openzeppelin/contracts/token/ERC20/ERC20.sol\":3002:3084  function decimals() public view virtual returns (uint8) {... */\n    tag_14:\n      tag_87\n      tag_88\n      jump\t// in\n    tag_87:\n      mload(0x40)\n      tag_89\n      swap2\n      swap1\n      tag_90\n      jump\t// in\n    tag_89:\n      mload(0x40)\n      dup1\n      swap2\n      sub\n      swap1\n      return\n        /* \"contracts/AMM.sol\":1205:1242  uint256 public twapInterval = 1 hours */\n    tag_15:\n      tag_91\n      tag_92\n      jump\t// in\n    tag_91:\n      mload(0x40)\n      tag_93\n      swap2\n      swap1\n      tag_49\n      jump\t// in\n    tag_93:\n      mload(0x40)\n      dup1\n      swap2\n      sub\n      swap1\n      return\n        /* \"contracts/AMM.sol\":8343:8668  function addGovernor(address _governor) external onlyGovernor {... */\n    tag_16:\n      tag_94\n      0x04\n      dup1\n      calldatasize\n      sub\n      dup2\n      add\n      swap1\n      tag_95\n      swap2\n      swap1\n      tag_96\n      jump\t// in\n    tag_95:\n      tag_97\n      jump\t// in\n    tag_94:\n      stop\n        /* \"contracts/AMM.sol\":1248:1277  uint256 public lastTwapPriceX */\n    tag_17:\n      tag_98\n      tag_99\n      jump\t// in\n    tag_98:\n      mload(0x40)\n      tag_100\n      swap2\n      swap1\n      tag_49\n      jump\t// in\n    tag_100:\n      mload(0x40)\n      dup1\n      swap2\n      sub\n      swap1\n      return\n        /* \"contracts/AMM.sol\":7981:8228  function setFee(uint256 _feeBasisPoints) external onlyGovernor {... */\n    tag_18:\n      tag_101\n      0x04\n      dup1\n      calldatasize\n      sub\n      dup2\n      add\n      swap1\n      tag_102\n      swap2\n      swap1\n      tag_40\n      jump\t// in\n    tag_102:\n      tag_103\n      jump\t// in\n    tag_101:\n      stop\n        /* \"@openzeppelin/contracts/token/ERC20/ERC20.sol\":3299:3415  function balanceOf(address account) public view virtual returns (uint256) {... */\n    tag_19:\n      tag_104\n      0x04\n      dup1\n      calldatasize\n      sub\n      dup2\n      add\n      swap1\n      tag_105\n      swap2\n      swap1\n      tag_96\n      jump\t// in\n    tag_105:\n      tag_106\n      jump\t// in\n    tag_104:\n      mload(0x40)\n      tag_107\n      swap2\n      swap1\n      tag_49\n      jump\t// in\n    tag_107:\n      mload(0x40)\n      dup1\n      swap2\n      sub\n      swap1\n      return\n        /* \"@openzeppelin/contracts/token/ERC20/ERC20.sol\":2276:2369  function symbol() public view virtual returns (string memory) {... */\n    tag_20:\n      tag_108\n      tag_109\n      jump\t// in\n    tag_108:\n      mload(0x40)\n      tag_110\n      swap2\n      swap1\n      tag_53\n      jump\t// in\n    tag_110:\n      mload(0x40)\n      dup1\n      swap2\n      sub\n      swap1\n      return\n        /* \"contracts/AMM.sol\":4019:4631  function removeLiquidity(uint256 liquidity) external nonReentrant returns (uint256 amountX, uint256 amountY) {... */\n    tag_21:\n      tag_111\n      0x04\n      dup1\n      calldatasize\n      sub\n      dup2\n      add\n      swap1\n      tag_112\n      swap2\n      swap1\n      tag_40\n      jump\t// in\n    tag_112:\n      tag_113\n      jump\t// in\n    tag_111:\n      mload(0x40)\n      tag_114\n      swap3\n      swap2\n      swap1\n      tag_57\n      jump\t// in\n    tag_114:\n      mload(0x40)\n      dup1\n      swap2\n      sub\n      swap1\n      return\n        /* \"contracts/AMM.sol\":2823:3688  function addLiquidity(uint256 amountX, uint256 amountY) external nonReentrant returns (uint256 liquidity) {... */\n    tag_22:\n      tag_115\n      0x04\n      dup1\n      calldatasize\n      sub\n      dup2\n      add\n      swap1\n      tag_116\n      swap2\n      swap1\n      tag_84\n      jump\t// in\n    tag_116:\n      tag_117\n      jump\t// in\n    tag_115:\n      mload(0x40)\n      tag_118\n      swap2\n      swap1\n      tag_49\n      jump\t// in\n    tag_118:\n      mload(0x40)\n      dup1\n      swap2\n      sub\n      swap1\n      return\n        /* \"contracts/AMM.sol\":1318:1350  uint256 public lastTwapTimestamp */\n    tag_23:\n      tag_119\n      tag_120\n      jump\t// in\n    tag_119:\n      mload(0x40)\n      tag_121\n      swap2\n      swap1\n      tag_49\n      jump\t// in\n    tag_121:\n      mload(0x40)\n      dup1\n      swap2\n      sub\n      swap1\n      return\n        /* \"@openzeppelin/contracts/token/ERC20/ERC20.sol\":3610:3788  function transfer(address to, uint256 value) public virtual returns (bool) {... */\n    tag_24:\n      tag_122\n      0x04\n      dup1\n      calldatasize\n      sub\n      dup2\n      add\n      swap1\n      tag_123\n      swap2\n      swap1\n      tag_60\n      jump\t// in\n    tag_123:\n      tag_124\n      jump\t// in\n    tag_122:\n      mload(0x40)\n      tag_125\n      swap2\n      swap1\n      tag_63\n      jump\t// in\n    tag_125:\n      mload(0x40)\n      dup1\n      swap2\n      sub\n      swap1\n      return\n        /* \"contracts/AMM.sol\":773:793  IERC20 public tokenY */\n    tag_25:\n      tag_126\n      tag_127\n      jump\t// in\n    tag_126:\n      mload(0x40)\n      tag_128\n      swap2\n      swap1\n      tag_73\n      jump\t// in\n    tag_128:\n      mload(0x40)\n      dup1\n      swap2\n      sub\n      swap1\n      return\n        /* \"contracts/AMM.sol\":929:963  uint256 public feeBasisPoints = 30 */\n    tag_26:\n      tag_129\n      tag_130\n      jump\t// in\n    tag_129:\n      mload(0x40)\n      tag_131\n      swap2\n      swap1\n      tag_49\n      jump\t// in\n    tag_131:\n      mload(0x40)\n      dup1\n      swap2\n      sub\n      swap1\n      return\n        /* \"contracts/AMM.sol\":4878:5506  function swapXForY(uint256 amountXIn, uint256 minAmountYOut) external nonReentrant returns (uint256 amountYOut) {... */\n    tag_27:\n      tag_132\n      0x04\n      dup1\n      calldatasize\n      sub\n      dup2\n      add\n      swap1\n      tag_133\n      swap2\n      swap1\n      tag_84\n      jump\t// in\n    tag_133:\n      tag_134\n      jump\t// in\n    tag_132:\n      mload(0x40)\n      tag_135\n      swap2\n      swap1\n      tag_49\n      jump\t// in\n    tag_135:\n      mload(0x40)\n      dup1\n      swap2\n      sub\n      swap1\n      return\n        /* \"@openzeppelin/contracts/token/ERC20/ERC20.sol\":3846:3986  function allowance(address owner, address spender) public view virtual returns (uint256) {... */\n    tag_28:\n      tag_136\n      0x04\n      dup1\n      calldatasize\n      sub\n      dup2\n      add\n      swap1\n      tag_137\n      swap2\n      swap1\n      tag_138\n      jump\t// in\n    tag_137:\n      tag_139\n      jump\t// in\n    tag_136:\n      mload(0x40)\n      tag_140\n      swap2\n      swap1\n      tag_49\n      jump\t// in\n    tag_140:\n      mload(0x40)\n      dup1\n      swap2\n      sub\n      swap1\n      return\n        /* \"contracts/AMM.sol\":1069:1110  mapping(address => bool) public governors */\n    tag_29:\n      tag_141\n      0x04\n      dup1\n      calldatasize\n      sub\n      dup2\n      add\n      swap1\n      tag_142\n      swap2\n      swap1\n      tag_96\n      jump\t// in\n    tag_142:\n      tag_143\n      jump\t// in\n    tag_141:\n      mload(0x40)\n      tag_144\n      swap2\n      swap1\n      tag_63\n      jump\t// in\n    tag_144:\n      mload(0x40)\n      dup1\n      swap2\n      sub\n      swap1\n      return\n        /* \"contracts/AMM.sol\":8798:9347  function removeGovernor(address _governor) external onlyGovernor {... */\n    tag_30:\n      tag_145\n      0x04\n      dup1\n      calldatasize\n      sub\n      dup2\n      add\n      swap1\n      tag_146\n      swap2\n      swap1\n      tag_96\n      jump\t// in\n    tag_146:\n      tag_147\n      jump\t// in\n    tag_145:\n      stop\n        /* \"contracts/AMM.sol\":1116:1145  address[] public governorList */\n    tag_41:\n      0x0c\n      dup2\n      dup2\n      sload\n      dup2\n      lt\n      tag_148\n      jumpi\n      0x00\n      dup1\n      revert\n    tag_148:\n      swap1\n      0x00\n      mstore\n      keccak256(0x00, 0x20)\n      add\n      0x00\n      swap2\n      pop\n      sload\n      swap1\n      0x0100\n      exp\n      swap1\n      div\n      0xffffffffffffffffffffffffffffffffffffffff\n      and\n      dup2\n      jump\t// out\n        /* \"contracts/AMM.sol\":6720:7161  function getAmountOut(... */\n    tag_47:\n        /* \"contracts/AMM.sol\":6859:6866  uint256 */\n      0x00\n        /* \"contracts/AMM.sol\":6878:6904  uint256 inputAmountWithFee */\n      dup1\n        /* \"contracts/AMM.sol\":6945:6959  feeBasisPoints */\n      sload(0x0a)\n        /* \"contracts/AMM.sol\":1028:1033  10000 */\n      0x2710\n        /* \"contracts/AMM.sol\":6922:6959  BASIS_POINTS_DIVISOR - feeBasisPoints */\n      tag_151\n      swap2\n      swap1\n      tag_152\n      jump\t// in\n    tag_151:\n        /* \"contracts/AMM.sol\":6907:6918  inputAmount */\n      dup6\n        /* \"contracts/AMM.sol\":6907:6960  inputAmount * (BASIS_POINTS_DIVISOR - feeBasisPoints) */\n      tag_153\n      swap2\n      swap1\n      tag_154\n      jump\t// in\n    tag_153:\n        /* \"contracts/AMM.sol\":6878:6960  uint256 inputAmountWithFee = inputAmount * (BASIS_POINTS_DIVISOR - feeBasisPoints) */\n      swap1\n      pop\n        /* \"contracts/AMM.sol\":6970:6987  uint256 numerator */\n      0x00\n        /* \"contracts/AMM.sol\":7011:7024  outputReserve */\n      dup4\n        /* \"contracts/AMM.sol\":6990:7008  inputAmountWithFee */\n      dup3\n        /* \"contracts/AMM.sol\":6990:7024  inputAmountWithFee * outputReserve */\n      tag_155\n      swap2\n      swap1\n      tag_154\n      jump\t// in\n    tag_155:\n        /* \"contracts/AMM.sol\":6970:7024  uint256 numerator = inputAmountWithFee * outputReserve */\n      swap1\n      pop\n        /* \"contracts/AMM.sol\":7034:7053  uint256 denominator */\n      0x00\n        /* \"contracts/AMM.sol\":7096:7114  inputAmountWithFee */\n      dup3\n        /* \"contracts/AMM.sol\":1028:1033  10000 */\n      0x2710\n        /* \"contracts/AMM.sol\":7057:7069  inputReserve */\n      dup8\n        /* \"contracts/AMM.sol\":7057:7092  inputReserve * BASIS_POINTS_DIVISOR */\n      tag_156\n      swap2\n      swap1\n      tag_154\n      jump\t// in\n    tag_156:\n        /* \"contracts/AMM.sol\":7056:7114  (inputReserve * BASIS_POINTS_DIVISOR) + inputAmountWithFee */\n      tag_157\n      swap2\n      swap1\n      tag_158\n      jump\t// in\n    tag_157:\n        /* \"contracts/AMM.sol\":7034:7114  uint256 denominator = (inputReserve * BASIS_POINTS_DIVISOR) + inputAmountWithFee */\n      swap1\n      pop\n        /* \"contracts/AMM.sol\":7143:7154  denominator */\n      dup1\n        /* \"contracts/AMM.sol\":7131:7140  numerator */\n      dup3\n        /* \"contracts/AMM.sol\":7131:7154  numerator / denominator */\n      tag_159\n      swap2\n      swap1\n      tag_160\n      jump\t// in\n    tag_159:\n        /* \"contracts/AMM.sol\":7124:7154  return numerator / denominator */\n      swap4\n      pop\n      pop\n      pop\n      pop\n        /* \"contracts/AMM.sol\":6720:7161  function getAmountOut(... */\n      swap4\n      swap3\n      pop\n      pop\n      pop\n      jump\t// out\n        /* \"@openzeppelin/contracts/token/ERC20/ERC20.sol\":2074:2163  function name() public view virtual returns (string memory) {... */\n    tag_51:\n        /* \"@openzeppelin/contracts/token/ERC20/ERC20.sol\":2119:2132  string memory */\n      0x60\n        /* \"@openzeppelin/contracts/token/ERC20/ERC20.sol\":2151:2156  _name */\n      0x03\n        /* \"@openzeppelin/contracts/token/ERC20/ERC20.sol\":2144:2156  return _name */\n      dup1\n      sload\n      tag_162\n      swap1\n      tag_163\n      jump\t// in\n    tag_162:\n      dup1\n      0x1f\n      add\n      0x20\n      dup1\n      swap2\n      div\n      mul\n      0x20\n      add\n      mload(0x40)\n      swap1\n      dup2\n      add\n      0x40\n      mstore\n      dup1\n      swap3\n      swap2\n      swap1\n      dup2\n      dup2\n      mstore\n      0x20\n      add\n      dup3\n      dup1\n      sload\n      tag_164\n      swap1\n      tag_163\n      jump\t// in\n    tag_164:\n      dup1\n      iszero\n      tag_165\n      jumpi\n      dup1\n      0x1f\n      lt\n      tag_166\n      jumpi\n      0x0100\n      dup1\n      dup4\n      sload\n      div\n      mul\n      dup4\n      mstore\n      swap2\n      0x20\n      add\n      swap2\n      jump(tag_165)\n    tag_166:\n      dup3\n      add\n      swap2\n      swap1\n      0x00\n      mstore\n      keccak256(0x00, 0x20)\n      swap1\n    tag_167:\n      dup2\n      sload\n      dup2\n      mstore\n      swap1\n      0x01\n      add\n      swap1\n      0x20\n      add\n      dup1\n      dup4\n      gt\n      tag_167\n      jumpi\n      dup3\n      swap1\n      sub\n      0x1f\n      and\n      dup3\n      add\n      swap2\n    tag_165:\n      pop\n      pop\n      pop\n      pop\n      pop\n      swap1\n      pop\n        /* \"@openzeppelin/contracts/token/ERC20/ERC20.sol\":2074:2163  function name() public view virtual returns (string memory) {... */\n      swap1\n      jump\t// out\n        /* \"contracts/AMM.sol\":7339:7447  function getReserves() external view returns (uint256, uint256) {... */\n    tag_55:\n        /* \"contracts/AMM.sol\":7385:7392  uint256 */\n      0x00\n        /* \"contracts/AMM.sol\":7394:7401  uint256 */\n      dup1\n        /* \"contracts/AMM.sol\":7421:7429  reserveX */\n      sload(0x08)\n        /* \"contracts/AMM.sol\":7431:7439  reserveY */\n      sload(0x09)\n        /* \"contracts/AMM.sol\":7413:7440  return (reserveX, reserveY) */\n      swap2\n      pop\n      swap2\n      pop\n        /* \"contracts/AMM.sol\":7339:7447  function getReserves() external view returns (uint256, uint256) {... */\n      swap1\n      swap2\n      jump\t// out\n        /* \"@openzeppelin/contracts/token/ERC20/ERC20.sol\":4293:4479  function approve(address spender, uint256 value) public virtual returns (bool) {... */\n    tag_61:\n        /* \"@openzeppelin/contracts/token/ERC20/ERC20.sol\":4366:4370  bool */\n      0x00\n        /* \"@openzeppelin/contracts/token/ERC20/ERC20.sol\":4382:4395  address owner */\n      dup1\n        /* \"@openzeppelin/contracts/token/ERC20/ERC20.sol\":4398:4410  _msgSender() */\n      tag_170\n        /* \"@openzeppelin/contracts/token/ERC20/ERC20.sol\":4398:4408  _msgSender */\n      tag_171\n        /* \"@openzeppelin/contracts/token/ERC20/ERC20.sol\":4398:4410  _msgSender() */\n      jump\t// in\n    tag_170:\n        /* \"@openzeppelin/contracts/token/ERC20/ERC20.sol\":4382:4410  address owner = _msgSender() */\n      swap1\n      pop\n        /* \"@openzeppelin/contracts/token/ERC20/ERC20.sol\":4420:4451  _approve(owner, spender, value) */\n      tag_172\n        /* \"@openzeppelin/contracts/token/ERC20/ERC20.sol\":4429:4434  owner */\n      dup2\n        /* \"@openzeppelin/contracts/token/ERC20/ERC20.sol\":4436:4443  spender */\n      dup6\n        /* \"@openzeppelin/contracts/token/ERC20/ERC20.sol\":4445:4450  value */\n      dup6\n        /* \"@openzeppelin/contracts/token/ERC20/ERC20.sol\":4420:4428  _approve */\n      tag_173\n        /* \"@openzeppelin/contracts/token/ERC20/ERC20.sol\":4420:4451  _approve(owner, spender, value) */\n      jump\t// in\n    tag_172:\n        /* \"@openzeppelin/contracts/token/ERC20/ERC20.sol\":4468:4472  true */\n      0x01\n        /* \"@openzeppelin/contracts/token/ERC20/ERC20.sol\":4461:4472  return true */\n      swap2\n      pop\n      pop\n        /* \"@openzeppelin/contracts/token/ERC20/ERC20.sol\":4293:4479  function approve(address spender, uint256 value) public virtual returns (bool) {... */\n      swap3\n      swap2\n      pop\n      pop\n      jump\t// out\n        /* \"contracts/AMM.sol\":1283:1312  uint256 public lastTwapPriceY */\n    tag_65:\n      sload(0x0f)\n      dup2\n      jump\t// out\n        /* \"contracts/AMM.sol\":981:1033  uint256 public constant BASIS_POINTS_DIVISOR = 10000 */\n    tag_68:\n        /* \"contracts/AMM.sol\":1028:1033  10000 */\n      0x2710\n        /* \"contracts/AMM.sol\":981:1033  uint256 public constant BASIS_POINTS_DIVISOR = 10000 */\n      dup2\n      jump\t// out\n        /* \"contracts/AMM.sol\":747:767  IERC20 public tokenX */\n    tag_71:\n      0x06\n      0x00\n      swap1\n      sload\n      swap1\n      0x0100\n      exp\n      swap1\n      div\n      0xffffffffffffffffffffffffffffffffffffffff\n      and\n      dup2\n      jump\t// out\n        /* \"@openzeppelin/contracts/token/ERC20/ERC20.sol\":3144:3241  function totalSupply() public view virtual returns (uint256) {... */\n    tag_75:\n        /* \"@openzeppelin/contracts/token/ERC20/ERC20.sol\":3196:3203  uint256 */\n      0x00\n        /* \"@openzeppelin/contracts/token/ERC20/ERC20.sol\":3222:3234  _totalSupply */\n      sload(0x02)\n        /* \"@openzeppelin/contracts/token/ERC20/ERC20.sol\":3215:3234  return _totalSupply */\n      swap1\n      pop\n        /* \"@openzeppelin/contracts/token/ERC20/ERC20.sol\":3144:3241  function totalSupply() public view virtual returns (uint256) {... */\n      swap1\n      jump\t// out\n        /* \"@openzeppelin/contracts/token/ERC20/ERC20.sol\":5039:5283  function transferFrom(address from, address to, uint256 value) public virtual returns (bool) {... */\n    tag_80:\n        /* \"@openzeppelin/contracts/token/ERC20/ERC20.sol\":5126:5130  bool */\n      0x00\n        /* \"@openzeppelin/contracts/token/ERC20/ERC20.sol\":5142:5157  address spender */\n      dup1\n        /* \"@openzeppelin/contracts/token/ERC20/ERC20.sol\":5160:5172  _msgSender() */\n      tag_176\n        /* \"@openzeppelin/contracts/token/ERC20/ERC20.sol\":5160:5170  _msgSender */\n      tag_171\n        /* \"@openzeppelin/contracts/token/ERC20/ERC20.sol\":5160:5172  _msgSender() */\n      jump\t// in\n    tag_176:\n        /* \"@openzeppelin/contracts/token/ERC20/ERC20.sol\":5142:5172  address spender = _msgSender() */\n      swap1\n      pop\n        /* \"@openzeppelin/contracts/token/ERC20/ERC20.sol\":5182:5219  _spendAllowance(from, spender, value) */\n      tag_177\n        /* \"@openzeppelin/contracts/token/ERC20/ERC20.sol\":5198:5202  from */\n      dup6\n        /* \"@openzeppelin/contracts/token/ERC20/ERC20.sol\":5204:5211  spender */\n      dup3\n        /* \"@openzeppelin/contracts/token/ERC20/ERC20.sol\":5213:5218  value */\n      dup6\n        /* \"@openzeppelin/contracts/token/ERC20/ERC20.sol\":5182:5197  _spendAllowance */\n      tag_178\n        /* \"@openzeppelin/contracts/token/ERC20/ERC20.sol\":5182:5219  _spendAllowance(from, spender, value) */\n      jump\t// in\n    tag_177:\n        /* \"@openzeppelin/contracts/token/ERC20/ERC20.sol\":5229:5255  _transfer(from, to, value) */\n      tag_179\n        /* \"@openzeppelin/contracts/token/ERC20/ERC20.sol\":5239:5243  from */\n      dup6\n        /* \"@openzeppelin/contracts/token/ERC20/ERC20.sol\":5245:5247  to */\n      dup6\n        /* \"@openzeppelin/contracts/token/ERC20/ERC20.sol\":5249:5254  value */\n      dup6\n        /* \"@openzeppelin/contracts/token/ERC20/ERC20.sol\":5229:5238  _transfer */\n      tag_180\n        /* \"@openzeppelin/contracts/token/ERC20/ERC20.sol\":5229:5255  _transfer(from, to, value) */\n      jump\t// in\n    tag_179:\n        /* \"@openzeppelin/contracts/token/ERC20/ERC20.sol\":5272:5276  true */\n      0x01\n        /* \"@openzeppelin/contracts/token/ERC20/ERC20.sol\":5265:5276  return true */\n      swap2\n      pop\n      pop\n        /* \"@openzeppelin/contracts/token/ERC20/ERC20.sol\":5039:5283  function transferFrom(address from, address to, uint256 value) public virtual returns (bool) {... */\n      swap4\n      swap3\n      pop\n      pop\n      pop\n      jump\t// out\n        /* \"contracts/AMM.sol\":5753:6381  function swapYForX(uint256 amountYIn, uint256 minAmountXOut) external nonReentrant returns (uint256 amountXOut) {... */\n    tag_85:\n        /* \"contracts/AMM.sol\":5845:5863  uint256 amountXOut */\n      0x00\n        /* \"@openzeppelin/contracts/security/ReentrancyGuard.sol\":2261:2282  _nonReentrantBefore() */\n      tag_182\n        /* \"@openzeppelin/contracts/security/ReentrancyGuard.sol\":2261:2280  _nonReentrantBefore */\n      tag_183\n        /* \"@openzeppelin/contracts/security/ReentrancyGuard.sol\":2261:2282  _nonReentrantBefore() */\n      jump\t// in\n    tag_182:\n        /* \"contracts/AMM.sol\":5895:5896  0 */\n      0x00\n        /* \"contracts/AMM.sol\":5883:5892  amountYIn */\n      dup4\n        /* \"contracts/AMM.sol\":5883:5896  amountYIn > 0 */\n      gt\n        /* \"contracts/AMM.sol\":5875:5926  require(amountYIn > 0, \"AMM: Invalid input amount\") */\n      tag_185\n      jumpi\n      mload(0x40)\n      0x08c379a000000000000000000000000000000000000000000000000000000000\n      dup2\n      mstore\n      0x04\n      add\n      tag_186\n      swap1\n      tag_187\n      jump\t// in\n    tag_186:\n      mload(0x40)\n      dup1\n      swap2\n      sub\n      swap1\n      revert\n    tag_185:\n        /* \"contracts/AMM.sol\":5949:5992  getAmountOut(amountYIn, reserveY, reserveX) */\n      tag_188\n        /* \"contracts/AMM.sol\":5962:5971  amountYIn */\n      dup4\n        /* \"contracts/AMM.sol\":5973:5981  reserveY */\n      sload(0x09)\n        /* \"contracts/AMM.sol\":5983:5991  reserveX */\n      sload(0x08)\n        /* \"contracts/AMM.sol\":5949:5961  getAmountOut */\n      tag_47\n        /* \"contracts/AMM.sol\":5949:5992  getAmountOut(amountYIn, reserveY, reserveX) */\n      jump\t// in\n    tag_188:\n        /* \"contracts/AMM.sol\":5936:5992  amountXOut = getAmountOut(amountYIn, reserveY, reserveX) */\n      swap1\n      pop\n        /* \"contracts/AMM.sol\":6024:6037  minAmountXOut */\n      dup2\n        /* \"contracts/AMM.sol\":6010:6020  amountXOut */\n      dup2\n        /* \"contracts/AMM.sol\":6010:6037  amountXOut >= minAmountXOut */\n      lt\n      iszero\n        /* \"contracts/AMM.sol\":6002:6073  require(amountXOut >= minAmountXOut, \"AMM: Insufficient output amount\") */\n      tag_189\n      jumpi\n      mload(0x40)\n      0x08c379a000000000000000000000000000000000000000000000000000000000\n      dup2\n      mstore\n      0x04\n      add\n      tag_190\n      swap1\n      tag_191\n      jump\t// in\n    tag_190:\n      mload(0x40)\n      dup1\n      swap2\n      sub\n      swap1\n      revert\n    tag_189:\n        /* \"contracts/AMM.sol\":6084:6145  tokenY.safeTransferFrom(msg.sender, address(this), amountYIn) */\n      tag_192\n        /* \"contracts/AMM.sol\":6108:6118  msg.sender */\n      caller\n        /* \"contracts/AMM.sol\":6128:6132  this */\n      address\n        /* \"contracts/AMM.sol\":6135:6144  amountYIn */\n      dup6\n        /* \"contracts/AMM.sol\":6084:6090  tokenY */\n      0x07\n      0x00\n      swap1\n      sload\n      swap1\n      0x0100\n      exp\n      swap1\n      div\n      0xffffffffffffffffffffffffffffffffffffffff\n      and\n        /* \"contracts/AMM.sol\":6084:6107  tokenY.safeTransferFrom */\n      0xffffffffffffffffffffffffffffffffffffffff\n      and\n      tag_193\n      swap1\n        /* \"contracts/AMM.sol\":6084:6145  tokenY.safeTransferFrom(msg.sender, address(this), amountYIn) */\n      swap4\n      swap3\n      swap2\n      swap1\n      0xffffffff\n      and\n      jump\t// in\n    tag_192:\n        /* \"contracts/AMM.sol\":6155:6198  tokenX.safeTransfer(msg.sender, amountXOut) */\n      tag_194\n        /* \"contracts/AMM.sol\":6175:6185  msg.sender */\n      caller\n        /* \"contracts/AMM.sol\":6187:6197  amountXOut */\n      dup3\n        /* \"contracts/AMM.sol\":6155:6161  tokenX */\n      0x06\n      0x00\n      swap1\n      sload\n      swap1\n      0x0100\n      exp\n      swap1\n      div\n      0xffffffffffffffffffffffffffffffffffffffff\n      and\n        /* \"contracts/AMM.sol\":6155:6174  tokenX.safeTransfer */\n      0xffffffffffffffffffffffffffffffffffffffff\n      and\n      tag_195\n      swap1\n        /* \"contracts/AMM.sol\":6155:6198  tokenX.safeTransfer(msg.sender, amountXOut) */\n      swap3\n      swap2\n      swap1\n      0xffffffff\n      and\n      jump\t// in\n    tag_194:\n        /* \"contracts/AMM.sol\":6221:6230  amountYIn */\n      dup3\n        /* \"contracts/AMM.sol\":6209:6217  reserveY */\n      0x09\n      0x00\n        /* \"contracts/AMM.sol\":6209:6230  reserveY += amountYIn */\n      dup3\n      dup3\n      sload\n      tag_196\n      swap2\n      swap1\n      tag_158\n      jump\t// in\n    tag_196:\n      swap3\n      pop\n      pop\n      dup2\n      swap1\n      sstore\n      pop\n        /* \"contracts/AMM.sol\":6252:6262  amountXOut */\n      dup1\n        /* \"contracts/AMM.sol\":6240:6248  reserveX */\n      0x08\n      0x00\n        /* \"contracts/AMM.sol\":6240:6262  reserveX -= amountXOut */\n      dup3\n      dup3\n      sload\n      tag_197\n      swap2\n      swap1\n      tag_152\n      jump\t// in\n    tag_197:\n      swap3\n      pop\n      pop\n      dup2\n      swap1\n      sstore\n      pop\n        /* \"contracts/AMM.sol\":6273:6285  updateTwap() */\n      tag_198\n        /* \"contracts/AMM.sol\":6273:6283  updateTwap */\n      tag_199\n        /* \"contracts/AMM.sol\":6273:6285  updateTwap() */\n      jump\t// in\n    tag_198:\n        /* \"contracts/AMM.sol\":6306:6316  msg.sender */\n      caller\n        /* \"contracts/AMM.sol\":6301:6374  Swap(msg.sender, amountYIn, amountXOut, address(tokenY), address(tokenX)) */\n      0xffffffffffffffffffffffffffffffffffffffff\n      and\n      0x053d794b2310b8d186a24ae24a65ee066983a52a6efa6bd3df09a7601a3cb4f3\n        /* \"contracts/AMM.sol\":6318:6327  amountYIn */\n      dup5\n        /* \"contracts/AMM.sol\":6329:6339  amountXOut */\n      dup4\n        /* \"contracts/AMM.sol\":6349:6355  tokenY */\n      0x07\n      0x00\n      swap1\n      sload\n      swap1\n      0x0100\n      exp\n      swap1\n      div\n      0xffffffffffffffffffffffffffffffffffffffff\n      and\n        /* \"contracts/AMM.sol\":6366:6372  tokenX */\n      0x06\n      0x00\n      swap1\n      sload\n      swap1\n      0x0100\n      exp\n      swap1\n      div\n      0xffffffffffffffffffffffffffffffffffffffff\n      and\n        /* \"contracts/AMM.sol\":6301:6374  Swap(msg.sender, amountYIn, amountXOut, address(tokenY), address(tokenX)) */\n      mload(0x40)\n      tag_200\n      swap5\n      swap4\n      swap3\n      swap2\n      swap1\n      tag_201\n      jump\t// in\n    tag_200:\n      mload(0x40)\n      dup1\n      swap2\n      sub\n      swap1\n      log2\n        /* \"@openzeppelin/contracts/security/ReentrancyGuard.sol\":2303:2323  _nonReentrantAfter() */\n      tag_202\n        /* \"@openzeppelin/contracts/security/ReentrancyGuard.sol\":2303:2321  _nonReentrantAfter */\n      tag_203\n        /* \"@openzeppelin/contracts/security/ReentrancyGuard.sol\":2303:2323  _nonReentrantAfter() */\n      jump\t// in\n    tag_202:\n        /* \"contracts/AMM.sol\":5753:6381  function swapYForX(uint256 amountYIn, uint256 minAmountXOut) external nonReentrant returns (uint256 amountXOut) {... */\n      swap3\n      swap2\n      pop\n      pop\n      jump\t// out\n        /* \"@openzeppelin/contracts/token/ERC20/ERC20.sol\":3002:3084  function decimals() public view virtual returns (uint8) {... */\n    tag_88:\n        /* \"@openzeppelin/contracts/token/ERC20/ERC20.sol\":3051:3056  uint8 */\n      0x00\n        /* \"@openzeppelin/contracts/token/ERC20/ERC20.sol\":3075:3077  18 */\n      0x12\n        /* \"@openzeppelin/contracts/token/ERC20/ERC20.sol\":3068:3077  return 18 */\n      swap1\n      pop\n        /* \"@openzeppelin/contracts/token/ERC20/ERC20.sol\":3002:3084  function decimals() public view virtual returns (uint8) {... */\n      swap1\n      jump\t// out\n        /* \"contracts/AMM.sol\":1205:1242  uint256 public twapInterval = 1 hours */\n    tag_92:\n      sload(0x0d)\n      dup2\n      jump\t// out\n        /* \"contracts/AMM.sol\":8343:8668  function addGovernor(address _governor) external onlyGovernor {... */\n    tag_97:\n        /* \"contracts/AMM.sol\":1971:1980  governors */\n      0x0b\n        /* \"contracts/AMM.sol\":1971:1992  governors[msg.sender] */\n      0x00\n        /* \"contracts/AMM.sol\":1981:1991  msg.sender */\n      caller\n        /* \"contracts/AMM.sol\":1971:1992  governors[msg.sender] */\n      0xffffffffffffffffffffffffffffffffffffffff\n      and\n      0xffffffffffffffffffffffffffffffffffffffff\n      and\n      dup2\n      mstore\n      0x20\n      add\n      swap1\n      dup2\n      mstore\n      0x20\n      add\n      0x00\n      keccak256\n      0x00\n      swap1\n      sload\n      swap1\n      0x0100\n      exp\n      swap1\n      div\n      0xff\n      and\n        /* \"contracts/AMM.sol\":1963:2026  require(governors[msg.sender], \"AMM: caller is not a governor\") */\n      tag_206\n      jumpi\n      mload(0x40)\n      0x08c379a000000000000000000000000000000000000000000000000000000000\n      dup2\n      mstore\n      0x04\n      add\n      tag_207\n      swap1\n      tag_208\n      jump\t// in\n    tag_207:\n      mload(0x40)\n      dup1\n      swap2\n      sub\n      swap1\n      revert\n    tag_206:\n        /* \"contracts/AMM.sol\":8444:8445  0 */\n      0x00\n        /* \"contracts/AMM.sol\":8423:8446  _governor != address(0) */\n      0xffffffffffffffffffffffffffffffffffffffff\n      and\n        /* \"contracts/AMM.sol\":8423:8432  _governor */\n      dup2\n        /* \"contracts/AMM.sol\":8423:8446  _governor != address(0) */\n      0xffffffffffffffffffffffffffffffffffffffff\n      and\n      sub\n        /* \"contracts/AMM.sol\":8415:8480  require(_governor != address(0), \"AMM: Invalid governor address\") */\n      tag_210\n      jumpi\n      mload(0x40)\n      0x08c379a000000000000000000000000000000000000000000000000000000000\n      dup2\n      mstore\n      0x04\n      add\n      tag_211\n      swap1\n      tag_212\n      jump\t// in\n    tag_211:\n      mload(0x40)\n      dup1\n      swap2\n      sub\n      swap1\n      revert\n    tag_210:\n        /* \"contracts/AMM.sol\":8499:8508  governors */\n      0x0b\n        /* \"contracts/AMM.sol\":8499:8519  governors[_governor] */\n      0x00\n        /* \"contracts/AMM.sol\":8509:8518  _governor */\n      dup3\n        /* \"contracts/AMM.sol\":8499:8519  governors[_governor] */\n      0xffffffffffffffffffffffffffffffffffffffff\n      and\n      0xffffffffffffffffffffffffffffffffffffffff\n      and\n      dup2\n      mstore\n      0x20\n      add\n      swap1\n      dup2\n      mstore\n      0x20\n      add\n      0x00\n      keccak256\n      0x00\n      swap1\n      sload\n      swap1\n      0x0100\n      exp\n      swap1\n      div\n      0xff\n      and\n        /* \"contracts/AMM.sol\":8498:8519  !governors[_governor] */\n      iszero\n        /* \"contracts/AMM.sol\":8490:8547  require(!governors[_governor], \"AMM: Already a governor\") */\n      tag_213\n      jumpi\n      mload(0x40)\n      0x08c379a000000000000000000000000000000000000000000000000000000000\n      dup2\n      mstore\n      0x04\n      add\n      tag_214\n      swap1\n      tag_215\n      jump\t// in\n    tag_214:\n      mload(0x40)\n      dup1\n      swap2\n      sub\n      swap1\n      revert\n    tag_213:\n        /* \"contracts/AMM.sol\":8580:8584  true */\n      0x01\n        /* \"contracts/AMM.sol\":8557:8566  governors */\n      0x0b\n        /* \"contracts/AMM.sol\":8557:8577  governors[_governor] */\n      0x00\n        /* \"contracts/AMM.sol\":8567:8576  _governor */\n      dup4\n        /* \"contracts/AMM.sol\":8557:8577  governors[_governor] */\n      0xffffffffffffffffffffffffffffffffffffffff\n      and\n      0xffffffffffffffffffffffffffffffffffffffff\n      and\n      dup2\n      mstore\n      0x20\n      add\n      swap1\n      dup2\n      mstore\n      0x20\n      add\n      0x00\n      keccak256\n      0x00\n        /* \"contracts/AMM.sol\":8557:8584  governors[_governor] = true */\n      0x0100\n      exp\n      dup2\n      sload\n      dup2\n      0xff\n      mul\n      not\n      and\n      swap1\n      dup4\n      iszero\n      iszero\n      mul\n      or\n      swap1\n      sstore\n      pop\n        /* \"contracts/AMM.sol\":8594:8606  governorList */\n      0x0c\n        /* \"contracts/AMM.sol\":8612:8621  _governor */\n      dup2\n        /* \"contracts/AMM.sol\":8594:8622  governorList.push(_governor) */\n      swap1\n      dup1\n      0x01\n      dup2\n      sload\n      add\n      dup1\n      dup3\n      sstore\n      dup1\n      swap2\n      pop\n      pop\n      0x01\n      swap1\n      sub\n      swap1\n      0x00\n      mstore\n      keccak256(0x00, 0x20)\n      add\n      0x00\n      swap1\n      swap2\n      swap1\n      swap2\n      swap1\n      swap2\n      0x0100\n      exp\n      dup2\n      sload\n      dup2\n      0xffffffffffffffffffffffffffffffffffffffff\n      mul\n      not\n      and\n      swap1\n      dup4\n      0xffffffffffffffffffffffffffffffffffffffff\n      and\n      mul\n      or\n      swap1\n      sstore\n      pop\n        /* \"contracts/AMM.sol\":8651:8660  _governor */\n      dup1\n        /* \"contracts/AMM.sol\":8637:8661  GovernorAdded(_governor) */\n      0xffffffffffffffffffffffffffffffffffffffff\n      and\n      0xdc5a48d79e2e147530ff63ecdbed5a5a66adb9d5cf339384d5d076da197c40b5\n      mload(0x40)\n      mload(0x40)\n      dup1\n      swap2\n      sub\n      swap1\n      log2\n        /* \"contracts/AMM.sol\":8343:8668  function addGovernor(address _governor) external onlyGovernor {... */\n      pop\n      jump\t// out\n        /* \"contracts/AMM.sol\":1248:1277  uint256 public lastTwapPriceX */\n    tag_99:\n      sload(0x0e)\n      dup2\n      jump\t// out\n        /* \"contracts/AMM.sol\":7981:8228  function setFee(uint256 _feeBasisPoints) external onlyGovernor {... */\n    tag_103:\n        /* \"contracts/AMM.sol\":1971:1980  governors */\n      0x0b\n        /* \"contracts/AMM.sol\":1971:1992  governors[msg.sender] */\n      0x00\n        /* \"contracts/AMM.sol\":1981:1991  msg.sender */\n      caller\n        /* \"contracts/AMM.sol\":1971:1992  governors[msg.sender] */\n      0xffffffffffffffffffffffffffffffffffffffff\n      and\n      0xffffffffffffffffffffffffffffffffffffffff\n      and\n      dup2\n      mstore\n      0x20\n      add\n      swap1\n      dup2\n      mstore\n      0x20\n      add\n      0x00\n      keccak256\n      0x00\n      swap1\n      sload\n      swap1\n      0x0100\n      exp\n      swap1\n      div\n      0xff\n      and\n        /* \"contracts/AMM.sol\":1963:2026  require(governors[msg.sender], \"AMM: caller is not a governor\") */\n      tag_218\n      jumpi\n      mload(0x40)\n      0x08c379a000000000000000000000000000000000000000000000000000000000\n      dup2\n      mstore\n      0x04\n      add\n      tag_219\n      swap1\n      tag_208\n      jump\t// in\n    tag_219:\n      mload(0x40)\n      dup1\n      swap2\n      sub\n      swap1\n      revert\n    tag_218:\n        /* \"contracts/AMM.sol\":1028:1033  10000 */\n      0x2710\n        /* \"contracts/AMM.sol\":8062:8077  _feeBasisPoints */\n      dup2\n        /* \"contracts/AMM.sol\":8062:8100  _feeBasisPoints < BASIS_POINTS_DIVISOR */\n      lt\n        /* \"contracts/AMM.sol\":8054:8121  require(_feeBasisPoints < BASIS_POINTS_DIVISOR, \"AMM: Invalid fee\") */\n      tag_221\n      jumpi\n      mload(0x40)\n      0x08c379a000000000000000000000000000000000000000000000000000000000\n      dup2\n      mstore\n      0x04\n      add\n      tag_222\n      swap1\n      tag_223\n      jump\t// in\n    tag_222:\n      mload(0x40)\n      dup1\n      swap2\n      sub\n      swap1\n      revert\n    tag_221:\n        /* \"contracts/AMM.sol\":8136:8179  FeeUpdated(feeBasisPoints, _feeBasisPoints) */\n      0x528d9479e9f9889a87a3c30c7f7ba537e5e59c4c85a37733b16e57c62df61302\n        /* \"contracts/AMM.sol\":8147:8161  feeBasisPoints */\n      sload(0x0a)\n        /* \"contracts/AMM.sol\":8163:8178  _feeBasisPoints */\n      dup3\n        /* \"contracts/AMM.sol\":8136:8179  FeeUpdated(feeBasisPoints, _feeBasisPoints) */\n      mload(0x40)\n      tag_224\n      swap3\n      swap2\n      swap1\n      tag_57\n      jump\t// in\n    tag_224:\n      mload(0x40)\n      dup1\n      swap2\n      sub\n      swap1\n      log1\n        /* \"contracts/AMM.sol\":8206:8221  _feeBasisPoints */\n      dup1\n        /* \"contracts/AMM.sol\":8189:8203  feeBasisPoints */\n      0x0a\n        /* \"contracts/AMM.sol\":8189:8221  feeBasisPoints = _feeBasisPoints */\n      dup2\n      swap1\n      sstore\n      pop\n        /* \"contracts/AMM.sol\":7981:8228  function setFee(uint256 _feeBasisPoints) external onlyGovernor {... */\n      pop\n      jump\t// out\n        /* \"@openzeppelin/contracts/token/ERC20/ERC20.sol\":3299:3415  function balanceOf(address account) public view virtual returns (uint256) {... */\n    tag_106:\n        /* \"@openzeppelin/contracts/token/ERC20/ERC20.sol\":3364:3371  uint256 */\n      0x00\n        /* \"@openzeppelin/contracts/token/ERC20/ERC20.sol\":3390:3399  _balances */\n      dup1\n        /* \"@openzeppelin/contracts/token/ERC20/ERC20.sol\":3390:3408  _balances[account] */\n      0x00\n        /* \"@openzeppelin/contracts/token/ERC20/ERC20.sol\":3400:3407  account */\n      dup4\n        /* \"@openzeppelin/contracts/token/ERC20/ERC20.sol\":3390:3408  _balances[account] */\n      0xffffffffffffffffffffffffffffffffffffffff\n      and\n      0xffffffffffffffffffffffffffffffffffffffff\n      and\n      dup2\n      mstore\n      0x20\n      add\n      swap1\n      dup2\n      mstore\n      0x20\n      add\n      0x00\n      keccak256\n      sload\n        /* \"@openzeppelin/contracts/token/ERC20/ERC20.sol\":3383:3408  return _balances[account] */\n      swap1\n      pop\n        /* \"@openzeppelin/contracts/token/ERC20/ERC20.sol\":3299:3415  function balanceOf(address account) public view virtual returns (uint256) {... */\n      swap2\n      swap1\n      pop\n      jump\t// out\n        /* \"@openzeppelin/contracts/token/ERC20/ERC20.sol\":2276:2369  function symbol() public view virtual returns (string memory) {... */\n    tag_109:\n        /* \"@openzeppelin/contracts/token/ERC20/ERC20.sol\":2323:2336  string memory */\n      0x60\n        /* \"@openzeppelin/contracts/token/ERC20/ERC20.sol\":2355:2362  _symbol */\n      0x04\n        /* \"@openzeppelin/contracts/token/ERC20/ERC20.sol\":2348:2362  return _symbol */\n      dup1\n      sload\n      tag_227\n      swap1\n      tag_163\n      jump\t// in\n    tag_227:\n      dup1\n      0x1f\n      add\n      0x20\n      dup1\n      swap2\n      div\n      mul\n      0x20\n      add\n      mload(0x40)\n      swap1\n      dup2\n      add\n      0x40\n      mstore\n      dup1\n      swap3\n      swap2\n      swap1\n      dup2\n      dup2\n      mstore\n      0x20\n      add\n      dup3\n      dup1\n      sload\n      tag_228\n      swap1\n      tag_163\n      jump\t// in\n    tag_228:\n      dup1\n      iszero\n      tag_229\n      jumpi\n      dup1\n      0x1f\n      lt\n      tag_230\n      jumpi\n      0x0100\n      dup1\n      dup4\n      sload\n      div\n      mul\n      dup4\n      mstore\n      swap2\n      0x20\n      add\n      swap2\n      jump(tag_229)\n    tag_230:\n      dup3\n      add\n      swap2\n      swap1\n      0x00\n      mstore\n      keccak256(0x00, 0x20)\n      swap1\n    tag_231:\n      dup2\n      sload\n      dup2\n      mstore\n      swap1\n      0x01\n      add\n      swap1\n      0x20\n      add\n      dup1\n      dup4\n      gt\n      tag_231\n      jumpi\n      dup3\n      swap1\n      sub\n      0x1f\n      and\n      dup3\n      add\n      swap2\n    tag_229:\n      pop\n      pop\n      pop\n      pop\n      pop\n      swap1\n      pop\n        /* \"@openzeppelin/contracts/token/ERC20/ERC20.sol\":2276:2369  function symbol() public view virtual returns (string memory) {... */\n      swap1\n      jump\t// out\n        /* \"contracts/AMM.sol\":4019:4631  function removeLiquidity(uint256 liquidity) external nonReentrant returns (uint256 amountX, uint256 amountY) {... */\n    tag_113:\n        /* \"contracts/AMM.sol\":4094:4109  uint256 amountX */\n      0x00\n        /* \"contracts/AMM.sol\":4111:4126  uint256 amountY */\n      dup1\n        /* \"@openzeppelin/contracts/security/ReentrancyGuard.sol\":2261:2282  _nonReentrantBefore() */\n      tag_233\n        /* \"@openzeppelin/contracts/security/ReentrancyGuard.sol\":2261:2280  _nonReentrantBefore */\n      tag_183\n        /* \"@openzeppelin/contracts/security/ReentrancyGuard.sol\":2261:2282  _nonReentrantBefore() */\n      jump\t// in\n    tag_233:\n        /* \"contracts/AMM.sol\":4158:4159  0 */\n      0x00\n        /* \"contracts/AMM.sol\":4146:4155  liquidity */\n      dup4\n        /* \"contracts/AMM.sol\":4146:4159  liquidity > 0 */\n      gt\n        /* \"contracts/AMM.sol\":4138:4193  require(liquidity > 0, \"AMM: Invalid liquidity amount\") */\n      tag_235\n      jumpi\n      mload(0x40)\n      0x08c379a000000000000000000000000000000000000000000000000000000000\n      dup2\n      mstore\n      0x04\n      add\n      tag_236\n      swap1\n      tag_237\n      jump\t// in\n    tag_236:\n      mload(0x40)\n      dup1\n      swap2\n      sub\n      swap1\n      revert\n    tag_235:\n        /* \"contracts/AMM.sol\":4204:4223  uint256 totalSupply */\n      0x00\n        /* \"contracts/AMM.sol\":4226:4239  totalSupply() */\n      tag_238\n        /* \"contracts/AMM.sol\":4226:4237  totalSupply */\n      tag_75\n        /* \"contracts/AMM.sol\":4226:4239  totalSupply() */\n      jump\t// in\n    tag_238:\n        /* \"contracts/AMM.sol\":4204:4239  uint256 totalSupply = totalSupply() */\n      swap1\n      pop\n        /* \"contracts/AMM.sol\":4285:4296  totalSupply */\n      dup1\n        /* \"contracts/AMM.sol\":4273:4281  reserveX */\n      sload(0x08)\n        /* \"contracts/AMM.sol\":4261:4270  liquidity */\n      dup6\n        /* \"contracts/AMM.sol\":4261:4281  liquidity * reserveX */\n      tag_239\n      swap2\n      swap1\n      tag_154\n      jump\t// in\n    tag_239:\n        /* \"contracts/AMM.sol\":4260:4296  (liquidity * reserveX) / totalSupply */\n      tag_240\n      swap2\n      swap1\n      tag_160\n      jump\t// in\n    tag_240:\n        /* \"contracts/AMM.sol\":4250:4296  amountX = (liquidity * reserveX) / totalSupply */\n      swap3\n      pop\n        /* \"contracts/AMM.sol\":4341:4352  totalSupply */\n      dup1\n        /* \"contracts/AMM.sol\":4329:4337  reserveY */\n      sload(0x09)\n        /* \"contracts/AMM.sol\":4317:4326  liquidity */\n      dup6\n        /* \"contracts/AMM.sol\":4317:4337  liquidity * reserveY */\n      tag_241\n      swap2\n      swap1\n      tag_154\n      jump\t// in\n    tag_241:\n        /* \"contracts/AMM.sol\":4316:4352  (liquidity * reserveY) / totalSupply */\n      tag_242\n      swap2\n      swap1\n      tag_160\n      jump\t// in\n    tag_242:\n        /* \"contracts/AMM.sol\":4306:4352  amountY = (liquidity * reserveY) / totalSupply */\n      swap2\n      pop\n        /* \"contracts/AMM.sol\":4363:4391  _burn(msg.sender, liquidity) */\n      tag_243\n        /* \"contracts/AMM.sol\":4369:4379  msg.sender */\n      caller\n        /* \"contracts/AMM.sol\":4381:4390  liquidity */\n      dup6\n        /* \"contracts/AMM.sol\":4363:4368  _burn */\n      tag_244\n        /* \"contracts/AMM.sol\":4363:4391  _burn(msg.sender, liquidity) */\n      jump\t// in\n    tag_243:\n        /* \"contracts/AMM.sol\":4414:4421  amountX */\n      dup3\n        /* \"contracts/AMM.sol\":4402:4410  reserveX */\n      0x08\n      0x00\n        /* \"contracts/AMM.sol\":4402:4421  reserveX -= amountX */\n      dup3\n      dup3\n      sload\n      tag_245\n      swap2\n      swap1\n      tag_152\n      jump\t// in\n    tag_245:\n      swap3\n      pop\n      pop\n      dup2\n      swap1\n      sstore\n      pop\n        /* \"contracts/AMM.sol\":4443:4450  amountY */\n      dup2\n        /* \"contracts/AMM.sol\":4431:4439  reserveY */\n      0x09\n      0x00\n        /* \"contracts/AMM.sol\":4431:4450  reserveY -= amountY */\n      dup3\n      dup3\n      sload\n      tag_246\n      swap2\n      swap1\n      tag_152\n      jump\t// in\n    tag_246:\n      swap3\n      pop\n      pop\n      dup2\n      swap1\n      sstore\n      pop\n        /* \"contracts/AMM.sol\":4461:4501  tokenX.safeTransfer(msg.sender, amountX) */\n      tag_247\n        /* \"contracts/AMM.sol\":4481:4491  msg.sender */\n      caller\n        /* \"contracts/AMM.sol\":4493:4500  amountX */\n      dup5\n        /* \"contracts/AMM.sol\":4461:4467  tokenX */\n      0x06\n      0x00\n      swap1\n      sload\n      swap1\n      0x0100\n      exp\n      swap1\n      div\n      0xffffffffffffffffffffffffffffffffffffffff\n      and\n        /* \"contracts/AMM.sol\":4461:4480  tokenX.safeTransfer */\n      0xffffffffffffffffffffffffffffffffffffffff\n      and\n      tag_195\n      swap1\n        /* \"contracts/AMM.sol\":4461:4501  tokenX.safeTransfer(msg.sender, amountX) */\n      swap3\n      swap2\n      swap1\n      0xffffffff\n      and\n      jump\t// in\n    tag_247:\n        /* \"contracts/AMM.sol\":4511:4551  tokenY.safeTransfer(msg.sender, amountY) */\n      tag_248\n        /* \"contracts/AMM.sol\":4531:4541  msg.sender */\n      caller\n        /* \"contracts/AMM.sol\":4543:4550  amountY */\n      dup4\n        /* \"contracts/AMM.sol\":4511:4517  tokenY */\n      0x07\n      0x00\n      swap1\n      sload\n      swap1\n      0x0100\n      exp\n      swap1\n      div\n      0xffffffffffffffffffffffffffffffffffffffff\n      and\n        /* \"contracts/AMM.sol\":4511:4530  tokenY.safeTransfer */\n      0xffffffffffffffffffffffffffffffffffffffff\n      and\n      tag_195\n      swap1\n        /* \"contracts/AMM.sol\":4511:4551  tokenY.safeTransfer(msg.sender, amountY) */\n      swap3\n      swap2\n      swap1\n      0xffffffff\n      and\n      jump\t// in\n    tag_248:\n        /* \"contracts/AMM.sol\":4584:4594  msg.sender */\n      caller\n        /* \"contracts/AMM.sol\":4567:4624  LiquidityRemoved(msg.sender, amountX, amountY, liquidity) */\n      0xffffffffffffffffffffffffffffffffffffffff\n      and\n      0x1dc8bb69df2b8e91fbdcbfcf93d951b3f0000f085a95fe3f7946d6161439245d\n        /* \"contracts/AMM.sol\":4596:4603  amountX */\n      dup5\n        /* \"contracts/AMM.sol\":4605:4612  amountY */\n      dup5\n        /* \"contracts/AMM.sol\":4614:4623  liquidity */\n      dup8\n        /* \"contracts/AMM.sol\":4567:4624  LiquidityRemoved(msg.sender, amountX, amountY, liquidity) */\n      mload(0x40)\n      tag_249\n      swap4\n      swap3\n      swap2\n      swap1\n      tag_250\n      jump\t// in\n    tag_249:\n      mload(0x40)\n      dup1\n      swap2\n      sub\n      swap1\n      log2\n        /* \"contracts/AMM.sol\":4128:4631  {... */\n      pop\n        /* \"@openzeppelin/contracts/security/ReentrancyGuard.sol\":2303:2323  _nonReentrantAfter() */\n      tag_251\n        /* \"@openzeppelin/contracts/security/ReentrancyGuard.sol\":2303:2321  _nonReentrantAfter */\n      tag_203\n        /* \"@openzeppelin/contracts/security/ReentrancyGuard.sol\":2303:2323  _nonReentrantAfter() */\n      jump\t// in\n    tag_251:\n        /* \"contracts/AMM.sol\":4019:4631  function removeLiquidity(uint256 liquidity) external nonReentrant returns (uint256 amountX, uint256 amountY) {... */\n      swap2\n      pop\n      swap2\n      jump\t// out\n        /* \"contracts/AMM.sol\":2823:3688  function addLiquidity(uint256 amountX, uint256 amountY) external nonReentrant returns (uint256 liquidity) {... */\n    tag_117:\n        /* \"contracts/AMM.sol\":2910:2927  uint256 liquidity */\n      0x00\n        /* \"@openzeppelin/contracts/security/ReentrancyGuard.sol\":2261:2282  _nonReentrantBefore() */\n      tag_253\n        /* \"@openzeppelin/contracts/security/ReentrancyGuard.sol\":2261:2280  _nonReentrantBefore */\n      tag_183\n        /* \"@openzeppelin/contracts/security/ReentrancyGuard.sol\":2261:2282  _nonReentrantBefore() */\n      jump\t// in\n    tag_253:\n        /* \"contracts/AMM.sol\":2939:2998  tokenX.safeTransferFrom(msg.sender, address(this), amountX) */\n      tag_255\n        /* \"contracts/AMM.sol\":2963:2973  msg.sender */\n      caller\n        /* \"contracts/AMM.sol\":2983:2987  this */\n      address\n        /* \"contracts/AMM.sol\":2990:2997  amountX */\n      dup6\n        /* \"contracts/AMM.sol\":2939:2945  tokenX */\n      0x06\n      0x00\n      swap1\n      sload\n      swap1\n      0x0100\n      exp\n      swap1\n      div\n      0xffffffffffffffffffffffffffffffffffffffff\n      and\n        /* \"contracts/AMM.sol\":2939:2962  tokenX.safeTransferFrom */\n      0xffffffffffffffffffffffffffffffffffffffff\n      and\n      tag_193\n      swap1\n        /* \"contracts/AMM.sol\":2939:2998  tokenX.safeTransferFrom(msg.sender, address(this), amountX) */\n      swap4\n      swap3\n      swap2\n      swap1\n      0xffffffff\n      and\n      jump\t// in\n    tag_255:\n        /* \"contracts/AMM.sol\":3008:3067  tokenY.safeTransferFrom(msg.sender, address(this), amountY) */\n      tag_256\n        /* \"contracts/AMM.sol\":3032:3042  msg.sender */\n      caller\n        /* \"contracts/AMM.sol\":3052:3056  this */\n      address\n        /* \"contracts/AMM.sol\":3059:3066  amountY */\n      dup5\n        /* \"contracts/AMM.sol\":3008:3014  tokenY */\n      0x07\n      0x00\n      swap1\n      sload\n      swap1\n      0x0100\n      exp\n      swap1\n      div\n      0xffffffffffffffffffffffffffffffffffffffff\n      and\n        /* \"contracts/AMM.sol\":3008:3031  tokenY.safeTransferFrom */\n      0xffffffffffffffffffffffffffffffffffffffff\n      and\n      tag_193\n      swap1\n        /* \"contracts/AMM.sol\":3008:3067  tokenY.safeTransferFrom(msg.sender, address(this), amountY) */\n      swap4\n      swap3\n      swap2\n      swap1\n      0xffffffff\n      and\n      jump\t// in\n    tag_256:\n        /* \"contracts/AMM.sol\":3093:3094  0 */\n      0x00\n        /* \"contracts/AMM.sol\":3082:3090  reserveX */\n      sload(0x08)\n        /* \"contracts/AMM.sol\":3082:3094  reserveX > 0 */\n      gt\n        /* \"contracts/AMM.sol\":3082:3110  reserveX > 0 || reserveY > 0 */\n      dup1\n      tag_257\n      jumpi\n      pop\n        /* \"contracts/AMM.sol\":3109:3110  0 */\n      0x00\n        /* \"contracts/AMM.sol\":3098:3106  reserveY */\n      sload(0x09)\n        /* \"contracts/AMM.sol\":3098:3110  reserveY > 0 */\n      gt\n        /* \"contracts/AMM.sol\":3082:3110  reserveX > 0 || reserveY > 0 */\n    tag_257:\n        /* \"contracts/AMM.sol\":3078:3224  if (reserveX > 0 || reserveY > 0) {... */\n      iszero\n      tag_258\n      jumpi\n        /* \"contracts/AMM.sol\":3166:3174  reserveX */\n      sload(0x08)\n        /* \"contracts/AMM.sol\":3156:3163  amountY */\n      dup3\n        /* \"contracts/AMM.sol\":3156:3174  amountY * reserveX */\n      tag_259\n      swap2\n      swap1\n      tag_154\n      jump\t// in\n    tag_259:\n        /* \"contracts/AMM.sol\":3144:3152  reserveY */\n      sload(0x09)\n        /* \"contracts/AMM.sol\":3134:3141  amountX */\n      dup5\n        /* \"contracts/AMM.sol\":3134:3152  amountX * reserveY */\n      tag_260\n      swap2\n      swap1\n      tag_154\n      jump\t// in\n    tag_260:\n        /* \"contracts/AMM.sol\":3134:3174  amountX * reserveY == amountY * reserveX */\n      eq\n        /* \"contracts/AMM.sol\":3126:3213  require(amountX * reserveY == amountY * reserveX, \"AMM: Unbalanced liquidity provided\") */\n      tag_261\n      jumpi\n      mload(0x40)\n      0x08c379a000000000000000000000000000000000000000000000000000000000\n      dup2\n      mstore\n      0x04\n      add\n      tag_262\n      swap1\n      tag_263\n      jump\t// in\n    tag_262:\n      mload(0x40)\n      dup1\n      swap2\n      sub\n      swap1\n      revert\n    tag_261:\n        /* \"contracts/AMM.sol\":3078:3224  if (reserveX > 0 || reserveY > 0) {... */\n    tag_258:\n        /* \"contracts/AMM.sol\":3255:3256  0 */\n      0x00\n        /* \"contracts/AMM.sol\":3238:3251  totalSupply() */\n      tag_264\n        /* \"contracts/AMM.sol\":3238:3249  totalSupply */\n      tag_75\n        /* \"contracts/AMM.sol\":3238:3251  totalSupply() */\n      jump\t// in\n    tag_264:\n        /* \"contracts/AMM.sol\":3238:3256  totalSupply() == 0 */\n      sub\n        /* \"contracts/AMM.sol\":3234:3440  if (totalSupply() == 0) {... */\n      tag_265\n      jumpi\n        /* \"contracts/AMM.sol\":3284:3307  sqrt(amountX * amountY) */\n      tag_266\n        /* \"contracts/AMM.sol\":3299:3306  amountY */\n      dup3\n        /* \"contracts/AMM.sol\":3289:3296  amountX */\n      dup5\n        /* \"contracts/AMM.sol\":3289:3306  amountX * amountY */\n      tag_267\n      swap2\n      swap1\n      tag_154\n      jump\t// in\n    tag_267:\n        /* \"contracts/AMM.sol\":3284:3288  sqrt */\n      tag_268\n        /* \"contracts/AMM.sol\":3284:3307  sqrt(amountX * amountY) */\n      jump\t// in\n    tag_266:\n        /* \"contracts/AMM.sol\":3272:3307  liquidity = sqrt(amountX * amountY) */\n      swap1\n      pop\n        /* \"contracts/AMM.sol\":3234:3440  if (totalSupply() == 0) {... */\n      jump(tag_269)\n    tag_265:\n        /* \"contracts/AMM.sol\":3350:3429  min((amountX * totalSupply()) / reserveX, (amountY * totalSupply()) / reserveY) */\n      tag_270\n        /* \"contracts/AMM.sol\":3382:3390  reserveX */\n      sload(0x08)\n        /* \"contracts/AMM.sol\":3365:3378  totalSupply() */\n      tag_271\n        /* \"contracts/AMM.sol\":3365:3376  totalSupply */\n      tag_75\n        /* \"contracts/AMM.sol\":3365:3378  totalSupply() */\n      jump\t// in\n    tag_271:\n        /* \"contracts/AMM.sol\":3355:3362  amountX */\n      dup6\n        /* \"contracts/AMM.sol\":3355:3378  amountX * totalSupply() */\n      tag_272\n      swap2\n      swap1\n      tag_154\n      jump\t// in\n    tag_272:\n        /* \"contracts/AMM.sol\":3354:3390  (amountX * totalSupply()) / reserveX */\n      tag_273\n      swap2\n      swap1\n      tag_160\n      jump\t// in\n    tag_273:\n        /* \"contracts/AMM.sol\":3420:3428  reserveY */\n      sload(0x09)\n        /* \"contracts/AMM.sol\":3403:3416  totalSupply() */\n      tag_274\n        /* \"contracts/AMM.sol\":3403:3414  totalSupply */\n      tag_75\n        /* \"contracts/AMM.sol\":3403:3416  totalSupply() */\n      jump\t// in\n    tag_274:\n        /* \"contracts/AMM.sol\":3393:3400  amountY */\n      dup6\n        /* \"contracts/AMM.sol\":3393:3416  amountY * totalSupply() */\n      tag_275\n      swap2\n      swap1\n      tag_154\n      jump\t// in\n    tag_275:\n        /* \"contracts/AMM.sol\":3392:3428  (amountY * totalSupply()) / reserveY */\n      tag_276\n      swap2\n      swap1\n      tag_160\n      jump\t// in\n    tag_276:\n        /* \"contracts/AMM.sol\":3350:3353  min */\n      tag_277\n        /* \"contracts/AMM.sol\":3350:3429  min((amountX * totalSupply()) / reserveX, (amountY * totalSupply()) / reserveY) */\n      jump\t// in\n    tag_270:\n        /* \"contracts/AMM.sol\":3338:3429  liquidity = min((amountX * totalSupply()) / reserveX, (amountY * totalSupply()) / reserveY) */\n      swap1\n      pop\n        /* \"contracts/AMM.sol\":3234:3440  if (totalSupply() == 0) {... */\n    tag_269:\n        /* \"contracts/AMM.sol\":3470:3471  0 */\n      0x00\n        /* \"contracts/AMM.sol\":3458:3467  liquidity */\n      dup2\n        /* \"contracts/AMM.sol\":3458:3471  liquidity > 0 */\n      gt\n        /* \"contracts/AMM.sol\":3450:3512  require(liquidity > 0, \"AMM: Insufficient liquidity provided\") */\n      tag_278\n      jumpi\n      mload(0x40)\n      0x08c379a000000000000000000000000000000000000000000000000000000000\n      dup2\n      mstore\n      0x04\n      add\n      tag_279\n      swap1\n      tag_280\n      jump\t// in\n    tag_279:\n      mload(0x40)\n      dup1\n      swap2\n      sub\n      swap1\n      revert\n    tag_278:\n        /* \"contracts/AMM.sol\":3523:3551  _mint(msg.sender, liquidity) */\n      tag_281\n        /* \"contracts/AMM.sol\":3529:3539  msg.sender */\n      caller\n        /* \"contracts/AMM.sol\":3541:3550  liquidity */\n      dup3\n        /* \"contracts/AMM.sol\":3523:3528  _mint */\n      tag_282\n        /* \"contracts/AMM.sol\":3523:3551  _mint(msg.sender, liquidity) */\n      jump\t// in\n    tag_281:\n        /* \"contracts/AMM.sol\":3574:3581  amountX */\n      dup3\n        /* \"contracts/AMM.sol\":3562:3570  reserveX */\n      0x08\n      0x00\n        /* \"contracts/AMM.sol\":3562:3581  reserveX += amountX */\n      dup3\n      dup3\n      sload\n      tag_283\n      swap2\n      swap1\n      tag_158\n      jump\t// in\n    tag_283:\n      swap3\n      pop\n      pop\n      dup2\n      swap1\n      sstore\n      pop\n        /* \"contracts/AMM.sol\":3603:3610  amountY */\n      dup2\n        /* \"contracts/AMM.sol\":3591:3599  reserveY */\n      0x09\n      0x00\n        /* \"contracts/AMM.sol\":3591:3610  reserveY += amountY */\n      dup3\n      dup3\n      sload\n      tag_284\n      swap2\n      swap1\n      tag_158\n      jump\t// in\n    tag_284:\n      swap3\n      pop\n      pop\n      dup2\n      swap1\n      sstore\n      pop\n        /* \"contracts/AMM.sol\":3641:3651  msg.sender */\n      caller\n        /* \"contracts/AMM.sol\":3626:3681  LiquidityAdded(msg.sender, amountX, amountY, liquidity) */\n      0xffffffffffffffffffffffffffffffffffffffff\n      and\n      0x64b83944e79c3ce8d4c297411de637c3e102d064677aac0c163976ebdcd6f50e\n        /* \"contracts/AMM.sol\":3653:3660  amountX */\n      dup5\n        /* \"contracts/AMM.sol\":3662:3669  amountY */\n      dup5\n        /* \"contracts/AMM.sol\":3671:3680  liquidity */\n      dup5\n        /* \"contracts/AMM.sol\":3626:3681  LiquidityAdded(msg.sender, amountX, amountY, liquidity) */\n      mload(0x40)\n      tag_285\n      swap4\n      swap3\n      swap2\n      swap1\n      tag_250\n      jump\t// in\n    tag_285:\n      mload(0x40)\n      dup1\n      swap2\n      sub\n      swap1\n      log2\n        /* \"@openzeppelin/contracts/security/ReentrancyGuard.sol\":2303:2323  _nonReentrantAfter() */\n      tag_286\n        /* \"@openzeppelin/contracts/security/ReentrancyGuard.sol\":2303:2321  _nonReentrantAfter */\n      tag_203\n        /* \"@openzeppelin/contracts/security/ReentrancyGuard.sol\":2303:2323  _nonReentrantAfter() */\n      jump\t// in\n    tag_286:\n        /* \"contracts/AMM.sol\":2823:3688  function addLiquidity(uint256 amountX, uint256 amountY) external nonReentrant returns (uint256 liquidity) {... */\n      swap3\n      swap2\n      pop\n      pop\n      jump\t// out\n        /* \"contracts/AMM.sol\":1318:1350  uint256 public lastTwapTimestamp */\n    tag_120:\n      sload(0x10)\n      dup2\n      jump\t// out\n        /* \"@openzeppelin/contracts/token/ERC20/ERC20.sol\":3610:3788  function transfer(address to, uint256 value) public virtual returns (bool) {... */\n    tag_124:\n        /* \"@openzeppelin/contracts/token/ERC20/ERC20.sol\":3679:3683  bool */\n      0x00\n        /* \"@openzeppelin/contracts/token/ERC20/ERC20.sol\":3695:3708  address owner */\n      dup1\n        /* \"@openzeppelin/contracts/token/ERC20/ERC20.sol\":3711:3723  _msgSender() */\n      tag_288\n        /* \"@openzeppelin/contracts/token/ERC20/ERC20.sol\":3711:3721  _msgSender */\n      tag_171\n        /* \"@openzeppelin/contracts/token/ERC20/ERC20.sol\":3711:3723  _msgSender() */\n      jump\t// in\n    tag_288:\n        /* \"@openzeppelin/contracts/token/ERC20/ERC20.sol\":3695:3723  address owner = _msgSender() */\n      swap1\n      pop\n        /* \"@openzeppelin/contracts/token/ERC20/ERC20.sol\":3733:3760  _transfer(owner, to, value) */\n      tag_289\n        /* \"@openzeppelin/contracts/token/ERC20/ERC20.sol\":3743:3748  owner */\n      dup2\n        /* \"@openzeppelin/contracts/token/ERC20/ERC20.sol\":3750:3752  to */\n      dup6\n        /* \"@openzeppelin/contracts/token/ERC20/ERC20.sol\":3754:3759  value */\n      dup6\n        /* \"@openzeppelin/contracts/token/ERC20/ERC20.sol\":3733:3742  _transfer */\n      tag_180\n        /* \"@openzeppelin/contracts/token/ERC20/ERC20.sol\":3733:3760  _transfer(owner, to, value) */\n      jump\t// in\n    tag_289:\n        /* \"@openzeppelin/contracts/token/ERC20/ERC20.sol\":3777:3781  true */\n      0x01\n        /* \"@openzeppelin/contracts/token/ERC20/ERC20.sol\":3770:3781  return true */\n      swap2\n      pop\n      pop\n        /* \"@openzeppelin/contracts/token/ERC20/ERC20.sol\":3610:3788  function transfer(address to, uint256 value) public virtual returns (bool) {... */\n      swap3\n      swap2\n      pop\n      pop\n      jump\t// out\n        /* \"contracts/AMM.sol\":773:793  IERC20 public tokenY */\n    tag_127:\n      0x07\n      0x00\n      swap1\n      sload\n      swap1\n      0x0100\n      exp\n      swap1\n      div\n      0xffffffffffffffffffffffffffffffffffffffff\n      and\n      dup2\n      jump\t// out\n        /* \"contracts/AMM.sol\":929:963  uint256 public feeBasisPoints = 30 */\n    tag_130:\n      sload(0x0a)\n      dup2\n      jump\t// out\n        /* \"contracts/AMM.sol\":4878:5506  function swapXForY(uint256 amountXIn, uint256 minAmountYOut) external nonReentrant returns (uint256 amountYOut) {... */\n    tag_134:\n        /* \"contracts/AMM.sol\":4970:4988  uint256 amountYOut */\n      0x00\n        /* \"@openzeppelin/contracts/security/ReentrancyGuard.sol\":2261:2282  _nonReentrantBefore() */\n      tag_291\n        /* \"@openzeppelin/contracts/security/ReentrancyGuard.sol\":2261:2280  _nonReentrantBefore */\n      tag_183\n        /* \"@openzeppelin/contracts/security/ReentrancyGuard.sol\":2261:2282  _nonReentrantBefore() */\n      jump\t// in\n    tag_291:\n        /* \"contracts/AMM.sol\":5020:5021  0 */\n      0x00\n        /* \"contracts/AMM.sol\":5008:5017  amountXIn */\n      dup4\n        /* \"contracts/AMM.sol\":5008:5021  amountXIn > 0 */\n      gt\n        /* \"contracts/AMM.sol\":5000:5051  require(amountXIn > 0, \"AMM: Invalid input amount\") */\n      tag_293\n      jumpi\n      mload(0x40)\n      0x08c379a000000000000000000000000000000000000000000000000000000000\n      dup2\n      mstore\n      0x04\n      add\n      tag_294\n      swap1\n      tag_187\n      jump\t// in\n    tag_294:\n      mload(0x40)\n      dup1\n      swap2\n      sub\n      swap1\n      revert\n    tag_293:\n        /* \"contracts/AMM.sol\":5074:5117  getAmountOut(amountXIn, reserveX, reserveY) */\n      tag_295\n        /* \"contracts/AMM.sol\":5087:5096  amountXIn */\n      dup4\n        /* \"contracts/AMM.sol\":5098:5106  reserveX */\n      sload(0x08)\n        /* \"contracts/AMM.sol\":5108:5116  reserveY */\n      sload(0x09)\n        /* \"contracts/AMM.sol\":5074:5086  getAmountOut */\n      tag_47\n        /* \"contracts/AMM.sol\":5074:5117  getAmountOut(amountXIn, reserveX, reserveY) */\n      jump\t// in\n    tag_295:\n        /* \"contracts/AMM.sol\":5061:5117  amountYOut = getAmountOut(amountXIn, reserveX, reserveY) */\n      swap1\n      pop\n        /* \"contracts/AMM.sol\":5149:5162  minAmountYOut */\n      dup2\n        /* \"contracts/AMM.sol\":5135:5145  amountYOut */\n      dup2\n        /* \"contracts/AMM.sol\":5135:5162  amountYOut >= minAmountYOut */\n      lt\n      iszero\n        /* \"contracts/AMM.sol\":5127:5198  require(amountYOut >= minAmountYOut, \"AMM: Insufficient output amount\") */\n      tag_296\n      jumpi\n      mload(0x40)\n      0x08c379a000000000000000000000000000000000000000000000000000000000\n      dup2\n      mstore\n      0x04\n      add\n      tag_297\n      swap1\n      tag_191\n      jump\t// in\n    tag_297:\n      mload(0x40)\n      dup1\n      swap2\n      sub\n      swap1\n      revert\n    tag_296:\n        /* \"contracts/AMM.sol\":5209:5270  tokenX.safeTransferFrom(msg.sender, address(this), amountXIn) */\n      tag_298\n        /* \"contracts/AMM.sol\":5233:5243  msg.sender */\n      caller\n        /* \"contracts/AMM.sol\":5253:5257  this */\n      address\n        /* \"contracts/AMM.sol\":5260:5269  amountXIn */\n      dup6\n        /* \"contracts/AMM.sol\":5209:5215  tokenX */\n      0x06\n      0x00\n      swap1\n      sload\n      swap1\n      0x0100\n      exp\n      swap1\n      div\n      0xffffffffffffffffffffffffffffffffffffffff\n      and\n        /* \"contracts/AMM.sol\":5209:5232  tokenX.safeTransferFrom */\n      0xffffffffffffffffffffffffffffffffffffffff\n      and\n      tag_193\n      swap1\n        /* \"contracts/AMM.sol\":5209:5270  tokenX.safeTransferFrom(msg.sender, address(this), amountXIn) */\n      swap4\n      swap3\n      swap2\n      swap1\n      0xffffffff\n      and\n      jump\t// in\n    tag_298:\n        /* \"contracts/AMM.sol\":5280:5323  tokenY.safeTransfer(msg.sender, amountYOut) */\n      tag_299\n        /* \"contracts/AMM.sol\":5300:5310  msg.sender */\n      caller\n        /* \"contracts/AMM.sol\":5312:5322  amountYOut */\n      dup3\n        /* \"contracts/AMM.sol\":5280:5286  tokenY */\n      0x07\n      0x00\n      swap1\n      sload\n      swap1\n      0x0100\n      exp\n      swap1\n      div\n      0xffffffffffffffffffffffffffffffffffffffff\n      and\n        /* \"contracts/AMM.sol\":5280:5299  tokenY.safeTransfer */\n      0xffffffffffffffffffffffffffffffffffffffff\n      and\n      tag_195\n      swap1\n        /* \"contracts/AMM.sol\":5280:5323  tokenY.safeTransfer(msg.sender, amountYOut) */\n      swap3\n      swap2\n      swap1\n      0xffffffff\n      and\n      jump\t// in\n    tag_299:\n        /* \"contracts/AMM.sol\":5346:5355  amountXIn */\n      dup3\n        /* \"contracts/AMM.sol\":5334:5342  reserveX */\n      0x08\n      0x00\n        /* \"contracts/AMM.sol\":5334:5355  reserveX += amountXIn */\n      dup3\n      dup3\n      sload\n      tag_300\n      swap2\n      swap1\n      tag_158\n      jump\t// in\n    tag_300:\n      swap3\n      pop\n      pop\n      dup2\n      swap1\n      sstore\n      pop\n        /* \"contracts/AMM.sol\":5377:5387  amountYOut */\n      dup1\n        /* \"contracts/AMM.sol\":5365:5373  reserveY */\n      0x09\n      0x00\n        /* \"contracts/AMM.sol\":5365:5387  reserveY -= amountYOut */\n      dup3\n      dup3\n      sload\n      tag_301\n      swap2\n      swap1\n      tag_152\n      jump\t// in\n    tag_301:\n      swap3\n      pop\n      pop\n      dup2\n      swap1\n      sstore\n      pop\n        /* \"contracts/AMM.sol\":5398:5410  updateTwap() */\n      tag_302\n        /* \"contracts/AMM.sol\":5398:5408  updateTwap */\n      tag_199\n        /* \"contracts/AMM.sol\":5398:5410  updateTwap() */\n      jump\t// in\n    tag_302:\n        /* \"contracts/AMM.sol\":5431:5441  msg.sender */\n      caller\n        /* \"contracts/AMM.sol\":5426:5499  Swap(msg.sender, amountXIn, amountYOut, address(tokenX), address(tokenY)) */\n      0xffffffffffffffffffffffffffffffffffffffff\n      and\n      0x053d794b2310b8d186a24ae24a65ee066983a52a6efa6bd3df09a7601a3cb4f3\n        /* \"contracts/AMM.sol\":5443:5452  amountXIn */\n      dup5\n        /* \"contracts/AMM.sol\":5454:5464  amountYOut */\n      dup4\n        /* \"contracts/AMM.sol\":5474:5480  tokenX */\n      0x06\n      0x00\n      swap1\n      sload\n      swap1\n      0x0100\n      exp\n      swap1\n      div\n      0xffffffffffffffffffffffffffffffffffffffff\n      and\n        /* \"contracts/AMM.sol\":5491:5497  tokenY */\n      0x07\n      0x00\n      swap1\n      sload\n      swap1\n      0x0100\n      exp\n      swap1\n      div\n      0xffffffffffffffffffffffffffffffffffffffff\n      and\n        /* \"contracts/AMM.sol\":5426:5499  Swap(msg.sender, amountXIn, amountYOut, address(tokenX), address(tokenY)) */\n      mload(0x40)\n      tag_303\n      swap5\n      swap4\n      swap3\n      swap2\n      swap1\n      tag_201\n      jump\t// in\n    tag_303:\n      mload(0x40)\n      dup1\n      swap2\n      sub\n      swap1\n      log2\n        /* \"@openzeppelin/contracts/security/ReentrancyGuard.sol\":2303:2323  _nonReentrantAfter() */\n      tag_304\n        /* \"@openzeppelin/contracts/security/ReentrancyGuard.sol\":2303:2321  _nonReentrantAfter */\n      tag_203\n        /* \"@openzeppelin/contracts/security/ReentrancyGuard.sol\":2303:2323  _nonReentrantAfter() */\n      jump\t// in\n    tag_304:\n        /* \"contracts/AMM.sol\":4878:5506  function swapXForY(uint256 amountXIn, uint256 minAmountYOut) external nonReentrant returns (uint256 amountYOut) {... */\n      swap3\n      swap2\n      pop\n      pop\n      jump\t// out\n        /* \"@openzeppelin/contracts/token/ERC20/ERC20.sol\":3846:3986  function allowance(address owner, address spender) public view virtual returns (uint256) {... */\n    tag_139:\n        /* \"@openzeppelin/contracts/token/ERC20/ERC20.sol\":3926:3933  uint256 */\n      0x00\n        /* \"@openzeppelin/contracts/token/ERC20/ERC20.sol\":3952:3963  _allowances */\n      0x01\n        /* \"@openzeppelin/contracts/token/ERC20/ERC20.sol\":3952:3970  _allowances[owner] */\n      0x00\n        /* \"@openzeppelin/contracts/token/ERC20/ERC20.sol\":3964:3969  owner */\n      dup5\n        /* \"@openzeppelin/contracts/token/ERC20/ERC20.sol\":3952:3970  _allowances[owner] */\n      0xffffffffffffffffffffffffffffffffffffffff\n      and\n      0xffffffffffffffffffffffffffffffffffffffff\n      and\n      dup2\n      mstore\n      0x20\n      add\n      swap1\n      dup2\n      mstore\n      0x20\n      add\n      0x00\n      keccak256\n        /* \"@openzeppelin/contracts/token/ERC20/ERC20.sol\":3952:3979  _allowances[owner][spender] */\n      0x00\n        /* \"@openzeppelin/contracts/token/ERC20/ERC20.sol\":3971:3978  spender */\n      dup4\n        /* \"@openzeppelin/contracts/token/ERC20/ERC20.sol\":3952:3979  _allowances[owner][spender] */\n      0xffffffffffffffffffffffffffffffffffffffff\n      and\n      0xffffffffffffffffffffffffffffffffffffffff\n      and\n      dup2\n      mstore\n      0x20\n      add\n      swap1\n      dup2\n      mstore\n      0x20\n      add\n      0x00\n      keccak256\n      sload\n        /* \"@openzeppelin/contracts/token/ERC20/ERC20.sol\":3945:3979  return _allowances[owner][spender] */\n      swap1\n      pop\n        /* \"@openzeppelin/contracts/token/ERC20/ERC20.sol\":3846:3986  function allowance(address owner, address spender) public view virtual returns (uint256) {... */\n      swap3\n      swap2\n      pop\n      pop\n      jump\t// out\n        /* \"contracts/AMM.sol\":1069:1110  mapping(address => bool) public governors */\n    tag_143:\n      mstore(0x20, 0x0b)\n      dup1\n      0x00\n      mstore\n      keccak256(0x00, 0x40)\n      0x00\n      swap2\n      pop\n      sload\n      swap1\n      0x0100\n      exp\n      swap1\n      div\n      0xff\n      and\n      dup2\n      jump\t// out\n        /* \"contracts/AMM.sol\":8798:9347  function removeGovernor(address _governor) external onlyGovernor {... */\n    tag_147:\n        /* \"contracts/AMM.sol\":1971:1980  governors */\n      0x0b\n        /* \"contracts/AMM.sol\":1971:1992  governors[msg.sender] */\n      0x00\n        /* \"contracts/AMM.sol\":1981:1991  msg.sender */\n      caller\n        /* \"contracts/AMM.sol\":1971:1992  governors[msg.sender] */\n      0xffffffffffffffffffffffffffffffffffffffff\n      and\n      0xffffffffffffffffffffffffffffffffffffffff\n      and\n      dup2\n      mstore\n      0x20\n      add\n      swap1\n      dup2\n      mstore\n      0x20\n      add\n      0x00\n      keccak256\n      0x00\n      swap1\n      sload\n      swap1\n      0x0100\n      exp\n      swap1\n      div\n      0xff\n      and\n        /* \"contracts/AMM.sol\":1963:2026  require(governors[msg.sender], \"AMM: caller is not a governor\") */\n      tag_307\n      jumpi\n      mload(0x40)\n      0x08c379a000000000000000000000000000000000000000000000000000000000\n      dup2\n      mstore\n      0x04\n      add\n      tag_308\n      swap1\n      tag_208\n      jump\t// in\n    tag_308:\n      mload(0x40)\n      dup1\n      swap2\n      sub\n      swap1\n      revert\n    tag_307:\n        /* \"contracts/AMM.sol\":8902:8903  0 */\n      0x00\n        /* \"contracts/AMM.sol\":8881:8904  _governor != address(0) */\n      0xffffffffffffffffffffffffffffffffffffffff\n      and\n        /* \"contracts/AMM.sol\":8881:8890  _governor */\n      dup2\n        /* \"contracts/AMM.sol\":8881:8904  _governor != address(0) */\n      0xffffffffffffffffffffffffffffffffffffffff\n      and\n      sub\n        /* \"contracts/AMM.sol\":8873:8938  require(_governor != address(0), \"AMM: Invalid governor address\") */\n      tag_310\n      jumpi\n      mload(0x40)\n      0x08c379a000000000000000000000000000000000000000000000000000000000\n      dup2\n      mstore\n      0x04\n      add\n      tag_311\n      swap1\n      tag_212\n      jump\t// in\n    tag_311:\n      mload(0x40)\n      dup1\n      swap2\n      sub\n      swap1\n      revert\n    tag_310:\n        /* \"contracts/AMM.sol\":8956:8965  governors */\n      0x0b\n        /* \"contracts/AMM.sol\":8956:8976  governors[_governor] */\n      0x00\n        /* \"contracts/AMM.sol\":8966:8975  _governor */\n      dup3\n        /* \"contracts/AMM.sol\":8956:8976  governors[_governor] */\n      0xffffffffffffffffffffffffffffffffffffffff\n      and\n      0xffffffffffffffffffffffffffffffffffffffff\n      and\n      dup2\n      mstore\n      0x20\n      add\n      swap1\n      dup2\n      mstore\n      0x20\n      add\n      0x00\n      keccak256\n      0x00\n      swap1\n      sload\n      swap1\n      0x0100\n      exp\n      swap1\n      div\n      0xff\n      and\n        /* \"contracts/AMM.sol\":8948:9000  require(governors[_governor], \"AMM: Not a governor\") */\n      tag_312\n      jumpi\n      mload(0x40)\n      0x08c379a000000000000000000000000000000000000000000000000000000000\n      dup2\n      mstore\n      0x04\n      add\n      tag_313\n      swap1\n      tag_314\n      jump\t// in\n    tag_313:\n      mload(0x40)\n      dup1\n      swap2\n      sub\n      swap1\n      revert\n    tag_312:\n        /* \"contracts/AMM.sol\":9033:9038  false */\n      0x00\n        /* \"contracts/AMM.sol\":9010:9019  governors */\n      0x0b\n        /* \"contracts/AMM.sol\":9010:9030  governors[_governor] */\n      0x00\n        /* \"contracts/AMM.sol\":9020:9029  _governor */\n      dup4\n        /* \"contracts/AMM.sol\":9010:9030  governors[_governor] */\n      0xffffffffffffffffffffffffffffffffffffffff\n      and\n      0xffffffffffffffffffffffffffffffffffffffff\n      and\n      dup2\n      mstore\n      0x20\n      add\n      swap1\n      dup2\n      mstore\n      0x20\n      add\n      0x00\n      keccak256\n      0x00\n        /* \"contracts/AMM.sol\":9010:9038  governors[_governor] = false */\n      0x0100\n      exp\n      dup2\n      sload\n      dup2\n      0xff\n      mul\n      not\n      and\n      swap1\n      dup4\n      iszero\n      iszero\n      mul\n      or\n      swap1\n      sstore\n      pop\n        /* \"contracts/AMM.sol\":9053:9059  uint i */\n      0x00\n        /* \"contracts/AMM.sol\":9048:9300  for (uint i = 0; i < governorList.length; i++) {... */\n    tag_315:\n        /* \"contracts/AMM.sol\":9069:9081  governorList */\n      0x0c\n        /* \"contracts/AMM.sol\":9069:9088  governorList.length */\n      dup1\n      sload\n      swap1\n      pop\n        /* \"contracts/AMM.sol\":9065:9066  i */\n      dup2\n        /* \"contracts/AMM.sol\":9065:9088  i < governorList.length */\n      lt\n        /* \"contracts/AMM.sol\":9048:9300  for (uint i = 0; i < governorList.length; i++) {... */\n      iszero\n      tag_316\n      jumpi\n        /* \"contracts/AMM.sol\":9132:9141  _governor */\n      dup2\n        /* \"contracts/AMM.sol\":9113:9141  governorList[i] == _governor */\n      0xffffffffffffffffffffffffffffffffffffffff\n      and\n        /* \"contracts/AMM.sol\":9113:9125  governorList */\n      0x0c\n        /* \"contracts/AMM.sol\":9126:9127  i */\n      dup3\n        /* \"contracts/AMM.sol\":9113:9128  governorList[i] */\n      dup2\n      sload\n      dup2\n      lt\n      tag_318\n      jumpi\n      tag_319\n      tag_320\n      jump\t// in\n    tag_319:\n    tag_318:\n      swap1\n      0x00\n      mstore\n      keccak256(0x00, 0x20)\n      add\n      0x00\n      swap1\n      sload\n      swap1\n      0x0100\n      exp\n      swap1\n      div\n      0xffffffffffffffffffffffffffffffffffffffff\n      and\n        /* \"contracts/AMM.sol\":9113:9141  governorList[i] == _governor */\n      0xffffffffffffffffffffffffffffffffffffffff\n      and\n      sub\n        /* \"contracts/AMM.sol\":9109:9290  if (governorList[i] == _governor) {... */\n      tag_322\n      jumpi\n        /* \"contracts/AMM.sol\":9179:9191  governorList */\n      0x0c\n        /* \"contracts/AMM.sol\":9214:9215  1 */\n      0x01\n        /* \"contracts/AMM.sol\":9192:9204  governorList */\n      0x0c\n        /* \"contracts/AMM.sol\":9192:9211  governorList.length */\n      dup1\n      sload\n      swap1\n      pop\n        /* \"contracts/AMM.sol\":9192:9215  governorList.length - 1 */\n      tag_323\n      swap2\n      swap1\n      tag_152\n      jump\t// in\n    tag_323:\n        /* \"contracts/AMM.sol\":9179:9216  governorList[governorList.length - 1] */\n      dup2\n      sload\n      dup2\n      lt\n      tag_324\n      jumpi\n      tag_325\n      tag_320\n      jump\t// in\n    tag_325:\n    tag_324:\n      swap1\n      0x00\n      mstore\n      keccak256(0x00, 0x20)\n      add\n      0x00\n      swap1\n      sload\n      swap1\n      0x0100\n      exp\n      swap1\n      div\n      0xffffffffffffffffffffffffffffffffffffffff\n      and\n        /* \"contracts/AMM.sol\":9161:9173  governorList */\n      0x0c\n        /* \"contracts/AMM.sol\":9174:9175  i */\n      dup3\n        /* \"contracts/AMM.sol\":9161:9176  governorList[i] */\n      dup2\n      sload\n      dup2\n      lt\n      tag_327\n      jumpi\n      tag_328\n      tag_320\n      jump\t// in\n    tag_328:\n    tag_327:\n      swap1\n      0x00\n      mstore\n      keccak256(0x00, 0x20)\n      add\n      0x00\n        /* \"contracts/AMM.sol\":9161:9216  governorList[i] = governorList[governorList.length - 1] */\n      0x0100\n      exp\n      dup2\n      sload\n      dup2\n      0xffffffffffffffffffffffffffffffffffffffff\n      mul\n      not\n      and\n      swap1\n      dup4\n      0xffffffffffffffffffffffffffffffffffffffff\n      and\n      mul\n      or\n      swap1\n      sstore\n      pop\n        /* \"contracts/AMM.sol\":9234:9246  governorList */\n      0x0c\n        /* \"contracts/AMM.sol\":9234:9252  governorList.pop() */\n      dup1\n      sload\n      dup1\n      tag_330\n      jumpi\n      tag_331\n      tag_332\n      jump\t// in\n    tag_331:\n    tag_330:\n      0x01\n      swap1\n      sub\n      dup2\n      dup2\n      swap1\n      0x00\n      mstore\n      keccak256(0x00, 0x20)\n      add\n      exp(0x0100, 0x00)\n      dup2\n      sload\n      swap1\n      0xffffffffffffffffffffffffffffffffffffffff\n      mul\n      not\n      and\n      swap1\n      sstore\n      swap1\n      sstore\n        /* \"contracts/AMM.sol\":9270:9275  break */\n      jump(tag_316)\n        /* \"contracts/AMM.sol\":9109:9290  if (governorList[i] == _governor) {... */\n    tag_322:\n        /* \"contracts/AMM.sol\":9090:9093  i++ */\n      dup1\n      dup1\n      0x01\n      add\n      swap2\n      pop\n      pop\n        /* \"contracts/AMM.sol\":9048:9300  for (uint i = 0; i < governorList.length; i++) {... */\n      jump(tag_315)\n    tag_316:\n      pop\n        /* \"contracts/AMM.sol\":9330:9339  _governor */\n      dup1\n        /* \"contracts/AMM.sol\":9314:9340  GovernorRemoved(_governor) */\n      0xffffffffffffffffffffffffffffffffffffffff\n      and\n      0x1ebe834e73d60a5fec822c1e1727d34bc79f2ad977ed504581cc1822fe20fb5b\n      mload(0x40)\n      mload(0x40)\n      dup1\n      swap2\n      sub\n      swap1\n      log2\n        /* \"contracts/AMM.sol\":8798:9347  function removeGovernor(address _governor) external onlyGovernor {... */\n      pop\n      jump\t// out\n        /* \"@openzeppelin/contracts/utils/Context.sol\":656:752  function _msgSender() internal view virtual returns (address) {... */\n    tag_171:\n        /* \"@openzeppelin/contracts/utils/Context.sol\":709:716  address */\n      0x00\n        /* \"@openzeppelin/contracts/utils/Context.sol\":735:745  msg.sender */\n      caller\n        /* \"@openzeppelin/contracts/utils/Context.sol\":728:745  return msg.sender */\n      swap1\n      pop\n        /* \"@openzeppelin/contracts/utils/Context.sol\":656:752  function _msgSender() internal view virtual returns (address) {... */\n      swap1\n      jump\t// out\n        /* \"@openzeppelin/contracts/token/ERC20/ERC20.sol\":8989:9117  function _approve(address owner, address spender, uint256 value) internal {... */\n    tag_173:\n        /* \"@openzeppelin/contracts/token/ERC20/ERC20.sol\":9073:9110  _approve(owner, spender, value, true) */\n      tag_336\n        /* \"@openzeppelin/contracts/token/ERC20/ERC20.sol\":9082:9087  owner */\n      dup4\n        /* \"@openzeppelin/contracts/token/ERC20/ERC20.sol\":9089:9096  spender */\n      dup4\n        /* \"@openzeppelin/contracts/token/ERC20/ERC20.sol\":9098:9103  value */\n      dup4\n        /* \"@openzeppelin/contracts/token/ERC20/ERC20.sol\":9105:9109  true */\n      0x01\n        /* \"@openzeppelin/contracts/token/ERC20/ERC20.sol\":9073:9081  _approve */\n      tag_337\n        /* \"@openzeppelin/contracts/token/ERC20/ERC20.sol\":9073:9110  _approve(owner, spender, value, true) */\n      jump\t// in\n    tag_336:\n        /* \"@openzeppelin/contracts/token/ERC20/ERC20.sol\":8989:9117  function _approve(address owner, address spender, uint256 value) internal {... */\n      pop\n      pop\n      pop\n      jump\t// out\n        /* \"@openzeppelin/contracts/token/ERC20/ERC20.sol\":10663:11140  function _spendAllowance(address owner, address spender, uint256 value) internal virtual {... */\n    tag_178:\n        /* \"@openzeppelin/contracts/token/ERC20/ERC20.sol\":10762:10786  uint256 currentAllowance */\n      0x00\n        /* \"@openzeppelin/contracts/token/ERC20/ERC20.sol\":10789:10814  allowance(owner, spender) */\n      tag_339\n        /* \"@openzeppelin/contracts/token/ERC20/ERC20.sol\":10799:10804  owner */\n      dup5\n        /* \"@openzeppelin/contracts/token/ERC20/ERC20.sol\":10806:10813  spender */\n      dup5\n        /* \"@openzeppelin/contracts/token/ERC20/ERC20.sol\":10789:10798  allowance */\n      tag_139\n        /* \"@openzeppelin/contracts/token/ERC20/ERC20.sol\":10789:10814  allowance(owner, spender) */\n      jump\t// in\n    tag_339:\n        /* \"@openzeppelin/contracts/token/ERC20/ERC20.sol\":10762:10814  uint256 currentAllowance = allowance(owner, spender) */\n      swap1\n      pop\n        /* \"@openzeppelin/contracts/token/ERC20/ERC20.sol\":10848:10865  type(uint256).max */\n      0xffffffffffffffffffffffffffffffffffffffffffffffffffffffffffffffff\n        /* \"@openzeppelin/contracts/token/ERC20/ERC20.sol\":10828:10844  currentAllowance */\n      dup2\n        /* \"@openzeppelin/contracts/token/ERC20/ERC20.sol\":10828:10865  currentAllowance != type(uint256).max */\n      eq\n        /* \"@openzeppelin/contracts/token/ERC20/ERC20.sol\":10824:11134  if (currentAllowance != type(uint256).max) {... */\n      tag_340\n      jumpi\n        /* \"@openzeppelin/contracts/token/ERC20/ERC20.sol\":10904:10909  value */\n      dup2\n        /* \"@openzeppelin/contracts/token/ERC20/ERC20.sol\":10885:10901  currentAllowance */\n      dup2\n        /* \"@openzeppelin/contracts/token/ERC20/ERC20.sol\":10885:10909  currentAllowance < value */\n      lt\n        /* \"@openzeppelin/contracts/token/ERC20/ERC20.sol\":10881:11011  if (currentAllowance < value) {... */\n      iszero\n      tag_341\n      jumpi\n        /* \"@openzeppelin/contracts/token/ERC20/ERC20.sol\":10963:10970  spender */\n      dup3\n        /* \"@openzeppelin/contracts/token/ERC20/ERC20.sol\":10972:10988  currentAllowance */\n      dup2\n        /* \"@openzeppelin/contracts/token/ERC20/ERC20.sol\":10990:10995  value */\n      dup4\n        /* \"@openzeppelin/contracts/token/ERC20/ERC20.sol\":10936:10996  ERC20InsufficientAllowance(spender, currentAllowance, value) */\n      mload(0x40)\n      0xfb8f41b200000000000000000000000000000000000000000000000000000000\n      dup2\n      mstore\n      0x04\n      add\n      tag_342\n      swap4\n      swap3\n      swap2\n      swap1\n      tag_343\n      jump\t// in\n    tag_342:\n      mload(0x40)\n      dup1\n      swap2\n      sub\n      swap1\n      revert\n        /* \"@openzeppelin/contracts/token/ERC20/ERC20.sol\":10881:11011  if (currentAllowance < value) {... */\n    tag_341:\n        /* \"@openzeppelin/contracts/token/ERC20/ERC20.sol\":11052:11109  _approve(owner, spender, currentAllowance - value, false) */\n      tag_344\n        /* \"@openzeppelin/contracts/token/ERC20/ERC20.sol\":11061:11066  owner */\n      dup5\n        /* \"@openzeppelin/contracts/token/ERC20/ERC20.sol\":11068:11075  spender */\n      dup5\n        /* \"@openzeppelin/contracts/token/ERC20/ERC20.sol\":11096:11101  value */\n      dup5\n        /* \"@openzeppelin/contracts/token/ERC20/ERC20.sol\":11077:11093  currentAllowance */\n      dup5\n        /* \"@openzeppelin/contracts/token/ERC20/ERC20.sol\":11077:11101  currentAllowance - value */\n      sub\n        /* \"@openzeppelin/contracts/token/ERC20/ERC20.sol\":11103:11108  false */\n      0x00\n        /* \"@openzeppelin/contracts/token/ERC20/ERC20.sol\":11052:11060  _approve */\n      tag_337\n        /* \"@openzeppelin/contracts/token/ERC20/ERC20.sol\":11052:11109  _approve(owner, spender, currentAllowance - value, false) */\n      jump\t// in\n    tag_344:\n        /* \"@openzeppelin/contracts/token/ERC20/ERC20.sol\":10824:11134  if (currentAllowance != type(uint256).max) {... */\n    tag_340:\n        /* \"@openzeppelin/contracts/token/ERC20/ERC20.sol\":10752:11140  {... */\n      pop\n        /* \"@openzeppelin/contracts/token/ERC20/ERC20.sol\":10663:11140  function _spendAllowance(address owner, address spender, uint256 value) internal virtual {... */\n      pop\n      pop\n      pop\n      jump\t// out\n        /* \"@openzeppelin/contracts/token/ERC20/ERC20.sol\":5656:5956  function _transfer(address from, address to, uint256 value) internal {... */\n    tag_180:\n        /* \"@openzeppelin/contracts/token/ERC20/ERC20.sol\":5755:5756  0 */\n      0x00\n        /* \"@openzeppelin/contracts/token/ERC20/ERC20.sol\":5739:5757  from == address(0) */\n      0xffffffffffffffffffffffffffffffffffffffff\n      and\n        /* \"@openzeppelin/contracts/token/ERC20/ERC20.sol\":5739:5743  from */\n      dup4\n        /* \"@openzeppelin/contracts/token/ERC20/ERC20.sol\":5739:5757  from == address(0) */\n      0xffffffffffffffffffffffffffffffffffffffff\n      and\n      sub\n        /* \"@openzeppelin/contracts/token/ERC20/ERC20.sol\":5735:5821  if (from == address(0)) {... */\n      tag_346\n      jumpi\n        /* \"@openzeppelin/contracts/token/ERC20/ERC20.sol\":5807:5808  0 */\n      0x00\n        /* \"@openzeppelin/contracts/token/ERC20/ERC20.sol\":5780:5810  ERC20InvalidSender(address(0)) */\n      mload(0x40)\n      0x96c6fd1e00000000000000000000000000000000000000000000000000000000\n      dup2\n      mstore\n      0x04\n      add\n      tag_347\n      swap2\n      swap1\n      tag_43\n      jump\t// in\n    tag_347:\n      mload(0x40)\n      dup1\n      swap2\n      sub\n      swap1\n      revert\n        /* \"@openzeppelin/contracts/token/ERC20/ERC20.sol\":5735:5821  if (from == address(0)) {... */\n    tag_346:\n        /* \"@openzeppelin/contracts/token/ERC20/ERC20.sol\":5848:5849  0 */\n      0x00\n        /* \"@openzeppelin/contracts/token/ERC20/ERC20.sol\":5834:5850  to == address(0) */\n      0xffffffffffffffffffffffffffffffffffffffff\n      and\n        /* \"@openzeppelin/contracts/token/ERC20/ERC20.sol\":5834:5836  to */\n      dup3\n        /* \"@openzeppelin/contracts/token/ERC20/ERC20.sol\":5834:5850  to == address(0) */\n      0xffffffffffffffffffffffffffffffffffffffff\n      and\n      sub\n        /* \"@openzeppelin/contracts/token/ERC20/ERC20.sol\":5830:5916  if (to == address(0)) {... */\n      tag_348\n      jumpi\n        /* \"@openzeppelin/contracts/token/ERC20/ERC20.sol\":5902:5903  0 */\n      0x00\n        /* \"@openzeppelin/contracts/token/ERC20/ERC20.sol\":5873:5905  ERC20InvalidReceiver(address(0)) */\n      mload(0x40)\n      0xec442f0500000000000000000000000000000000000000000000000000000000\n      dup2\n      mstore\n      0x04\n      add\n      tag_349\n      swap2\n      swap1\n      tag_43\n      jump\t// in\n    tag_349:\n      mload(0x40)\n      dup1\n      swap2\n      sub\n      swap1\n      revert\n        /* \"@openzeppelin/contracts/token/ERC20/ERC20.sol\":5830:5916  if (to == address(0)) {... */\n    tag_348:\n        /* \"@openzeppelin/contracts/token/ERC20/ERC20.sol\":5925:5949  _update(from, to, value) */\n      tag_350\n        /* \"@openzeppelin/contracts/token/ERC20/ERC20.sol\":5933:5937  from */\n      dup4\n        /* \"@openzeppelin/contracts/token/ERC20/ERC20.sol\":5939:5941  to */\n      dup4\n        /* \"@openzeppelin/contracts/token/ERC20/ERC20.sol\":5943:5948  value */\n      dup4\n        /* \"@openzeppelin/contracts/token/ERC20/ERC20.sol\":5925:5932  _update */\n      tag_351\n        /* \"@openzeppelin/contracts/token/ERC20/ERC20.sol\":5925:5949  _update(from, to, value) */\n      jump\t// in\n    tag_350:\n        /* \"@openzeppelin/contracts/token/ERC20/ERC20.sol\":5656:5956  function _transfer(address from, address to, uint256 value) internal {... */\n      pop\n      pop\n      pop\n      jump\t// out\n        /* \"@openzeppelin/contracts/security/ReentrancyGuard.sol\":2336:2623  function _nonReentrantBefore() private {... */\n    tag_183:\n        /* \"@openzeppelin/contracts/security/ReentrancyGuard.sol\":1759:1760  2 */\n      0x02\n        /* \"@openzeppelin/contracts/security/ReentrancyGuard.sol\":2468:2475  _status */\n      sload(0x05)\n        /* \"@openzeppelin/contracts/security/ReentrancyGuard.sol\":2468:2487  _status != _ENTERED */\n      sub\n        /* \"@openzeppelin/contracts/security/ReentrancyGuard.sol\":2460:2523  require(_status != _ENTERED, \"ReentrancyGuard: reentrant call\") */\n      tag_353\n      jumpi\n      mload(0x40)\n      0x08c379a000000000000000000000000000000000000000000000000000000000\n      dup2\n      mstore\n      0x04\n      add\n      tag_354\n      swap1\n      tag_355\n      jump\t// in\n    tag_354:\n      mload(0x40)\n      dup1\n      swap2\n      sub\n      swap1\n      revert\n    tag_353:\n        /* \"@openzeppelin/contracts/security/ReentrancyGuard.sol\":1759:1760  2 */\n      0x02\n        /* \"@openzeppelin/contracts/security/ReentrancyGuard.sol\":2598:2605  _status */\n      0x05\n        /* \"@openzeppelin/contracts/security/ReentrancyGuard.sol\":2598:2616  _status = _ENTERED */\n      dup2\n      swap1\n      sstore\n      pop\n        /* \"@openzeppelin/contracts/security/ReentrancyGuard.sol\":2336:2623  function _nonReentrantBefore() private {... */\n      jump\t// out\n        /* \"@openzeppelin/contracts/token/ERC20/utils/SafeERC20.sol\":1702:1890  function safeTransferFrom(IERC20 token, address from, address to, uint256 value) internal {... */\n    tag_193:\n        /* \"@openzeppelin/contracts/token/ERC20/utils/SafeERC20.sol\":1802:1883  _callOptionalReturn(token, abi.encodeCall(token.transferFrom, (from, to, value))) */\n      tag_357\n        /* \"@openzeppelin/contracts/token/ERC20/utils/SafeERC20.sol\":1822:1827  token */\n      dup5\n        /* \"@openzeppelin/contracts/token/ERC20/utils/SafeERC20.sol\":1844:1849  token */\n      dup6\n        /* \"@openzeppelin/contracts/token/ERC20/utils/SafeERC20.sol\":1844:1862  token.transferFrom */\n      0xffffffffffffffffffffffffffffffffffffffff\n      and\n      0x23b872dd\n        /* \"@openzeppelin/contracts/token/ERC20/utils/SafeERC20.sol\":1865:1869  from */\n      dup7\n        /* \"@openzeppelin/contracts/token/ERC20/utils/SafeERC20.sol\":1871:1873  to */\n      dup7\n        /* \"@openzeppelin/contracts/token/ERC20/utils/SafeERC20.sol\":1875:1880  value */\n      dup7\n        /* \"@openzeppelin/contracts/token/ERC20/utils/SafeERC20.sol\":1829:1882  abi.encodeCall(token.transferFrom, (from, to, value)) */\n      add(0x24, mload(0x40))\n      tag_358\n      swap4\n      swap3\n      swap2\n      swap1\n      tag_359\n      jump\t// in\n    tag_358:\n      mload(0x40)\n      0x20\n      dup2\n      dup4\n      sub\n      sub\n      dup2\n      mstore\n      swap1\n      0x40\n      mstore\n      swap2\n      pop\n      0xe0\n      shl\n      0x20\n      dup3\n      add\n      dup1\n      mload\n      0xffffffffffffffffffffffffffffffffffffffffffffffffffffffff\n      dup4\n      dup2\n      dup4\n      and\n      or\n      dup4\n      mstore\n      pop\n      pop\n      pop\n      pop\n        /* \"@openzeppelin/contracts/token/ERC20/utils/SafeERC20.sol\":1802:1821  _callOptionalReturn */\n      tag_360\n        /* \"@openzeppelin/contracts/token/ERC20/utils/SafeERC20.sol\":1802:1883  _callOptionalReturn(token, abi.encodeCall(token.transferFrom, (from, to, value))) */\n      jump\t// in\n    tag_357:\n        /* \"@openzeppelin/contracts/token/ERC20/utils/SafeERC20.sol\":1702:1890  function safeTransferFrom(IERC20 token, address from, address to, uint256 value) internal {... */\n      pop\n      pop\n      pop\n      pop\n      jump\t// out\n        /* \"@openzeppelin/contracts/token/ERC20/utils/SafeERC20.sol\":1303:1463  function safeTransfer(IERC20 token, address to, uint256 value) internal {... */\n    tag_195:\n        /* \"@openzeppelin/contracts/token/ERC20/utils/SafeERC20.sol\":1385:1456  _callOptionalReturn(token, abi.encodeCall(token.transfer, (to, value))) */\n      tag_362\n        /* \"@openzeppelin/contracts/token/ERC20/utils/SafeERC20.sol\":1405:1410  token */\n      dup4\n        /* \"@openzeppelin/contracts/token/ERC20/utils/SafeERC20.sol\":1427:1432  token */\n      dup5\n        /* \"@openzeppelin/contracts/token/ERC20/utils/SafeERC20.sol\":1427:1441  token.transfer */\n      0xffffffffffffffffffffffffffffffffffffffff\n      and\n      0xa9059cbb\n        /* \"@openzeppelin/contracts/token/ERC20/utils/SafeERC20.sol\":1444:1446  to */\n      dup6\n        /* \"@openzeppelin/contracts/token/ERC20/utils/SafeERC20.sol\":1448:1453  value */\n      dup6\n        /* \"@openzeppelin/contracts/token/ERC20/utils/SafeERC20.sol\":1412:1455  abi.encodeCall(token.transfer, (to, value)) */\n      add(0x24, mload(0x40))\n      tag_363\n      swap3\n      swap2\n      swap1\n      tag_364\n      jump\t// in\n    tag_363:\n      mload(0x40)\n      0x20\n      dup2\n      dup4\n      sub\n      sub\n      dup2\n      mstore\n      swap1\n      0x40\n      mstore\n      swap2\n      pop\n      0xe0\n      shl\n      0x20\n      dup3\n      add\n      dup1\n      mload\n      0xffffffffffffffffffffffffffffffffffffffffffffffffffffffff\n      dup4\n      dup2\n      dup4\n      and\n      or\n      dup4\n      mstore\n      pop\n      pop\n      pop\n      pop\n        /* \"@openzeppelin/contracts/token/ERC20/utils/SafeERC20.sol\":1385:1404  _callOptionalReturn */\n      tag_360\n        /* \"@openzeppelin/contracts/token/ERC20/utils/SafeERC20.sol\":1385:1456  _callOptionalReturn(token, abi.encodeCall(token.transfer, (to, value))) */\n      jump\t// in\n    tag_362:\n        /* \"@openzeppelin/contracts/token/ERC20/utils/SafeERC20.sol\":1303:1463  function safeTransfer(IERC20 token, address to, uint256 value) internal {... */\n      pop\n      pop\n      pop\n      jump\t// out\n        /* \"contracts/AMM.sol\":7532:7855  function updateTwap() internal {... */\n    tag_199:\n        /* \"contracts/AMM.sol\":7616:7628  twapInterval */\n      sload(0x0d)\n        /* \"contracts/AMM.sol\":7596:7613  lastTwapTimestamp */\n      sload(0x10)\n        /* \"contracts/AMM.sol\":7596:7628  lastTwapTimestamp + twapInterval */\n      tag_366\n      swap2\n      swap1\n      tag_158\n      jump\t// in\n    tag_366:\n        /* \"contracts/AMM.sol\":7577:7592  block.timestamp */\n      timestamp\n        /* \"contracts/AMM.sol\":7577:7628  block.timestamp >= lastTwapTimestamp + twapInterval */\n      lt\n        /* \"contracts/AMM.sol\":7573:7849  if (block.timestamp >= lastTwapTimestamp + twapInterval) {... */\n      tag_367\n      jumpi\n        /* \"contracts/AMM.sol\":7661:7669  reserveX */\n      sload(0x08)\n        /* \"contracts/AMM.sol\":7644:7658  lastTwapPriceX */\n      0x0e\n        /* \"contracts/AMM.sol\":7644:7669  lastTwapPriceX = reserveX */\n      dup2\n      swap1\n      sstore\n      pop\n        /* \"contracts/AMM.sol\":7700:7708  reserveY */\n      sload(0x09)\n        /* \"contracts/AMM.sol\":7683:7697  lastTwapPriceY */\n      0x0f\n        /* \"contracts/AMM.sol\":7683:7708  lastTwapPriceY = reserveY */\n      dup2\n      swap1\n      sstore\n      pop\n        /* \"contracts/AMM.sol\":7742:7757  block.timestamp */\n      timestamp\n        /* \"contracts/AMM.sol\":7722:7739  lastTwapTimestamp */\n      0x10\n        /* \"contracts/AMM.sol\":7722:7757  lastTwapTimestamp = block.timestamp */\n      dup2\n      swap1\n      sstore\n      pop\n        /* \"contracts/AMM.sol\":7776:7838  TwapUpdated(lastTwapPriceX, lastTwapPriceY, lastTwapTimestamp) */\n      0x9cfe07a59ebb9a772e1fee2abd40b53001de7c2f0b2e713de333f564118c32c4\n        /* \"contracts/AMM.sol\":7788:7802  lastTwapPriceX */\n      sload(0x0e)\n        /* \"contracts/AMM.sol\":7804:7818  lastTwapPriceY */\n      sload(0x0f)\n        /* \"contracts/AMM.sol\":7820:7837  lastTwapTimestamp */\n      sload(0x10)\n        /* \"contracts/AMM.sol\":7776:7838  TwapUpdated(lastTwapPriceX, lastTwapPriceY, lastTwapTimestamp) */\n      mload(0x40)\n      tag_368\n      swap4\n      swap3\n      swap2\n      swap1\n      tag_250\n      jump\t// in\n    tag_368:\n      mload(0x40)\n      dup1\n      swap2\n      sub\n      swap1\n      log1\n        /* \"contracts/AMM.sol\":7573:7849  if (block.timestamp >= lastTwapTimestamp + twapInterval) {... */\n    tag_367:\n        /* \"contracts/AMM.sol\":7532:7855  function updateTwap() internal {... */\n      jump\t// out\n        /* \"@openzeppelin/contracts/security/ReentrancyGuard.sol\":2629:2838  function _nonReentrantAfter() private {... */\n    tag_203:\n        /* \"@openzeppelin/contracts/security/ReentrancyGuard.sol\":1716:1717  1 */\n      0x01\n        /* \"@openzeppelin/contracts/security/ReentrancyGuard.sol\":2809:2816  _status */\n      0x05\n        /* \"@openzeppelin/contracts/security/ReentrancyGuard.sol\":2809:2831  _status = _NOT_ENTERED */\n      dup2\n      swap1\n      sstore\n      pop\n        /* \"@openzeppelin/contracts/security/ReentrancyGuard.sol\":2629:2838  function _nonReentrantAfter() private {... */\n      jump\t// out\n        /* \"@openzeppelin/contracts/token/ERC20/ERC20.sol\":8247:8453  function _burn(address account, uint256 value) internal {... */\n    tag_244:\n        /* \"@openzeppelin/contracts/token/ERC20/ERC20.sol\":8336:8337  0 */\n      0x00\n        /* \"@openzeppelin/contracts/token/ERC20/ERC20.sol\":8317:8338  account == address(0) */\n      0xffffffffffffffffffffffffffffffffffffffff\n      and\n        /* \"@openzeppelin/contracts/token/ERC20/ERC20.sol\":8317:8324  account */\n      dup3\n        /* \"@openzeppelin/contracts/token/ERC20/ERC20.sol\":8317:8338  account == address(0) */\n      0xffffffffffffffffffffffffffffffffffffffff\n      and\n      sub\n        /* \"@openzeppelin/contracts/token/ERC20/ERC20.sol\":8313:8402  if (account == address(0)) {... */\n      tag_371\n      jumpi\n        /* \"@openzeppelin/contracts/token/ERC20/ERC20.sol\":8388:8389  0 */\n      0x00\n        /* \"@openzeppelin/contracts/token/ERC20/ERC20.sol\":8361:8391  ERC20InvalidSender(address(0)) */\n      mload(0x40)\n      0x96c6fd1e00000000000000000000000000000000000000000000000000000000\n      dup2\n      mstore\n      0x04\n      add\n      tag_372\n      swap2\n      swap1\n      tag_43\n      jump\t// in\n    tag_372:\n      mload(0x40)\n      dup1\n      swap2\n      sub\n      swap1\n      revert\n        /* \"@openzeppelin/contracts/token/ERC20/ERC20.sol\":8313:8402  if (account == address(0)) {... */\n    tag_371:\n        /* \"@openzeppelin/contracts/token/ERC20/ERC20.sol\":8411:8446  _update(account, address(0), value) */\n      tag_373\n        /* \"@openzeppelin/contracts/token/ERC20/ERC20.sol\":8419:8426  account */\n      dup3\n        /* \"@openzeppelin/contracts/token/ERC20/ERC20.sol\":8436:8437  0 */\n      0x00\n        /* \"@openzeppelin/contracts/token/ERC20/ERC20.sol\":8440:8445  value */\n      dup4\n        /* \"@openzeppelin/contracts/token/ERC20/ERC20.sol\":8411:8418  _update */\n      tag_351\n        /* \"@openzeppelin/contracts/token/ERC20/ERC20.sol\":8411:8446  _update(account, address(0), value) */\n      jump\t// in\n    tag_373:\n        /* \"@openzeppelin/contracts/token/ERC20/ERC20.sol\":8247:8453  function _burn(address account, uint256 value) internal {... */\n      pop\n      pop\n      jump\t// out\n        /* \"contracts/AMM.sol\":9544:9845  function sqrt(uint256 y) internal pure returns (uint256 z) {... */\n    tag_268:\n        /* \"contracts/AMM.sol\":9592:9601  uint256 z */\n      0x00\n        /* \"contracts/AMM.sol\":9621:9622  3 */\n      0x03\n        /* \"contracts/AMM.sol\":9617:9618  y */\n      dup3\n        /* \"contracts/AMM.sol\":9617:9622  y > 3 */\n      gt\n        /* \"contracts/AMM.sol\":9613:9839  if (y > 3) {... */\n      iszero\n      tag_375\n      jumpi\n        /* \"contracts/AMM.sol\":9642:9643  y */\n      dup2\n        /* \"contracts/AMM.sol\":9638:9643  z = y */\n      swap1\n      pop\n        /* \"contracts/AMM.sol\":9657:9666  uint256 x */\n      0x00\n        /* \"contracts/AMM.sol\":9677:9678  1 */\n      0x01\n        /* \"contracts/AMM.sol\":9673:9674  2 */\n      0x02\n        /* \"contracts/AMM.sol\":9669:9670  y */\n      dup5\n        /* \"contracts/AMM.sol\":9669:9674  y / 2 */\n      tag_376\n      swap2\n      swap1\n      tag_160\n      jump\t// in\n    tag_376:\n        /* \"contracts/AMM.sol\":9669:9678  y / 2 + 1 */\n      tag_377\n      swap2\n      swap1\n      tag_158\n      jump\t// in\n    tag_377:\n        /* \"contracts/AMM.sol\":9657:9678  uint256 x = y / 2 + 1 */\n      swap1\n      pop\n        /* \"contracts/AMM.sol\":9692:9781  while (x < z) {... */\n    tag_378:\n        /* \"contracts/AMM.sol\":9703:9704  z */\n      dup2\n        /* \"contracts/AMM.sol\":9699:9700  x */\n      dup2\n        /* \"contracts/AMM.sol\":9699:9704  x < z */\n      lt\n        /* \"contracts/AMM.sol\":9692:9781  while (x < z) {... */\n      iszero\n      tag_379\n      jumpi\n        /* \"contracts/AMM.sol\":9728:9729  x */\n      dup1\n        /* \"contracts/AMM.sol\":9724:9729  z = x */\n      swap2\n      pop\n        /* \"contracts/AMM.sol\":9765:9766  2 */\n      0x02\n        /* \"contracts/AMM.sol\":9760:9761  x */\n      dup2\n        /* \"contracts/AMM.sol\":9756:9757  x */\n      dup3\n        /* \"contracts/AMM.sol\":9752:9753  y */\n      dup6\n        /* \"contracts/AMM.sol\":9752:9757  y / x */\n      tag_380\n      swap2\n      swap1\n      tag_160\n      jump\t// in\n    tag_380:\n        /* \"contracts/AMM.sol\":9752:9761  y / x + x */\n      tag_381\n      swap2\n      swap1\n      tag_158\n      jump\t// in\n    tag_381:\n        /* \"contracts/AMM.sol\":9751:9766  (y / x + x) / 2 */\n      tag_382\n      swap2\n      swap1\n      tag_160\n      jump\t// in\n    tag_382:\n        /* \"contracts/AMM.sol\":9747:9766  x = (y / x + x) / 2 */\n      swap1\n      pop\n        /* \"contracts/AMM.sol\":9692:9781  while (x < z) {... */\n      jump(tag_378)\n    tag_379:\n        /* \"contracts/AMM.sol\":9624:9791  {... */\n      pop\n        /* \"contracts/AMM.sol\":9613:9839  if (y > 3) {... */\n      jump(tag_383)\n    tag_375:\n        /* \"contracts/AMM.sol\":9806:9807  0 */\n      0x00\n        /* \"contracts/AMM.sol\":9801:9802  y */\n      dup3\n        /* \"contracts/AMM.sol\":9801:9807  y != 0 */\n      eq\n        /* \"contracts/AMM.sol\":9797:9839  if (y != 0) {... */\n      tag_384\n      jumpi\n        /* \"contracts/AMM.sol\":9827:9828  1 */\n      0x01\n        /* \"contracts/AMM.sol\":9823:9828  z = 1 */\n      swap1\n      pop\n        /* \"contracts/AMM.sol\":9797:9839  if (y != 0) {... */\n    tag_384:\n        /* \"contracts/AMM.sol\":9613:9839  if (y > 3) {... */\n    tag_383:\n        /* \"contracts/AMM.sol\":9544:9845  function sqrt(uint256 y) internal pure returns (uint256 z) {... */\n      swap2\n      swap1\n      pop\n      jump\t// out\n        /* \"contracts/AMM.sol\":10034:10138  function min(uint256 x, uint256 y) internal pure returns (uint256) {... */\n    tag_277:\n        /* \"contracts/AMM.sol\":10092:10099  uint256 */\n      0x00\n        /* \"contracts/AMM.sol\":10122:10123  y */\n      dup2\n        /* \"contracts/AMM.sol\":10118:10119  x */\n      dup4\n        /* \"contracts/AMM.sol\":10118:10123  x < y */\n      lt\n        /* \"contracts/AMM.sol\":10118:10131  x < y ? x : y */\n      tag_386\n      jumpi\n        /* \"contracts/AMM.sol\":10130:10131  y */\n      dup2\n        /* \"contracts/AMM.sol\":10118:10131  x < y ? x : y */\n      jump(tag_387)\n    tag_386:\n        /* \"contracts/AMM.sol\":10126:10127  x */\n      dup3\n        /* \"contracts/AMM.sol\":10118:10131  x < y ? x : y */\n    tag_387:\n        /* \"contracts/AMM.sol\":10111:10131  return x < y ? x : y */\n      swap1\n      pop\n        /* \"contracts/AMM.sol\":10034:10138  function min(uint256 x, uint256 y) internal pure returns (uint256) {... */\n      swap3\n      swap2\n      pop\n      pop\n      jump\t// out\n        /* \"@openzeppelin/contracts/token/ERC20/ERC20.sol\":7721:7929  function _mint(address account, uint256 value) internal {... */\n    tag_282:\n        /* \"@openzeppelin/contracts/token/ERC20/ERC20.sol\":7810:7811  0 */\n      0x00\n        /* \"@openzeppelin/contracts/token/ERC20/ERC20.sol\":7791:7812  account == address(0) */\n      0xffffffffffffffffffffffffffffffffffffffff\n      and\n        /* \"@openzeppelin/contracts/token/ERC20/ERC20.sol\":7791:7798  account */\n      dup3\n        /* \"@openzeppelin/contracts/token/ERC20/ERC20.sol\":7791:7812  account == address(0) */\n      0xffffffffffffffffffffffffffffffffffffffff\n      and\n      sub\n        /* \"@openzeppelin/contracts/token/ERC20/ERC20.sol\":7787:7878  if (account == address(0)) {... */\n      tag_389\n      jumpi\n        /* \"@openzeppelin/contracts/token/ERC20/ERC20.sol\":7864:7865  0 */\n      0x00\n        /* \"@openzeppelin/contracts/token/ERC20/ERC20.sol\":7835:7867  ERC20InvalidReceiver(address(0)) */\n      mload(0x40)\n      0xec442f0500000000000000000000000000000000000000000000000000000000\n      dup2\n      mstore\n      0x04\n      add\n      tag_390\n      swap2\n      swap1\n      tag_43\n      jump\t// in\n    tag_390:\n      mload(0x40)\n      dup1\n      swap2\n      sub\n      swap1\n      revert\n        /* \"@openzeppelin/contracts/token/ERC20/ERC20.sol\":7787:7878  if (account == address(0)) {... */\n    tag_389:\n        /* \"@openzeppelin/contracts/token/ERC20/ERC20.sol\":7887:7922  _update(address(0), account, value) */\n      tag_391\n        /* \"@openzeppelin/contracts/token/ERC20/ERC20.sol\":7903:7904  0 */\n      0x00\n        /* \"@openzeppelin/contracts/token/ERC20/ERC20.sol\":7907:7914  account */\n      dup4\n        /* \"@openzeppelin/contracts/token/ERC20/ERC20.sol\":7916:7921  value */\n      dup4\n        /* \"@openzeppelin/contracts/token/ERC20/ERC20.sol\":7887:7894  _update */\n      tag_351\n        /* \"@openzeppelin/contracts/token/ERC20/ERC20.sol\":7887:7922  _update(address(0), account, value) */\n      jump\t// in\n    tag_391:\n        /* \"@openzeppelin/contracts/token/ERC20/ERC20.sol\":7721:7929  function _mint(address account, uint256 value) internal {... */\n      pop\n      pop\n      jump\t// out\n        /* \"@openzeppelin/contracts/token/ERC20/ERC20.sol\":9949:10381  function _approve(address owner, address spender, uint256 value, bool emitEvent) internal virtual {... */\n    tag_337:\n        /* \"@openzeppelin/contracts/token/ERC20/ERC20.sol\":10078:10079  0 */\n      0x00\n        /* \"@openzeppelin/contracts/token/ERC20/ERC20.sol\":10061:10080  owner == address(0) */\n      0xffffffffffffffffffffffffffffffffffffffff\n      and\n        /* \"@openzeppelin/contracts/token/ERC20/ERC20.sol\":10061:10066  owner */\n      dup5\n        /* \"@openzeppelin/contracts/token/ERC20/ERC20.sol\":10061:10080  owner == address(0) */\n      0xffffffffffffffffffffffffffffffffffffffff\n      and\n      sub\n        /* \"@openzeppelin/contracts/token/ERC20/ERC20.sol\":10057:10146  if (owner == address(0)) {... */\n      tag_393\n      jumpi\n        /* \"@openzeppelin/contracts/token/ERC20/ERC20.sol\":10132:10133  0 */\n      0x00\n        /* \"@openzeppelin/contracts/token/ERC20/ERC20.sol\":10103:10135  ERC20InvalidApprover(address(0)) */\n      mload(0x40)\n      0xe602df0500000000000000000000000000000000000000000000000000000000\n      dup2\n      mstore\n      0x04\n      add\n      tag_394\n      swap2\n      swap1\n      tag_43\n      jump\t// in\n    tag_394:\n      mload(0x40)\n      dup1\n      swap2\n      sub\n      swap1\n      revert\n        /* \"@openzeppelin/contracts/token/ERC20/ERC20.sol\":10057:10146  if (owner == address(0)) {... */\n    tag_393:\n        /* \"@openzeppelin/contracts/token/ERC20/ERC20.sol\":10178:10179  0 */\n      0x00\n        /* \"@openzeppelin/contracts/token/ERC20/ERC20.sol\":10159:10180  spender == address(0) */\n      0xffffffffffffffffffffffffffffffffffffffff\n      and\n        /* \"@openzeppelin/contracts/token/ERC20/ERC20.sol\":10159:10166  spender */\n      dup4\n        /* \"@openzeppelin/contracts/token/ERC20/ERC20.sol\":10159:10180  spender == address(0) */\n      0xffffffffffffffffffffffffffffffffffffffff\n      and\n      sub\n        /* \"@openzeppelin/contracts/token/ERC20/ERC20.sol\":10155:10245  if (spender == address(0)) {... */\n      tag_395\n      jumpi\n        /* \"@openzeppelin/contracts/token/ERC20/ERC20.sol\":10231:10232  0 */\n      0x00\n        /* \"@openzeppelin/contracts/token/ERC20/ERC20.sol\":10203:10234  ERC20InvalidSpender(address(0)) */\n      mload(0x40)\n      0x94280d6200000000000000000000000000000000000000000000000000000000\n      dup2\n      mstore\n      0x04\n      add\n      tag_396\n      swap2\n      swap1\n      tag_43\n      jump\t// in\n    tag_396:\n      mload(0x40)\n      dup1\n      swap2\n      sub\n      swap1\n      revert\n        /* \"@openzeppelin/contracts/token/ERC20/ERC20.sol\":10155:10245  if (spender == address(0)) {... */\n    tag_395:\n        /* \"@openzeppelin/contracts/token/ERC20/ERC20.sol\":10284:10289  value */\n      dup2\n        /* \"@openzeppelin/contracts/token/ERC20/ERC20.sol\":10254:10265  _allowances */\n      0x01\n        /* \"@openzeppelin/contracts/token/ERC20/ERC20.sol\":10254:10272  _allowances[owner] */\n      0x00\n        /* \"@openzeppelin/contracts/token/ERC20/ERC20.sol\":10266:10271  owner */\n      dup7\n        /* \"@openzeppelin/contracts/token/ERC20/ERC20.sol\":10254:10272  _allowances[owner] */\n      0xffffffffffffffffffffffffffffffffffffffff\n      and\n      0xffffffffffffffffffffffffffffffffffffffff\n      and\n      dup2\n      mstore\n      0x20\n      add\n      swap1\n      dup2\n      mstore\n      0x20\n      add\n      0x00\n      keccak256\n        /* \"@openzeppelin/contracts/token/ERC20/ERC20.sol\":10254:10281  _allowances[owner][spender] */\n      0x00\n        /* \"@openzeppelin/contracts/token/ERC20/ERC20.sol\":10273:10280  spender */\n      dup6\n        /* \"@openzeppelin/contracts/token/ERC20/ERC20.sol\":10254:10281  _allowances[owner][spender] */\n      0xffffffffffffffffffffffffffffffffffffffff\n      and\n      0xffffffffffffffffffffffffffffffffffffffff\n      and\n      dup2\n      mstore\n      0x20\n      add\n      swap1\n      dup2\n      mstore\n      0x20\n      add\n      0x00\n      keccak256\n        /* \"@openzeppelin/contracts/token/ERC20/ERC20.sol\":10254:10289  _allowances[owner][spender] = value */\n      dup2\n      swap1\n      sstore\n      pop\n        /* \"@openzeppelin/contracts/token/ERC20/ERC20.sol\":10303:10312  emitEvent */\n      dup1\n        /* \"@openzeppelin/contracts/token/ERC20/ERC20.sol\":10299:10375  if (emitEvent) {... */\n      iszero\n      tag_397\n      jumpi\n        /* \"@openzeppelin/contracts/token/ERC20/ERC20.sol\":10349:10356  spender */\n      dup3\n        /* \"@openzeppelin/contracts/token/ERC20/ERC20.sol\":10333:10364  Approval(owner, spender, value) */\n      0xffffffffffffffffffffffffffffffffffffffff\n      and\n        /* \"@openzeppelin/contracts/token/ERC20/ERC20.sol\":10342:10347  owner */\n      dup5\n        /* \"@openzeppelin/contracts/token/ERC20/ERC20.sol\":10333:10364  Approval(owner, spender, value) */\n      0xffffffffffffffffffffffffffffffffffffffff\n      and\n      0x8c5be1e5ebec7d5bd14f71427d1e84f3dd0314c0f7b2291e5b200ac8c7c3b925\n        /* \"@openzeppelin/contracts/token/ERC20/ERC20.sol\":10358:10363  value */\n      dup5\n        /* \"@openzeppelin/contracts/token/ERC20/ERC20.sol\":10333:10364  Approval(owner, spender, value) */\n      mload(0x40)\n      tag_398\n      swap2\n      swap1\n      tag_49\n      jump\t// in\n    tag_398:\n      mload(0x40)\n      dup1\n      swap2\n      sub\n      swap1\n      log3\n        /* \"@openzeppelin/contracts/token/ERC20/ERC20.sol\":10299:10375  if (emitEvent) {... */\n    tag_397:\n        /* \"@openzeppelin/contracts/token/ERC20/ERC20.sol\":9949:10381  function _approve(address owner, address spender, uint256 value, bool emitEvent) internal virtual {... */\n      pop\n      pop\n      pop\n      pop\n      jump\t// out\n        /* \"@openzeppelin/contracts/token/ERC20/ERC20.sol\":6271:7378  function _update(address from, address to, uint256 value) internal virtual {... */\n    tag_351:\n        /* \"@openzeppelin/contracts/token/ERC20/ERC20.sol\":6376:6377  0 */\n      0x00\n        /* \"@openzeppelin/contracts/token/ERC20/ERC20.sol\":6360:6378  from == address(0) */\n      0xffffffffffffffffffffffffffffffffffffffff\n      and\n        /* \"@openzeppelin/contracts/token/ERC20/ERC20.sol\":6360:6364  from */\n      dup4\n        /* \"@openzeppelin/contracts/token/ERC20/ERC20.sol\":6360:6378  from == address(0) */\n      0xffffffffffffffffffffffffffffffffffffffff\n      and\n      sub\n        /* \"@openzeppelin/contracts/token/ERC20/ERC20.sol\":6356:6896  if (from == address(0)) {... */\n      tag_400\n      jumpi\n        /* \"@openzeppelin/contracts/token/ERC20/ERC20.sol\":6512:6517  value */\n      dup1\n        /* \"@openzeppelin/contracts/token/ERC20/ERC20.sol\":6496:6508  _totalSupply */\n      0x02\n      0x00\n        /* \"@openzeppelin/contracts/token/ERC20/ERC20.sol\":6496:6517  _totalSupply += value */\n      dup3\n      dup3\n      sload\n      tag_401\n      swap2\n      swap1\n      tag_158\n      jump\t// in\n    tag_401:\n      swap3\n      pop\n      pop\n      dup2\n      swap1\n      sstore\n      pop\n        /* \"@openzeppelin/contracts/token/ERC20/ERC20.sol\":6356:6896  if (from == address(0)) {... */\n      jump(tag_402)\n    tag_400:\n        /* \"@openzeppelin/contracts/token/ERC20/ERC20.sol\":6548:6567  uint256 fromBalance */\n      0x00\n        /* \"@openzeppelin/contracts/token/ERC20/ERC20.sol\":6570:6579  _balances */\n      dup1\n        /* \"@openzeppelin/contracts/token/ERC20/ERC20.sol\":6570:6585  _balances[from] */\n      0x00\n        /* \"@openzeppelin/contracts/token/ERC20/ERC20.sol\":6580:6584  from */\n      dup6\n        /* \"@openzeppelin/contracts/token/ERC20/ERC20.sol\":6570:6585  _balances[from] */\n      0xffffffffffffffffffffffffffffffffffffffff\n      and\n      0xffffffffffffffffffffffffffffffffffffffff\n      and\n      dup2\n      mstore\n      0x20\n      add\n      swap1\n      dup2\n      mstore\n      0x20\n      add\n      0x00\n      keccak256\n      sload\n        /* \"@openzeppelin/contracts/token/ERC20/ERC20.sol\":6548:6585  uint256 fromBalance = _balances[from] */\n      swap1\n      pop\n        /* \"@openzeppelin/contracts/token/ERC20/ERC20.sol\":6617:6622  value */\n      dup2\n        /* \"@openzeppelin/contracts/token/ERC20/ERC20.sol\":6603:6614  fromBalance */\n      dup2\n        /* \"@openzeppelin/contracts/token/ERC20/ERC20.sol\":6603:6622  fromBalance < value */\n      lt\n        /* \"@openzeppelin/contracts/token/ERC20/ERC20.sol\":6599:6714  if (fromBalance < value) {... */\n      iszero\n      tag_403\n      jumpi\n        /* \"@openzeppelin/contracts/token/ERC20/ERC20.sol\":6674:6678  from */\n      dup4\n        /* \"@openzeppelin/contracts/token/ERC20/ERC20.sol\":6680:6691  fromBalance */\n      dup2\n        /* \"@openzeppelin/contracts/token/ERC20/ERC20.sol\":6693:6698  value */\n      dup4\n        /* \"@openzeppelin/contracts/token/ERC20/ERC20.sol\":6649:6699  ERC20InsufficientBalance(from, fromBalance, value) */\n      mload(0x40)\n      0xe450d38c00000000000000000000000000000000000000000000000000000000\n      dup2\n      mstore\n      0x04\n      add\n      tag_404\n      swap4\n      swap3\n      swap2\n      swap1\n      tag_343\n      jump\t// in\n    tag_404:\n      mload(0x40)\n      dup1\n      swap2\n      sub\n      swap1\n      revert\n        /* \"@openzeppelin/contracts/token/ERC20/ERC20.sol\":6599:6714  if (fromBalance < value) {... */\n    tag_403:\n        /* \"@openzeppelin/contracts/token/ERC20/ERC20.sol\":6866:6871  value */\n      dup2\n        /* \"@openzeppelin/contracts/token/ERC20/ERC20.sol\":6852:6863  fromBalance */\n      dup2\n        /* \"@openzeppelin/contracts/token/ERC20/ERC20.sol\":6852:6871  fromBalance - value */\n      sub\n        /* \"@openzeppelin/contracts/token/ERC20/ERC20.sol\":6834:6843  _balances */\n      0x00\n        /* \"@openzeppelin/contracts/token/ERC20/ERC20.sol\":6834:6849  _balances[from] */\n      dup1\n        /* \"@openzeppelin/contracts/token/ERC20/ERC20.sol\":6844:6848  from */\n      dup7\n        /* \"@openzeppelin/contracts/token/ERC20/ERC20.sol\":6834:6849  _balances[from] */\n      0xffffffffffffffffffffffffffffffffffffffff\n      and\n      0xffffffffffffffffffffffffffffffffffffffff\n      and\n      dup2\n      mstore\n      0x20\n      add\n      swap1\n      dup2\n      mstore\n      0x20\n      add\n      0x00\n      keccak256\n        /* \"@openzeppelin/contracts/token/ERC20/ERC20.sol\":6834:6871  _balances[from] = fromBalance - value */\n      dup2\n      swap1\n      sstore\n      pop\n        /* \"@openzeppelin/contracts/token/ERC20/ERC20.sol\":6534:6896  {... */\n      pop\n        /* \"@openzeppelin/contracts/token/ERC20/ERC20.sol\":6356:6896  if (from == address(0)) {... */\n    tag_402:\n        /* \"@openzeppelin/contracts/token/ERC20/ERC20.sol\":6924:6925  0 */\n      0x00\n        /* \"@openzeppelin/contracts/token/ERC20/ERC20.sol\":6910:6926  to == address(0) */\n      0xffffffffffffffffffffffffffffffffffffffff\n      and\n        /* \"@openzeppelin/contracts/token/ERC20/ERC20.sol\":6910:6912  to */\n      dup3\n        /* \"@openzeppelin/contracts/token/ERC20/ERC20.sol\":6910:6926  to == address(0) */\n      0xffffffffffffffffffffffffffffffffffffffff\n      and\n      sub\n        /* \"@openzeppelin/contracts/token/ERC20/ERC20.sol\":6906:7331  if (to == address(0)) {... */\n      tag_405\n      jumpi\n        /* \"@openzeppelin/contracts/token/ERC20/ERC20.sol\":7089:7094  value */\n      dup1\n        /* \"@openzeppelin/contracts/token/ERC20/ERC20.sol\":7073:7085  _totalSupply */\n      0x02\n      0x00\n        /* \"@openzeppelin/contracts/token/ERC20/ERC20.sol\":7073:7094  _totalSupply -= value */\n      dup3\n      dup3\n      sload\n      sub\n      swap3\n      pop\n      pop\n      dup2\n      swap1\n      sstore\n      pop\n        /* \"@openzeppelin/contracts/token/ERC20/ERC20.sol\":6906:7331  if (to == address(0)) {... */\n      jump(tag_406)\n    tag_405:\n        /* \"@openzeppelin/contracts/token/ERC20/ERC20.sol\":7301:7306  value */\n      dup1\n        /* \"@openzeppelin/contracts/token/ERC20/ERC20.sol\":7284:7293  _balances */\n      0x00\n        /* \"@openzeppelin/contracts/token/ERC20/ERC20.sol\":7284:7297  _balances[to] */\n      dup1\n        /* \"@openzeppelin/contracts/token/ERC20/ERC20.sol\":7294:7296  to */\n      dup5\n        /* \"@openzeppelin/contracts/token/ERC20/ERC20.sol\":7284:7297  _balances[to] */\n      0xffffffffffffffffffffffffffffffffffffffff\n      and\n      0xffffffffffffffffffffffffffffffffffffffff\n      and\n      dup2\n      mstore\n      0x20\n      add\n      swap1\n      dup2\n      mstore\n      0x20\n      add\n      0x00\n      keccak256\n      0x00\n        /* \"@openzeppelin/contracts/token/ERC20/ERC20.sol\":7284:7306  _balances[to] += value */\n      dup3\n      dup3\n      sload\n      add\n      swap3\n      pop\n      pop\n      dup2\n      swap1\n      sstore\n      pop\n        /* \"@openzeppelin/contracts/token/ERC20/ERC20.sol\":6906:7331  if (to == address(0)) {... */\n    tag_406:\n        /* \"@openzeppelin/contracts/token/ERC20/ERC20.sol\":7361:7363  to */\n      dup2\n        /* \"@openzeppelin/contracts/token/ERC20/ERC20.sol\":7346:7371  Transfer(from, to, value) */\n      0xffffffffffffffffffffffffffffffffffffffff\n      and\n        /* \"@openzeppelin/contracts/token/ERC20/ERC20.sol\":7355:7359  from */\n      dup4\n        /* \"@openzeppelin/contracts/token/ERC20/ERC20.sol\":7346:7371  Transfer(from, to, value) */\n      0xffffffffffffffffffffffffffffffffffffffff\n      and\n      0xddf252ad1be2c89b69c2b068fc378daa952ba7f163c4a11628f55a4df523b3ef\n        /* \"@openzeppelin/contracts/token/ERC20/ERC20.sol\":7365:7370  value */\n      dup4\n        /* \"@openzeppelin/contracts/token/ERC20/ERC20.sol\":7346:7371  Transfer(from, to, value) */\n      mload(0x40)\n      tag_407\n      swap2\n      swap1\n      tag_49\n      jump\t// in\n    tag_407:\n      mload(0x40)\n      dup1\n      swap2\n      sub\n      swap1\n      log3\n        /* \"@openzeppelin/contracts/token/ERC20/ERC20.sol\":6271:7378  function _update(address from, address to, uint256 value) internal virtual {... */\n      pop\n      pop\n      pop\n      jump\t// out\n        /* \"@openzeppelin/contracts/token/ERC20/utils/SafeERC20.sol\":4059:4688  function _callOptionalReturn(IERC20 token, bytes memory data) private {... */\n    tag_360:\n        /* \"@openzeppelin/contracts/token/ERC20/utils/SafeERC20.sol\":4478:4501  bytes memory returndata */\n      0x00\n        /* \"@openzeppelin/contracts/token/ERC20/utils/SafeERC20.sol\":4504:4537  address(token).functionCall(data) */\n      tag_409\n        /* \"@openzeppelin/contracts/token/ERC20/utils/SafeERC20.sol\":4532:4536  data */\n      dup3\n        /* \"@openzeppelin/contracts/token/ERC20/utils/SafeERC20.sol\":4512:4517  token */\n      dup5\n        /* \"@openzeppelin/contracts/token/ERC20/utils/SafeERC20.sol\":4504:4531  address(token).functionCall */\n      0xffffffffffffffffffffffffffffffffffffffff\n      and\n      tag_410\n      swap1\n        /* \"@openzeppelin/contracts/token/ERC20/utils/SafeERC20.sol\":4504:4537  address(token).functionCall(data) */\n      swap2\n      swap1\n      0xffffffff\n      and\n      jump\t// in\n    tag_409:\n        /* \"@openzeppelin/contracts/token/ERC20/utils/SafeERC20.sol\":4478:4537  bytes memory returndata = address(token).functionCall(data) */\n      swap1\n      pop\n        /* \"@openzeppelin/contracts/token/ERC20/utils/SafeERC20.sol\":4572:4573  0 */\n      0x00\n        /* \"@openzeppelin/contracts/token/ERC20/utils/SafeERC20.sol\":4551:4561  returndata */\n      dup2\n        /* \"@openzeppelin/contracts/token/ERC20/utils/SafeERC20.sol\":4551:4568  returndata.length */\n      mload\n        /* \"@openzeppelin/contracts/token/ERC20/utils/SafeERC20.sol\":4551:4573  returndata.length != 0 */\n      eq\n      iszero\n        /* \"@openzeppelin/contracts/token/ERC20/utils/SafeERC20.sol\":4551:4608  returndata.length != 0 && !abi.decode(returndata, (bool)) */\n      dup1\n      iszero\n      tag_411\n      jumpi\n      pop\n        /* \"@openzeppelin/contracts/token/ERC20/utils/SafeERC20.sol\":4589:4599  returndata */\n      dup1\n        /* \"@openzeppelin/contracts/token/ERC20/utils/SafeERC20.sol\":4578:4608  abi.decode(returndata, (bool)) */\n      dup1\n      0x20\n      add\n      swap1\n      mload\n      dup2\n      add\n      swap1\n      tag_412\n      swap2\n      swap1\n      tag_413\n      jump\t// in\n    tag_412:\n        /* \"@openzeppelin/contracts/token/ERC20/utils/SafeERC20.sol\":4577:4608  !abi.decode(returndata, (bool)) */\n      iszero\n        /* \"@openzeppelin/contracts/token/ERC20/utils/SafeERC20.sol\":4551:4608  returndata.length != 0 && !abi.decode(returndata, (bool)) */\n    tag_411:\n        /* \"@openzeppelin/contracts/token/ERC20/utils/SafeERC20.sol\":4547:4682  if (returndata.length != 0 && !abi.decode(returndata, (bool))) {... */\n      iszero\n      tag_414\n      jumpi\n        /* \"@openzeppelin/contracts/token/ERC20/utils/SafeERC20.sol\":4664:4669  token */\n      dup3\n        /* \"@openzeppelin/contracts/token/ERC20/utils/SafeERC20.sol\":4631:4671  SafeERC20FailedOperation(address(token)) */\n      mload(0x40)\n      0x5274afe700000000000000000000000000000000000000000000000000000000\n      dup2\n      mstore\n      0x04\n      add\n      tag_415\n      swap2\n      swap1\n      tag_43\n      jump\t// in\n    tag_415:\n      mload(0x40)\n      dup1\n      swap2\n      sub\n      swap1\n      revert\n        /* \"@openzeppelin/contracts/token/ERC20/utils/SafeERC20.sol\":4547:4682  if (returndata.length != 0 && !abi.decode(returndata, (bool))) {... */\n    tag_414:\n        /* \"@openzeppelin/contracts/token/ERC20/utils/SafeERC20.sol\":4129:4688  {... */\n      pop\n        /* \"@openzeppelin/contracts/token/ERC20/utils/SafeERC20.sol\":4059:4688  function _callOptionalReturn(IERC20 token, bytes memory data) private {... */\n      pop\n      pop\n      jump\t// out\n        /* \"@openzeppelin/contracts/utils/Address.sol\":2705:2856  function functionCall(address target, bytes memory data) internal returns (bytes memory) {... */\n    tag_410:\n        /* \"@openzeppelin/contracts/utils/Address.sol\":2780:2792  bytes memory */\n      0x60\n        /* \"@openzeppelin/contracts/utils/Address.sol\":2811:2849  functionCallWithValue(target, data, 0) */\n      tag_417\n        /* \"@openzeppelin/contracts/utils/Address.sol\":2833:2839  target */\n      dup4\n        /* \"@openzeppelin/contracts/utils/Address.sol\":2841:2845  data */\n      dup4\n        /* \"@openzeppelin/contracts/utils/Address.sol\":2847:2848  0 */\n      0x00\n        /* \"@openzeppelin/contracts/utils/Address.sol\":2811:2832  functionCallWithValue */\n      tag_418\n        /* \"@openzeppelin/contracts/utils/Address.sol\":2811:2849  functionCallWithValue(target, data, 0) */\n      jump\t// in\n    tag_417:\n        /* \"@openzeppelin/contracts/utils/Address.sol\":2804:2849  return functionCallWithValue(target, data, 0) */\n      swap1\n      pop\n        /* \"@openzeppelin/contracts/utils/Address.sol\":2705:2856  function functionCall(address target, bytes memory data) internal returns (bytes memory) {... */\n      swap3\n      swap2\n      pop\n      pop\n      jump\t// out\n        /* \"@openzeppelin/contracts/utils/Address.sol\":3180:3572  function functionCallWithValue(address target, bytes memory data, uint256 value) internal returns (bytes memory) {... */\n    tag_418:\n        /* \"@openzeppelin/contracts/utils/Address.sol\":3279:3291  bytes memory */\n      0x60\n        /* \"@openzeppelin/contracts/utils/Address.sol\":3331:3336  value */\n      dup2\n        /* \"@openzeppelin/contracts/utils/Address.sol\":3307:3328  address(this).balance */\n      selfbalance\n        /* \"@openzeppelin/contracts/utils/Address.sol\":3307:3336  address(this).balance < value */\n      lt\n        /* \"@openzeppelin/contracts/utils/Address.sol\":3303:3411  if (address(this).balance < value) {... */\n      iszero\n      tag_420\n      jumpi\n        /* \"@openzeppelin/contracts/utils/Address.sol\":3394:3398  this */\n      address\n        /* \"@openzeppelin/contracts/utils/Address.sol\":3359:3400  AddressInsufficientBalance(address(this)) */\n      mload(0x40)\n      0xcd78605900000000000000000000000000000000000000000000000000000000\n      dup2\n      mstore\n      0x04\n      add\n      tag_421\n      swap2\n      swap1\n      tag_43\n      jump\t// in\n    tag_421:\n      mload(0x40)\n      dup1\n      swap2\n      sub\n      swap1\n      revert\n        /* \"@openzeppelin/contracts/utils/Address.sol\":3303:3411  if (address(this).balance < value) {... */\n    tag_420:\n        /* \"@openzeppelin/contracts/utils/Address.sol\":3421:3433  bool success */\n      0x00\n        /* \"@openzeppelin/contracts/utils/Address.sol\":3435:3458  bytes memory returndata */\n      dup1\n        /* \"@openzeppelin/contracts/utils/Address.sol\":3462:3468  target */\n      dup6\n        /* \"@openzeppelin/contracts/utils/Address.sol\":3462:3473  target.call */\n      0xffffffffffffffffffffffffffffffffffffffff\n      and\n        /* \"@openzeppelin/contracts/utils/Address.sol\":3481:3486  value */\n      dup5\n        /* \"@openzeppelin/contracts/utils/Address.sol\":3488:3492  data */\n      dup7\n        /* \"@openzeppelin/contracts/utils/Address.sol\":3462:3493  target.call{value: value}(data) */\n      mload(0x40)\n      tag_422\n      swap2\n      swap1\n      tag_423\n      jump\t// in\n    tag_422:\n      0x00\n      mload(0x40)\n      dup1\n      dup4\n      sub\n      dup2\n      dup6\n      dup8\n      gas\n      call\n      swap3\n      pop\n      pop\n      pop\n      returndatasize\n      dup1\n      0x00\n      dup2\n      eq\n      tag_426\n      jumpi\n      mload(0x40)\n      swap2\n      pop\n      and(add(returndatasize, 0x3f), not(0x1f))\n      dup3\n      add\n      0x40\n      mstore\n      returndatasize\n      dup3\n      mstore\n      returndatasize\n      0x00\n      0x20\n      dup5\n      add\n      returndatacopy\n      jump(tag_425)\n    tag_426:\n      0x60\n      swap2\n      pop\n    tag_425:\n      pop\n        /* \"@openzeppelin/contracts/utils/Address.sol\":3420:3493  (bool success, bytes memory returndata) = target.call{value: value}(data) */\n      swap2\n      pop\n      swap2\n      pop\n        /* \"@openzeppelin/contracts/utils/Address.sol\":3510:3565  verifyCallResultFromTarget(target, success, returndata) */\n      tag_427\n        /* \"@openzeppelin/contracts/utils/Address.sol\":3537:3543  target */\n      dup7\n        /* \"@openzeppelin/contracts/utils/Address.sol\":3545:3552  success */\n      dup4\n        /* \"@openzeppelin/contracts/utils/Address.sol\":3554:3564  returndata */\n      dup4\n        /* \"@openzeppelin/contracts/utils/Address.sol\":3510:3536  verifyCallResultFromTarget */\n      tag_428\n        /* \"@openzeppelin/contracts/utils/Address.sol\":3510:3565  verifyCallResultFromTarget(target, success, returndata) */\n      jump\t// in\n    tag_427:\n        /* \"@openzeppelin/contracts/utils/Address.sol\":3503:3565  return verifyCallResultFromTarget(target, success, returndata) */\n      swap3\n      pop\n      pop\n      pop\n        /* \"@openzeppelin/contracts/utils/Address.sol\":3180:3572  function functionCallWithValue(address target, bytes memory data, uint256 value) internal returns (bytes memory) {... */\n      swap4\n      swap3\n      pop\n      pop\n      pop\n      jump\t// out\n        /* \"@openzeppelin/contracts/utils/Address.sol\":4625:5207  function verifyCallResultFromTarget(... */\n    tag_428:\n        /* \"@openzeppelin/contracts/utils/Address.sol\":4769:4781  bytes memory */\n      0x60\n        /* \"@openzeppelin/contracts/utils/Address.sol\":4798:4805  success */\n      dup3\n        /* \"@openzeppelin/contracts/utils/Address.sol\":4793:5201  if (!success) {... */\n      tag_430\n      jumpi\n        /* \"@openzeppelin/contracts/utils/Address.sol\":4821:4840  _revert(returndata) */\n      tag_431\n        /* \"@openzeppelin/contracts/utils/Address.sol\":4829:4839  returndata */\n      dup3\n        /* \"@openzeppelin/contracts/utils/Address.sol\":4821:4828  _revert */\n      tag_432\n        /* \"@openzeppelin/contracts/utils/Address.sol\":4821:4840  _revert(returndata) */\n      jump\t// in\n    tag_431:\n        /* \"@openzeppelin/contracts/utils/Address.sol\":4793:5201  if (!success) {... */\n      jump(tag_433)\n    tag_430:\n        /* \"@openzeppelin/contracts/utils/Address.sol\":5066:5067  0 */\n      0x00\n        /* \"@openzeppelin/contracts/utils/Address.sol\":5045:5055  returndata */\n      dup3\n        /* \"@openzeppelin/contracts/utils/Address.sol\":5045:5062  returndata.length */\n      mload\n        /* \"@openzeppelin/contracts/utils/Address.sol\":5045:5067  returndata.length == 0 */\n      eq\n        /* \"@openzeppelin/contracts/utils/Address.sol\":5045:5094  returndata.length == 0 && target.code.length == 0 */\n      dup1\n      iszero\n      tag_434\n      jumpi\n      pop\n        /* \"@openzeppelin/contracts/utils/Address.sol\":5093:5094  0 */\n      0x00\n        /* \"@openzeppelin/contracts/utils/Address.sol\":5071:5077  target */\n      dup5\n        /* \"@openzeppelin/contracts/utils/Address.sol\":5071:5089  target.code.length */\n      0xffffffffffffffffffffffffffffffffffffffff\n      and\n      extcodesize\n        /* \"@openzeppelin/contracts/utils/Address.sol\":5071:5094  target.code.length == 0 */\n      eq\n        /* \"@openzeppelin/contracts/utils/Address.sol\":5045:5094  returndata.length == 0 && target.code.length == 0 */\n    tag_434:\n        /* \"@openzeppelin/contracts/utils/Address.sol\":5041:5160  if (returndata.length == 0 && target.code.length == 0) {... */\n      iszero\n      tag_435\n      jumpi\n        /* \"@openzeppelin/contracts/utils/Address.sol\":5138:5144  target */\n      dup4\n        /* \"@openzeppelin/contracts/utils/Address.sol\":5121:5145  AddressEmptyCode(target) */\n      mload(0x40)\n      0x9996b31500000000000000000000000000000000000000000000000000000000\n      dup2\n      mstore\n      0x04\n      add\n      tag_436\n      swap2\n      swap1\n      tag_43\n      jump\t// in\n    tag_436:\n      mload(0x40)\n      dup1\n      swap2\n      sub\n      swap1\n      revert\n        /* \"@openzeppelin/contracts/utils/Address.sol\":5041:5160  if (returndata.length == 0 && target.code.length == 0) {... */\n    tag_435:\n        /* \"@openzeppelin/contracts/utils/Address.sol\":5180:5190  returndata */\n      dup2\n        /* \"@openzeppelin/contracts/utils/Address.sol\":5173:5190  return returndata */\n      swap1\n      pop\n      jump(tag_429)\n        /* \"@openzeppelin/contracts/utils/Address.sol\":4793:5201  if (!success) {... */\n    tag_433:\n        /* \"@openzeppelin/contracts/utils/Address.sol\":4625:5207  function verifyCallResultFromTarget(... */\n    tag_429:\n      swap4\n      swap3\n      pop\n      pop\n      pop\n      jump\t// out\n        /* \"@openzeppelin/contracts/utils/Address.sol\":5743:6259  function _revert(bytes memory returndata) private pure {... */\n    tag_432:\n        /* \"@openzeppelin/contracts/utils/Address.sol\":5894:5895  0 */\n      0x00\n        /* \"@openzeppelin/contracts/utils/Address.sol\":5874:5884  returndata */\n      dup2\n        /* \"@openzeppelin/contracts/utils/Address.sol\":5874:5891  returndata.length */\n      mload\n        /* \"@openzeppelin/contracts/utils/Address.sol\":5874:5895  returndata.length > 0 */\n      gt\n        /* \"@openzeppelin/contracts/utils/Address.sol\":5870:6253  if (returndata.length > 0) {... */\n      iszero\n      tag_438\n      jumpi\n        /* \"@openzeppelin/contracts/utils/Address.sol\":6102:6112  returndata */\n      dup1\n        /* \"@openzeppelin/contracts/utils/Address.sol\":6096:6113  mload(returndata) */\n      mload\n        /* \"@openzeppelin/contracts/utils/Address.sol\":6158:6173  returndata_size */\n      dup1\n        /* \"@openzeppelin/contracts/utils/Address.sol\":6145:6155  returndata */\n      dup3\n        /* \"@openzeppelin/contracts/utils/Address.sol\":6141:6143  32 */\n      0x20\n        /* \"@openzeppelin/contracts/utils/Address.sol\":6137:6156  add(32, returndata) */\n      add\n        /* \"@openzeppelin/contracts/utils/Address.sol\":6130:6174  revert(add(32, returndata), returndata_size) */\n      revert\n        /* \"@openzeppelin/contracts/utils/Address.sol\":5870:6253  if (returndata.length > 0) {... */\n    tag_438:\n        /* \"@openzeppelin/contracts/utils/Address.sol\":6225:6242  FailedInnerCall() */\n      mload(0x40)\n      0x1425ea4200000000000000000000000000000000000000000000000000000000\n      dup2\n      mstore\n      0x04\n      add\n      mload(0x40)\n      dup1\n      swap2\n      sub\n      swap1\n      revert\n        /* \"#utility.yul\":88:205   */\n    tag_441:\n        /* \"#utility.yul\":197:198   */\n      0x00\n        /* \"#utility.yul\":194:195   */\n      dup1\n        /* \"#utility.yul\":187:199   */\n      revert\n        /* \"#utility.yul\":334:411   */\n    tag_443:\n        /* \"#utility.yul\":371:378   */\n      0x00\n        /* \"#utility.yul\":400:405   */\n      dup2\n        /* \"#utility.yul\":389:405   */\n      swap1\n      pop\n        /* \"#utility.yul\":334:411   */\n      swap2\n      swap1\n      pop\n      jump\t// out\n        /* \"#utility.yul\":417:539   */\n    tag_444:\n        /* \"#utility.yul\":490:514   */\n      tag_502\n        /* \"#utility.yul\":508:513   */\n      dup2\n        /* \"#utility.yul\":490:514   */\n      tag_443\n      jump\t// in\n    tag_502:\n        /* \"#utility.yul\":483:488   */\n      dup2\n        /* \"#utility.yul\":480:515   */\n      eq\n        /* \"#utility.yul\":470:533   */\n      tag_503\n      jumpi\n        /* \"#utility.yul\":529:530   */\n      0x00\n        /* \"#utility.yul\":526:527   */\n      dup1\n        /* \"#utility.yul\":519:531   */\n      revert\n        /* \"#utility.yul\":470:533   */\n    tag_503:\n        /* \"#utility.yul\":417:539   */\n      pop\n      jump\t// out\n        /* \"#utility.yul\":545:684   */\n    tag_445:\n        /* \"#utility.yul\":591:596   */\n      0x00\n        /* \"#utility.yul\":629:635   */\n      dup2\n        /* \"#utility.yul\":616:636   */\n      calldataload\n        /* \"#utility.yul\":607:636   */\n      swap1\n      pop\n        /* \"#utility.yul\":645:678   */\n      tag_505\n        /* \"#utility.yul\":672:677   */\n      dup2\n        /* \"#utility.yul\":645:678   */\n      tag_444\n      jump\t// in\n    tag_505:\n        /* \"#utility.yul\":545:684   */\n      swap3\n      swap2\n      pop\n      pop\n      jump\t// out\n        /* \"#utility.yul\":690:1019   */\n    tag_40:\n        /* \"#utility.yul\":749:755   */\n      0x00\n        /* \"#utility.yul\":798:800   */\n      0x20\n        /* \"#utility.yul\":786:795   */\n      dup3\n        /* \"#utility.yul\":777:784   */\n      dup5\n        /* \"#utility.yul\":773:796   */\n      sub\n        /* \"#utility.yul\":769:801   */\n      slt\n        /* \"#utility.yul\":766:885   */\n      iszero\n      tag_507\n      jumpi\n        /* \"#utility.yul\":804:883   */\n      tag_508\n      tag_441\n      jump\t// in\n    tag_508:\n        /* \"#utility.yul\":766:885   */\n    tag_507:\n        /* \"#utility.yul\":924:925   */\n      0x00\n        /* \"#utility.yul\":949:1002   */\n      tag_509\n        /* \"#utility.yul\":994:1001   */\n      dup5\n        /* \"#utility.yul\":985:991   */\n      dup3\n        /* \"#utility.yul\":974:983   */\n      dup6\n        /* \"#utility.yul\":970:992   */\n      add\n        /* \"#utility.yul\":949:1002   */\n      tag_445\n      jump\t// in\n    tag_509:\n        /* \"#utility.yul\":939:1002   */\n      swap2\n      pop\n        /* \"#utility.yul\":895:1012   */\n      pop\n        /* \"#utility.yul\":690:1019   */\n      swap3\n      swap2\n      pop\n      pop\n      jump\t// out\n        /* \"#utility.yul\":1025:1151   */\n    tag_446:\n        /* \"#utility.yul\":1062:1069   */\n      0x00\n        /* \"#utility.yul\":1102:1144   */\n      0xffffffffffffffffffffffffffffffffffffffff\n        /* \"#utility.yul\":1095:1100   */\n      dup3\n        /* \"#utility.yul\":1091:1145   */\n      and\n        /* \"#utility.yul\":1080:1145   */\n      swap1\n      pop\n        /* \"#utility.yul\":1025:1151   */\n      swap2\n      swap1\n      pop\n      jump\t// out\n        /* \"#utility.yul\":1157:1253   */\n    tag_447:\n        /* \"#utility.yul\":1194:1201   */\n      0x00\n        /* \"#utility.yul\":1223:1247   */\n      tag_512\n        /* \"#utility.yul\":1241:1246   */\n      dup3\n        /* \"#utility.yul\":1223:1247   */\n      tag_446\n      jump\t// in\n    tag_512:\n        /* \"#utility.yul\":1212:1247   */\n      swap1\n      pop\n        /* \"#utility.yul\":1157:1253   */\n      swap2\n      swap1\n      pop\n      jump\t// out\n        /* \"#utility.yul\":1259:1377   */\n    tag_448:\n        /* \"#utility.yul\":1346:1370   */\n      tag_514\n        /* \"#utility.yul\":1364:1369   */\n      dup2\n        /* \"#utility.yul\":1346:1370   */\n      tag_447\n      jump\t// in\n    tag_514:\n        /* \"#utility.yul\":1341:1344   */\n      dup3\n        /* \"#utility.yul\":1334:1371   */\n      mstore\n        /* \"#utility.yul\":1259:1377   */\n      pop\n      pop\n      jump\t// out\n        /* \"#utility.yul\":1383:1605   */\n    tag_43:\n        /* \"#utility.yul\":1476:1480   */\n      0x00\n        /* \"#utility.yul\":1514:1516   */\n      0x20\n        /* \"#utility.yul\":1503:1512   */\n      dup3\n        /* \"#utility.yul\":1499:1517   */\n      add\n        /* \"#utility.yul\":1491:1517   */\n      swap1\n      pop\n        /* \"#utility.yul\":1527:1598   */\n      tag_516\n        /* \"#utility.yul\":1595:1596   */\n      0x00\n        /* \"#utility.yul\":1584:1593   */\n      dup4\n        /* \"#utility.yul\":1580:1597   */\n      add\n        /* \"#utility.yul\":1571:1577   */\n      dup5\n        /* \"#utility.yul\":1527:1598   */\n      tag_448\n      jump\t// in\n    tag_516:\n        /* \"#utility.yul\":1383:1605   */\n      swap3\n      swap2\n      pop\n      pop\n      jump\t// out\n        /* \"#utility.yul\":1611:2230   */\n    tag_46:\n        /* \"#utility.yul\":1688:1694   */\n      0x00\n        /* \"#utility.yul\":1696:1702   */\n      dup1\n        /* \"#utility.yul\":1704:1710   */\n      0x00\n        /* \"#utility.yul\":1753:1755   */\n      0x60\n        /* \"#utility.yul\":1741:1750   */\n      dup5\n        /* \"#utility.yul\":1732:1739   */\n      dup7\n        /* \"#utility.yul\":1728:1751   */\n      sub\n        /* \"#utility.yul\":1724:1756   */\n      slt\n        /* \"#utility.yul\":1721:1840   */\n      iszero\n      tag_518\n      jumpi\n        /* \"#utility.yul\":1759:1838   */\n      tag_519\n      tag_441\n      jump\t// in\n    tag_519:\n        /* \"#utility.yul\":1721:1840   */\n    tag_518:\n        /* \"#utility.yul\":1879:1880   */\n      0x00\n        /* \"#utility.yul\":1904:1957   */\n      tag_520\n        /* \"#utility.yul\":1949:1956   */\n      dup7\n        /* \"#utility.yul\":1940:1946   */\n      dup3\n        /* \"#utility.yul\":1929:1938   */\n      dup8\n        /* \"#utility.yul\":1925:1947   */\n      add\n        /* \"#utility.yul\":1904:1957   */\n      tag_445\n      jump\t// in\n    tag_520:\n        /* \"#utility.yul\":1894:1957   */\n      swap4\n      pop\n        /* \"#utility.yul\":1850:1967   */\n      pop\n        /* \"#utility.yul\":2006:2008   */\n      0x20\n        /* \"#utility.yul\":2032:2085   */\n      tag_521\n        /* \"#utility.yul\":2077:2084   */\n      dup7\n        /* \"#utility.yul\":2068:2074   */\n      dup3\n        /* \"#utility.yul\":2057:2066   */\n      dup8\n        /* \"#utility.yul\":2053:2075   */\n      add\n        /* \"#utility.yul\":2032:2085   */\n      tag_445\n      jump\t// in\n    tag_521:\n        /* \"#utility.yul\":2022:2085   */\n      swap3\n      pop\n        /* \"#utility.yul\":1977:2095   */\n      pop\n        /* \"#utility.yul\":2134:2136   */\n      0x40\n        /* \"#utility.yul\":2160:2213   */\n      tag_522\n        /* \"#utility.yul\":2205:2212   */\n      dup7\n        /* \"#utility.yul\":2196:2202   */\n      dup3\n        /* \"#utility.yul\":2185:2194   */\n      dup8\n        /* \"#utility.yul\":2181:2203   */\n      add\n        /* \"#utility.yul\":2160:2213   */\n      tag_445\n      jump\t// in\n    tag_522:\n        /* \"#utility.yul\":2150:2213   */\n      swap2\n      pop\n        /* \"#utility.yul\":2105:2223   */\n      pop\n        /* \"#utility.yul\":1611:2230   */\n      swap3\n      pop\n      swap3\n      pop\n      swap3\n      jump\t// out\n        /* \"#utility.yul\":2236:2354   */\n    tag_449:\n        /* \"#utility.yul\":2323:2347   */\n      tag_524\n        /* \"#utility.yul\":2341:2346   */\n      dup2\n        /* \"#utility.yul\":2323:2347   */\n      tag_443\n      jump\t// in\n    tag_524:\n        /* \"#utility.yul\":2318:2321   */\n      dup3\n        /* \"#utility.yul\":2311:2348   */\n      mstore\n        /* \"#utility.yul\":2236:2354   */\n      pop\n      pop\n      jump\t// out\n        /* \"#utility.yul\":2360:2582   */\n    tag_49:\n        /* \"#utility.yul\":2453:2457   */\n      0x00\n        /* \"#utility.yul\":2491:2493   */\n      0x20\n        /* \"#utility.yul\":2480:2489   */\n      dup3\n        /* \"#utility.yul\":2476:2494   */\n      add\n        /* \"#utility.yul\":2468:2494   */\n      swap1\n      pop\n        /* \"#utility.yul\":2504:2575   */\n      tag_526\n        /* \"#utility.yul\":2572:2573   */\n      0x00\n        /* \"#utility.yul\":2561:2570   */\n      dup4\n        /* \"#utility.yul\":2557:2574   */\n      add\n        /* \"#utility.yul\":2548:2554   */\n      dup5\n        /* \"#utility.yul\":2504:2575   */\n      tag_449\n      jump\t// in\n    tag_526:\n        /* \"#utility.yul\":2360:2582   */\n      swap3\n      swap2\n      pop\n      pop\n      jump\t// out\n        /* \"#utility.yul\":2588:2687   */\n    tag_450:\n        /* \"#utility.yul\":2640:2646   */\n      0x00\n        /* \"#utility.yul\":2674:2679   */\n      dup2\n        /* \"#utility.yul\":2668:2680   */\n      mload\n        /* \"#utility.yul\":2658:2680   */\n      swap1\n      pop\n        /* \"#utility.yul\":2588:2687   */\n      swap2\n      swap1\n      pop\n      jump\t// out\n        /* \"#utility.yul\":2693:2862   */\n    tag_451:\n        /* \"#utility.yul\":2777:2788   */\n      0x00\n        /* \"#utility.yul\":2811:2817   */\n      dup3\n        /* \"#utility.yul\":2806:2809   */\n      dup3\n        /* \"#utility.yul\":2799:2818   */\n      mstore\n        /* \"#utility.yul\":2851:2855   */\n      0x20\n        /* \"#utility.yul\":2846:2849   */\n      dup3\n        /* \"#utility.yul\":2842:2856   */\n      add\n        /* \"#utility.yul\":2827:2856   */\n      swap1\n      pop\n        /* \"#utility.yul\":2693:2862   */\n      swap3\n      swap2\n      pop\n      pop\n      jump\t// out\n        /* \"#utility.yul\":2868:3007   */\n    tag_452:\n        /* \"#utility.yul\":2957:2963   */\n      dup3\n        /* \"#utility.yul\":2952:2955   */\n      dup2\n        /* \"#utility.yul\":2947:2950   */\n      dup4\n        /* \"#utility.yul\":2941:2964   */\n      mcopy\n        /* \"#utility.yul\":2998:2999   */\n      0x00\n        /* \"#utility.yul\":2989:2995   */\n      dup4\n        /* \"#utility.yul\":2984:2987   */\n      dup4\n        /* \"#utility.yul\":2980:2996   */\n      add\n        /* \"#utility.yul\":2973:3000   */\n      mstore\n        /* \"#utility.yul\":2868:3007   */\n      pop\n      pop\n      pop\n      jump\t// out\n        /* \"#utility.yul\":3013:3115   */\n    tag_453:\n        /* \"#utility.yul\":3054:3060   */\n      0x00\n        /* \"#utility.yul\":3105:3107   */\n      0x1f\n        /* \"#utility.yul\":3101:3108   */\n      not\n        /* \"#utility.yul\":3096:3098   */\n      0x1f\n        /* \"#utility.yul\":3089:3094   */\n      dup4\n        /* \"#utility.yul\":3085:3099   */\n      add\n        /* \"#utility.yul\":3081:3109   */\n      and\n        /* \"#utility.yul\":3071:3109   */\n      swap1\n      pop\n        /* \"#utility.yul\":3013:3115   */\n      swap2\n      swap1\n      pop\n      jump\t// out\n        /* \"#utility.yul\":3121:3498   */\n    tag_454:\n        /* \"#utility.yul\":3209:3212   */\n      0x00\n        /* \"#utility.yul\":3237:3276   */\n      tag_532\n        /* \"#utility.yul\":3270:3275   */\n      dup3\n        /* \"#utility.yul\":3237:3276   */\n      tag_450\n      jump\t// in\n    tag_532:\n        /* \"#utility.yul\":3292:3363   */\n      tag_533\n        /* \"#utility.yul\":3356:3362   */\n      dup2\n        /* \"#utility.yul\":3351:3354   */\n      dup6\n        /* \"#utility.yul\":3292:3363   */\n      tag_451\n      jump\t// in\n    tag_533:\n        /* \"#utility.yul\":3285:3363   */\n      swap4\n      pop\n        /* \"#utility.yul\":3372:3437   */\n      tag_534\n        /* \"#utility.yul\":3430:3436   */\n      dup2\n        /* \"#utility.yul\":3425:3428   */\n      dup6\n        /* \"#utility.yul\":3418:3422   */\n      0x20\n        /* \"#utility.yul\":3411:3416   */\n      dup7\n        /* \"#utility.yul\":3407:3423   */\n      add\n        /* \"#utility.yul\":3372:3437   */\n      tag_452\n      jump\t// in\n    tag_534:\n        /* \"#utility.yul\":3462:3491   */\n      tag_535\n        /* \"#utility.yul\":3484:3490   */\n      dup2\n        /* \"#utility.yul\":3462:3491   */\n      tag_453\n      jump\t// in\n    tag_535:\n        /* \"#utility.yul\":3457:3460   */\n      dup5\n        /* \"#utility.yul\":3453:3492   */\n      add\n        /* \"#utility.yul\":3446:3492   */\n      swap2\n      pop\n        /* \"#utility.yul\":3213:3498   */\n      pop\n        /* \"#utility.yul\":3121:3498   */\n      swap3\n      swap2\n      pop\n      pop\n      jump\t// out\n        /* \"#utility.yul\":3504:3817   */\n    tag_53:\n        /* \"#utility.yul\":3617:3621   */\n      0x00\n        /* \"#utility.yul\":3655:3657   */\n      0x20\n        /* \"#utility.yul\":3644:3653   */\n      dup3\n        /* \"#utility.yul\":3640:3658   */\n      add\n        /* \"#utility.yul\":3632:3658   */\n      swap1\n      pop\n        /* \"#utility.yul\":3704:3713   */\n      dup2\n        /* \"#utility.yul\":3698:3702   */\n      dup2\n        /* \"#utility.yul\":3694:3714   */\n      sub\n        /* \"#utility.yul\":3690:3691   */\n      0x00\n        /* \"#utility.yul\":3679:3688   */\n      dup4\n        /* \"#utility.yul\":3675:3692   */\n      add\n        /* \"#utility.yul\":3668:3715   */\n      mstore\n        /* \"#utility.yul\":3732:3810   */\n      tag_537\n        /* \"#utility.yul\":3805:3809   */\n      dup2\n        /* \"#utility.yul\":3796:3802   */\n      dup5\n        /* \"#utility.yul\":3732:3810   */\n      tag_454\n      jump\t// in\n    tag_537:\n        /* \"#utility.yul\":3724:3810   */\n      swap1\n      pop\n        /* \"#utility.yul\":3504:3817   */\n      swap3\n      swap2\n      pop\n      pop\n      jump\t// out\n        /* \"#utility.yul\":3823:4155   */\n    tag_57:\n        /* \"#utility.yul\":3944:3948   */\n      0x00\n        /* \"#utility.yul\":3982:3984   */\n      0x40\n        /* \"#utility.yul\":3971:3980   */\n      dup3\n        /* \"#utility.yul\":3967:3985   */\n      add\n        /* \"#utility.yul\":3959:3985   */\n      swap1\n      pop\n        /* \"#utility.yul\":3995:4066   */\n      tag_539\n        /* \"#utility.yul\":4063:4064   */\n      0x00\n        /* \"#utility.yul\":4052:4061   */\n      dup4\n        /* \"#utility.yul\":4048:4065   */\n      add\n        /* \"#utility.yul\":4039:4045   */\n      dup6\n        /* \"#utility.yul\":3995:4066   */\n      tag_449\n      jump\t// in\n    tag_539:\n        /* \"#utility.yul\":4076:4148   */\n      tag_540\n        /* \"#utility.yul\":4144:4146   */\n      0x20\n        /* \"#utility.yul\":4133:4142   */\n      dup4\n        /* \"#utility.yul\":4129:4147   */\n      add\n        /* \"#utility.yul\":4120:4126   */\n      dup5\n        /* \"#utility.yul\":4076:4148   */\n      tag_449\n      jump\t// in\n    tag_540:\n        /* \"#utility.yul\":3823:4155   */\n      swap4\n      swap3\n      pop\n      pop\n      pop\n      jump\t// out\n        /* \"#utility.yul\":4161:4283   */\n    tag_455:\n        /* \"#utility.yul\":4234:4258   */\n      tag_542\n        /* \"#utility.yul\":4252:4257   */\n      dup2\n        /* \"#utility.yul\":4234:4258   */\n      tag_447\n      jump\t// in\n    tag_542:\n        /* \"#utility.yul\":4227:4232   */\n      dup2\n        /* \"#utility.yul\":4224:4259   */\n      eq\n        /* \"#utility.yul\":4214:4277   */\n      tag_543\n      jumpi\n        /* \"#utility.yul\":4273:4274   */\n      0x00\n        /* \"#utility.yul\":4270:4271   */\n      dup1\n        /* \"#utility.yul\":4263:4275   */\n      revert\n        /* \"#utility.yul\":4214:4277   */\n    tag_543:\n        /* \"#utility.yul\":4161:4283   */\n      pop\n      jump\t// out\n        /* \"#utility.yul\":4289:4428   */\n    tag_456:\n        /* \"#utility.yul\":4335:4340   */\n      0x00\n        /* \"#utility.yul\":4373:4379   */\n      dup2\n        /* \"#utility.yul\":4360:4380   */\n      calldataload\n        /* \"#utility.yul\":4351:4380   */\n      swap1\n      pop\n        /* \"#utility.yul\":4389:4422   */\n      tag_545\n        /* \"#utility.yul\":4416:4421   */\n      dup2\n        /* \"#utility.yul\":4389:4422   */\n      tag_455\n      jump\t// in\n    tag_545:\n        /* \"#utility.yul\":4289:4428   */\n      swap3\n      swap2\n      pop\n      pop\n      jump\t// out\n        /* \"#utility.yul\":4434:4908   */\n    tag_60:\n        /* \"#utility.yul\":4502:4508   */\n      0x00\n        /* \"#utility.yul\":4510:4516   */\n      dup1\n        /* \"#utility.yul\":4559:4561   */\n      0x40\n        /* \"#utility.yul\":4547:4556   */\n      dup4\n        /* \"#utility.yul\":4538:4545   */\n      dup6\n        /* \"#utility.yul\":4534:4557   */\n      sub\n        /* \"#utility.yul\":4530:4562   */\n      slt\n        /* \"#utility.yul\":4527:4646   */\n      iszero\n      tag_547\n      jumpi\n        /* \"#utility.yul\":4565:4644   */\n      tag_548\n      tag_441\n      jump\t// in\n    tag_548:\n        /* \"#utility.yul\":4527:4646   */\n    tag_547:\n        /* \"#utility.yul\":4685:4686   */\n      0x00\n        /* \"#utility.yul\":4710:4763   */\n      tag_549\n        /* \"#utility.yul\":4755:4762   */\n      dup6\n        /* \"#utility.yul\":4746:4752   */\n      dup3\n        /* \"#utility.yul\":4735:4744   */\n      dup7\n        /* \"#utility.yul\":4731:4753   */\n      add\n        /* \"#utility.yul\":4710:4763   */\n      tag_456\n      jump\t// in\n    tag_549:\n        /* \"#utility.yul\":4700:4763   */\n      swap3\n      pop\n        /* \"#utility.yul\":4656:4773   */\n      pop\n        /* \"#utility.yul\":4812:4814   */\n      0x20\n        /* \"#utility.yul\":4838:4891   */\n      tag_550\n        /* \"#utility.yul\":4883:4890   */\n      dup6\n        /* \"#utility.yul\":4874:4880   */\n      dup3\n        /* \"#utility.yul\":4863:4872   */\n      dup7\n        /* \"#utility.yul\":4859:4881   */\n      add\n        /* \"#utility.yul\":4838:4891   */\n      tag_445\n      jump\t// in\n    tag_550:\n        /* \"#utility.yul\":4828:4891   */\n      swap2\n      pop\n        /* \"#utility.yul\":4783:4901   */\n      pop\n        /* \"#utility.yul\":4434:4908   */\n      swap3\n      pop\n      swap3\n      swap1\n      pop\n      jump\t// out\n        /* \"#utility.yul\":4914:5004   */\n    tag_457:\n        /* \"#utility.yul\":4948:4955   */\n      0x00\n        /* \"#utility.yul\":4991:4996   */\n      dup2\n        /* \"#utility.yul\":4984:4997   */\n      iszero\n        /* \"#utility.yul\":4977:4998   */\n      iszero\n        /* \"#utility.yul\":4966:4998   */\n      swap1\n      pop\n        /* \"#utility.yul\":4914:5004   */\n      swap2\n      swap1\n      pop\n      jump\t// out\n        /* \"#utility.yul\":5010:5119   */\n    tag_458:\n        /* \"#utility.yul\":5091:5112   */\n      tag_553\n        /* \"#utility.yul\":5106:5111   */\n      dup2\n        /* \"#utility.yul\":5091:5112   */\n      tag_457\n      jump\t// in\n    tag_553:\n        /* \"#utility.yul\":5086:5089   */\n      dup3\n        /* \"#utility.yul\":5079:5113   */\n      mstore\n        /* \"#utility.yul\":5010:5119   */\n      pop\n      pop\n      jump\t// out\n        /* \"#utility.yul\":5125:5335   */\n    tag_63:\n        /* \"#utility.yul\":5212:5216   */\n      0x00\n        /* \"#utility.yul\":5250:5252   */\n      0x20\n        /* \"#utility.yul\":5239:5248   */\n      dup3\n        /* \"#utility.yul\":5235:5253   */\n      add\n        /* \"#utility.yul\":5227:5253   */\n      swap1\n      pop\n        /* \"#utility.yul\":5263:5328   */\n      tag_555\n        /* \"#utility.yul\":5325:5326   */\n      0x00\n        /* \"#utility.yul\":5314:5323   */\n      dup4\n        /* \"#utility.yul\":5310:5327   */\n      add\n        /* \"#utility.yul\":5301:5307   */\n      dup5\n        /* \"#utility.yul\":5263:5328   */\n      tag_458\n      jump\t// in\n    tag_555:\n        /* \"#utility.yul\":5125:5335   */\n      swap3\n      swap2\n      pop\n      pop\n      jump\t// out\n        /* \"#utility.yul\":5341:5401   */\n    tag_459:\n        /* \"#utility.yul\":5369:5372   */\n      0x00\n        /* \"#utility.yul\":5390:5395   */\n      dup2\n        /* \"#utility.yul\":5383:5395   */\n      swap1\n      pop\n        /* \"#utility.yul\":5341:5401   */\n      swap2\n      swap1\n      pop\n      jump\t// out\n        /* \"#utility.yul\":5407:5549   */\n    tag_460:\n        /* \"#utility.yul\":5457:5466   */\n      0x00\n        /* \"#utility.yul\":5490:5543   */\n      tag_558\n        /* \"#utility.yul\":5508:5542   */\n      tag_559\n        /* \"#utility.yul\":5517:5541   */\n      tag_560\n        /* \"#utility.yul\":5535:5540   */\n      dup5\n        /* \"#utility.yul\":5517:5541   */\n      tag_446\n      jump\t// in\n    tag_560:\n        /* \"#utility.yul\":5508:5542   */\n      tag_459\n      jump\t// in\n    tag_559:\n        /* \"#utility.yul\":5490:5543   */\n      tag_446\n      jump\t// in\n    tag_558:\n        /* \"#utility.yul\":5477:5543   */\n      swap1\n      pop\n        /* \"#utility.yul\":5407:5549   */\n      swap2\n      swap1\n      pop\n      jump\t// out\n        /* \"#utility.yul\":5555:5681   */\n    tag_461:\n        /* \"#utility.yul\":5605:5614   */\n      0x00\n        /* \"#utility.yul\":5638:5675   */\n      tag_562\n        /* \"#utility.yul\":5669:5674   */\n      dup3\n        /* \"#utility.yul\":5638:5675   */\n      tag_460\n      jump\t// in\n    tag_562:\n        /* \"#utility.yul\":5625:5675   */\n      swap1\n      pop\n        /* \"#utility.yul\":5555:5681   */\n      swap2\n      swap1\n      pop\n      jump\t// out\n        /* \"#utility.yul\":5687:5827   */\n    tag_462:\n        /* \"#utility.yul\":5751:5760   */\n      0x00\n        /* \"#utility.yul\":5784:5821   */\n      tag_564\n        /* \"#utility.yul\":5815:5820   */\n      dup3\n        /* \"#utility.yul\":5784:5821   */\n      tag_461\n      jump\t// in\n    tag_564:\n        /* \"#utility.yul\":5771:5821   */\n      swap1\n      pop\n        /* \"#utility.yul\":5687:5827   */\n      swap2\n      swap1\n      pop\n      jump\t// out\n        /* \"#utility.yul\":5833:5992   */\n    tag_463:\n        /* \"#utility.yul\":5934:5985   */\n      tag_566\n        /* \"#utility.yul\":5979:5984   */\n      dup2\n        /* \"#utility.yul\":5934:5985   */\n      tag_462\n      jump\t// in\n    tag_566:\n        /* \"#utility.yul\":5929:5932   */\n      dup3\n        /* \"#utility.yul\":5922:5986   */\n      mstore\n        /* \"#utility.yul\":5833:5992   */\n      pop\n      pop\n      jump\t// out\n        /* \"#utility.yul\":5998:6248   */\n    tag_73:\n        /* \"#utility.yul\":6105:6109   */\n      0x00\n        /* \"#utility.yul\":6143:6145   */\n      0x20\n        /* \"#utility.yul\":6132:6141   */\n      dup3\n        /* \"#utility.yul\":6128:6146   */\n      add\n        /* \"#utility.yul\":6120:6146   */\n      swap1\n      pop\n        /* \"#utility.yul\":6156:6241   */\n      tag_568\n        /* \"#utility.yul\":6238:6239   */\n      0x00\n        /* \"#utility.yul\":6227:6236   */\n      dup4\n        /* \"#utility.yul\":6223:6240   */\n      add\n        /* \"#utility.yul\":6214:6220   */\n      dup5\n        /* \"#utility.yul\":6156:6241   */\n      tag_463\n      jump\t// in\n    tag_568:\n        /* \"#utility.yul\":5998:6248   */\n      swap3\n      swap2\n      pop\n      pop\n      jump\t// out\n        /* \"#utility.yul\":6254:6873   */\n    tag_79:\n        /* \"#utility.yul\":6331:6337   */\n      0x00\n        /* \"#utility.yul\":6339:6345   */\n      dup1\n        /* \"#utility.yul\":6347:6353   */\n      0x00\n        /* \"#utility.yul\":6396:6398   */\n      0x60\n        /* \"#utility.yul\":6384:6393   */\n      dup5\n        /* \"#utility.yul\":6375:6382   */\n      dup7\n        /* \"#utility.yul\":6371:6394   */\n      sub\n        /* \"#utility.yul\":6367:6399   */\n      slt\n        /* \"#utility.yul\":6364:6483   */\n      iszero\n      tag_570\n      jumpi\n        /* \"#utility.yul\":6402:6481   */\n      tag_571\n      tag_441\n      jump\t// in\n    tag_571:\n        /* \"#utility.yul\":6364:6483   */\n    tag_570:\n        /* \"#utility.yul\":6522:6523   */\n      0x00\n        /* \"#utility.yul\":6547:6600   */\n      tag_572\n        /* \"#utility.yul\":6592:6599   */\n      dup7\n        /* \"#utility.yul\":6583:6589   */\n      dup3\n        /* \"#utility.yul\":6572:6581   */\n      dup8\n        /* \"#utility.yul\":6568:6590   */\n      add\n        /* \"#utility.yul\":6547:6600   */\n      tag_456\n      jump\t// in\n    tag_572:\n        /* \"#utility.yul\":6537:6600   */\n      swap4\n      pop\n        /* \"#utility.yul\":6493:6610   */\n      pop\n        /* \"#utility.yul\":6649:6651   */\n      0x20\n        /* \"#utility.yul\":6675:6728   */\n      tag_573\n        /* \"#utility.yul\":6720:6727   */\n      dup7\n        /* \"#utility.yul\":6711:6717   */\n      dup3\n        /* \"#utility.yul\":6700:6709   */\n      dup8\n        /* \"#utility.yul\":6696:6718   */\n      add\n        /* \"#utility.yul\":6675:6728   */\n      tag_456\n      jump\t// in\n    tag_573:\n        /* \"#utility.yul\":6665:6728   */\n      swap3\n      pop\n        /* \"#utility.yul\":6620:6738   */\n      pop\n        /* \"#utility.yul\":6777:6779   */\n      0x40\n        /* \"#utility.yul\":6803:6856   */\n      tag_574\n        /* \"#utility.yul\":6848:6855   */\n      dup7\n        /* \"#utility.yul\":6839:6845   */\n      dup3\n        /* \"#utility.yul\":6828:6837   */\n      dup8\n        /* \"#utility.yul\":6824:6846   */\n      add\n        /* \"#utility.yul\":6803:6856   */\n      tag_445\n      jump\t// in\n    tag_574:\n        /* \"#utility.yul\":6793:6856   */\n      swap2\n      pop\n        /* \"#utility.yul\":6748:6866   */\n      pop\n        /* \"#utility.yul\":6254:6873   */\n      swap3\n      pop\n      swap3\n      pop\n      swap3\n      jump\t// out\n        /* \"#utility.yul\":6879:7353   */\n    tag_84:\n        /* \"#utility.yul\":6947:6953   */\n      0x00\n        /* \"#utility.yul\":6955:6961   */\n      dup1\n        /* \"#utility.yul\":7004:7006   */\n      0x40\n        /* \"#utility.yul\":6992:7001   */\n      dup4\n        /* \"#utility.yul\":6983:6990   */\n      dup6\n        /* \"#utility.yul\":6979:7002   */\n      sub\n        /* \"#utility.yul\":6975:7007   */\n      slt\n        /* \"#utility.yul\":6972:7091   */\n      iszero\n      tag_576\n      jumpi\n        /* \"#utility.yul\":7010:7089   */\n      tag_577\n      tag_441\n      jump\t// in\n    tag_577:\n        /* \"#utility.yul\":6972:7091   */\n    tag_576:\n        /* \"#utility.yul\":7130:7131   */\n      0x00\n        /* \"#utility.yul\":7155:7208   */\n      tag_578\n        /* \"#utility.yul\":7200:7207   */\n      dup6\n        /* \"#utility.yul\":7191:7197   */\n      dup3\n        /* \"#utility.yul\":7180:7189   */\n      dup7\n        /* \"#utility.yul\":7176:7198   */\n      add\n        /* \"#utility.yul\":7155:7208   */\n      tag_445\n      jump\t// in\n    tag_578:\n        /* \"#utility.yul\":7145:7208   */\n      swap3\n      pop\n        /* \"#utility.yul\":7101:7218   */\n      pop\n        /* \"#utility.yul\":7257:7259   */\n      0x20\n        /* \"#utility.yul\":7283:7336   */\n      tag_579\n        /* \"#utility.yul\":7328:7335   */\n      dup6\n        /* \"#utility.yul\":7319:7325   */\n      dup3\n        /* \"#utility.yul\":7308:7317   */\n      dup7\n        /* \"#utility.yul\":7304:7326   */\n      add\n        /* \"#utility.yul\":7283:7336   */\n      tag_445\n      jump\t// in\n    tag_579:\n        /* \"#utility.yul\":7273:7336   */\n      swap2\n      pop\n        /* \"#utility.yul\":7228:7346   */\n      pop\n        /* \"#utility.yul\":6879:7353   */\n      swap3\n      pop\n      swap3\n      swap1\n      pop\n      jump\t// out\n        /* \"#utility.yul\":7359:7445   */\n    tag_464:\n        /* \"#utility.yul\":7394:7401   */\n      0x00\n        /* \"#utility.yul\":7434:7438   */\n      0xff\n        /* \"#utility.yul\":7427:7432   */\n      dup3\n        /* \"#utility.yul\":7423:7439   */\n      and\n        /* \"#utility.yul\":7412:7439   */\n      swap1\n      pop\n        /* \"#utility.yul\":7359:7445   */\n      swap2\n      swap1\n      pop\n      jump\t// out\n        /* \"#utility.yul\":7451:7563   */\n    tag_465:\n        /* \"#utility.yul\":7534:7556   */\n      tag_582\n        /* \"#utility.yul\":7550:7555   */\n      dup2\n        /* \"#utility.yul\":7534:7556   */\n      tag_464\n      jump\t// in\n    tag_582:\n        /* \"#utility.yul\":7529:7532   */\n      dup3\n        /* \"#utility.yul\":7522:7557   */\n      mstore\n        /* \"#utility.yul\":7451:7563   */\n      pop\n      pop\n      jump\t// out\n        /* \"#utility.yul\":7569:7783   */\n    tag_90:\n        /* \"#utility.yul\":7658:7662   */\n      0x00\n        /* \"#utility.yul\":7696:7698   */\n      0x20\n        /* \"#utility.yul\":7685:7694   */\n      dup3\n        /* \"#utility.yul\":7681:7699   */\n      add\n        /* \"#utility.yul\":7673:7699   */\n      swap1\n      pop\n        /* \"#utility.yul\":7709:7776   */\n      tag_584\n        /* \"#utility.yul\":7773:7774   */\n      0x00\n        /* \"#utility.yul\":7762:7771   */\n      dup4\n        /* \"#utility.yul\":7758:7775   */\n      add\n        /* \"#utility.yul\":7749:7755   */\n      dup5\n        /* \"#utility.yul\":7709:7776   */\n      tag_465\n      jump\t// in\n    tag_584:\n        /* \"#utility.yul\":7569:7783   */\n      swap3\n      swap2\n      pop\n      pop\n      jump\t// out\n        /* \"#utility.yul\":7789:8118   */\n    tag_96:\n        /* \"#utility.yul\":7848:7854   */\n      0x00\n        /* \"#utility.yul\":7897:7899   */\n      0x20\n        /* \"#utility.yul\":7885:7894   */\n      dup3\n        /* \"#utility.yul\":7876:7883   */\n      dup5\n        /* \"#utility.yul\":7872:7895   */\n      sub\n        /* \"#utility.yul\":7868:7900   */\n      slt\n        /* \"#utility.yul\":7865:7984   */\n      iszero\n      tag_586\n      jumpi\n        /* \"#utility.yul\":7903:7982   */\n      tag_587\n      tag_441\n      jump\t// in\n    tag_587:\n        /* \"#utility.yul\":7865:7984   */\n    tag_586:\n        /* \"#utility.yul\":8023:8024   */\n      0x00\n        /* \"#utility.yul\":8048:8101   */\n      tag_588\n        /* \"#utility.yul\":8093:8100   */\n      dup5\n        /* \"#utility.yul\":8084:8090   */\n      dup3\n        /* \"#utility.yul\":8073:8082   */\n      dup6\n        /* \"#utility.yul\":8069:8091   */\n      add\n        /* \"#utility.yul\":8048:8101   */\n      tag_456\n      jump\t// in\n    tag_588:\n        /* \"#utility.yul\":8038:8101   */\n      swap2\n      pop\n        /* \"#utility.yul\":7994:8111   */\n      pop\n        /* \"#utility.yul\":7789:8118   */\n      swap3\n      swap2\n      pop\n      pop\n      jump\t// out\n        /* \"#utility.yul\":8124:8598   */\n    tag_138:\n        /* \"#utility.yul\":8192:8198   */\n      0x00\n        /* \"#utility.yul\":8200:8206   */\n      dup1\n        /* \"#utility.yul\":8249:8251   */\n      0x40\n        /* \"#utility.yul\":8237:8246   */\n      dup4\n        /* \"#utility.yul\":8228:8235   */\n      dup6\n        /* \"#utility.yul\":8224:8247   */\n      sub\n        /* \"#utility.yul\":8220:8252   */\n      slt\n        /* \"#utility.yul\":8217:8336   */\n      iszero\n      tag_590\n      jumpi\n        /* \"#utility.yul\":8255:8334   */\n      tag_591\n      tag_441\n      jump\t// in\n    tag_591:\n        /* \"#utility.yul\":8217:8336   */\n    tag_590:\n        /* \"#utility.yul\":8375:8376   */\n      0x00\n        /* \"#utility.yul\":8400:8453   */\n      tag_592\n        /* \"#utility.yul\":8445:8452   */\n      dup6\n        /* \"#utility.yul\":8436:8442   */\n      dup3\n        /* \"#utility.yul\":8425:8434   */\n      dup7\n        /* \"#utility.yul\":8421:8443   */\n      add\n        /* \"#utility.yul\":8400:8453   */\n      tag_456\n      jump\t// in\n    tag_592:\n        /* \"#utility.yul\":8390:8453   */\n      swap3\n      pop\n        /* \"#utility.yul\":8346:8463   */\n      pop\n        /* \"#utility.yul\":8502:8504   */\n      0x20\n        /* \"#utility.yul\":8528:8581   */\n      tag_593\n        /* \"#utility.yul\":8573:8580   */\n      dup6\n        /* \"#utility.yul\":8564:8570   */\n      dup3\n        /* \"#utility.yul\":8553:8562   */\n      dup7\n        /* \"#utility.yul\":8549:8571   */\n      add\n        /* \"#utility.yul\":8528:8581   */\n      tag_456\n      jump\t// in\n    tag_593:\n        /* \"#utility.yul\":8518:8581   */\n      swap2\n      pop\n        /* \"#utility.yul\":8473:8591   */\n      pop\n        /* \"#utility.yul\":8124:8598   */\n      swap3\n      pop\n      swap3\n      swap1\n      pop\n      jump\t// out\n        /* \"#utility.yul\":8604:8784   */\n    tag_466:\n        /* \"#utility.yul\":8652:8729   */\n      0x4e487b7100000000000000000000000000000000000000000000000000000000\n        /* \"#utility.yul\":8649:8650   */\n      0x00\n        /* \"#utility.yul\":8642:8730   */\n      mstore\n        /* \"#utility.yul\":8749:8753   */\n      0x11\n        /* \"#utility.yul\":8746:8747   */\n      0x04\n        /* \"#utility.yul\":8739:8754   */\n      mstore\n        /* \"#utility.yul\":8773:8777   */\n      0x24\n        /* \"#utility.yul\":8770:8771   */\n      0x00\n        /* \"#utility.yul\":8763:8778   */\n      revert\n        /* \"#utility.yul\":8790:8984   */\n    tag_152:\n        /* \"#utility.yul\":8830:8834   */\n      0x00\n        /* \"#utility.yul\":8850:8870   */\n      tag_596\n        /* \"#utility.yul\":8868:8869   */\n      dup3\n        /* \"#utility.yul\":8850:8870   */\n      tag_443\n      jump\t// in\n    tag_596:\n        /* \"#utility.yul\":8845:8870   */\n      swap2\n      pop\n        /* \"#utility.yul\":8884:8904   */\n      tag_597\n        /* \"#utility.yul\":8902:8903   */\n      dup4\n        /* \"#utility.yul\":8884:8904   */\n      tag_443\n      jump\t// in\n    tag_597:\n        /* \"#utility.yul\":8879:8904   */\n      swap3\n      pop\n        /* \"#utility.yul\":8928:8929   */\n      dup3\n        /* \"#utility.yul\":8925:8926   */\n      dup3\n        /* \"#utility.yul\":8921:8930   */\n      sub\n        /* \"#utility.yul\":8913:8930   */\n      swap1\n      pop\n        /* \"#utility.yul\":8952:8953   */\n      dup2\n        /* \"#utility.yul\":8946:8950   */\n      dup2\n        /* \"#utility.yul\":8943:8954   */\n      gt\n        /* \"#utility.yul\":8940:8977   */\n      iszero\n      tag_598\n      jumpi\n        /* \"#utility.yul\":8957:8975   */\n      tag_599\n      tag_466\n      jump\t// in\n    tag_599:\n        /* \"#utility.yul\":8940:8977   */\n    tag_598:\n        /* \"#utility.yul\":8790:8984   */\n      swap3\n      swap2\n      pop\n      pop\n      jump\t// out\n        /* \"#utility.yul\":8990:9400   */\n    tag_154:\n        /* \"#utility.yul\":9030:9037   */\n      0x00\n        /* \"#utility.yul\":9053:9073   */\n      tag_601\n        /* \"#utility.yul\":9071:9072   */\n      dup3\n        /* \"#utility.yul\":9053:9073   */\n      tag_443\n      jump\t// in\n    tag_601:\n        /* \"#utility.yul\":9048:9073   */\n      swap2\n      pop\n        /* \"#utility.yul\":9087:9107   */\n      tag_602\n        /* \"#utility.yul\":9105:9106   */\n      dup4\n        /* \"#utility.yul\":9087:9107   */\n      tag_443\n      jump\t// in\n    tag_602:\n        /* \"#utility.yul\":9082:9107   */\n      swap3\n      pop\n        /* \"#utility.yul\":9142:9143   */\n      dup3\n        /* \"#utility.yul\":9139:9140   */\n      dup3\n        /* \"#utility.yul\":9135:9144   */\n      mul\n        /* \"#utility.yul\":9164:9194   */\n      tag_603\n        /* \"#utility.yul\":9182:9193   */\n      dup2\n        /* \"#utility.yul\":9164:9194   */\n      tag_443\n      jump\t// in\n    tag_603:\n        /* \"#utility.yul\":9153:9194   */\n      swap2\n      pop\n        /* \"#utility.yul\":9343:9344   */\n      dup3\n        /* \"#utility.yul\":9334:9341   */\n      dup3\n        /* \"#utility.yul\":9330:9345   */\n      div\n        /* \"#utility.yul\":9327:9328   */\n      dup5\n        /* \"#utility.yul\":9324:9346   */\n      eq\n        /* \"#utility.yul\":9304:9305   */\n      dup4\n        /* \"#utility.yul\":9297:9306   */\n      iszero\n        /* \"#utility.yul\":9277:9360   */\n      or\n        /* \"#utility.yul\":9254:9393   */\n      tag_604\n      jumpi\n        /* \"#utility.yul\":9373:9391   */\n      tag_605\n      tag_466\n      jump\t// in\n    tag_605:\n        /* \"#utility.yul\":9254:9393   */\n    tag_604:\n        /* \"#utility.yul\":9038:9400   */\n      pop\n        /* \"#utility.yul\":8990:9400   */\n      swap3\n      swap2\n      pop\n      pop\n      jump\t// out\n        /* \"#utility.yul\":9406:9597   */\n    tag_158:\n        /* \"#utility.yul\":9446:9449   */\n      0x00\n        /* \"#utility.yul\":9465:9485   */\n      tag_607\n        /* \"#utility.yul\":9483:9484   */\n      dup3\n        /* \"#utility.yul\":9465:9485   */\n      tag_443\n      jump\t// in\n    tag_607:\n        /* \"#utility.yul\":9460:9485   */\n      swap2\n      pop\n        /* \"#utility.yul\":9499:9519   */\n      tag_608\n        /* \"#utility.yul\":9517:9518   */\n      dup4\n        /* \"#utility.yul\":9499:9519   */\n      tag_443\n      jump\t// in\n    tag_608:\n        /* \"#utility.yul\":9494:9519   */\n      swap3\n      pop\n        /* \"#utility.yul\":9542:9543   */\n      dup3\n        /* \"#utility.yul\":9539:9540   */\n      dup3\n        /* \"#utility.yul\":9535:9544   */\n      add\n        /* \"#utility.yul\":9528:9544   */\n      swap1\n      pop\n        /* \"#utility.yul\":9563:9566   */\n      dup1\n        /* \"#utility.yul\":9560:9561   */\n      dup3\n        /* \"#utility.yul\":9557:9567   */\n      gt\n        /* \"#utility.yul\":9554:9590   */\n      iszero\n      tag_609\n      jumpi\n        /* \"#utility.yul\":9570:9588   */\n      tag_610\n      tag_466\n      jump\t// in\n    tag_610:\n        /* \"#utility.yul\":9554:9590   */\n    tag_609:\n        /* \"#utility.yul\":9406:9597   */\n      swap3\n      swap2\n      pop\n      pop\n      jump\t// out\n        /* \"#utility.yul\":9603:9783   */\n    tag_467:\n        /* \"#utility.yul\":9651:9728   */\n      0x4e487b7100000000000000000000000000000000000000000000000000000000\n        /* \"#utility.yul\":9648:9649   */\n      0x00\n        /* \"#utility.yul\":9641:9729   */\n      mstore\n        /* \"#utility.yul\":9748:9752   */\n      0x12\n        /* \"#utility.yul\":9745:9746   */\n      0x04\n        /* \"#utility.yul\":9738:9753   */\n      mstore\n        /* \"#utility.yul\":9772:9776   */\n      0x24\n        /* \"#utility.yul\":9769:9770   */\n      0x00\n        /* \"#utility.yul\":9762:9777   */\n      revert\n        /* \"#utility.yul\":9789:9974   */\n    tag_160:\n        /* \"#utility.yul\":9829:9830   */\n      0x00\n        /* \"#utility.yul\":9846:9866   */\n      tag_613\n        /* \"#utility.yul\":9864:9865   */\n      dup3\n        /* \"#utility.yul\":9846:9866   */\n      tag_443\n      jump\t// in\n    tag_613:\n        /* \"#utility.yul\":9841:9866   */\n      swap2\n      pop\n        /* \"#utility.yul\":9880:9900   */\n      tag_614\n        /* \"#utility.yul\":9898:9899   */\n      dup4\n        /* \"#utility.yul\":9880:9900   */\n      tag_443\n      jump\t// in\n    tag_614:\n        /* \"#utility.yul\":9875:9900   */\n      swap3\n      pop\n        /* \"#utility.yul\":9919:9920   */\n      dup3\n        /* \"#utility.yul\":9909:9944   */\n      tag_615\n      jumpi\n        /* \"#utility.yul\":9924:9942   */\n      tag_616\n      tag_467\n      jump\t// in\n    tag_616:\n        /* \"#utility.yul\":9909:9944   */\n    tag_615:\n        /* \"#utility.yul\":9966:9967   */\n      dup3\n        /* \"#utility.yul\":9963:9964   */\n      dup3\n        /* \"#utility.yul\":9959:9968   */\n      div\n        /* \"#utility.yul\":9954:9968   */\n      swap1\n      pop\n        /* \"#utility.yul\":9789:9974   */\n      swap3\n      swap2\n      pop\n      pop\n      jump\t// out\n        /* \"#utility.yul\":9980:10160   */\n    tag_468:\n        /* \"#utility.yul\":10028:10105   */\n      0x4e487b7100000000000000000000000000000000000000000000000000000000\n        /* \"#utility.yul\":10025:10026   */\n      0x00\n        /* \"#utility.yul\":10018:10106   */\n      mstore\n        /* \"#utility.yul\":10125:10129   */\n      0x22\n        /* \"#utility.yul\":10122:10123   */\n      0x04\n        /* \"#utility.yul\":10115:10130   */\n      mstore\n        /* \"#utility.yul\":10149:10153   */\n      0x24\n        /* \"#utility.yul\":10146:10147   */\n      0x00\n        /* \"#utility.yul\":10139:10154   */\n      revert\n        /* \"#utility.yul\":10166:10486   */\n    tag_163:\n        /* \"#utility.yul\":10210:10216   */\n      0x00\n        /* \"#utility.yul\":10247:10248   */\n      0x02\n        /* \"#utility.yul\":10241:10245   */\n      dup3\n        /* \"#utility.yul\":10237:10249   */\n      div\n        /* \"#utility.yul\":10227:10249   */\n      swap1\n      pop\n        /* \"#utility.yul\":10294:10295   */\n      0x01\n        /* \"#utility.yul\":10288:10292   */\n      dup3\n        /* \"#utility.yul\":10284:10296   */\n      and\n        /* \"#utility.yul\":10315:10333   */\n      dup1\n        /* \"#utility.yul\":10305:10386   */\n      tag_619\n      jumpi\n        /* \"#utility.yul\":10371:10375   */\n      0x7f\n        /* \"#utility.yul\":10363:10369   */\n      dup3\n        /* \"#utility.yul\":10359:10376   */\n      and\n        /* \"#utility.yul\":10349:10376   */\n      swap2\n      pop\n        /* \"#utility.yul\":10305:10386   */\n    tag_619:\n        /* \"#utility.yul\":10433:10435   */\n      0x20\n        /* \"#utility.yul\":10425:10431   */\n      dup3\n        /* \"#utility.yul\":10422:10436   */\n      lt\n        /* \"#utility.yul\":10402:10420   */\n      dup2\n        /* \"#utility.yul\":10399:10437   */\n      sub\n        /* \"#utility.yul\":10396:10480   */\n      tag_620\n      jumpi\n        /* \"#utility.yul\":10452:10470   */\n      tag_621\n      tag_468\n      jump\t// in\n    tag_621:\n        /* \"#utility.yul\":10396:10480   */\n    tag_620:\n        /* \"#utility.yul\":10217:10486   */\n      pop\n        /* \"#utility.yul\":10166:10486   */\n      swap2\n      swap1\n      pop\n      jump\t// out\n        /* \"#utility.yul\":10492:10667   */\n    tag_469:\n        /* \"#utility.yul\":10632:10659   */\n      0x414d4d3a20496e76616c696420696e70757420616d6f756e7400000000000000\n        /* \"#utility.yul\":10628:10629   */\n      0x00\n        /* \"#utility.yul\":10620:10626   */\n      dup3\n        /* \"#utility.yul\":10616:10630   */\n      add\n        /* \"#utility.yul\":10609:10660   */\n      mstore\n        /* \"#utility.yul\":10492:10667   */\n      pop\n      jump\t// out\n        /* \"#utility.yul\":10673:11039   */\n    tag_470:\n        /* \"#utility.yul\":10815:10818   */\n      0x00\n        /* \"#utility.yul\":10836:10903   */\n      tag_624\n        /* \"#utility.yul\":10900:10902   */\n      0x19\n        /* \"#utility.yul\":10895:10898   */\n      dup4\n        /* \"#utility.yul\":10836:10903   */\n      tag_451\n      jump\t// in\n    tag_624:\n        /* \"#utility.yul\":10829:10903   */\n      swap2\n      pop\n        /* \"#utility.yul\":10912:11005   */\n      tag_625\n        /* \"#utility.yul\":11001:11004   */\n      dup3\n        /* \"#utility.yul\":10912:11005   */\n      tag_469\n      jump\t// in\n    tag_625:\n        /* \"#utility.yul\":11030:11032   */\n      0x20\n        /* \"#utility.yul\":11025:11028   */\n      dup3\n        /* \"#utility.yul\":11021:11033   */\n      add\n        /* \"#utility.yul\":11014:11033   */\n      swap1\n      pop\n        /* \"#utility.yul\":10673:11039   */\n      swap2\n      swap1\n      pop\n      jump\t// out\n        /* \"#utility.yul\":11045:11464   */\n    tag_187:\n        /* \"#utility.yul\":11211:11215   */\n      0x00\n        /* \"#utility.yul\":11249:11251   */\n      0x20\n        /* \"#utility.yul\":11238:11247   */\n      dup3\n        /* \"#utility.yul\":11234:11252   */\n      add\n        /* \"#utility.yul\":11226:11252   */\n      swap1\n      pop\n        /* \"#utility.yul\":11298:11307   */\n      dup2\n        /* \"#utility.yul\":11292:11296   */\n      dup2\n        /* \"#utility.yul\":11288:11308   */\n      sub\n        /* \"#utility.yul\":11284:11285   */\n      0x00\n        /* \"#utility.yul\":11273:11282   */\n      dup4\n        /* \"#utility.yul\":11269:11286   */\n      add\n        /* \"#utility.yul\":11262:11309   */\n      mstore\n        /* \"#utility.yul\":11326:11457   */\n      tag_627\n        /* \"#utility.yul\":11452:11456   */\n      dup2\n        /* \"#utility.yul\":11326:11457   */\n      tag_470\n      jump\t// in\n    tag_627:\n        /* \"#utility.yul\":11318:11457   */\n      swap1\n      pop\n        /* \"#utility.yul\":11045:11464   */\n      swap2\n      swap1\n      pop\n      jump\t// out\n        /* \"#utility.yul\":11470:11651   */\n    tag_471:\n        /* \"#utility.yul\":11610:11643   */\n      0x414d4d3a20496e73756666696369656e74206f757470757420616d6f756e7400\n        /* \"#utility.yul\":11606:11607   */\n      0x00\n        /* \"#utility.yul\":11598:11604   */\n      dup3\n        /* \"#utility.yul\":11594:11608   */\n      add\n        /* \"#utility.yul\":11587:11644   */\n      mstore\n        /* \"#utility.yul\":11470:11651   */\n      pop\n      jump\t// out\n        /* \"#utility.yul\":11657:12023   */\n    tag_472:\n        /* \"#utility.yul\":11799:11802   */\n      0x00\n        /* \"#utility.yul\":11820:11887   */\n      tag_630\n        /* \"#utility.yul\":11884:11886   */\n      0x1f\n        /* \"#utility.yul\":11879:11882   */\n      dup4\n        /* \"#utility.yul\":11820:11887   */\n      tag_451\n      jump\t// in\n    tag_630:\n        /* \"#utility.yul\":11813:11887   */\n      swap2\n      pop\n        /* \"#utility.yul\":11896:11989   */\n      tag_631\n        /* \"#utility.yul\":11985:11988   */\n      dup3\n        /* \"#utility.yul\":11896:11989   */\n      tag_471\n      jump\t// in\n    tag_631:\n        /* \"#utility.yul\":12014:12016   */\n      0x20\n        /* \"#utility.yul\":12009:12012   */\n      dup3\n        /* \"#utility.yul\":12005:12017   */\n      add\n        /* \"#utility.yul\":11998:12017   */\n      swap1\n      pop\n        /* \"#utility.yul\":11657:12023   */\n      swap2\n      swap1\n      pop\n      jump\t// out\n        /* \"#utility.yul\":12029:12448   */\n    tag_191:\n        /* \"#utility.yul\":12195:12199   */\n      0x00\n        /* \"#utility.yul\":12233:12235   */\n      0x20\n        /* \"#utility.yul\":12222:12231   */\n      dup3\n        /* \"#utility.yul\":12218:12236   */\n      add\n        /* \"#utility.yul\":12210:12236   */\n      swap1\n      pop\n        /* \"#utility.yul\":12282:12291   */\n      dup2\n        /* \"#utility.yul\":12276:12280   */\n      dup2\n        /* \"#utility.yul\":12272:12292   */\n      sub\n        /* \"#utility.yul\":12268:12269   */\n      0x00\n        /* \"#utility.yul\":12257:12266   */\n      dup4\n        /* \"#utility.yul\":12253:12270   */\n      add\n        /* \"#utility.yul\":12246:12293   */\n      mstore\n        /* \"#utility.yul\":12310:12441   */\n      tag_633\n        /* \"#utility.yul\":12436:12440   */\n      dup2\n        /* \"#utility.yul\":12310:12441   */\n      tag_472\n      jump\t// in\n    tag_633:\n        /* \"#utility.yul\":12302:12441   */\n      swap1\n      pop\n        /* \"#utility.yul\":12029:12448   */\n      swap2\n      swap1\n      pop\n      jump\t// out\n        /* \"#utility.yul\":12454:13007   */\n    tag_201:\n        /* \"#utility.yul\":12631:12635   */\n      0x00\n        /* \"#utility.yul\":12669:12672   */\n      0x80\n        /* \"#utility.yul\":12658:12667   */\n      dup3\n        /* \"#utility.yul\":12654:12673   */\n      add\n        /* \"#utility.yul\":12646:12673   */\n      swap1\n      pop\n        /* \"#utility.yul\":12683:12754   */\n      tag_635\n        /* \"#utility.yul\":12751:12752   */\n      0x00\n        /* \"#utility.yul\":12740:12749   */\n      dup4\n        /* \"#utility.yul\":12736:12753   */\n      add\n        /* \"#utility.yul\":12727:12733   */\n      dup8\n        /* \"#utility.yul\":12683:12754   */\n      tag_449\n      jump\t// in\n    tag_635:\n        /* \"#utility.yul\":12764:12836   */\n      tag_636\n        /* \"#utility.yul\":12832:12834   */\n      0x20\n        /* \"#utility.yul\":12821:12830   */\n      dup4\n        /* \"#utility.yul\":12817:12835   */\n      add\n        /* \"#utility.yul\":12808:12814   */\n      dup7\n        /* \"#utility.yul\":12764:12836   */\n      tag_449\n      jump\t// in\n    tag_636:\n        /* \"#utility.yul\":12846:12918   */\n      tag_637\n        /* \"#utility.yul\":12914:12916   */\n      0x40\n        /* \"#utility.yul\":12903:12912   */\n      dup4\n        /* \"#utility.yul\":12899:12917   */\n      add\n        /* \"#utility.yul\":12890:12896   */\n      dup6\n        /* \"#utility.yul\":12846:12918   */\n      tag_448\n      jump\t// in\n    tag_637:\n        /* \"#utility.yul\":12928:13000   */\n      tag_638\n        /* \"#utility.yul\":12996:12998   */\n      0x60\n        /* \"#utility.yul\":12985:12994   */\n      dup4\n        /* \"#utility.yul\":12981:12999   */\n      add\n        /* \"#utility.yul\":12972:12978   */\n      dup5\n        /* \"#utility.yul\":12928:13000   */\n      tag_448\n      jump\t// in\n    tag_638:\n        /* \"#utility.yul\":12454:13007   */\n      swap6\n      swap5\n      pop\n      pop\n      pop\n      pop\n      pop\n      jump\t// out\n        /* \"#utility.yul\":13013:13192   */\n    tag_473:\n        /* \"#utility.yul\":13153:13184   */\n      0x414d4d3a2063616c6c6572206973206e6f74206120676f7665726e6f72000000\n        /* \"#utility.yul\":13149:13150   */\n      0x00\n        /* \"#utility.yul\":13141:13147   */\n      dup3\n        /* \"#utility.yul\":13137:13151   */\n      add\n        /* \"#utility.yul\":13130:13185   */\n      mstore\n        /* \"#utility.yul\":13013:13192   */\n      pop\n      jump\t// out\n        /* \"#utility.yul\":13198:13564   */\n    tag_474:\n        /* \"#utility.yul\":13340:13343   */\n      0x00\n        /* \"#utility.yul\":13361:13428   */\n      tag_641\n        /* \"#utility.yul\":13425:13427   */\n      0x1d\n        /* \"#utility.yul\":13420:13423   */\n      dup4\n        /* \"#utility.yul\":13361:13428   */\n      tag_451\n      jump\t// in\n    tag_641:\n        /* \"#utility.yul\":13354:13428   */\n      swap2\n      pop\n        /* \"#utility.yul\":13437:13530   */\n      tag_642\n        /* \"#utility.yul\":13526:13529   */\n      dup3\n        /* \"#utility.yul\":13437:13530   */\n      tag_473\n      jump\t// in\n    tag_642:\n        /* \"#utility.yul\":13555:13557   */\n      0x20\n        /* \"#utility.yul\":13550:13553   */\n      dup3\n        /* \"#utility.yul\":13546:13558   */\n      add\n        /* \"#utility.yul\":13539:13558   */\n      swap1\n      pop\n        /* \"#utility.yul\":13198:13564   */\n      swap2\n      swap1\n      pop\n      jump\t// out\n        /* \"#utility.yul\":13570:13989   */\n    tag_208:\n        /* \"#utility.yul\":13736:13740   */\n      0x00\n        /* \"#utility.yul\":13774:13776   */\n      0x20\n        /* \"#utility.yul\":13763:13772   */\n      dup3\n        /* \"#utility.yul\":13759:13777   */\n      add\n        /* \"#utility.yul\":13751:13777   */\n      swap1\n      pop\n        /* \"#utility.yul\":13823:13832   */\n      dup2\n        /* \"#utility.yul\":13817:13821   */\n      dup2\n        /* \"#utility.yul\":13813:13833   */\n      sub\n        /* \"#utility.yul\":13809:13810   */\n      0x00\n        /* \"#utility.yul\":13798:13807   */\n      dup4\n        /* \"#utility.yul\":13794:13811   */\n      add\n        /* \"#utility.yul\":13787:13834   */\n      mstore\n        /* \"#utility.yul\":13851:13982   */\n      tag_644\n        /* \"#utility.yul\":13977:13981   */\n      dup2\n        /* \"#utility.yul\":13851:13982   */\n      tag_474\n      jump\t// in\n    tag_644:\n        /* \"#utility.yul\":13843:13982   */\n      swap1\n      pop\n        /* \"#utility.yul\":13570:13989   */\n      swap2\n      swap1\n      pop\n      jump\t// out\n        /* \"#utility.yul\":13995:14174   */\n    tag_475:\n        /* \"#utility.yul\":14135:14166   */\n      0x414d4d3a20496e76616c696420676f7665726e6f722061646472657373000000\n        /* \"#utility.yul\":14131:14132   */\n      0x00\n        /* \"#utility.yul\":14123:14129   */\n      dup3\n        /* \"#utility.yul\":14119:14133   */\n      add\n        /* \"#utility.yul\":14112:14167   */\n      mstore\n        /* \"#utility.yul\":13995:14174   */\n      pop\n      jump\t// out\n        /* \"#utility.yul\":14180:14546   */\n    tag_476:\n        /* \"#utility.yul\":14322:14325   */\n      0x00\n        /* \"#utility.yul\":14343:14410   */\n      tag_647\n        /* \"#utility.yul\":14407:14409   */\n      0x1d\n        /* \"#utility.yul\":14402:14405   */\n      dup4\n        /* \"#utility.yul\":14343:14410   */\n      tag_451\n      jump\t// in\n    tag_647:\n        /* \"#utility.yul\":14336:14410   */\n      swap2\n      pop\n        /* \"#utility.yul\":14419:14512   */\n      tag_648\n        /* \"#utility.yul\":14508:14511   */\n      dup3\n        /* \"#utility.yul\":14419:14512   */\n      tag_475\n      jump\t// in\n    tag_648:\n        /* \"#utility.yul\":14537:14539   */\n      0x20\n        /* \"#utility.yul\":14532:14535   */\n      dup3\n        /* \"#utility.yul\":14528:14540   */\n      add\n        /* \"#utility.yul\":14521:14540   */\n      swap1\n      pop\n        /* \"#utility.yul\":14180:14546   */\n      swap2\n      swap1\n      pop\n      jump\t// out\n        /* \"#utility.yul\":14552:14971   */\n    tag_212:\n        /* \"#utility.yul\":14718:14722   */\n      0x00\n        /* \"#utility.yul\":14756:14758   */\n      0x20\n        /* \"#utility.yul\":14745:14754   */\n      dup3\n        /* \"#utility.yul\":14741:14759   */\n      add\n        /* \"#utility.yul\":14733:14759   */\n      swap1\n      pop\n        /* \"#utility.yul\":14805:14814   */\n      dup2\n        /* \"#utility.yul\":14799:14803   */\n      dup2\n        /* \"#utility.yul\":14795:14815   */\n      sub\n        /* \"#utility.yul\":14791:14792   */\n      0x00\n        /* \"#utility.yul\":14780:14789   */\n      dup4\n        /* \"#utility.yul\":14776:14793   */\n      add\n        /* \"#utility.yul\":14769:14816   */\n      mstore\n        /* \"#utility.yul\":14833:14964   */\n      tag_650\n        /* \"#utility.yul\":14959:14963   */\n      dup2\n        /* \"#utility.yul\":14833:14964   */\n      tag_476\n      jump\t// in\n    tag_650:\n        /* \"#utility.yul\":14825:14964   */\n      swap1\n      pop\n        /* \"#utility.yul\":14552:14971   */\n      swap2\n      swap1\n      pop\n      jump\t// out\n        /* \"#utility.yul\":14977:15150   */\n    tag_477:\n        /* \"#utility.yul\":15117:15142   */\n      0x414d4d3a20416c7265616479206120676f7665726e6f72000000000000000000\n        /* \"#utility.yul\":15113:15114   */\n      0x00\n        /* \"#utility.yul\":15105:15111   */\n      dup3\n        /* \"#utility.yul\":15101:15115   */\n      add\n        /* \"#utility.yul\":15094:15143   */\n      mstore\n        /* \"#utility.yul\":14977:15150   */\n      pop\n      jump\t// out\n        /* \"#utility.yul\":15156:15522   */\n    tag_478:\n        /* \"#utility.yul\":15298:15301   */\n      0x00\n        /* \"#utility.yul\":15319:15386   */\n      tag_653\n        /* \"#utility.yul\":15383:15385   */\n      0x17\n        /* \"#utility.yul\":15378:15381   */\n      dup4\n        /* \"#utility.yul\":15319:15386   */\n      tag_451\n      jump\t// in\n    tag_653:\n        /* \"#utility.yul\":15312:15386   */\n      swap2\n      pop\n        /* \"#utility.yul\":15395:15488   */\n      tag_654\n        /* \"#utility.yul\":15484:15487   */\n      dup3\n        /* \"#utility.yul\":15395:15488   */\n      tag_477\n      jump\t// in\n    tag_654:\n        /* \"#utility.yul\":15513:15515   */\n      0x20\n        /* \"#utility.yul\":15508:15511   */\n      dup3\n        /* \"#utility.yul\":15504:15516   */\n      add\n        /* \"#utility.yul\":15497:15516   */\n      swap1\n      pop\n        /* \"#utility.yul\":15156:15522   */\n      swap2\n      swap1\n      pop\n      jump\t// out\n        /* \"#utility.yul\":15528:15947   */\n    tag_215:\n        /* \"#utility.yul\":15694:15698   */\n      0x00\n        /* \"#utility.yul\":15732:15734   */\n      0x20\n        /* \"#utility.yul\":15721:15730   */\n      dup3\n        /* \"#utility.yul\":15717:15735   */\n      add\n        /* \"#utility.yul\":15709:15735   */\n      swap1\n      pop\n        /* \"#utility.yul\":15781:15790   */\n      dup2\n        /* \"#utility.yul\":15775:15779   */\n      dup2\n        /* \"#utility.yul\":15771:15791   */\n      sub\n        /* \"#utility.yul\":15767:15768   */\n      0x00\n        /* \"#utility.yul\":15756:15765   */\n      dup4\n        /* \"#utility.yul\":15752:15769   */\n      add\n        /* \"#utility.yul\":15745:15792   */\n      mstore\n        /* \"#utility.yul\":15809:15940   */\n      tag_656\n        /* \"#utility.yul\":15935:15939   */\n      dup2\n        /* \"#utility.yul\":15809:15940   */\n      tag_478\n      jump\t// in\n    tag_656:\n        /* \"#utility.yul\":15801:15940   */\n      swap1\n      pop\n        /* \"#utility.yul\":15528:15947   */\n      swap2\n      swap1\n      pop\n      jump\t// out\n        /* \"#utility.yul\":15953:16119   */\n    tag_479:\n        /* \"#utility.yul\":16093:16111   */\n      0x414d4d3a20496e76616c69642066656500000000000000000000000000000000\n        /* \"#utility.yul\":16089:16090   */\n      0x00\n        /* \"#utility.yul\":16081:16087   */\n      dup3\n        /* \"#utility.yul\":16077:16091   */\n      add\n        /* \"#utility.yul\":16070:16112   */\n      mstore\n        /* \"#utility.yul\":15953:16119   */\n      pop\n      jump\t// out\n        /* \"#utility.yul\":16125:16491   */\n    tag_480:\n        /* \"#utility.yul\":16267:16270   */\n      0x00\n        /* \"#utility.yul\":16288:16355   */\n      tag_659\n        /* \"#utility.yul\":16352:16354   */\n      0x10\n        /* \"#utility.yul\":16347:16350   */\n      dup4\n        /* \"#utility.yul\":16288:16355   */\n      tag_451\n      jump\t// in\n    tag_659:\n        /* \"#utility.yul\":16281:16355   */\n      swap2\n      pop\n        /* \"#utility.yul\":16364:16457   */\n      tag_660\n        /* \"#utility.yul\":16453:16456   */\n      dup3\n        /* \"#utility.yul\":16364:16457   */\n      tag_479\n      jump\t// in\n    tag_660:\n        /* \"#utility.yul\":16482:16484   */\n      0x20\n        /* \"#utility.yul\":16477:16480   */\n      dup3\n        /* \"#utility.yul\":16473:16485   */\n      add\n        /* \"#utility.yul\":16466:16485   */\n      swap1\n      pop\n        /* \"#utility.yul\":16125:16491   */\n      swap2\n      swap1\n      pop\n      jump\t// out\n        /* \"#utility.yul\":16497:16916   */\n    tag_223:\n        /* \"#utility.yul\":16663:16667   */\n      0x00\n        /* \"#utility.yul\":16701:16703   */\n      0x20\n        /* \"#utility.yul\":16690:16699   */\n      dup3\n        /* \"#utility.yul\":16686:16704   */\n      add\n        /* \"#utility.yul\":16678:16704   */\n      swap1\n      pop\n        /* \"#utility.yul\":16750:16759   */\n      dup2\n        /* \"#utility.yul\":16744:16748   */\n      dup2\n        /* \"#utility.yul\":16740:16760   */\n      sub\n        /* \"#utility.yul\":16736:16737   */\n      0x00\n        /* \"#utility.yul\":16725:16734   */\n      dup4\n        /* \"#utility.yul\":16721:16738   */\n      add\n        /* \"#utility.yul\":16714:16761   */\n      mstore\n        /* \"#utility.yul\":16778:16909   */\n      tag_662\n        /* \"#utility.yul\":16904:16908   */\n      dup2\n        /* \"#utility.yul\":16778:16909   */\n      tag_480\n      jump\t// in\n    tag_662:\n        /* \"#utility.yul\":16770:16909   */\n      swap1\n      pop\n        /* \"#utility.yul\":16497:16916   */\n      swap2\n      swap1\n      pop\n      jump\t// out\n        /* \"#utility.yul\":16922:17101   */\n    tag_481:\n        /* \"#utility.yul\":17062:17093   */\n      0x414d4d3a20496e76616c6964206c697175696469747920616d6f756e74000000\n        /* \"#utility.yul\":17058:17059   */\n      0x00\n        /* \"#utility.yul\":17050:17056   */\n      dup3\n        /* \"#utility.yul\":17046:17060   */\n      add\n        /* \"#utility.yul\":17039:17094   */\n      mstore\n        /* \"#utility.yul\":16922:17101   */\n      pop\n      jump\t// out\n        /* \"#utility.yul\":17107:17473   */\n    tag_482:\n        /* \"#utility.yul\":17249:17252   */\n      0x00\n        /* \"#utility.yul\":17270:17337   */\n      tag_665\n        /* \"#utility.yul\":17334:17336   */\n      0x1d\n        /* \"#utility.yul\":17329:17332   */\n      dup4\n        /* \"#utility.yul\":17270:17337   */\n      tag_451\n      jump\t// in\n    tag_665:\n        /* \"#utility.yul\":17263:17337   */\n      swap2\n      pop\n        /* \"#utility.yul\":17346:17439   */\n      tag_666\n        /* \"#utility.yul\":17435:17438   */\n      dup3\n        /* \"#utility.yul\":17346:17439   */\n      tag_481\n      jump\t// in\n    tag_666:\n        /* \"#utility.yul\":17464:17466   */\n      0x20\n        /* \"#utility.yul\":17459:17462   */\n      dup3\n        /* \"#utility.yul\":17455:17467   */\n      add\n        /* \"#utility.yul\":17448:17467   */\n      swap1\n      pop\n        /* \"#utility.yul\":17107:17473   */\n      swap2\n      swap1\n      pop\n      jump\t// out\n        /* \"#utility.yul\":17479:17898   */\n    tag_237:\n        /* \"#utility.yul\":17645:17649   */\n      0x00\n        /* \"#utility.yul\":17683:17685   */\n      0x20\n        /* \"#utility.yul\":17672:17681   */\n      dup3\n        /* \"#utility.yul\":17668:17686   */\n      add\n        /* \"#utility.yul\":17660:17686   */\n      swap1\n      pop\n        /* \"#utility.yul\":17732:17741   */\n      dup2\n        /* \"#utility.yul\":17726:17730   */\n      dup2\n        /* \"#utility.yul\":17722:17742   */\n      sub\n        /* \"#utility.yul\":17718:17719   */\n      0x00\n        /* \"#utility.yul\":17707:17716   */\n      dup4\n        /* \"#utility.yul\":17703:17720   */\n      add\n        /* \"#utility.yul\":17696:17743   */\n      mstore\n        /* \"#utility.yul\":17760:17891   */\n      tag_668\n        /* \"#utility.yul\":17886:17890   */\n      dup2\n        /* \"#utility.yul\":17760:17891   */\n      tag_482\n      jump\t// in\n    tag_668:\n        /* \"#utility.yul\":17752:17891   */\n      swap1\n      pop\n        /* \"#utility.yul\":17479:17898   */\n      swap2\n      swap1\n      pop\n      jump\t// out\n        /* \"#utility.yul\":17904:18346   */\n    tag_250:\n        /* \"#utility.yul\":18053:18057   */\n      0x00\n        /* \"#utility.yul\":18091:18093   */\n      0x60\n        /* \"#utility.yul\":18080:18089   */\n      dup3\n        /* \"#utility.yul\":18076:18094   */\n      add\n        /* \"#utility.yul\":18068:18094   */\n      swap1\n      pop\n        /* \"#utility.yul\":18104:18175   */\n      tag_670\n        /* \"#utility.yul\":18172:18173   */\n      0x00\n        /* \"#utility.yul\":18161:18170   */\n      dup4\n        /* \"#utility.yul\":18157:18174   */\n      add\n        /* \"#utility.yul\":18148:18154   */\n      dup7\n        /* \"#utility.yul\":18104:18175   */\n      tag_449\n      jump\t// in\n    tag_670:\n        /* \"#utility.yul\":18185:18257   */\n      tag_671\n        /* \"#utility.yul\":18253:18255   */\n      0x20\n        /* \"#utility.yul\":18242:18251   */\n      dup4\n        /* \"#utility.yul\":18238:18256   */\n      add\n        /* \"#utility.yul\":18229:18235   */\n      dup6\n        /* \"#utility.yul\":18185:18257   */\n      tag_449\n      jump\t// in\n    tag_671:\n        /* \"#utility.yul\":18267:18339   */\n      tag_672\n        /* \"#utility.yul\":18335:18337   */\n      0x40\n        /* \"#utility.yul\":18324:18333   */\n      dup4\n        /* \"#utility.yul\":18320:18338   */\n      add\n        /* \"#utility.yul\":18311:18317   */\n      dup5\n        /* \"#utility.yul\":18267:18339   */\n      tag_449\n      jump\t// in\n    tag_672:\n        /* \"#utility.yul\":17904:18346   */\n      swap5\n      swap4\n      pop\n      pop\n      pop\n      pop\n      jump\t// out\n        /* \"#utility.yul\":18352:18573   */\n    tag_483:\n        /* \"#utility.yul\":18492:18526   */\n      0x414d4d3a20556e62616c616e636564206c69717569646974792070726f766964\n        /* \"#utility.yul\":18488:18489   */\n      0x00\n        /* \"#utility.yul\":18480:18486   */\n      dup3\n        /* \"#utility.yul\":18476:18490   */\n      add\n        /* \"#utility.yul\":18469:18527   */\n      mstore\n        /* \"#utility.yul\":18561:18565   */\n      0x6564000000000000000000000000000000000000000000000000000000000000\n        /* \"#utility.yul\":18556:18558   */\n      0x20\n        /* \"#utility.yul\":18548:18554   */\n      dup3\n        /* \"#utility.yul\":18544:18559   */\n      add\n        /* \"#utility.yul\":18537:18566   */\n      mstore\n        /* \"#utility.yul\":18352:18573   */\n      pop\n      jump\t// out\n        /* \"#utility.yul\":18579:18945   */\n    tag_484:\n        /* \"#utility.yul\":18721:18724   */\n      0x00\n        /* \"#utility.yul\":18742:18809   */\n      tag_675\n        /* \"#utility.yul\":18806:18808   */\n      0x22\n        /* \"#utility.yul\":18801:18804   */\n      dup4\n        /* \"#utility.yul\":18742:18809   */\n      tag_451\n      jump\t// in\n    tag_675:\n        /* \"#utility.yul\":18735:18809   */\n      swap2\n      pop\n        /* \"#utility.yul\":18818:18911   */\n      tag_676\n        /* \"#utility.yul\":18907:18910   */\n      dup3\n        /* \"#utility.yul\":18818:18911   */\n      tag_483\n      jump\t// in\n    tag_676:\n        /* \"#utility.yul\":18936:18938   */\n      0x40\n        /* \"#utility.yul\":18931:18934   */\n      dup3\n        /* \"#utility.yul\":18927:18939   */\n      add\n        /* \"#utility.yul\":18920:18939   */\n      swap1\n      pop\n        /* \"#utility.yul\":18579:18945   */\n      swap2\n      swap1\n      pop\n      jump\t// out\n        /* \"#utility.yul\":18951:19370   */\n    tag_263:\n        /* \"#utility.yul\":19117:19121   */\n      0x00\n        /* \"#utility.yul\":19155:19157   */\n      0x20\n        /* \"#utility.yul\":19144:19153   */\n      dup3\n        /* \"#utility.yul\":19140:19158   */\n      add\n        /* \"#utility.yul\":19132:19158   */\n      swap1\n      pop\n        /* \"#utility.yul\":19204:19213   */\n      dup2\n        /* \"#utility.yul\":19198:19202   */\n      dup2\n        /* \"#utility.yul\":19194:19214   */\n      sub\n        /* \"#utility.yul\":19190:19191   */\n      0x00\n        /* \"#utility.yul\":19179:19188   */\n      dup4\n        /* \"#utility.yul\":19175:19192   */\n      add\n        /* \"#utility.yul\":19168:19215   */\n      mstore\n        /* \"#utility.yul\":19232:19363   */\n      tag_678\n        /* \"#utility.yul\":19358:19362   */\n      dup2\n        /* \"#utility.yul\":19232:19363   */\n      tag_484\n      jump\t// in\n    tag_678:\n        /* \"#utility.yul\":19224:19363   */\n      swap1\n      pop\n        /* \"#utility.yul\":18951:19370   */\n      swap2\n      swap1\n      pop\n      jump\t// out\n        /* \"#utility.yul\":19376:19599   */\n    tag_485:\n        /* \"#utility.yul\":19516:19550   */\n      0x414d4d3a20496e73756666696369656e74206c69717569646974792070726f76\n        /* \"#utility.yul\":19512:19513   */\n      0x00\n        /* \"#utility.yul\":19504:19510   */\n      dup3\n        /* \"#utility.yul\":19500:19514   */\n      add\n        /* \"#utility.yul\":19493:19551   */\n      mstore\n        /* \"#utility.yul\":19585:19591   */\n      0x6964656400000000000000000000000000000000000000000000000000000000\n        /* \"#utility.yul\":19580:19582   */\n      0x20\n        /* \"#utility.yul\":19572:19578   */\n      dup3\n        /* \"#utility.yul\":19568:19583   */\n      add\n        /* \"#utility.yul\":19561:19592   */\n      mstore\n        /* \"#utility.yul\":19376:19599   */\n      pop\n      jump\t// out\n        /* \"#utility.yul\":19605:19971   */\n    tag_486:\n        /* \"#utility.yul\":19747:19750   */\n      0x00\n        /* \"#utility.yul\":19768:19835   */\n      tag_681\n        /* \"#utility.yul\":19832:19834   */\n      0x24\n        /* \"#utility.yul\":19827:19830   */\n      dup4\n        /* \"#utility.yul\":19768:19835   */\n      tag_451\n      jump\t// in\n    tag_681:\n        /* \"#utility.yul\":19761:19835   */\n      swap2\n      pop\n        /* \"#utility.yul\":19844:19937   */\n      tag_682\n        /* \"#utility.yul\":19933:19936   */\n      dup3\n        /* \"#utility.yul\":19844:19937   */\n      tag_485\n      jump\t// in\n    tag_682:\n        /* \"#utility.yul\":19962:19964   */\n      0x40\n        /* \"#utility.yul\":19957:19960   */\n      dup3\n        /* \"#utility.yul\":19953:19965   */\n      add\n        /* \"#utility.yul\":19946:19965   */\n      swap1\n      pop\n        /* \"#utility.yul\":19605:19971   */\n      swap2\n      swap1\n      pop\n      jump\t// out\n        /* \"#utility.yul\":19977:20396   */\n    tag_280:\n        /* \"#utility.yul\":20143:20147   */\n      0x00\n        /* \"#utility.yul\":20181:20183   */\n      0x20\n        /* \"#utility.yul\":20170:20179   */\n      dup3\n        /* \"#utility.yul\":20166:20184   */\n      add\n        /* \"#utility.yul\":20158:20184   */\n      swap1\n      pop\n        /* \"#utility.yul\":20230:20239   */\n      dup2\n        /* \"#utility.yul\":20224:20228   */\n      dup2\n        /* \"#utility.yul\":20220:20240   */\n      sub\n        /* \"#utility.yul\":20216:20217   */\n      0x00\n        /* \"#utility.yul\":20205:20214   */\n      dup4\n        /* \"#utility.yul\":20201:20218   */\n      add\n        /* \"#utility.yul\":20194:20241   */\n      mstore\n        /* \"#utility.yul\":20258:20389   */\n      tag_684\n        /* \"#utility.yul\":20384:20388   */\n      dup2\n        /* \"#utility.yul\":20258:20389   */\n      tag_486\n      jump\t// in\n    tag_684:\n        /* \"#utility.yul\":20250:20389   */\n      swap1\n      pop\n        /* \"#utility.yul\":19977:20396   */\n      swap2\n      swap1\n      pop\n      jump\t// out\n        /* \"#utility.yul\":20402:20571   */\n    tag_487:\n        /* \"#utility.yul\":20542:20563   */\n      0x414d4d3a204e6f74206120676f7665726e6f7200000000000000000000000000\n        /* \"#utility.yul\":20538:20539   */\n      0x00\n        /* \"#utility.yul\":20530:20536   */\n      dup3\n        /* \"#utility.yul\":20526:20540   */\n      add\n        /* \"#utility.yul\":20519:20564   */\n      mstore\n        /* \"#utility.yul\":20402:20571   */\n      pop\n      jump\t// out\n        /* \"#utility.yul\":20577:20943   */\n    tag_488:\n        /* \"#utility.yul\":20719:20722   */\n      0x00\n        /* \"#utility.yul\":20740:20807   */\n      tag_687\n        /* \"#utility.yul\":20804:20806   */\n      0x13\n        /* \"#utility.yul\":20799:20802   */\n      dup4\n        /* \"#utility.yul\":20740:20807   */\n      tag_451\n      jump\t// in\n    tag_687:\n        /* \"#utility.yul\":20733:20807   */\n      swap2\n      pop\n        /* \"#utility.yul\":20816:20909   */\n      tag_688\n        /* \"#utility.yul\":20905:20908   */\n      dup3\n        /* \"#utility.yul\":20816:20909   */\n      tag_487\n      jump\t// in\n    tag_688:\n        /* \"#utility.yul\":20934:20936   */\n      0x20\n        /* \"#utility.yul\":20929:20932   */\n      dup3\n        /* \"#utility.yul\":20925:20937   */\n      add\n        /* \"#utility.yul\":20918:20937   */\n      swap1\n      pop\n        /* \"#utility.yul\":20577:20943   */\n      swap2\n      swap1\n      pop\n      jump\t// out\n        /* \"#utility.yul\":20949:21368   */\n    tag_314:\n        /* \"#utility.yul\":21115:21119   */\n      0x00\n        /* \"#utility.yul\":21153:21155   */\n      0x20\n        /* \"#utility.yul\":21142:21151   */\n      dup3\n        /* \"#utility.yul\":21138:21156   */\n      add\n        /* \"#utility.yul\":21130:21156   */\n      swap1\n      pop\n        /* \"#utility.yul\":21202:21211   */\n      dup2\n        /* \"#utility.yul\":21196:21200   */\n      dup2\n        /* \"#utility.yul\":21192:21212   */\n      sub\n        /* \"#utility.yul\":21188:21189   */\n      0x00\n        /* \"#utility.yul\":21177:21186   */\n      dup4\n        /* \"#utility.yul\":21173:21190   */\n      add\n        /* \"#utility.yul\":21166:21213   */\n      mstore\n        /* \"#utility.yul\":21230:21361   */\n      tag_690\n        /* \"#utility.yul\":21356:21360   */\n      dup2\n        /* \"#utility.yul\":21230:21361   */\n      tag_488\n      jump\t// in\n    tag_690:\n        /* \"#utility.yul\":21222:21361   */\n      swap1\n      pop\n        /* \"#utility.yul\":20949:21368   */\n      swap2\n      swap1\n      pop\n      jump\t// out\n        /* \"#utility.yul\":21374:21554   */\n    tag_320:\n        /* \"#utility.yul\":21422:21499   */\n      0x4e487b7100000000000000000000000000000000000000000000000000000000\n        /* \"#utility.yul\":21419:21420   */\n      0x00\n        /* \"#utility.yul\":21412:21500   */\n      mstore\n        /* \"#utility.yul\":21519:21523   */\n      0x32\n        /* \"#utility.yul\":21516:21517   */\n      0x04\n        /* \"#utility.yul\":21509:21524   */\n      mstore\n        /* \"#utility.yul\":21543:21547   */\n      0x24\n        /* \"#utility.yul\":21540:21541   */\n      0x00\n        /* \"#utility.yul\":21533:21548   */\n      revert\n        /* \"#utility.yul\":21560:21740   */\n    tag_332:\n        /* \"#utility.yul\":21608:21685   */\n      0x4e487b7100000000000000000000000000000000000000000000000000000000\n        /* \"#utility.yul\":21605:21606   */\n      0x00\n        /* \"#utility.yul\":21598:21686   */\n      mstore\n        /* \"#utility.yul\":21705:21709   */\n      0x31\n        /* \"#utility.yul\":21702:21703   */\n      0x04\n        /* \"#utility.yul\":21695:21710   */\n      mstore\n        /* \"#utility.yul\":21729:21733   */\n      0x24\n        /* \"#utility.yul\":21726:21727   */\n      0x00\n        /* \"#utility.yul\":21719:21734   */\n      revert\n        /* \"#utility.yul\":21746:22188   */\n    tag_343:\n        /* \"#utility.yul\":21895:21899   */\n      0x00\n        /* \"#utility.yul\":21933:21935   */\n      0x60\n        /* \"#utility.yul\":21922:21931   */\n      dup3\n        /* \"#utility.yul\":21918:21936   */\n      add\n        /* \"#utility.yul\":21910:21936   */\n      swap1\n      pop\n        /* \"#utility.yul\":21946:22017   */\n      tag_694\n        /* \"#utility.yul\":22014:22015   */\n      0x00\n        /* \"#utility.yul\":22003:22012   */\n      dup4\n        /* \"#utility.yul\":21999:22016   */\n      add\n        /* \"#utility.yul\":21990:21996   */\n      dup7\n        /* \"#utility.yul\":21946:22017   */\n      tag_448\n      jump\t// in\n    tag_694:\n        /* \"#utility.yul\":22027:22099   */\n      tag_695\n        /* \"#utility.yul\":22095:22097   */\n      0x20\n        /* \"#utility.yul\":22084:22093   */\n      dup4\n        /* \"#utility.yul\":22080:22098   */\n      add\n        /* \"#utility.yul\":22071:22077   */\n      dup6\n        /* \"#utility.yul\":22027:22099   */\n      tag_449\n      jump\t// in\n    tag_695:\n        /* \"#utility.yul\":22109:22181   */\n      tag_696\n        /* \"#utility.yul\":22177:22179   */\n      0x40\n        /* \"#utility.yul\":22166:22175   */\n      dup4\n        /* \"#utility.yul\":22162:22180   */\n      add\n        /* \"#utility.yul\":22153:22159   */\n      dup5\n        /* \"#utility.yul\":22109:22181   */\n      tag_449\n      jump\t// in\n    tag_696:\n        /* \"#utility.yul\":21746:22188   */\n      swap5\n      swap4\n      pop\n      pop\n      pop\n      pop\n      jump\t// out\n        /* \"#utility.yul\":22194:22375   */\n    tag_489:\n        /* \"#utility.yul\":22334:22367   */\n      0x5265656e7472616e637947756172643a207265656e7472616e742063616c6c00\n        /* \"#utility.yul\":22330:22331   */\n      0x00\n        /* \"#utility.yul\":22322:22328   */\n      dup3\n        /* \"#utility.yul\":22318:22332   */\n      add\n        /* \"#utility.yul\":22311:22368   */\n      mstore\n        /* \"#utility.yul\":22194:22375   */\n      pop\n      jump\t// out\n        /* \"#utility.yul\":22381:22747   */\n    tag_490:\n        /* \"#utility.yul\":22523:22526   */\n      0x00\n        /* \"#utility.yul\":22544:22611   */\n      tag_699\n        /* \"#utility.yul\":22608:22610   */\n      0x1f\n        /* \"#utility.yul\":22603:22606   */\n      dup4\n        /* \"#utility.yul\":22544:22611   */\n      tag_451\n      jump\t// in\n    tag_699:\n        /* \"#utility.yul\":22537:22611   */\n      swap2\n      pop\n        /* \"#utility.yul\":22620:22713   */\n      tag_700\n        /* \"#utility.yul\":22709:22712   */\n      dup3\n        /* \"#utility.yul\":22620:22713   */\n      tag_489\n      jump\t// in\n    tag_700:\n        /* \"#utility.yul\":22738:22740   */\n      0x20\n        /* \"#utility.yul\":22733:22736   */\n      dup3\n        /* \"#utility.yul\":22729:22741   */\n      add\n        /* \"#utility.yul\":22722:22741   */\n      swap1\n      pop\n        /* \"#utility.yul\":22381:22747   */\n      swap2\n      swap1\n      pop\n      jump\t// out\n        /* \"#utility.yul\":22753:23172   */\n    tag_355:\n        /* \"#utility.yul\":22919:22923   */\n      0x00\n        /* \"#utility.yul\":22957:22959   */\n      0x20\n        /* \"#utility.yul\":22946:22955   */\n      dup3\n        /* \"#utility.yul\":22942:22960   */\n      add\n        /* \"#utility.yul\":22934:22960   */\n      swap1\n      pop\n        /* \"#utility.yul\":23006:23015   */\n      dup2\n        /* \"#utility.yul\":23000:23004   */\n      dup2\n        /* \"#utility.yul\":22996:23016   */\n      sub\n        /* \"#utility.yul\":22992:22993   */\n      0x00\n        /* \"#utility.yul\":22981:22990   */\n      dup4\n        /* \"#utility.yul\":22977:22994   */\n      add\n        /* \"#utility.yul\":22970:23017   */\n      mstore\n        /* \"#utility.yul\":23034:23165   */\n      tag_702\n        /* \"#utility.yul\":23160:23164   */\n      dup2\n        /* \"#utility.yul\":23034:23165   */\n      tag_490\n      jump\t// in\n    tag_702:\n        /* \"#utility.yul\":23026:23165   */\n      swap1\n      pop\n        /* \"#utility.yul\":22753:23172   */\n      swap2\n      swap1\n      pop\n      jump\t// out\n        /* \"#utility.yul\":23178:23620   */\n    tag_359:\n        /* \"#utility.yul\":23327:23331   */\n      0x00\n        /* \"#utility.yul\":23365:23367   */\n      0x60\n        /* \"#utility.yul\":23354:23363   */\n      dup3\n        /* \"#utility.yul\":23350:23368   */\n      add\n        /* \"#utility.yul\":23342:23368   */\n      swap1\n      pop\n        /* \"#utility.yul\":23378:23449   */\n      tag_704\n        /* \"#utility.yul\":23446:23447   */\n      0x00\n        /* \"#utility.yul\":23435:23444   */\n      dup4\n        /* \"#utility.yul\":23431:23448   */\n      add\n        /* \"#utility.yul\":23422:23428   */\n      dup7\n        /* \"#utility.yul\":23378:23449   */\n      tag_448\n      jump\t// in\n    tag_704:\n        /* \"#utility.yul\":23459:23531   */\n      tag_705\n        /* \"#utility.yul\":23527:23529   */\n      0x20\n        /* \"#utility.yul\":23516:23525   */\n      dup4\n        /* \"#utility.yul\":23512:23530   */\n      add\n        /* \"#utility.yul\":23503:23509   */\n      dup6\n        /* \"#utility.yul\":23459:23531   */\n      tag_448\n      jump\t// in\n    tag_705:\n        /* \"#utility.yul\":23541:23613   */\n      tag_706\n        /* \"#utility.yul\":23609:23611   */\n      0x40\n        /* \"#utility.yul\":23598:23607   */\n      dup4\n        /* \"#utility.yul\":23594:23612   */\n      add\n        /* \"#utility.yul\":23585:23591   */\n      dup5\n        /* \"#utility.yul\":23541:23613   */\n      tag_449\n      jump\t// in\n    tag_706:\n        /* \"#utility.yul\":23178:23620   */\n      swap5\n      swap4\n      pop\n      pop\n      pop\n      pop\n      jump\t// out\n        /* \"#utility.yul\":23626:23958   */\n    tag_364:\n        /* \"#utility.yul\":23747:23751   */\n      0x00\n        /* \"#utility.yul\":23785:23787   */\n      0x40\n        /* \"#utility.yul\":23774:23783   */\n      dup3\n        /* \"#utility.yul\":23770:23788   */\n      add\n        /* \"#utility.yul\":23762:23788   */\n      swap1\n      pop\n        /* \"#utility.yul\":23798:23869   */\n      tag_708\n        /* \"#utility.yul\":23866:23867   */\n      0x00\n        /* \"#utility.yul\":23855:23864   */\n      dup4\n        /* \"#utility.yul\":23851:23868   */\n      add\n        /* \"#utility.yul\":23842:23848   */\n      dup6\n        /* \"#utility.yul\":23798:23869   */\n      tag_448\n      jump\t// in\n    tag_708:\n        /* \"#utility.yul\":23879:23951   */\n      tag_709\n        /* \"#utility.yul\":23947:23949   */\n      0x20\n        /* \"#utility.yul\":23936:23945   */\n      dup4\n        /* \"#utility.yul\":23932:23950   */\n      add\n        /* \"#utility.yul\":23923:23929   */\n      dup5\n        /* \"#utility.yul\":23879:23951   */\n      tag_449\n      jump\t// in\n    tag_709:\n        /* \"#utility.yul\":23626:23958   */\n      swap4\n      swap3\n      pop\n      pop\n      pop\n      jump\t// out\n        /* \"#utility.yul\":23964:24080   */\n    tag_491:\n        /* \"#utility.yul\":24034:24055   */\n      tag_711\n        /* \"#utility.yul\":24049:24054   */\n      dup2\n        /* \"#utility.yul\":24034:24055   */\n      tag_457\n      jump\t// in\n    tag_711:\n        /* \"#utility.yul\":24027:24032   */\n      dup2\n        /* \"#utility.yul\":24024:24056   */\n      eq\n        /* \"#utility.yul\":24014:24074   */\n      tag_712\n      jumpi\n        /* \"#utility.yul\":24070:24071   */\n      0x00\n        /* \"#utility.yul\":24067:24068   */\n      dup1\n        /* \"#utility.yul\":24060:24072   */\n      revert\n        /* \"#utility.yul\":24014:24074   */\n    tag_712:\n        /* \"#utility.yul\":23964:24080   */\n      pop\n      jump\t// out\n        /* \"#utility.yul\":24086:24223   */\n    tag_492:\n        /* \"#utility.yul\":24140:24145   */\n      0x00\n        /* \"#utility.yul\":24171:24177   */\n      dup2\n        /* \"#utility.yul\":24165:24178   */\n      mload\n        /* \"#utility.yul\":24156:24178   */\n      swap1\n      pop\n        /* \"#utility.yul\":24187:24217   */\n      tag_714\n        /* \"#utility.yul\":24211:24216   */\n      dup2\n        /* \"#utility.yul\":24187:24217   */\n      tag_491\n      jump\t// in\n    tag_714:\n        /* \"#utility.yul\":24086:24223   */\n      swap3\n      swap2\n      pop\n      pop\n      jump\t// out\n        /* \"#utility.yul\":24229:24574   */\n    tag_413:\n        /* \"#utility.yul\":24296:24302   */\n      0x00\n        /* \"#utility.yul\":24345:24347   */\n      0x20\n        /* \"#utility.yul\":24333:24342   */\n      dup3\n        /* \"#utility.yul\":24324:24331   */\n      dup5\n        /* \"#utility.yul\":24320:24343   */\n      sub\n        /* \"#utility.yul\":24316:24348   */\n      slt\n        /* \"#utility.yul\":24313:24432   */\n      iszero\n      tag_716\n      jumpi\n        /* \"#utility.yul\":24351:24430   */\n      tag_717\n      tag_441\n      jump\t// in\n    tag_717:\n        /* \"#utility.yul\":24313:24432   */\n    tag_716:\n        /* \"#utility.yul\":24471:24472   */\n      0x00\n        /* \"#utility.yul\":24496:24557   */\n      tag_718\n        /* \"#utility.yul\":24549:24556   */\n      dup5\n        /* \"#utility.yul\":24540:24546   */\n      dup3\n        /* \"#utility.yul\":24529:24538   */\n      dup6\n        /* \"#utility.yul\":24525:24547   */\n      add\n        /* \"#utility.yul\":24496:24557   */\n      tag_492\n      jump\t// in\n    tag_718:\n        /* \"#utility.yul\":24486:24557   */\n      swap2\n      pop\n        /* \"#utility.yul\":24442:24567   */\n      pop\n        /* \"#utility.yul\":24229:24574   */\n      swap3\n      swap2\n      pop\n      pop\n      jump\t// out\n        /* \"#utility.yul\":24580:24678   */\n    tag_493:\n        /* \"#utility.yul\":24631:24637   */\n      0x00\n        /* \"#utility.yul\":24665:24670   */\n      dup2\n        /* \"#utility.yul\":24659:24671   */\n      mload\n        /* \"#utility.yul\":24649:24671   */\n      swap1\n      pop\n        /* \"#utility.yul\":24580:24678   */\n      swap2\n      swap1\n      pop\n      jump\t// out\n        /* \"#utility.yul\":24684:24831   */\n    tag_494:\n        /* \"#utility.yul\":24785:24796   */\n      0x00\n        /* \"#utility.yul\":24822:24825   */\n      dup2\n        /* \"#utility.yul\":24807:24825   */\n      swap1\n      pop\n        /* \"#utility.yul\":24684:24831   */\n      swap3\n      swap2\n      pop\n      pop\n      jump\t// out\n        /* \"#utility.yul\":24837:25223   */\n    tag_495:\n        /* \"#utility.yul\":24941:24944   */\n      0x00\n        /* \"#utility.yul\":24969:25007   */\n      tag_722\n        /* \"#utility.yul\":25001:25006   */\n      dup3\n        /* \"#utility.yul\":24969:25007   */\n      tag_493\n      jump\t// in\n    tag_722:\n        /* \"#utility.yul\":25023:25111   */\n      tag_723\n        /* \"#utility.yul\":25104:25110   */\n      dup2\n        /* \"#utility.yul\":25099:25102   */\n      dup6\n        /* \"#utility.yul\":25023:25111   */\n      tag_494\n      jump\t// in\n    tag_723:\n        /* \"#utility.yul\":25016:25111   */\n      swap4\n      pop\n        /* \"#utility.yul\":25120:25185   */\n      tag_724\n        /* \"#utility.yul\":25178:25184   */\n      dup2\n        /* \"#utility.yul\":25173:25176   */\n      dup6\n        /* \"#utility.yul\":25166:25170   */\n      0x20\n        /* \"#utility.yul\":25159:25164   */\n      dup7\n        /* \"#utility.yul\":25155:25171   */\n      add\n        /* \"#utility.yul\":25120:25185   */\n      tag_452\n      jump\t// in\n    tag_724:\n        /* \"#utility.yul\":25210:25216   */\n      dup1\n        /* \"#utility.yul\":25205:25208   */\n      dup5\n        /* \"#utility.yul\":25201:25217   */\n      add\n        /* \"#utility.yul\":25194:25217   */\n      swap2\n      pop\n        /* \"#utility.yul\":24945:25223   */\n      pop\n        /* \"#utility.yul\":24837:25223   */\n      swap3\n      swap2\n      pop\n      pop\n      jump\t// out\n        /* \"#utility.yul\":25229:25500   */\n    tag_423:\n        /* \"#utility.yul\":25359:25362   */\n      0x00\n        /* \"#utility.yul\":25381:25474   */\n      tag_726\n        /* \"#utility.yul\":25470:25473   */\n      dup3\n        /* \"#utility.yul\":25461:25467   */\n      dup5\n        /* \"#utility.yul\":25381:25474   */\n      tag_495\n      jump\t// in\n    tag_726:\n        /* \"#utility.yul\":25374:25474   */\n      swap2\n      pop\n        /* \"#utility.yul\":25491:25494   */\n      dup2\n        /* \"#utility.yul\":25484:25494   */\n      swap1\n      pop\n        /* \"#utility.yul\":25229:25500   */\n      swap3\n      swap2\n      pop\n      pop\n      jump\t// out\n\n    auxdata: 0xa2646970667358221220a085248112c02c3272b66eb04c4c555c4a703db89e5ded1e477594eed216c23864736f6c63430008190033\n}\n",
				"bytecode": {
					"linkReferences": {},
					"object": "6080604052601e600a55610e10600d5534801561001a575f80fd5b50604051613695380380613695833981810160405281019061003c919061026c565b6040518060400160405280601381526020017f414d4d204c697175696469747920546f6b656e000000000000000000000000008152506040518060400160405280600581526020017f414d4d4c5400000000000000000000000000000000000000000000000000000081525081600390816100b791906104e4565b5080600490816100c791906104e4565b50505060016005819055508160065f6101000a81548173ffffffffffffffffffffffffffffffffffffffff021916908373ffffffffffffffffffffffffffffffffffffffff1602179055508060075f6101000a81548173ffffffffffffffffffffffffffffffffffffffff021916908373ffffffffffffffffffffffffffffffffffffffff1602179055506001600b5f3373ffffffffffffffffffffffffffffffffffffffff1673ffffffffffffffffffffffffffffffffffffffff1681526020019081526020015f205f6101000a81548160ff021916908315150217905550600c33908060018154018082558091505060019003905f5260205f20015f9091909190916101000a81548173ffffffffffffffffffffffffffffffffffffffff021916908373ffffffffffffffffffffffffffffffffffffffff16021790555050506105b3565b5f80fd5b5f73ffffffffffffffffffffffffffffffffffffffff82169050919050565b5f61023b82610212565b9050919050565b61024b81610231565b8114610255575f80fd5b50565b5f8151905061026681610242565b92915050565b5f80604083850312156102825761028161020e565b5b5f61028f85828601610258565b92505060206102a085828601610258565b9150509250929050565b5f81519050919050565b7f4e487b71000000000000000000000000000000000000000000000000000000005f52604160045260245ffd5b7f4e487b71000000000000000000000000000000000000000000000000000000005f52602260045260245ffd5b5f600282049050600182168061032557607f821691505b602082108103610338576103376102e1565b5b50919050565b5f819050815f5260205f209050919050565b5f6020601f8301049050919050565b5f82821b905092915050565b5f6008830261039a7fffffffffffffffffffffffffffffffffffffffffffffffffffffffffffffffff8261035f565b6103a4868361035f565b95508019841693508086168417925050509392505050565b5f819050919050565b5f819050919050565b5f6103e86103e36103de846103bc565b6103c5565b6103bc565b9050919050565b5f819050919050565b610401836103ce565b61041561040d826103ef565b84845461036b565b825550505050565b5f90565b61042961041d565b6104348184846103f8565b505050565b5b818110156104575761044c5f82610421565b60018101905061043a565b5050565b601f82111561049c5761046d8161033e565b61047684610350565b81016020851015610485578190505b61049961049185610350565b830182610439565b50505b505050565b5f82821c905092915050565b5f6104bc5f19846008026104a1565b1980831691505092915050565b5f6104d483836104ad565b9150826002028217905092915050565b6104ed826102aa565b67ffffffffffffffff811115610506576105056102b4565b5b610510825461030e565b61051b82828561045b565b5f60209050601f83116001811461054c575f841561053a578287015190505b61054485826104c9565b8655506105ab565b601f19841661055a8661033e565b5f5b828110156105815784890151825560018201915060208501945060208101905061055c565b8683101561059e578489015161059a601f8916826104ad565b8355505b6001600288020188555050505b505050505050565b6130d5806105c05f395ff3fe608060405234801561000f575f80fd5b50600436106101c2575f3560e01c806358d50f0a116100f7578063a9059cbb11610095578063c7f8a78d1161006f578063c7f8a78d14610536578063dd62ed3e14610566578063e3eece2614610596578063eecdac88146105c6576101c2565b8063a9059cbb146104ca578063b7d19fc4146104fa578063b8606eef14610518576101c2565b806395d89b41116100d157806395d89b411461042d5780639c8f9f231461044b5780639cd441da1461047c5780639d6f09c1146104ac576101c2565b806358d50f0a146103c357806369fe0e2d146103e157806370a08231146103fd576101c2565b806316dc165b11610164578063310183391161013e578063310183391461033b578063313ce5671461036b5780633c1d5df0146103895780633c4a25d0146103a7576101c2565b806316dc165b146102cf57806318160ddd146102ed57806323b872dd1461030b576101c2565b80630902f1ac116101a05780630902f1ac14610244578063095ea7b31461026357806310f669b314610293578063126082cf146102b1576101c2565b806302aac7b2146101c6578063054d50d4146101f657806306fdde0314610226575b5f80fd5b6101e060048036038101906101db919061244f565b6105e2565b6040516101ed91906124b9565b60405180910390f35b610210600480360381019061020b91906124d2565b61061d565b60405161021d9190612531565b60405180910390f35b61022e61067f565b60405161023b91906125ba565b60405180910390f35b61024c61070f565b60405161025a9291906125da565b60405180910390f35b61027d6004803603810190610278919061262b565b61071f565b60405161028a9190612683565b60405180910390f35b61029b610741565b6040516102a89190612531565b60405180910390f35b6102b9610747565b6040516102c69190612531565b60405180910390f35b6102d761074d565b6040516102e491906126f7565b60405180910390f35b6102f5610772565b6040516103029190612531565b60405180910390f35b61032560048036038101906103209190612710565b61077b565b6040516103329190612683565b60405180910390f35b61035560048036038101906103509190612760565b6107a9565b6040516103629190612531565b60405180910390f35b6103736109be565b60405161038091906127b9565b60405180910390f35b6103916109c6565b60405161039e9190612531565b60405180910390f35b6103c160048036038101906103bc91906127d2565b6109cc565b005b6103cb610c48565b6040516103d89190612531565b60405180910390f35b6103fb60048036038101906103f6919061244f565b610c4e565b005b610417600480360381019061041291906127d2565b610d60565b6040516104249190612531565b60405180910390f35b610435610da5565b60405161044291906125ba565b60405180910390f35b6104656004803603810190610460919061244f565b610e35565b6040516104739291906125da565b60405180910390f35b61049660048036038101906104919190612760565b610ff4565b6040516104a39190612531565b60405180910390f35b6104b461125c565b6040516104c19190612531565b60405180910390f35b6104e460048036038101906104df919061262b565b611262565b6040516104f19190612683565b60405180910390f35b610502611284565b60405161050f91906126f7565b60405180910390f35b6105206112a9565b60405161052d9190612531565b60405180910390f35b610550600480360381019061054b9190612760565b6112af565b60405161055d9190612531565b60405180910390f35b610580600480360381019061057b91906127fd565b6114c4565b60405161058d9190612531565b60405180910390f35b6105b060048036038101906105ab91906127d2565b611546565b6040516105bd9190612683565b60405180910390f35b6105e060048036038101906105db91906127d2565b611563565b005b600c81815481106105f1575f80fd5b905f5260205f20015f915054906101000a900473ffffffffffffffffffffffffffffffffffffffff1681565b5f80600a5461271061062f9190612868565b8561063a919061289b565b90505f8382610649919061289b565b90505f826127108761065b919061289b565b61066591906128dc565b90508082610673919061293c565b93505050509392505050565b60606003805461068e90612999565b80601f01602080910402602001604051908101604052809291908181526020018280546106ba90612999565b80156107055780601f106106dc57610100808354040283529160200191610705565b820191905f5260205f20905b8154815290600101906020018083116106e857829003601f168201915b5050505050905090565b5f80600854600954915091509091565b5f806107296118f7565b90506107368185856118fe565b600191505092915050565b600f5481565b61271081565b60065f9054906101000a900473ffffffffffffffffffffffffffffffffffffffff1681565b5f600254905090565b5f806107856118f7565b9050610792858285611910565b61079d8585856119a2565b60019150509392505050565b5f6107b2611a92565b5f83116107f4576040517f08c379a00000000000000000000000000000000000000000000000000000000081526004016107eb90612a13565b60405180910390fd5b6108038360095460085461061d565b905081811015610848576040517f08c379a000000000000000000000000000000000000000000000000000000000815260040161083f90612a7b565b60405180910390fd5b61089633308560075f9054906101000a900473ffffffffffffffffffffffffffffffffffffffff1673ffffffffffffffffffffffffffffffffffffffff16611ae1909392919063ffffffff16565b6108e2338260065f9054906101000a900473ffffffffffffffffffffffffffffffffffffffff1673ffffffffffffffffffffffffffffffffffffffff16611b639092919063ffffffff16565b8260095f8282546108f391906128dc565b925050819055508060085f82825461090b9190612868565b9250508190555061091a611be2565b3373ffffffffffffffffffffffffffffffffffffffff167f053d794b2310b8d186a24ae24a65ee066983a52a6efa6bd3df09a7601a3cb4f3848360075f9054906101000a900473ffffffffffffffffffffffffffffffffffffffff1660065f9054906101000a900473ffffffffffffffffffffffffffffffffffffffff166040516109a89493929190612a99565b60405180910390a26109b8611c55565b92915050565b5f6012905090565b600d5481565b600b5f3373ffffffffffffffffffffffffffffffffffffffff1673ffffffffffffffffffffffffffffffffffffffff1681526020019081526020015f205f9054906101000a900460ff16610a55576040517f08c379a0000000000000000000000000000000000000000000000000000000008152600401610a4c90612b26565b60405180910390fd5b5f73ffffffffffffffffffffffffffffffffffffffff168173ffffffffffffffffffffffffffffffffffffffff1603610ac3576040517f08c379a0000000000000000000000000000000000000000000000000000000008152600401610aba90612b8e565b60405180910390fd5b600b5f8273ffffffffffffffffffffffffffffffffffffffff1673ffffffffffffffffffffffffffffffffffffffff1681526020019081526020015f205f9054906101000a900460ff1615610b4d576040517f08c379a0000000000000000000000000000000000000000000000000000000008152600401610b4490612bf6565b60405180910390fd5b6001600b5f8373ffffffffffffffffffffffffffffffffffffffff1673ffffffffffffffffffffffffffffffffffffffff1681526020019081526020015f205f6101000a81548160ff021916908315150217905550600c81908060018154018082558091505060019003905f5260205f20015f9091909190916101000a81548173ffffffffffffffffffffffffffffffffffffffff021916908373ffffffffffffffffffffffffffffffffffffffff1602179055508073ffffffffffffffffffffffffffffffffffffffff167fdc5a48d79e2e147530ff63ecdbed5a5a66adb9d5cf339384d5d076da197c40b560405160405180910390a250565b600e5481565b600b5f3373ffffffffffffffffffffffffffffffffffffffff1673ffffffffffffffffffffffffffffffffffffffff1681526020019081526020015f205f9054906101000a900460ff16610cd7576040517f08c379a0000000000000000000000000000000000000000000000000000000008152600401610cce90612b26565b60405180910390fd5b6127108110610d1b576040517f08c379a0000000000000000000000000000000000000000000000000000000008152600401610d1290612c5e565b60405180910390fd5b7f528d9479e9f9889a87a3c30c7f7ba537e5e59c4c85a37733b16e57c62df61302600a5482604051610d4e9291906125da565b60405180910390a180600a8190555050565b5f805f8373ffffffffffffffffffffffffffffffffffffffff1673ffffffffffffffffffffffffffffffffffffffff1681526020019081526020015f20549050919050565b606060048054610db490612999565b80601f0160208091040260200160405190810160405280929190818152602001828054610de090612999565b8015610e2b5780601f10610e0257610100808354040283529160200191610e2b565b820191905f5260205f20905b815481529060010190602001808311610e0e57829003601f168201915b5050505050905090565b5f80610e3f611a92565b5f8311610e81576040517f08c379a0000000000000000000000000000000000000000000000000000000008152600401610e7890612cc6565b60405180910390fd5b5f610e8a610772565b90508060085485610e9b919061289b565b610ea5919061293c565b92508060095485610eb6919061289b565b610ec0919061293c565b9150610ecc3385611c5f565b8260085f828254610edd9190612868565b925050819055508160095f828254610ef59190612868565b92505081905550610f48338460065f9054906101000a900473ffffffffffffffffffffffffffffffffffffffff1673ffffffffffffffffffffffffffffffffffffffff16611b639092919063ffffffff16565b610f94338360075f9054906101000a900473ffffffffffffffffffffffffffffffffffffffff1673ffffffffffffffffffffffffffffffffffffffff16611b639092919063ffffffff16565b3373ffffffffffffffffffffffffffffffffffffffff167f1dc8bb69df2b8e91fbdcbfcf93d951b3f0000f085a95fe3f7946d6161439245d848487604051610fde93929190612ce4565b60405180910390a250610fef611c55565b915091565b5f610ffd611a92565b61104b33308560065f9054906101000a900473ffffffffffffffffffffffffffffffffffffffff1673ffffffffffffffffffffffffffffffffffffffff16611ae1909392919063ffffffff16565b61109933308460075f9054906101000a900473ffffffffffffffffffffffffffffffffffffffff1673ffffffffffffffffffffffffffffffffffffffff16611ae1909392919063ffffffff16565b5f60085411806110aa57505f600954115b1561110c57600854826110bd919061289b565b600954846110cb919061289b565b1461110b576040517f08c379a000000000000000000000000000000000000000000000000000000000815260040161110290612d89565b60405180910390fd5b5b5f611115610772565b036111355761112e8284611129919061289b565b611cde565b9050611180565b61117d600854611143610772565b8561114e919061289b565b611158919061293c565b600954611163610772565b8561116e919061289b565b611178919061293c565b611d55565b90505b5f81116111c2576040517f08c379a00000000000000000000000000000000000000000000000000000000081526004016111b990612e17565b60405180910390fd5b6111cc3382611d6d565b8260085f8282546111dd91906128dc565b925050819055508160095f8282546111f591906128dc565b925050819055503373ffffffffffffffffffffffffffffffffffffffff167f64b83944e79c3ce8d4c297411de637c3e102d064677aac0c163976ebdcd6f50e84848460405161124693929190612ce4565b60405180910390a2611256611c55565b92915050565b60105481565b5f8061126c6118f7565b90506112798185856119a2565b600191505092915050565b60075f9054906101000a900473ffffffffffffffffffffffffffffffffffffffff1681565b600a5481565b5f6112b8611a92565b5f83116112fa576040517f08c379a00000000000000000000000000000000000000000000000000000000081526004016112f190612a13565b60405180910390fd5b6113098360085460095461061d565b90508181101561134e576040517f08c379a000000000000000000000000000000000000000000000000000000000815260040161134590612a7b565b60405180910390fd5b61139c33308560065f9054906101000a900473ffffffffffffffffffffffffffffffffffffffff1673ffffffffffffffffffffffffffffffffffffffff16611ae1909392919063ffffffff16565b6113e8338260075f9054906101000a900473ffffffffffffffffffffffffffffffffffffffff1673ffffffffffffffffffffffffffffffffffffffff16611b639092919063ffffffff16565b8260085f8282546113f991906128dc565b925050819055508060095f8282546114119190612868565b92505081905550611420611be2565b3373ffffffffffffffffffffffffffffffffffffffff167f053d794b2310b8d186a24ae24a65ee066983a52a6efa6bd3df09a7601a3cb4f3848360065f9054906101000a900473ffffffffffffffffffffffffffffffffffffffff1660075f9054906101000a900473ffffffffffffffffffffffffffffffffffffffff166040516114ae9493929190612a99565b60405180910390a26114be611c55565b92915050565b5f60015f8473ffffffffffffffffffffffffffffffffffffffff1673ffffffffffffffffffffffffffffffffffffffff1681526020019081526020015f205f8373ffffffffffffffffffffffffffffffffffffffff1673ffffffffffffffffffffffffffffffffffffffff1681526020019081526020015f2054905092915050565b600b602052805f5260405f205f915054906101000a900460ff1681565b600b5f3373ffffffffffffffffffffffffffffffffffffffff1673ffffffffffffffffffffffffffffffffffffffff1681526020019081526020015f205f9054906101000a900460ff166115ec576040517f08c379a00000000000000000000000000000000000000000000000000000000081526004016115e390612b26565b60405180910390fd5b5f73ffffffffffffffffffffffffffffffffffffffff168173ffffffffffffffffffffffffffffffffffffffff160361165a576040517f08c379a000000000000000000000000000000000000000000000000000000000815260040161165190612b8e565b60405180910390fd5b600b5f8273ffffffffffffffffffffffffffffffffffffffff1673ffffffffffffffffffffffffffffffffffffffff1681526020019081526020015f205f9054906101000a900460ff166116e3576040517f08c379a00000000000000000000000000000000000000000000000000000000081526004016116da90612e7f565b60405180910390fd5b5f600b5f8373ffffffffffffffffffffffffffffffffffffffff1673ffffffffffffffffffffffffffffffffffffffff1681526020019081526020015f205f6101000a81548160ff0219169083151502179055505f5b600c805490508110156118b0578173ffffffffffffffffffffffffffffffffffffffff16600c828154811061177157611770612e9d565b5b905f5260205f20015f9054906101000a900473ffffffffffffffffffffffffffffffffffffffff1673ffffffffffffffffffffffffffffffffffffffff16036118a357600c6001600c805490506117c89190612868565b815481106117d9576117d8612e9d565b5b905f5260205f20015f9054906101000a900473ffffffffffffffffffffffffffffffffffffffff16600c828154811061181557611814612e9d565b5b905f5260205f20015f6101000a81548173ffffffffffffffffffffffffffffffffffffffff021916908373ffffffffffffffffffffffffffffffffffffffff160217905550600c80548061186c5761186b612eca565b5b600190038181905f5260205f20015f6101000a81549073ffffffffffffffffffffffffffffffffffffffff021916905590556118b0565b8080600101915050611739565b508073ffffffffffffffffffffffffffffffffffffffff167f1ebe834e73d60a5fec822c1e1727d34bc79f2ad977ed504581cc1822fe20fb5b60405160405180910390a250565b5f33905090565b61190b8383836001611dec565b505050565b5f61191b84846114c4565b90507fffffffffffffffffffffffffffffffffffffffffffffffffffffffffffffffff811461199c578181101561198d578281836040517ffb8f41b200000000000000000000000000000000000000000000000000000000815260040161198493929190612ef7565b60405180910390fd5b61199b84848484035f611dec565b5b50505050565b5f73ffffffffffffffffffffffffffffffffffffffff168373ffffffffffffffffffffffffffffffffffffffff1603611a12575f6040517f96c6fd1e000000000000000000000000000000000000000000000000000000008152600401611a0991906124b9565b60405180910390fd5b5f73ffffffffffffffffffffffffffffffffffffffff168273ffffffffffffffffffffffffffffffffffffffff1603611a82575f6040517fec442f05000000000000000000000000000000000000000000000000000000008152600401611a7991906124b9565b60405180910390fd5b611a8d838383611fbb565b505050565b600260055403611ad7576040517f08c379a0000000000000000000000000000000000000000000000000000000008152600401611ace90612f76565b60405180910390fd5b6002600581905550565b611b5d848573ffffffffffffffffffffffffffffffffffffffff166323b872dd868686604051602401611b1693929190612f94565b604051602081830303815290604052915060e01b6020820180517bffffffffffffffffffffffffffffffffffffffffffffffffffffffff83818316178352505050506121d4565b50505050565b611bdd838473ffffffffffffffffffffffffffffffffffffffff1663a9059cbb8585604051602401611b96929190612fc9565b604051602081830303815290604052915060e01b6020820180517bffffffffffffffffffffffffffffffffffffffffffffffffffffffff83818316178352505050506121d4565b505050565b600d54601054611bf291906128dc565b4210611c5357600854600e81905550600954600f81905550426010819055507f9cfe07a59ebb9a772e1fee2abd40b53001de7c2f0b2e713de333f564118c32c4600e54600f54601054604051611c4a93929190612ce4565b60405180910390a15b565b6001600581905550565b5f73ffffffffffffffffffffffffffffffffffffffff168273ffffffffffffffffffffffffffffffffffffffff1603611ccf575f6040517f96c6fd1e000000000000000000000000000000000000000000000000000000008152600401611cc691906124b9565b60405180910390fd5b611cda825f83611fbb565b5050565b5f6003821115611d43578190505f6001600284611cfb919061293c565b611d0591906128dc565b90505b81811015611d3d578091506002818285611d22919061293c565b611d2c91906128dc565b611d36919061293c565b9050611d08565b50611d50565b5f8214611d4f57600190505b5b919050565b5f818310611d635781611d65565b825b905092915050565b5f73ffffffffffffffffffffffffffffffffffffffff168273ffffffffffffffffffffffffffffffffffffffff1603611ddd575f6040517fec442f05000000000000000000000000000000000000000000000000000000008152600401611dd491906124b9565b60405180910390fd5b611de85f8383611fbb565b5050565b5f73ffffffffffffffffffffffffffffffffffffffff168473ffffffffffffffffffffffffffffffffffffffff1603611e5c575f6040517fe602df05000000000000000000000000000000000000000000000000000000008152600401611e5391906124b9565b60405180910390fd5b5f73ffffffffffffffffffffffffffffffffffffffff168373ffffffffffffffffffffffffffffffffffffffff1603611ecc575f6040517f94280d62000000000000000000000000000000000000000000000000000000008152600401611ec391906124b9565b60405180910390fd5b8160015f8673ffffffffffffffffffffffffffffffffffffffff1673ffffffffffffffffffffffffffffffffffffffff1681526020019081526020015f205f8573ffffffffffffffffffffffffffffffffffffffff1673ffffffffffffffffffffffffffffffffffffffff1681526020019081526020015f20819055508015611fb5578273ffffffffffffffffffffffffffffffffffffffff168473ffffffffffffffffffffffffffffffffffffffff167f8c5be1e5ebec7d5bd14f71427d1e84f3dd0314c0f7b2291e5b200ac8c7c3b92584604051611fac9190612531565b60405180910390a35b50505050565b5f73ffffffffffffffffffffffffffffffffffffffff168373ffffffffffffffffffffffffffffffffffffffff160361200b578060025f828254611fff91906128dc565b925050819055506120d9565b5f805f8573ffffffffffffffffffffffffffffffffffffffff1673ffffffffffffffffffffffffffffffffffffffff1681526020019081526020015f2054905081811015612094578381836040517fe450d38c00000000000000000000000000000000000000000000000000000000815260040161208b93929190612ef7565b60405180910390fd5b8181035f808673ffffffffffffffffffffffffffffffffffffffff1673ffffffffffffffffffffffffffffffffffffffff1681526020019081526020015f2081905550505b5f73ffffffffffffffffffffffffffffffffffffffff168273ffffffffffffffffffffffffffffffffffffffff1603612120578060025f828254039250508190555061216a565b805f808473ffffffffffffffffffffffffffffffffffffffff1673ffffffffffffffffffffffffffffffffffffffff1681526020019081526020015f205f82825401925050819055505b8173ffffffffffffffffffffffffffffffffffffffff168373ffffffffffffffffffffffffffffffffffffffff167fddf252ad1be2c89b69c2b068fc378daa952ba7f163c4a11628f55a4df523b3ef836040516121c79190612531565b60405180910390a3505050565b5f6121fe828473ffffffffffffffffffffffffffffffffffffffff1661226990919063ffffffff16565b90505f815114158015612222575080806020019051810190612220919061301a565b155b1561226457826040517f5274afe700000000000000000000000000000000000000000000000000000000815260040161225b91906124b9565b60405180910390fd5b505050565b606061227683835f61227e565b905092915050565b6060814710156122c557306040517fcd7860590000000000000000000000000000000000000000000000000000000081526004016122bc91906124b9565b60405180910390fd5b5f808573ffffffffffffffffffffffffffffffffffffffff1684866040516122ed9190613089565b5f6040518083038185875af1925050503d805f8114612327576040519150601f19603f3d011682016040523d82523d5f602084013e61232c565b606091505b509150915061233c868383612347565b925050509392505050565b60608261235c57612357826123d4565b6123cc565b5f825114801561238257505f8473ffffffffffffffffffffffffffffffffffffffff163b145b156123c457836040517f9996b3150000000000000000000000000000000000000000000000000000000081526004016123bb91906124b9565b60405180910390fd5b8190506123cd565b5b9392505050565b5f815111156123e65780518082602001fd5b6040517f1425ea4200000000000000000000000000000000000000000000000000000000815260040160405180910390fd5b5f80fd5b5f819050919050565b61242e8161241c565b8114612438575f80fd5b50565b5f8135905061244981612425565b92915050565b5f6020828403121561246457612463612418565b5b5f6124718482850161243b565b91505092915050565b5f73ffffffffffffffffffffffffffffffffffffffff82169050919050565b5f6124a38261247a565b9050919050565b6124b381612499565b82525050565b5f6020820190506124cc5f8301846124aa565b92915050565b5f805f606084860312156124e9576124e8612418565b5b5f6124f68682870161243b565b93505060206125078682870161243b565b92505060406125188682870161243b565b9150509250925092565b61252b8161241c565b82525050565b5f6020820190506125445f830184612522565b92915050565b5f81519050919050565b5f82825260208201905092915050565b8281835e5f83830152505050565b5f601f19601f8301169050919050565b5f61258c8261254a565b6125968185612554565b93506125a6818560208601612564565b6125af81612572565b840191505092915050565b5f6020820190508181035f8301526125d28184612582565b905092915050565b5f6040820190506125ed5f830185612522565b6125fa6020830184612522565b9392505050565b61260a81612499565b8114612614575f80fd5b50565b5f8135905061262581612601565b92915050565b5f806040838503121561264157612640612418565b5b5f61264e85828601612617565b925050602061265f8582860161243b565b9150509250929050565b5f8115159050919050565b61267d81612669565b82525050565b5f6020820190506126965f830184612674565b92915050565b5f819050919050565b5f6126bf6126ba6126b58461247a565b61269c565b61247a565b9050919050565b5f6126d0826126a5565b9050919050565b5f6126e1826126c6565b9050919050565b6126f1816126d7565b82525050565b5f60208201905061270a5f8301846126e8565b92915050565b5f805f6060848603121561272757612726612418565b5b5f61273486828701612617565b935050602061274586828701612617565b92505060406127568682870161243b565b9150509250925092565b5f806040838503121561277657612775612418565b5b5f6127838582860161243b565b92505060206127948582860161243b565b9150509250929050565b5f60ff82169050919050565b6127b38161279e565b82525050565b5f6020820190506127cc5f8301846127aa565b92915050565b5f602082840312156127e7576127e6612418565b5b5f6127f484828501612617565b91505092915050565b5f806040838503121561281357612812612418565b5b5f61282085828601612617565b925050602061283185828601612617565b9150509250929050565b7f4e487b71000000000000000000000000000000000000000000000000000000005f52601160045260245ffd5b5f6128728261241c565b915061287d8361241c565b92508282039050818111156128955761289461283b565b5b92915050565b5f6128a58261241c565b91506128b08361241c565b92508282026128be8161241c565b915082820484148315176128d5576128d461283b565b5b5092915050565b5f6128e68261241c565b91506128f18361241c565b92508282019050808211156129095761290861283b565b5b92915050565b7f4e487b71000000000000000000000000000000000000000000000000000000005f52601260045260245ffd5b5f6129468261241c565b91506129518361241c565b9250826129615761296061290f565b5b828204905092915050565b7f4e487b71000000000000000000000000000000000000000000000000000000005f52602260045260245ffd5b5f60028204905060018216806129b057607f821691505b6020821081036129c3576129c261296c565b5b50919050565b7f414d4d3a20496e76616c696420696e70757420616d6f756e74000000000000005f82015250565b5f6129fd601983612554565b9150612a08826129c9565b602082019050919050565b5f6020820190508181035f830152612a2a816129f1565b9050919050565b7f414d4d3a20496e73756666696369656e74206f757470757420616d6f756e74005f82015250565b5f612a65601f83612554565b9150612a7082612a31565b602082019050919050565b5f6020820190508181035f830152612a9281612a59565b9050919050565b5f608082019050612aac5f830187612522565b612ab96020830186612522565b612ac660408301856124aa565b612ad360608301846124aa565b95945050505050565b7f414d4d3a2063616c6c6572206973206e6f74206120676f7665726e6f720000005f82015250565b5f612b10601d83612554565b9150612b1b82612adc565b602082019050919050565b5f6020820190508181035f830152612b3d81612b04565b9050919050565b7f414d4d3a20496e76616c696420676f7665726e6f7220616464726573730000005f82015250565b5f612b78601d83612554565b9150612b8382612b44565b602082019050919050565b5f6020820190508181035f830152612ba581612b6c565b9050919050565b7f414d4d3a20416c7265616479206120676f7665726e6f720000000000000000005f82015250565b5f612be0601783612554565b9150612beb82612bac565b602082019050919050565b5f6020820190508181035f830152612c0d81612bd4565b9050919050565b7f414d4d3a20496e76616c696420666565000000000000000000000000000000005f82015250565b5f612c48601083612554565b9150612c5382612c14565b602082019050919050565b5f6020820190508181035f830152612c7581612c3c565b9050919050565b7f414d4d3a20496e76616c6964206c697175696469747920616d6f756e740000005f82015250565b5f612cb0601d83612554565b9150612cbb82612c7c565b602082019050919050565b5f6020820190508181035f830152612cdd81612ca4565b9050919050565b5f606082019050612cf75f830186612522565b612d046020830185612522565b612d116040830184612522565b949350505050565b7f414d4d3a20556e62616c616e636564206c69717569646974792070726f7669645f8201527f6564000000000000000000000000000000000000000000000000000000000000602082015250565b5f612d73602283612554565b9150612d7e82612d19565b604082019050919050565b5f6020820190508181035f830152612da081612d67565b9050919050565b7f414d4d3a20496e73756666696369656e74206c69717569646974792070726f765f8201527f6964656400000000000000000000000000000000000000000000000000000000602082015250565b5f612e01602483612554565b9150612e0c82612da7565b604082019050919050565b5f6020820190508181035f830152612e2e81612df5565b9050919050565b7f414d4d3a204e6f74206120676f7665726e6f72000000000000000000000000005f82015250565b5f612e69601383612554565b9150612e7482612e35565b602082019050919050565b5f6020820190508181035f830152612e9681612e5d565b9050919050565b7f4e487b71000000000000000000000000000000000000000000000000000000005f52603260045260245ffd5b7f4e487b71000000000000000000000000000000000000000000000000000000005f52603160045260245ffd5b5f606082019050612f0a5f8301866124aa565b612f176020830185612522565b612f246040830184612522565b949350505050565b7f5265656e7472616e637947756172643a207265656e7472616e742063616c6c005f82015250565b5f612f60601f83612554565b9150612f6b82612f2c565b602082019050919050565b5f6020820190508181035f830152612f8d81612f54565b9050919050565b5f606082019050612fa75f8301866124aa565b612fb460208301856124aa565b612fc16040830184612522565b949350505050565b5f604082019050612fdc5f8301856124aa565b612fe96020830184612522565b9392505050565b612ff981612669565b8114613003575f80fd5b50565b5f8151905061301481612ff0565b92915050565b5f6020828403121561302f5761302e612418565b5b5f61303c84828501613006565b91505092915050565b5f81519050919050565b5f81905092915050565b5f61306382613045565b61306d818561304f565b935061307d818560208601612564565b80840191505092915050565b5f6130948284613059565b91508190509291505056fea2646970667358221220a085248112c02c3272b66eb04c4c555c4a703db89e5ded1e477594eed216c23864736f6c63430008190033",
					"opcodes": "PUSH1 0x80 PUSH1 0x40 MSTORE PUSH1 0x1E PUSH1 0xA SSTORE PUSH2 0xE10 PUSH1 0xD SSTORE CALLVALUE DUP1 ISZERO PUSH2 0x1A JUMPI PUSH0 DUP1 REVERT JUMPDEST POP PUSH1 0x40 MLOAD PUSH2 0x3695 CODESIZE SUB DUP1 PUSH2 0x3695 DUP4 CODECOPY DUP2 DUP2 ADD PUSH1 0x40 MSTORE DUP2 ADD SWAP1 PUSH2 0x3C SWAP2 SWAP1 PUSH2 0x26C JUMP JUMPDEST PUSH1 0x40 MLOAD DUP1 PUSH1 0x40 ADD PUSH1 0x40 MSTORE DUP1 PUSH1 0x13 DUP2 MSTORE PUSH1 0x20 ADD PUSH32 0x414D4D204C697175696469747920546F6B656E00000000000000000000000000 DUP2 MSTORE POP PUSH1 0x40 MLOAD DUP1 PUSH1 0x40 ADD PUSH1 0x40 MSTORE DUP1 PUSH1 0x5 DUP2 MSTORE PUSH1 0x20 ADD PUSH32 0x414D4D4C54000000000000000000000000000000000000000000000000000000 DUP2 MSTORE POP DUP2 PUSH1 0x3 SWAP1 DUP2 PUSH2 0xB7 SWAP2 SWAP1 PUSH2 0x4E4 JUMP JUMPDEST POP DUP1 PUSH1 0x4 SWAP1 DUP2 PUSH2 0xC7 SWAP2 SWAP1 PUSH2 0x4E4 JUMP JUMPDEST POP POP POP PUSH1 0x1 PUSH1 0x5 DUP2 SWAP1 SSTORE POP DUP2 PUSH1 0x6 PUSH0 PUSH2 0x100 EXP DUP2 SLOAD DUP2 PUSH20 0xFFFFFFFFFFFFFFFFFFFFFFFFFFFFFFFFFFFFFFFF MUL NOT AND SWAP1 DUP4 PUSH20 0xFFFFFFFFFFFFFFFFFFFFFFFFFFFFFFFFFFFFFFFF AND MUL OR SWAP1 SSTORE POP DUP1 PUSH1 0x7 PUSH0 PUSH2 0x100 EXP DUP2 SLOAD DUP2 PUSH20 0xFFFFFFFFFFFFFFFFFFFFFFFFFFFFFFFFFFFFFFFF MUL NOT AND SWAP1 DUP4 PUSH20 0xFFFFFFFFFFFFFFFFFFFFFFFFFFFFFFFFFFFFFFFF AND MUL OR SWAP1 SSTORE POP PUSH1 0x1 PUSH1 0xB PUSH0 CALLER PUSH20 0xFFFFFFFFFFFFFFFFFFFFFFFFFFFFFFFFFFFFFFFF AND PUSH20 0xFFFFFFFFFFFFFFFFFFFFFFFFFFFFFFFFFFFFFFFF AND DUP2 MSTORE PUSH1 0x20 ADD SWAP1 DUP2 MSTORE PUSH1 0x20 ADD PUSH0 KECCAK256 PUSH0 PUSH2 0x100 EXP DUP2 SLOAD DUP2 PUSH1 0xFF MUL NOT AND SWAP1 DUP4 ISZERO ISZERO MUL OR SWAP1 SSTORE POP PUSH1 0xC CALLER SWAP1 DUP1 PUSH1 0x1 DUP2 SLOAD ADD DUP1 DUP3 SSTORE DUP1 SWAP2 POP POP PUSH1 0x1 SWAP1 SUB SWAP1 PUSH0 MSTORE PUSH1 0x20 PUSH0 KECCAK256 ADD PUSH0 SWAP1 SWAP2 SWAP1 SWAP2 SWAP1 SWAP2 PUSH2 0x100 EXP DUP2 SLOAD DUP2 PUSH20 0xFFFFFFFFFFFFFFFFFFFFFFFFFFFFFFFFFFFFFFFF MUL NOT AND SWAP1 DUP4 PUSH20 0xFFFFFFFFFFFFFFFFFFFFFFFFFFFFFFFFFFFFFFFF AND MUL OR SWAP1 SSTORE POP POP POP PUSH2 0x5B3 JUMP JUMPDEST PUSH0 DUP1 REVERT JUMPDEST PUSH0 PUSH20 0xFFFFFFFFFFFFFFFFFFFFFFFFFFFFFFFFFFFFFFFF DUP3 AND SWAP1 POP SWAP2 SWAP1 POP JUMP JUMPDEST PUSH0 PUSH2 0x23B DUP3 PUSH2 0x212 JUMP JUMPDEST SWAP1 POP SWAP2 SWAP1 POP JUMP JUMPDEST PUSH2 0x24B DUP2 PUSH2 0x231 JUMP JUMPDEST DUP2 EQ PUSH2 0x255 JUMPI PUSH0 DUP1 REVERT JUMPDEST POP JUMP JUMPDEST PUSH0 DUP2 MLOAD SWAP1 POP PUSH2 0x266 DUP2 PUSH2 0x242 JUMP JUMPDEST SWAP3 SWAP2 POP POP JUMP JUMPDEST PUSH0 DUP1 PUSH1 0x40 DUP4 DUP6 SUB SLT ISZERO PUSH2 0x282 JUMPI PUSH2 0x281 PUSH2 0x20E JUMP JUMPDEST JUMPDEST PUSH0 PUSH2 0x28F DUP6 DUP3 DUP7 ADD PUSH2 0x258 JUMP JUMPDEST SWAP3 POP POP PUSH1 0x20 PUSH2 0x2A0 DUP6 DUP3 DUP7 ADD PUSH2 0x258 JUMP JUMPDEST SWAP2 POP POP SWAP3 POP SWAP3 SWAP1 POP JUMP JUMPDEST PUSH0 DUP2 MLOAD SWAP1 POP SWAP2 SWAP1 POP JUMP JUMPDEST PUSH32 0x4E487B7100000000000000000000000000000000000000000000000000000000 PUSH0 MSTORE PUSH1 0x41 PUSH1 0x4 MSTORE PUSH1 0x24 PUSH0 REVERT JUMPDEST PUSH32 0x4E487B7100000000000000000000000000000000000000000000000000000000 PUSH0 MSTORE PUSH1 0x22 PUSH1 0x4 MSTORE PUSH1 0x24 PUSH0 REVERT JUMPDEST PUSH0 PUSH1 0x2 DUP3 DIV SWAP1 POP PUSH1 0x1 DUP3 AND DUP1 PUSH2 0x325 JUMPI PUSH1 0x7F DUP3 AND SWAP2 POP JUMPDEST PUSH1 0x20 DUP3 LT DUP2 SUB PUSH2 0x338 JUMPI PUSH2 0x337 PUSH2 0x2E1 JUMP JUMPDEST JUMPDEST POP SWAP2 SWAP1 POP JUMP JUMPDEST PUSH0 DUP2 SWAP1 POP DUP2 PUSH0 MSTORE PUSH1 0x20 PUSH0 KECCAK256 SWAP1 POP SWAP2 SWAP1 POP JUMP JUMPDEST PUSH0 PUSH1 0x20 PUSH1 0x1F DUP4 ADD DIV SWAP1 POP SWAP2 SWAP1 POP JUMP JUMPDEST PUSH0 DUP3 DUP3 SHL SWAP1 POP SWAP3 SWAP2 POP POP JUMP JUMPDEST PUSH0 PUSH1 0x8 DUP4 MUL PUSH2 0x39A PUSH32 0xFFFFFFFFFFFFFFFFFFFFFFFFFFFFFFFFFFFFFFFFFFFFFFFFFFFFFFFFFFFFFFFF DUP3 PUSH2 0x35F JUMP JUMPDEST PUSH2 0x3A4 DUP7 DUP4 PUSH2 0x35F JUMP JUMPDEST SWAP6 POP DUP1 NOT DUP5 AND SWAP4 POP DUP1 DUP7 AND DUP5 OR SWAP3 POP POP POP SWAP4 SWAP3 POP POP POP JUMP JUMPDEST PUSH0 DUP2 SWAP1 POP SWAP2 SWAP1 POP JUMP JUMPDEST PUSH0 DUP2 SWAP1 POP SWAP2 SWAP1 POP JUMP JUMPDEST PUSH0 PUSH2 0x3E8 PUSH2 0x3E3 PUSH2 0x3DE DUP5 PUSH2 0x3BC JUMP JUMPDEST PUSH2 0x3C5 JUMP JUMPDEST PUSH2 0x3BC JUMP JUMPDEST SWAP1 POP SWAP2 SWAP1 POP JUMP JUMPDEST PUSH0 DUP2 SWAP1 POP SWAP2 SWAP1 POP JUMP JUMPDEST PUSH2 0x401 DUP4 PUSH2 0x3CE JUMP JUMPDEST PUSH2 0x415 PUSH2 0x40D DUP3 PUSH2 0x3EF JUMP JUMPDEST DUP5 DUP5 SLOAD PUSH2 0x36B JUMP JUMPDEST DUP3 SSTORE POP POP POP POP JUMP JUMPDEST PUSH0 SWAP1 JUMP JUMPDEST PUSH2 0x429 PUSH2 0x41D JUMP JUMPDEST PUSH2 0x434 DUP2 DUP5 DUP5 PUSH2 0x3F8 JUMP JUMPDEST POP POP POP JUMP JUMPDEST JUMPDEST DUP2 DUP2 LT ISZERO PUSH2 0x457 JUMPI PUSH2 0x44C PUSH0 DUP3 PUSH2 0x421 JUMP JUMPDEST PUSH1 0x1 DUP2 ADD SWAP1 POP PUSH2 0x43A JUMP JUMPDEST POP POP JUMP JUMPDEST PUSH1 0x1F DUP3 GT ISZERO PUSH2 0x49C JUMPI PUSH2 0x46D DUP2 PUSH2 0x33E JUMP JUMPDEST PUSH2 0x476 DUP5 PUSH2 0x350 JUMP JUMPDEST DUP2 ADD PUSH1 0x20 DUP6 LT ISZERO PUSH2 0x485 JUMPI DUP2 SWAP1 POP JUMPDEST PUSH2 0x499 PUSH2 0x491 DUP6 PUSH2 0x350 JUMP JUMPDEST DUP4 ADD DUP3 PUSH2 0x439 JUMP JUMPDEST POP POP JUMPDEST POP POP POP JUMP JUMPDEST PUSH0 DUP3 DUP3 SHR SWAP1 POP SWAP3 SWAP2 POP POP JUMP JUMPDEST PUSH0 PUSH2 0x4BC PUSH0 NOT DUP5 PUSH1 0x8 MUL PUSH2 0x4A1 JUMP JUMPDEST NOT DUP1 DUP4 AND SWAP2 POP POP SWAP3 SWAP2 POP POP JUMP JUMPDEST PUSH0 PUSH2 0x4D4 DUP4 DUP4 PUSH2 0x4AD JUMP JUMPDEST SWAP2 POP DUP3 PUSH1 0x2 MUL DUP3 OR SWAP1 POP SWAP3 SWAP2 POP POP JUMP JUMPDEST PUSH2 0x4ED DUP3 PUSH2 0x2AA JUMP JUMPDEST PUSH8 0xFFFFFFFFFFFFFFFF DUP2 GT ISZERO PUSH2 0x506 JUMPI PUSH2 0x505 PUSH2 0x2B4 JUMP JUMPDEST JUMPDEST PUSH2 0x510 DUP3 SLOAD PUSH2 0x30E JUMP JUMPDEST PUSH2 0x51B DUP3 DUP3 DUP6 PUSH2 0x45B JUMP JUMPDEST PUSH0 PUSH1 0x20 SWAP1 POP PUSH1 0x1F DUP4 GT PUSH1 0x1 DUP2 EQ PUSH2 0x54C JUMPI PUSH0 DUP5 ISZERO PUSH2 0x53A JUMPI DUP3 DUP8 ADD MLOAD SWAP1 POP JUMPDEST PUSH2 0x544 DUP6 DUP3 PUSH2 0x4C9 JUMP JUMPDEST DUP7 SSTORE POP PUSH2 0x5AB JUMP JUMPDEST PUSH1 0x1F NOT DUP5 AND PUSH2 0x55A DUP7 PUSH2 0x33E JUMP JUMPDEST PUSH0 JUMPDEST DUP3 DUP2 LT ISZERO PUSH2 0x581 JUMPI DUP5 DUP10 ADD MLOAD DUP3 SSTORE PUSH1 0x1 DUP3 ADD SWAP2 POP PUSH1 0x20 DUP6 ADD SWAP5 POP PUSH1 0x20 DUP2 ADD SWAP1 POP PUSH2 0x55C JUMP JUMPDEST DUP7 DUP4 LT ISZERO PUSH2 0x59E JUMPI DUP5 DUP10 ADD MLOAD PUSH2 0x59A PUSH1 0x1F DUP10 AND DUP3 PUSH2 0x4AD JUMP JUMPDEST DUP4 SSTORE POP JUMPDEST PUSH1 0x1 PUSH1 0x2 DUP9 MUL ADD DUP9 SSTORE POP POP POP JUMPDEST POP POP POP POP POP POP JUMP JUMPDEST PUSH2 0x30D5 DUP1 PUSH2 0x5C0 PUSH0 CODECOPY PUSH0 RETURN INVALID PUSH1 0x80 PUSH1 0x40 MSTORE CALLVALUE DUP1 ISZERO PUSH2 0xF JUMPI PUSH0 DUP1 REVERT JUMPDEST POP PUSH1 0x4 CALLDATASIZE LT PUSH2 0x1C2 JUMPI PUSH0 CALLDATALOAD PUSH1 0xE0 SHR DUP1 PUSH4 0x58D50F0A GT PUSH2 0xF7 JUMPI DUP1 PUSH4 0xA9059CBB GT PUSH2 0x95 JUMPI DUP1 PUSH4 0xC7F8A78D GT PUSH2 0x6F JUMPI DUP1 PUSH4 0xC7F8A78D EQ PUSH2 0x536 JUMPI DUP1 PUSH4 0xDD62ED3E EQ PUSH2 0x566 JUMPI DUP1 PUSH4 0xE3EECE26 EQ PUSH2 0x596 JUMPI DUP1 PUSH4 0xEECDAC88 EQ PUSH2 0x5C6 JUMPI PUSH2 0x1C2 JUMP JUMPDEST DUP1 PUSH4 0xA9059CBB EQ PUSH2 0x4CA JUMPI DUP1 PUSH4 0xB7D19FC4 EQ PUSH2 0x4FA JUMPI DUP1 PUSH4 0xB8606EEF EQ PUSH2 0x518 JUMPI PUSH2 0x1C2 JUMP JUMPDEST DUP1 PUSH4 0x95D89B41 GT PUSH2 0xD1 JUMPI DUP1 PUSH4 0x95D89B41 EQ PUSH2 0x42D JUMPI DUP1 PUSH4 0x9C8F9F23 EQ PUSH2 0x44B JUMPI DUP1 PUSH4 0x9CD441DA EQ PUSH2 0x47C JUMPI DUP1 PUSH4 0x9D6F09C1 EQ PUSH2 0x4AC JUMPI PUSH2 0x1C2 JUMP JUMPDEST DUP1 PUSH4 0x58D50F0A EQ PUSH2 0x3C3 JUMPI DUP1 PUSH4 0x69FE0E2D EQ PUSH2 0x3E1 JUMPI DUP1 PUSH4 0x70A08231 EQ PUSH2 0x3FD JUMPI PUSH2 0x1C2 JUMP JUMPDEST DUP1 PUSH4 0x16DC165B GT PUSH2 0x164 JUMPI DUP1 PUSH4 0x31018339 GT PUSH2 0x13E JUMPI DUP1 PUSH4 0x31018339 EQ PUSH2 0x33B JUMPI DUP1 PUSH4 0x313CE567 EQ PUSH2 0x36B JUMPI DUP1 PUSH4 0x3C1D5DF0 EQ PUSH2 0x389 JUMPI DUP1 PUSH4 0x3C4A25D0 EQ PUSH2 0x3A7 JUMPI PUSH2 0x1C2 JUMP JUMPDEST DUP1 PUSH4 0x16DC165B EQ PUSH2 0x2CF JUMPI DUP1 PUSH4 0x18160DDD EQ PUSH2 0x2ED JUMPI DUP1 PUSH4 0x23B872DD EQ PUSH2 0x30B JUMPI PUSH2 0x1C2 JUMP JUMPDEST DUP1 PUSH4 0x902F1AC GT PUSH2 0x1A0 JUMPI DUP1 PUSH4 0x902F1AC EQ PUSH2 0x244 JUMPI DUP1 PUSH4 0x95EA7B3 EQ PUSH2 0x263 JUMPI DUP1 PUSH4 0x10F669B3 EQ PUSH2 0x293 JUMPI DUP1 PUSH4 0x126082CF EQ PUSH2 0x2B1 JUMPI PUSH2 0x1C2 JUMP JUMPDEST DUP1 PUSH4 0x2AAC7B2 EQ PUSH2 0x1C6 JUMPI DUP1 PUSH4 0x54D50D4 EQ PUSH2 0x1F6 JUMPI DUP1 PUSH4 0x6FDDE03 EQ PUSH2 0x226 JUMPI JUMPDEST PUSH0 DUP1 REVERT JUMPDEST PUSH2 0x1E0 PUSH1 0x4 DUP1 CALLDATASIZE SUB DUP2 ADD SWAP1 PUSH2 0x1DB SWAP2 SWAP1 PUSH2 0x244F JUMP JUMPDEST PUSH2 0x5E2 JUMP JUMPDEST PUSH1 0x40 MLOAD PUSH2 0x1ED SWAP2 SWAP1 PUSH2 0x24B9 JUMP JUMPDEST PUSH1 0x40 MLOAD DUP1 SWAP2 SUB SWAP1 RETURN JUMPDEST PUSH2 0x210 PUSH1 0x4 DUP1 CALLDATASIZE SUB DUP2 ADD SWAP1 PUSH2 0x20B SWAP2 SWAP1 PUSH2 0x24D2 JUMP JUMPDEST PUSH2 0x61D JUMP JUMPDEST PUSH1 0x40 MLOAD PUSH2 0x21D SWAP2 SWAP1 PUSH2 0x2531 JUMP JUMPDEST PUSH1 0x40 MLOAD DUP1 SWAP2 SUB SWAP1 RETURN JUMPDEST PUSH2 0x22E PUSH2 0x67F JUMP JUMPDEST PUSH1 0x40 MLOAD PUSH2 0x23B SWAP2 SWAP1 PUSH2 0x25BA JUMP JUMPDEST PUSH1 0x40 MLOAD DUP1 SWAP2 SUB SWAP1 RETURN JUMPDEST PUSH2 0x24C PUSH2 0x70F JUMP JUMPDEST PUSH1 0x40 MLOAD PUSH2 0x25A SWAP3 SWAP2 SWAP1 PUSH2 0x25DA JUMP JUMPDEST PUSH1 0x40 MLOAD DUP1 SWAP2 SUB SWAP1 RETURN JUMPDEST PUSH2 0x27D PUSH1 0x4 DUP1 CALLDATASIZE SUB DUP2 ADD SWAP1 PUSH2 0x278 SWAP2 SWAP1 PUSH2 0x262B JUMP JUMPDEST PUSH2 0x71F JUMP JUMPDEST PUSH1 0x40 MLOAD PUSH2 0x28A SWAP2 SWAP1 PUSH2 0x2683 JUMP JUMPDEST PUSH1 0x40 MLOAD DUP1 SWAP2 SUB SWAP1 RETURN JUMPDEST PUSH2 0x29B PUSH2 0x741 JUMP JUMPDEST PUSH1 0x40 MLOAD PUSH2 0x2A8 SWAP2 SWAP1 PUSH2 0x2531 JUMP JUMPDEST PUSH1 0x40 MLOAD DUP1 SWAP2 SUB SWAP1 RETURN JUMPDEST PUSH2 0x2B9 PUSH2 0x747 JUMP JUMPDEST PUSH1 0x40 MLOAD PUSH2 0x2C6 SWAP2 SWAP1 PUSH2 0x2531 JUMP JUMPDEST PUSH1 0x40 MLOAD DUP1 SWAP2 SUB SWAP1 RETURN JUMPDEST PUSH2 0x2D7 PUSH2 0x74D JUMP JUMPDEST PUSH1 0x40 MLOAD PUSH2 0x2E4 SWAP2 SWAP1 PUSH2 0x26F7 JUMP JUMPDEST PUSH1 0x40 MLOAD DUP1 SWAP2 SUB SWAP1 RETURN JUMPDEST PUSH2 0x2F5 PUSH2 0x772 JUMP JUMPDEST PUSH1 0x40 MLOAD PUSH2 0x302 SWAP2 SWAP1 PUSH2 0x2531 JUMP JUMPDEST PUSH1 0x40 MLOAD DUP1 SWAP2 SUB SWAP1 RETURN JUMPDEST PUSH2 0x325 PUSH1 0x4 DUP1 CALLDATASIZE SUB DUP2 ADD SWAP1 PUSH2 0x320 SWAP2 SWAP1 PUSH2 0x2710 JUMP JUMPDEST PUSH2 0x77B JUMP JUMPDEST PUSH1 0x40 MLOAD PUSH2 0x332 SWAP2 SWAP1 PUSH2 0x2683 JUMP JUMPDEST PUSH1 0x40 MLOAD DUP1 SWAP2 SUB SWAP1 RETURN JUMPDEST PUSH2 0x355 PUSH1 0x4 DUP1 CALLDATASIZE SUB DUP2 ADD SWAP1 PUSH2 0x350 SWAP2 SWAP1 PUSH2 0x2760 JUMP JUMPDEST PUSH2 0x7A9 JUMP JUMPDEST PUSH1 0x40 MLOAD PUSH2 0x362 SWAP2 SWAP1 PUSH2 0x2531 JUMP JUMPDEST PUSH1 0x40 MLOAD DUP1 SWAP2 SUB SWAP1 RETURN JUMPDEST PUSH2 0x373 PUSH2 0x9BE JUMP JUMPDEST PUSH1 0x40 MLOAD PUSH2 0x380 SWAP2 SWAP1 PUSH2 0x27B9 JUMP JUMPDEST PUSH1 0x40 MLOAD DUP1 SWAP2 SUB SWAP1 RETURN JUMPDEST PUSH2 0x391 PUSH2 0x9C6 JUMP JUMPDEST PUSH1 0x40 MLOAD PUSH2 0x39E SWAP2 SWAP1 PUSH2 0x2531 JUMP JUMPDEST PUSH1 0x40 MLOAD DUP1 SWAP2 SUB SWAP1 RETURN JUMPDEST PUSH2 0x3C1 PUSH1 0x4 DUP1 CALLDATASIZE SUB DUP2 ADD SWAP1 PUSH2 0x3BC SWAP2 SWAP1 PUSH2 0x27D2 JUMP JUMPDEST PUSH2 0x9CC JUMP JUMPDEST STOP JUMPDEST PUSH2 0x3CB PUSH2 0xC48 JUMP JUMPDEST PUSH1 0x40 MLOAD PUSH2 0x3D8 SWAP2 SWAP1 PUSH2 0x2531 JUMP JUMPDEST PUSH1 0x40 MLOAD DUP1 SWAP2 SUB SWAP1 RETURN JUMPDEST PUSH2 0x3FB PUSH1 0x4 DUP1 CALLDATASIZE SUB DUP2 ADD SWAP1 PUSH2 0x3F6 SWAP2 SWAP1 PUSH2 0x244F JUMP JUMPDEST PUSH2 0xC4E JUMP JUMPDEST STOP JUMPDEST PUSH2 0x417 PUSH1 0x4 DUP1 CALLDATASIZE SUB DUP2 ADD SWAP1 PUSH2 0x412 SWAP2 SWAP1 PUSH2 0x27D2 JUMP JUMPDEST PUSH2 0xD60 JUMP JUMPDEST PUSH1 0x40 MLOAD PUSH2 0x424 SWAP2 SWAP1 PUSH2 0x2531 JUMP JUMPDEST PUSH1 0x40 MLOAD DUP1 SWAP2 SUB SWAP1 RETURN JUMPDEST PUSH2 0x435 PUSH2 0xDA5 JUMP JUMPDEST PUSH1 0x40 MLOAD PUSH2 0x442 SWAP2 SWAP1 PUSH2 0x25BA JUMP JUMPDEST PUSH1 0x40 MLOAD DUP1 SWAP2 SUB SWAP1 RETURN JUMPDEST PUSH2 0x465 PUSH1 0x4 DUP1 CALLDATASIZE SUB DUP2 ADD SWAP1 PUSH2 0x460 SWAP2 SWAP1 PUSH2 0x244F JUMP JUMPDEST PUSH2 0xE35 JUMP JUMPDEST PUSH1 0x40 MLOAD PUSH2 0x473 SWAP3 SWAP2 SWAP1 PUSH2 0x25DA JUMP JUMPDEST PUSH1 0x40 MLOAD DUP1 SWAP2 SUB SWAP1 RETURN JUMPDEST PUSH2 0x496 PUSH1 0x4 DUP1 CALLDATASIZE SUB DUP2 ADD SWAP1 PUSH2 0x491 SWAP2 SWAP1 PUSH2 0x2760 JUMP JUMPDEST PUSH2 0xFF4 JUMP JUMPDEST PUSH1 0x40 MLOAD PUSH2 0x4A3 SWAP2 SWAP1 PUSH2 0x2531 JUMP JUMPDEST PUSH1 0x40 MLOAD DUP1 SWAP2 SUB SWAP1 RETURN JUMPDEST PUSH2 0x4B4 PUSH2 0x125C JUMP JUMPDEST PUSH1 0x40 MLOAD PUSH2 0x4C1 SWAP2 SWAP1 PUSH2 0x2531 JUMP JUMPDEST PUSH1 0x40 MLOAD DUP1 SWAP2 SUB SWAP1 RETURN JUMPDEST PUSH2 0x4E4 PUSH1 0x4 DUP1 CALLDATASIZE SUB DUP2 ADD SWAP1 PUSH2 0x4DF SWAP2 SWAP1 PUSH2 0x262B JUMP JUMPDEST PUSH2 0x1262 JUMP JUMPDEST PUSH1 0x40 MLOAD PUSH2 0x4F1 SWAP2 SWAP1 PUSH2 0x2683 JUMP JUMPDEST PUSH1 0x40 MLOAD DUP1 SWAP2 SUB SWAP1 RETURN JUMPDEST PUSH2 0x502 PUSH2 0x1284 JUMP JUMPDEST PUSH1 0x40 MLOAD PUSH2 0x50F SWAP2 SWAP1 PUSH2 0x26F7 JUMP JUMPDEST PUSH1 0x40 MLOAD DUP1 SWAP2 SUB SWAP1 RETURN JUMPDEST PUSH2 0x520 PUSH2 0x12A9 JUMP JUMPDEST PUSH1 0x40 MLOAD PUSH2 0x52D SWAP2 SWAP1 PUSH2 0x2531 JUMP JUMPDEST PUSH1 0x40 MLOAD DUP1 SWAP2 SUB SWAP1 RETURN JUMPDEST PUSH2 0x550 PUSH1 0x4 DUP1 CALLDATASIZE SUB DUP2 ADD SWAP1 PUSH2 0x54B SWAP2 SWAP1 PUSH2 0x2760 JUMP JUMPDEST PUSH2 0x12AF JUMP JUMPDEST PUSH1 0x40 MLOAD PUSH2 0x55D SWAP2 SWAP1 PUSH2 0x2531 JUMP JUMPDEST PUSH1 0x40 MLOAD DUP1 SWAP2 SUB SWAP1 RETURN JUMPDEST PUSH2 0x580 PUSH1 0x4 DUP1 CALLDATASIZE SUB DUP2 ADD SWAP1 PUSH2 0x57B SWAP2 SWAP1 PUSH2 0x27FD JUMP JUMPDEST PUSH2 0x14C4 JUMP JUMPDEST PUSH1 0x40 MLOAD PUSH2 0x58D SWAP2 SWAP1 PUSH2 0x2531 JUMP JUMPDEST PUSH1 0x40 MLOAD DUP1 SWAP2 SUB SWAP1 RETURN JUMPDEST PUSH2 0x5B0 PUSH1 0x4 DUP1 CALLDATASIZE SUB DUP2 ADD SWAP1 PUSH2 0x5AB SWAP2 SWAP1 PUSH2 0x27D2 JUMP JUMPDEST PUSH2 0x1546 JUMP JUMPDEST PUSH1 0x40 MLOAD PUSH2 0x5BD SWAP2 SWAP1 PUSH2 0x2683 JUMP JUMPDEST PUSH1 0x40 MLOAD DUP1 SWAP2 SUB SWAP1 RETURN JUMPDEST PUSH2 0x5E0 PUSH1 0x4 DUP1 CALLDATASIZE SUB DUP2 ADD SWAP1 PUSH2 0x5DB SWAP2 SWAP1 PUSH2 0x27D2 JUMP JUMPDEST PUSH2 0x1563 JUMP JUMPDEST STOP JUMPDEST PUSH1 0xC DUP2 DUP2 SLOAD DUP2 LT PUSH2 0x5F1 JUMPI PUSH0 DUP1 REVERT JUMPDEST SWAP1 PUSH0 MSTORE PUSH1 0x20 PUSH0 KECCAK256 ADD PUSH0 SWAP2 POP SLOAD SWAP1 PUSH2 0x100 EXP SWAP1 DIV PUSH20 0xFFFFFFFFFFFFFFFFFFFFFFFFFFFFFFFFFFFFFFFF AND DUP2 JUMP JUMPDEST PUSH0 DUP1 PUSH1 0xA SLOAD PUSH2 0x2710 PUSH2 0x62F SWAP2 SWAP1 PUSH2 0x2868 JUMP JUMPDEST DUP6 PUSH2 0x63A SWAP2 SWAP1 PUSH2 0x289B JUMP JUMPDEST SWAP1 POP PUSH0 DUP4 DUP3 PUSH2 0x649 SWAP2 SWAP1 PUSH2 0x289B JUMP JUMPDEST SWAP1 POP PUSH0 DUP3 PUSH2 0x2710 DUP8 PUSH2 0x65B SWAP2 SWAP1 PUSH2 0x289B JUMP JUMPDEST PUSH2 0x665 SWAP2 SWAP1 PUSH2 0x28DC JUMP JUMPDEST SWAP1 POP DUP1 DUP3 PUSH2 0x673 SWAP2 SWAP1 PUSH2 0x293C JUMP JUMPDEST SWAP4 POP POP POP POP SWAP4 SWAP3 POP POP POP JUMP JUMPDEST PUSH1 0x60 PUSH1 0x3 DUP1 SLOAD PUSH2 0x68E SWAP1 PUSH2 0x2999 JUMP JUMPDEST DUP1 PUSH1 0x1F ADD PUSH1 0x20 DUP1 SWAP2 DIV MUL PUSH1 0x20 ADD PUSH1 0x40 MLOAD SWAP1 DUP2 ADD PUSH1 0x40 MSTORE DUP1 SWAP3 SWAP2 SWAP1 DUP2 DUP2 MSTORE PUSH1 0x20 ADD DUP3 DUP1 SLOAD PUSH2 0x6BA SWAP1 PUSH2 0x2999 JUMP JUMPDEST DUP1 ISZERO PUSH2 0x705 JUMPI DUP1 PUSH1 0x1F LT PUSH2 0x6DC JUMPI PUSH2 0x100 DUP1 DUP4 SLOAD DIV MUL DUP4 MSTORE SWAP2 PUSH1 0x20 ADD SWAP2 PUSH2 0x705 JUMP JUMPDEST DUP3 ADD SWAP2 SWAP1 PUSH0 MSTORE PUSH1 0x20 PUSH0 KECCAK256 SWAP1 JUMPDEST DUP2 SLOAD DUP2 MSTORE SWAP1 PUSH1 0x1 ADD SWAP1 PUSH1 0x20 ADD DUP1 DUP4 GT PUSH2 0x6E8 JUMPI DUP3 SWAP1 SUB PUSH1 0x1F AND DUP3 ADD SWAP2 JUMPDEST POP POP POP POP POP SWAP1 POP SWAP1 JUMP JUMPDEST PUSH0 DUP1 PUSH1 0x8 SLOAD PUSH1 0x9 SLOAD SWAP2 POP SWAP2 POP SWAP1 SWAP2 JUMP JUMPDEST PUSH0 DUP1 PUSH2 0x729 PUSH2 0x18F7 JUMP JUMPDEST SWAP1 POP PUSH2 0x736 DUP2 DUP6 DUP6 PUSH2 0x18FE JUMP JUMPDEST PUSH1 0x1 SWAP2 POP POP SWAP3 SWAP2 POP POP JUMP JUMPDEST PUSH1 0xF SLOAD DUP2 JUMP JUMPDEST PUSH2 0x2710 DUP2 JUMP JUMPDEST PUSH1 0x6 PUSH0 SWAP1 SLOAD SWAP1 PUSH2 0x100 EXP SWAP1 DIV PUSH20 0xFFFFFFFFFFFFFFFFFFFFFFFFFFFFFFFFFFFFFFFF AND DUP2 JUMP JUMPDEST PUSH0 PUSH1 0x2 SLOAD SWAP1 POP SWAP1 JUMP JUMPDEST PUSH0 DUP1 PUSH2 0x785 PUSH2 0x18F7 JUMP JUMPDEST SWAP1 POP PUSH2 0x792 DUP6 DUP3 DUP6 PUSH2 0x1910 JUMP JUMPDEST PUSH2 0x79D DUP6 DUP6 DUP6 PUSH2 0x19A2 JUMP JUMPDEST PUSH1 0x1 SWAP2 POP POP SWAP4 SWAP3 POP POP POP JUMP JUMPDEST PUSH0 PUSH2 0x7B2 PUSH2 0x1A92 JUMP JUMPDEST PUSH0 DUP4 GT PUSH2 0x7F4 JUMPI PUSH1 0x40 MLOAD PUSH32 0x8C379A000000000000000000000000000000000000000000000000000000000 DUP2 MSTORE PUSH1 0x4 ADD PUSH2 0x7EB SWAP1 PUSH2 0x2A13 JUMP JUMPDEST PUSH1 0x40 MLOAD DUP1 SWAP2 SUB SWAP1 REVERT JUMPDEST PUSH2 0x803 DUP4 PUSH1 0x9 SLOAD PUSH1 0x8 SLOAD PUSH2 0x61D JUMP JUMPDEST SWAP1 POP DUP2 DUP2 LT ISZERO PUSH2 0x848 JUMPI PUSH1 0x40 MLOAD PUSH32 0x8C379A000000000000000000000000000000000000000000000000000000000 DUP2 MSTORE PUSH1 0x4 ADD PUSH2 0x83F SWAP1 PUSH2 0x2A7B JUMP JUMPDEST PUSH1 0x40 MLOAD DUP1 SWAP2 SUB SWAP1 REVERT JUMPDEST PUSH2 0x896 CALLER ADDRESS DUP6 PUSH1 0x7 PUSH0 SWAP1 SLOAD SWAP1 PUSH2 0x100 EXP SWAP1 DIV PUSH20 0xFFFFFFFFFFFFFFFFFFFFFFFFFFFFFFFFFFFFFFFF AND PUSH20 0xFFFFFFFFFFFFFFFFFFFFFFFFFFFFFFFFFFFFFFFF AND PUSH2 0x1AE1 SWAP1 SWAP4 SWAP3 SWAP2 SWAP1 PUSH4 0xFFFFFFFF AND JUMP JUMPDEST PUSH2 0x8E2 CALLER DUP3 PUSH1 0x6 PUSH0 SWAP1 SLOAD SWAP1 PUSH2 0x100 EXP SWAP1 DIV PUSH20 0xFFFFFFFFFFFFFFFFFFFFFFFFFFFFFFFFFFFFFFFF AND PUSH20 0xFFFFFFFFFFFFFFFFFFFFFFFFFFFFFFFFFFFFFFFF AND PUSH2 0x1B63 SWAP1 SWAP3 SWAP2 SWAP1 PUSH4 0xFFFFFFFF AND JUMP JUMPDEST DUP3 PUSH1 0x9 PUSH0 DUP3 DUP3 SLOAD PUSH2 0x8F3 SWAP2 SWAP1 PUSH2 0x28DC JUMP JUMPDEST SWAP3 POP POP DUP2 SWAP1 SSTORE POP DUP1 PUSH1 0x8 PUSH0 DUP3 DUP3 SLOAD PUSH2 0x90B SWAP2 SWAP1 PUSH2 0x2868 JUMP JUMPDEST SWAP3 POP POP DUP2 SWAP1 SSTORE POP PUSH2 0x91A PUSH2 0x1BE2 JUMP JUMPDEST CALLER PUSH20 0xFFFFFFFFFFFFFFFFFFFFFFFFFFFFFFFFFFFFFFFF AND PUSH32 0x53D794B2310B8D186A24AE24A65EE066983A52A6EFA6BD3DF09A7601A3CB4F3 DUP5 DUP4 PUSH1 0x7 PUSH0 SWAP1 SLOAD SWAP1 PUSH2 0x100 EXP SWAP1 DIV PUSH20 0xFFFFFFFFFFFFFFFFFFFFFFFFFFFFFFFFFFFFFFFF AND PUSH1 0x6 PUSH0 SWAP1 SLOAD SWAP1 PUSH2 0x100 EXP SWAP1 DIV PUSH20 0xFFFFFFFFFFFFFFFFFFFFFFFFFFFFFFFFFFFFFFFF AND PUSH1 0x40 MLOAD PUSH2 0x9A8 SWAP5 SWAP4 SWAP3 SWAP2 SWAP1 PUSH2 0x2A99 JUMP JUMPDEST PUSH1 0x40 MLOAD DUP1 SWAP2 SUB SWAP1 LOG2 PUSH2 0x9B8 PUSH2 0x1C55 JUMP JUMPDEST SWAP3 SWAP2 POP POP JUMP JUMPDEST PUSH0 PUSH1 0x12 SWAP1 POP SWAP1 JUMP JUMPDEST PUSH1 0xD SLOAD DUP2 JUMP JUMPDEST PUSH1 0xB PUSH0 CALLER PUSH20 0xFFFFFFFFFFFFFFFFFFFFFFFFFFFFFFFFFFFFFFFF AND PUSH20 0xFFFFFFFFFFFFFFFFFFFFFFFFFFFFFFFFFFFFFFFF AND DUP2 MSTORE PUSH1 0x20 ADD SWAP1 DUP2 MSTORE PUSH1 0x20 ADD PUSH0 KECCAK256 PUSH0 SWAP1 SLOAD SWAP1 PUSH2 0x100 EXP SWAP1 DIV PUSH1 0xFF AND PUSH2 0xA55 JUMPI PUSH1 0x40 MLOAD PUSH32 0x8C379A000000000000000000000000000000000000000000000000000000000 DUP2 MSTORE PUSH1 0x4 ADD PUSH2 0xA4C SWAP1 PUSH2 0x2B26 JUMP JUMPDEST PUSH1 0x40 MLOAD DUP1 SWAP2 SUB SWAP1 REVERT JUMPDEST PUSH0 PUSH20 0xFFFFFFFFFFFFFFFFFFFFFFFFFFFFFFFFFFFFFFFF AND DUP2 PUSH20 0xFFFFFFFFFFFFFFFFFFFFFFFFFFFFFFFFFFFFFFFF AND SUB PUSH2 0xAC3 JUMPI PUSH1 0x40 MLOAD PUSH32 0x8C379A000000000000000000000000000000000000000000000000000000000 DUP2 MSTORE PUSH1 0x4 ADD PUSH2 0xABA SWAP1 PUSH2 0x2B8E JUMP JUMPDEST PUSH1 0x40 MLOAD DUP1 SWAP2 SUB SWAP1 REVERT JUMPDEST PUSH1 0xB PUSH0 DUP3 PUSH20 0xFFFFFFFFFFFFFFFFFFFFFFFFFFFFFFFFFFFFFFFF AND PUSH20 0xFFFFFFFFFFFFFFFFFFFFFFFFFFFFFFFFFFFFFFFF AND DUP2 MSTORE PUSH1 0x20 ADD SWAP1 DUP2 MSTORE PUSH1 0x20 ADD PUSH0 KECCAK256 PUSH0 SWAP1 SLOAD SWAP1 PUSH2 0x100 EXP SWAP1 DIV PUSH1 0xFF AND ISZERO PUSH2 0xB4D JUMPI PUSH1 0x40 MLOAD PUSH32 0x8C379A000000000000000000000000000000000000000000000000000000000 DUP2 MSTORE PUSH1 0x4 ADD PUSH2 0xB44 SWAP1 PUSH2 0x2BF6 JUMP JUMPDEST PUSH1 0x40 MLOAD DUP1 SWAP2 SUB SWAP1 REVERT JUMPDEST PUSH1 0x1 PUSH1 0xB PUSH0 DUP4 PUSH20 0xFFFFFFFFFFFFFFFFFFFFFFFFFFFFFFFFFFFFFFFF AND PUSH20 0xFFFFFFFFFFFFFFFFFFFFFFFFFFFFFFFFFFFFFFFF AND DUP2 MSTORE PUSH1 0x20 ADD SWAP1 DUP2 MSTORE PUSH1 0x20 ADD PUSH0 KECCAK256 PUSH0 PUSH2 0x100 EXP DUP2 SLOAD DUP2 PUSH1 0xFF MUL NOT AND SWAP1 DUP4 ISZERO ISZERO MUL OR SWAP1 SSTORE POP PUSH1 0xC DUP2 SWAP1 DUP1 PUSH1 0x1 DUP2 SLOAD ADD DUP1 DUP3 SSTORE DUP1 SWAP2 POP POP PUSH1 0x1 SWAP1 SUB SWAP1 PUSH0 MSTORE PUSH1 0x20 PUSH0 KECCAK256 ADD PUSH0 SWAP1 SWAP2 SWAP1 SWAP2 SWAP1 SWAP2 PUSH2 0x100 EXP DUP2 SLOAD DUP2 PUSH20 0xFFFFFFFFFFFFFFFFFFFFFFFFFFFFFFFFFFFFFFFF MUL NOT AND SWAP1 DUP4 PUSH20 0xFFFFFFFFFFFFFFFFFFFFFFFFFFFFFFFFFFFFFFFF AND MUL OR SWAP1 SSTORE POP DUP1 PUSH20 0xFFFFFFFFFFFFFFFFFFFFFFFFFFFFFFFFFFFFFFFF AND PUSH32 0xDC5A48D79E2E147530FF63ECDBED5A5A66ADB9D5CF339384D5D076DA197C40B5 PUSH1 0x40 MLOAD PUSH1 0x40 MLOAD DUP1 SWAP2 SUB SWAP1 LOG2 POP JUMP JUMPDEST PUSH1 0xE SLOAD DUP2 JUMP JUMPDEST PUSH1 0xB PUSH0 CALLER PUSH20 0xFFFFFFFFFFFFFFFFFFFFFFFFFFFFFFFFFFFFFFFF AND PUSH20 0xFFFFFFFFFFFFFFFFFFFFFFFFFFFFFFFFFFFFFFFF AND DUP2 MSTORE PUSH1 0x20 ADD SWAP1 DUP2 MSTORE PUSH1 0x20 ADD PUSH0 KECCAK256 PUSH0 SWAP1 SLOAD SWAP1 PUSH2 0x100 EXP SWAP1 DIV PUSH1 0xFF AND PUSH2 0xCD7 JUMPI PUSH1 0x40 MLOAD PUSH32 0x8C379A000000000000000000000000000000000000000000000000000000000 DUP2 MSTORE PUSH1 0x4 ADD PUSH2 0xCCE SWAP1 PUSH2 0x2B26 JUMP JUMPDEST PUSH1 0x40 MLOAD DUP1 SWAP2 SUB SWAP1 REVERT JUMPDEST PUSH2 0x2710 DUP2 LT PUSH2 0xD1B JUMPI PUSH1 0x40 MLOAD PUSH32 0x8C379A000000000000000000000000000000000000000000000000000000000 DUP2 MSTORE PUSH1 0x4 ADD PUSH2 0xD12 SWAP1 PUSH2 0x2C5E JUMP JUMPDEST PUSH1 0x40 MLOAD DUP1 SWAP2 SUB SWAP1 REVERT JUMPDEST PUSH32 0x528D9479E9F9889A87A3C30C7F7BA537E5E59C4C85A37733B16E57C62DF61302 PUSH1 0xA SLOAD DUP3 PUSH1 0x40 MLOAD PUSH2 0xD4E SWAP3 SWAP2 SWAP1 PUSH2 0x25DA JUMP JUMPDEST PUSH1 0x40 MLOAD DUP1 SWAP2 SUB SWAP1 LOG1 DUP1 PUSH1 0xA DUP2 SWAP1 SSTORE POP POP JUMP JUMPDEST PUSH0 DUP1 PUSH0 DUP4 PUSH20 0xFFFFFFFFFFFFFFFFFFFFFFFFFFFFFFFFFFFFFFFF AND PUSH20 0xFFFFFFFFFFFFFFFFFFFFFFFFFFFFFFFFFFFFFFFF AND DUP2 MSTORE PUSH1 0x20 ADD SWAP1 DUP2 MSTORE PUSH1 0x20 ADD PUSH0 KECCAK256 SLOAD SWAP1 POP SWAP2 SWAP1 POP JUMP JUMPDEST PUSH1 0x60 PUSH1 0x4 DUP1 SLOAD PUSH2 0xDB4 SWAP1 PUSH2 0x2999 JUMP JUMPDEST DUP1 PUSH1 0x1F ADD PUSH1 0x20 DUP1 SWAP2 DIV MUL PUSH1 0x20 ADD PUSH1 0x40 MLOAD SWAP1 DUP2 ADD PUSH1 0x40 MSTORE DUP1 SWAP3 SWAP2 SWAP1 DUP2 DUP2 MSTORE PUSH1 0x20 ADD DUP3 DUP1 SLOAD PUSH2 0xDE0 SWAP1 PUSH2 0x2999 JUMP JUMPDEST DUP1 ISZERO PUSH2 0xE2B JUMPI DUP1 PUSH1 0x1F LT PUSH2 0xE02 JUMPI PUSH2 0x100 DUP1 DUP4 SLOAD DIV MUL DUP4 MSTORE SWAP2 PUSH1 0x20 ADD SWAP2 PUSH2 0xE2B JUMP JUMPDEST DUP3 ADD SWAP2 SWAP1 PUSH0 MSTORE PUSH1 0x20 PUSH0 KECCAK256 SWAP1 JUMPDEST DUP2 SLOAD DUP2 MSTORE SWAP1 PUSH1 0x1 ADD SWAP1 PUSH1 0x20 ADD DUP1 DUP4 GT PUSH2 0xE0E JUMPI DUP3 SWAP1 SUB PUSH1 0x1F AND DUP3 ADD SWAP2 JUMPDEST POP POP POP POP POP SWAP1 POP SWAP1 JUMP JUMPDEST PUSH0 DUP1 PUSH2 0xE3F PUSH2 0x1A92 JUMP JUMPDEST PUSH0 DUP4 GT PUSH2 0xE81 JUMPI PUSH1 0x40 MLOAD PUSH32 0x8C379A000000000000000000000000000000000000000000000000000000000 DUP2 MSTORE PUSH1 0x4 ADD PUSH2 0xE78 SWAP1 PUSH2 0x2CC6 JUMP JUMPDEST PUSH1 0x40 MLOAD DUP1 SWAP2 SUB SWAP1 REVERT JUMPDEST PUSH0 PUSH2 0xE8A PUSH2 0x772 JUMP JUMPDEST SWAP1 POP DUP1 PUSH1 0x8 SLOAD DUP6 PUSH2 0xE9B SWAP2 SWAP1 PUSH2 0x289B JUMP JUMPDEST PUSH2 0xEA5 SWAP2 SWAP1 PUSH2 0x293C JUMP JUMPDEST SWAP3 POP DUP1 PUSH1 0x9 SLOAD DUP6 PUSH2 0xEB6 SWAP2 SWAP1 PUSH2 0x289B JUMP JUMPDEST PUSH2 0xEC0 SWAP2 SWAP1 PUSH2 0x293C JUMP JUMPDEST SWAP2 POP PUSH2 0xECC CALLER DUP6 PUSH2 0x1C5F JUMP JUMPDEST DUP3 PUSH1 0x8 PUSH0 DUP3 DUP3 SLOAD PUSH2 0xEDD SWAP2 SWAP1 PUSH2 0x2868 JUMP JUMPDEST SWAP3 POP POP DUP2 SWAP1 SSTORE POP DUP2 PUSH1 0x9 PUSH0 DUP3 DUP3 SLOAD PUSH2 0xEF5 SWAP2 SWAP1 PUSH2 0x2868 JUMP JUMPDEST SWAP3 POP POP DUP2 SWAP1 SSTORE POP PUSH2 0xF48 CALLER DUP5 PUSH1 0x6 PUSH0 SWAP1 SLOAD SWAP1 PUSH2 0x100 EXP SWAP1 DIV PUSH20 0xFFFFFFFFFFFFFFFFFFFFFFFFFFFFFFFFFFFFFFFF AND PUSH20 0xFFFFFFFFFFFFFFFFFFFFFFFFFFFFFFFFFFFFFFFF AND PUSH2 0x1B63 SWAP1 SWAP3 SWAP2 SWAP1 PUSH4 0xFFFFFFFF AND JUMP JUMPDEST PUSH2 0xF94 CALLER DUP4 PUSH1 0x7 PUSH0 SWAP1 SLOAD SWAP1 PUSH2 0x100 EXP SWAP1 DIV PUSH20 0xFFFFFFFFFFFFFFFFFFFFFFFFFFFFFFFFFFFFFFFF AND PUSH20 0xFFFFFFFFFFFFFFFFFFFFFFFFFFFFFFFFFFFFFFFF AND PUSH2 0x1B63 SWAP1 SWAP3 SWAP2 SWAP1 PUSH4 0xFFFFFFFF AND JUMP JUMPDEST CALLER PUSH20 0xFFFFFFFFFFFFFFFFFFFFFFFFFFFFFFFFFFFFFFFF AND PUSH32 0x1DC8BB69DF2B8E91FBDCBFCF93D951B3F0000F085A95FE3F7946D6161439245D DUP5 DUP5 DUP8 PUSH1 0x40 MLOAD PUSH2 0xFDE SWAP4 SWAP3 SWAP2 SWAP1 PUSH2 0x2CE4 JUMP JUMPDEST PUSH1 0x40 MLOAD DUP1 SWAP2 SUB SWAP1 LOG2 POP PUSH2 0xFEF PUSH2 0x1C55 JUMP JUMPDEST SWAP2 POP SWAP2 JUMP JUMPDEST PUSH0 PUSH2 0xFFD PUSH2 0x1A92 JUMP JUMPDEST PUSH2 0x104B CALLER ADDRESS DUP6 PUSH1 0x6 PUSH0 SWAP1 SLOAD SWAP1 PUSH2 0x100 EXP SWAP1 DIV PUSH20 0xFFFFFFFFFFFFFFFFFFFFFFFFFFFFFFFFFFFFFFFF AND PUSH20 0xFFFFFFFFFFFFFFFFFFFFFFFFFFFFFFFFFFFFFFFF AND PUSH2 0x1AE1 SWAP1 SWAP4 SWAP3 SWAP2 SWAP1 PUSH4 0xFFFFFFFF AND JUMP JUMPDEST PUSH2 0x1099 CALLER ADDRESS DUP5 PUSH1 0x7 PUSH0 SWAP1 SLOAD SWAP1 PUSH2 0x100 EXP SWAP1 DIV PUSH20 0xFFFFFFFFFFFFFFFFFFFFFFFFFFFFFFFFFFFFFFFF AND PUSH20 0xFFFFFFFFFFFFFFFFFFFFFFFFFFFFFFFFFFFFFFFF AND PUSH2 0x1AE1 SWAP1 SWAP4 SWAP3 SWAP2 SWAP1 PUSH4 0xFFFFFFFF AND JUMP JUMPDEST PUSH0 PUSH1 0x8 SLOAD GT DUP1 PUSH2 0x10AA JUMPI POP PUSH0 PUSH1 0x9 SLOAD GT JUMPDEST ISZERO PUSH2 0x110C JUMPI PUSH1 0x8 SLOAD DUP3 PUSH2 0x10BD SWAP2 SWAP1 PUSH2 0x289B JUMP JUMPDEST PUSH1 0x9 SLOAD DUP5 PUSH2 0x10CB SWAP2 SWAP1 PUSH2 0x289B JUMP JUMPDEST EQ PUSH2 0x110B JUMPI PUSH1 0x40 MLOAD PUSH32 0x8C379A000000000000000000000000000000000000000000000000000000000 DUP2 MSTORE PUSH1 0x4 ADD PUSH2 0x1102 SWAP1 PUSH2 0x2D89 JUMP JUMPDEST PUSH1 0x40 MLOAD DUP1 SWAP2 SUB SWAP1 REVERT JUMPDEST JUMPDEST PUSH0 PUSH2 0x1115 PUSH2 0x772 JUMP JUMPDEST SUB PUSH2 0x1135 JUMPI PUSH2 0x112E DUP3 DUP5 PUSH2 0x1129 SWAP2 SWAP1 PUSH2 0x289B JUMP JUMPDEST PUSH2 0x1CDE JUMP JUMPDEST SWAP1 POP PUSH2 0x1180 JUMP JUMPDEST PUSH2 0x117D PUSH1 0x8 SLOAD PUSH2 0x1143 PUSH2 0x772 JUMP JUMPDEST DUP6 PUSH2 0x114E SWAP2 SWAP1 PUSH2 0x289B JUMP JUMPDEST PUSH2 0x1158 SWAP2 SWAP1 PUSH2 0x293C JUMP JUMPDEST PUSH1 0x9 SLOAD PUSH2 0x1163 PUSH2 0x772 JUMP JUMPDEST DUP6 PUSH2 0x116E SWAP2 SWAP1 PUSH2 0x289B JUMP JUMPDEST PUSH2 0x1178 SWAP2 SWAP1 PUSH2 0x293C JUMP JUMPDEST PUSH2 0x1D55 JUMP JUMPDEST SWAP1 POP JUMPDEST PUSH0 DUP2 GT PUSH2 0x11C2 JUMPI PUSH1 0x40 MLOAD PUSH32 0x8C379A000000000000000000000000000000000000000000000000000000000 DUP2 MSTORE PUSH1 0x4 ADD PUSH2 0x11B9 SWAP1 PUSH2 0x2E17 JUMP JUMPDEST PUSH1 0x40 MLOAD DUP1 SWAP2 SUB SWAP1 REVERT JUMPDEST PUSH2 0x11CC CALLER DUP3 PUSH2 0x1D6D JUMP JUMPDEST DUP3 PUSH1 0x8 PUSH0 DUP3 DUP3 SLOAD PUSH2 0x11DD SWAP2 SWAP1 PUSH2 0x28DC JUMP JUMPDEST SWAP3 POP POP DUP2 SWAP1 SSTORE POP DUP2 PUSH1 0x9 PUSH0 DUP3 DUP3 SLOAD PUSH2 0x11F5 SWAP2 SWAP1 PUSH2 0x28DC JUMP JUMPDEST SWAP3 POP POP DUP2 SWAP1 SSTORE POP CALLER PUSH20 0xFFFFFFFFFFFFFFFFFFFFFFFFFFFFFFFFFFFFFFFF AND PUSH32 0x64B83944E79C3CE8D4C297411DE637C3E102D064677AAC0C163976EBDCD6F50E DUP5 DUP5 DUP5 PUSH1 0x40 MLOAD PUSH2 0x1246 SWAP4 SWAP3 SWAP2 SWAP1 PUSH2 0x2CE4 JUMP JUMPDEST PUSH1 0x40 MLOAD DUP1 SWAP2 SUB SWAP1 LOG2 PUSH2 0x1256 PUSH2 0x1C55 JUMP JUMPDEST SWAP3 SWAP2 POP POP JUMP JUMPDEST PUSH1 0x10 SLOAD DUP2 JUMP JUMPDEST PUSH0 DUP1 PUSH2 0x126C PUSH2 0x18F7 JUMP JUMPDEST SWAP1 POP PUSH2 0x1279 DUP2 DUP6 DUP6 PUSH2 0x19A2 JUMP JUMPDEST PUSH1 0x1 SWAP2 POP POP SWAP3 SWAP2 POP POP JUMP JUMPDEST PUSH1 0x7 PUSH0 SWAP1 SLOAD SWAP1 PUSH2 0x100 EXP SWAP1 DIV PUSH20 0xFFFFFFFFFFFFFFFFFFFFFFFFFFFFFFFFFFFFFFFF AND DUP2 JUMP JUMPDEST PUSH1 0xA SLOAD DUP2 JUMP JUMPDEST PUSH0 PUSH2 0x12B8 PUSH2 0x1A92 JUMP JUMPDEST PUSH0 DUP4 GT PUSH2 0x12FA JUMPI PUSH1 0x40 MLOAD PUSH32 0x8C379A000000000000000000000000000000000000000000000000000000000 DUP2 MSTORE PUSH1 0x4 ADD PUSH2 0x12F1 SWAP1 PUSH2 0x2A13 JUMP JUMPDEST PUSH1 0x40 MLOAD DUP1 SWAP2 SUB SWAP1 REVERT JUMPDEST PUSH2 0x1309 DUP4 PUSH1 0x8 SLOAD PUSH1 0x9 SLOAD PUSH2 0x61D JUMP JUMPDEST SWAP1 POP DUP2 DUP2 LT ISZERO PUSH2 0x134E JUMPI PUSH1 0x40 MLOAD PUSH32 0x8C379A000000000000000000000000000000000000000000000000000000000 DUP2 MSTORE PUSH1 0x4 ADD PUSH2 0x1345 SWAP1 PUSH2 0x2A7B JUMP JUMPDEST PUSH1 0x40 MLOAD DUP1 SWAP2 SUB SWAP1 REVERT JUMPDEST PUSH2 0x139C CALLER ADDRESS DUP6 PUSH1 0x6 PUSH0 SWAP1 SLOAD SWAP1 PUSH2 0x100 EXP SWAP1 DIV PUSH20 0xFFFFFFFFFFFFFFFFFFFFFFFFFFFFFFFFFFFFFFFF AND PUSH20 0xFFFFFFFFFFFFFFFFFFFFFFFFFFFFFFFFFFFFFFFF AND PUSH2 0x1AE1 SWAP1 SWAP4 SWAP3 SWAP2 SWAP1 PUSH4 0xFFFFFFFF AND JUMP JUMPDEST PUSH2 0x13E8 CALLER DUP3 PUSH1 0x7 PUSH0 SWAP1 SLOAD SWAP1 PUSH2 0x100 EXP SWAP1 DIV PUSH20 0xFFFFFFFFFFFFFFFFFFFFFFFFFFFFFFFFFFFFFFFF AND PUSH20 0xFFFFFFFFFFFFFFFFFFFFFFFFFFFFFFFFFFFFFFFF AND PUSH2 0x1B63 SWAP1 SWAP3 SWAP2 SWAP1 PUSH4 0xFFFFFFFF AND JUMP JUMPDEST DUP3 PUSH1 0x8 PUSH0 DUP3 DUP3 SLOAD PUSH2 0x13F9 SWAP2 SWAP1 PUSH2 0x28DC JUMP JUMPDEST SWAP3 POP POP DUP2 SWAP1 SSTORE POP DUP1 PUSH1 0x9 PUSH0 DUP3 DUP3 SLOAD PUSH2 0x1411 SWAP2 SWAP1 PUSH2 0x2868 JUMP JUMPDEST SWAP3 POP POP DUP2 SWAP1 SSTORE POP PUSH2 0x1420 PUSH2 0x1BE2 JUMP JUMPDEST CALLER PUSH20 0xFFFFFFFFFFFFFFFFFFFFFFFFFFFFFFFFFFFFFFFF AND PUSH32 0x53D794B2310B8D186A24AE24A65EE066983A52A6EFA6BD3DF09A7601A3CB4F3 DUP5 DUP4 PUSH1 0x6 PUSH0 SWAP1 SLOAD SWAP1 PUSH2 0x100 EXP SWAP1 DIV PUSH20 0xFFFFFFFFFFFFFFFFFFFFFFFFFFFFFFFFFFFFFFFF AND PUSH1 0x7 PUSH0 SWAP1 SLOAD SWAP1 PUSH2 0x100 EXP SWAP1 DIV PUSH20 0xFFFFFFFFFFFFFFFFFFFFFFFFFFFFFFFFFFFFFFFF AND PUSH1 0x40 MLOAD PUSH2 0x14AE SWAP5 SWAP4 SWAP3 SWAP2 SWAP1 PUSH2 0x2A99 JUMP JUMPDEST PUSH1 0x40 MLOAD DUP1 SWAP2 SUB SWAP1 LOG2 PUSH2 0x14BE PUSH2 0x1C55 JUMP JUMPDEST SWAP3 SWAP2 POP POP JUMP JUMPDEST PUSH0 PUSH1 0x1 PUSH0 DUP5 PUSH20 0xFFFFFFFFFFFFFFFFFFFFFFFFFFFFFFFFFFFFFFFF AND PUSH20 0xFFFFFFFFFFFFFFFFFFFFFFFFFFFFFFFFFFFFFFFF AND DUP2 MSTORE PUSH1 0x20 ADD SWAP1 DUP2 MSTORE PUSH1 0x20 ADD PUSH0 KECCAK256 PUSH0 DUP4 PUSH20 0xFFFFFFFFFFFFFFFFFFFFFFFFFFFFFFFFFFFFFFFF AND PUSH20 0xFFFFFFFFFFFFFFFFFFFFFFFFFFFFFFFFFFFFFFFF AND DUP2 MSTORE PUSH1 0x20 ADD SWAP1 DUP2 MSTORE PUSH1 0x20 ADD PUSH0 KECCAK256 SLOAD SWAP1 POP SWAP3 SWAP2 POP POP JUMP JUMPDEST PUSH1 0xB PUSH1 0x20 MSTORE DUP1 PUSH0 MSTORE PUSH1 0x40 PUSH0 KECCAK256 PUSH0 SWAP2 POP SLOAD SWAP1 PUSH2 0x100 EXP SWAP1 DIV PUSH1 0xFF AND DUP2 JUMP JUMPDEST PUSH1 0xB PUSH0 CALLER PUSH20 0xFFFFFFFFFFFFFFFFFFFFFFFFFFFFFFFFFFFFFFFF AND PUSH20 0xFFFFFFFFFFFFFFFFFFFFFFFFFFFFFFFFFFFFFFFF AND DUP2 MSTORE PUSH1 0x20 ADD SWAP1 DUP2 MSTORE PUSH1 0x20 ADD PUSH0 KECCAK256 PUSH0 SWAP1 SLOAD SWAP1 PUSH2 0x100 EXP SWAP1 DIV PUSH1 0xFF AND PUSH2 0x15EC JUMPI PUSH1 0x40 MLOAD PUSH32 0x8C379A000000000000000000000000000000000000000000000000000000000 DUP2 MSTORE PUSH1 0x4 ADD PUSH2 0x15E3 SWAP1 PUSH2 0x2B26 JUMP JUMPDEST PUSH1 0x40 MLOAD DUP1 SWAP2 SUB SWAP1 REVERT JUMPDEST PUSH0 PUSH20 0xFFFFFFFFFFFFFFFFFFFFFFFFFFFFFFFFFFFFFFFF AND DUP2 PUSH20 0xFFFFFFFFFFFFFFFFFFFFFFFFFFFFFFFFFFFFFFFF AND SUB PUSH2 0x165A JUMPI PUSH1 0x40 MLOAD PUSH32 0x8C379A000000000000000000000000000000000000000000000000000000000 DUP2 MSTORE PUSH1 0x4 ADD PUSH2 0x1651 SWAP1 PUSH2 0x2B8E JUMP JUMPDEST PUSH1 0x40 MLOAD DUP1 SWAP2 SUB SWAP1 REVERT JUMPDEST PUSH1 0xB PUSH0 DUP3 PUSH20 0xFFFFFFFFFFFFFFFFFFFFFFFFFFFFFFFFFFFFFFFF AND PUSH20 0xFFFFFFFFFFFFFFFFFFFFFFFFFFFFFFFFFFFFFFFF AND DUP2 MSTORE PUSH1 0x20 ADD SWAP1 DUP2 MSTORE PUSH1 0x20 ADD PUSH0 KECCAK256 PUSH0 SWAP1 SLOAD SWAP1 PUSH2 0x100 EXP SWAP1 DIV PUSH1 0xFF AND PUSH2 0x16E3 JUMPI PUSH1 0x40 MLOAD PUSH32 0x8C379A000000000000000000000000000000000000000000000000000000000 DUP2 MSTORE PUSH1 0x4 ADD PUSH2 0x16DA SWAP1 PUSH2 0x2E7F JUMP JUMPDEST PUSH1 0x40 MLOAD DUP1 SWAP2 SUB SWAP1 REVERT JUMPDEST PUSH0 PUSH1 0xB PUSH0 DUP4 PUSH20 0xFFFFFFFFFFFFFFFFFFFFFFFFFFFFFFFFFFFFFFFF AND PUSH20 0xFFFFFFFFFFFFFFFFFFFFFFFFFFFFFFFFFFFFFFFF AND DUP2 MSTORE PUSH1 0x20 ADD SWAP1 DUP2 MSTORE PUSH1 0x20 ADD PUSH0 KECCAK256 PUSH0 PUSH2 0x100 EXP DUP2 SLOAD DUP2 PUSH1 0xFF MUL NOT AND SWAP1 DUP4 ISZERO ISZERO MUL OR SWAP1 SSTORE POP PUSH0 JUMPDEST PUSH1 0xC DUP1 SLOAD SWAP1 POP DUP2 LT ISZERO PUSH2 0x18B0 JUMPI DUP2 PUSH20 0xFFFFFFFFFFFFFFFFFFFFFFFFFFFFFFFFFFFFFFFF AND PUSH1 0xC DUP3 DUP2 SLOAD DUP2 LT PUSH2 0x1771 JUMPI PUSH2 0x1770 PUSH2 0x2E9D JUMP JUMPDEST JUMPDEST SWAP1 PUSH0 MSTORE PUSH1 0x20 PUSH0 KECCAK256 ADD PUSH0 SWAP1 SLOAD SWAP1 PUSH2 0x100 EXP SWAP1 DIV PUSH20 0xFFFFFFFFFFFFFFFFFFFFFFFFFFFFFFFFFFFFFFFF AND PUSH20 0xFFFFFFFFFFFFFFFFFFFFFFFFFFFFFFFFFFFFFFFF AND SUB PUSH2 0x18A3 JUMPI PUSH1 0xC PUSH1 0x1 PUSH1 0xC DUP1 SLOAD SWAP1 POP PUSH2 0x17C8 SWAP2 SWAP1 PUSH2 0x2868 JUMP JUMPDEST DUP2 SLOAD DUP2 LT PUSH2 0x17D9 JUMPI PUSH2 0x17D8 PUSH2 0x2E9D JUMP JUMPDEST JUMPDEST SWAP1 PUSH0 MSTORE PUSH1 0x20 PUSH0 KECCAK256 ADD PUSH0 SWAP1 SLOAD SWAP1 PUSH2 0x100 EXP SWAP1 DIV PUSH20 0xFFFFFFFFFFFFFFFFFFFFFFFFFFFFFFFFFFFFFFFF AND PUSH1 0xC DUP3 DUP2 SLOAD DUP2 LT PUSH2 0x1815 JUMPI PUSH2 0x1814 PUSH2 0x2E9D JUMP JUMPDEST JUMPDEST SWAP1 PUSH0 MSTORE PUSH1 0x20 PUSH0 KECCAK256 ADD PUSH0 PUSH2 0x100 EXP DUP2 SLOAD DUP2 PUSH20 0xFFFFFFFFFFFFFFFFFFFFFFFFFFFFFFFFFFFFFFFF MUL NOT AND SWAP1 DUP4 PUSH20 0xFFFFFFFFFFFFFFFFFFFFFFFFFFFFFFFFFFFFFFFF AND MUL OR SWAP1 SSTORE POP PUSH1 0xC DUP1 SLOAD DUP1 PUSH2 0x186C JUMPI PUSH2 0x186B PUSH2 0x2ECA JUMP JUMPDEST JUMPDEST PUSH1 0x1 SWAP1 SUB DUP2 DUP2 SWAP1 PUSH0 MSTORE PUSH1 0x20 PUSH0 KECCAK256 ADD PUSH0 PUSH2 0x100 EXP DUP2 SLOAD SWAP1 PUSH20 0xFFFFFFFFFFFFFFFFFFFFFFFFFFFFFFFFFFFFFFFF MUL NOT AND SWAP1 SSTORE SWAP1 SSTORE PUSH2 0x18B0 JUMP JUMPDEST DUP1 DUP1 PUSH1 0x1 ADD SWAP2 POP POP PUSH2 0x1739 JUMP JUMPDEST POP DUP1 PUSH20 0xFFFFFFFFFFFFFFFFFFFFFFFFFFFFFFFFFFFFFFFF AND PUSH32 0x1EBE834E73D60A5FEC822C1E1727D34BC79F2AD977ED504581CC1822FE20FB5B PUSH1 0x40 MLOAD PUSH1 0x40 MLOAD DUP1 SWAP2 SUB SWAP1 LOG2 POP JUMP JUMPDEST PUSH0 CALLER SWAP1 POP SWAP1 JUMP JUMPDEST PUSH2 0x190B DUP4 DUP4 DUP4 PUSH1 0x1 PUSH2 0x1DEC JUMP JUMPDEST POP POP POP JUMP JUMPDEST PUSH0 PUSH2 0x191B DUP5 DUP5 PUSH2 0x14C4 JUMP JUMPDEST SWAP1 POP PUSH32 0xFFFFFFFFFFFFFFFFFFFFFFFFFFFFFFFFFFFFFFFFFFFFFFFFFFFFFFFFFFFFFFFF DUP2 EQ PUSH2 0x199C JUMPI DUP2 DUP2 LT ISZERO PUSH2 0x198D JUMPI DUP3 DUP2 DUP4 PUSH1 0x40 MLOAD PUSH32 0xFB8F41B200000000000000000000000000000000000000000000000000000000 DUP2 MSTORE PUSH1 0x4 ADD PUSH2 0x1984 SWAP4 SWAP3 SWAP2 SWAP1 PUSH2 0x2EF7 JUMP JUMPDEST PUSH1 0x40 MLOAD DUP1 SWAP2 SUB SWAP1 REVERT JUMPDEST PUSH2 0x199B DUP5 DUP5 DUP5 DUP5 SUB PUSH0 PUSH2 0x1DEC JUMP JUMPDEST JUMPDEST POP POP POP POP JUMP JUMPDEST PUSH0 PUSH20 0xFFFFFFFFFFFFFFFFFFFFFFFFFFFFFFFFFFFFFFFF AND DUP4 PUSH20 0xFFFFFFFFFFFFFFFFFFFFFFFFFFFFFFFFFFFFFFFF AND SUB PUSH2 0x1A12 JUMPI PUSH0 PUSH1 0x40 MLOAD PUSH32 0x96C6FD1E00000000000000000000000000000000000000000000000000000000 DUP2 MSTORE PUSH1 0x4 ADD PUSH2 0x1A09 SWAP2 SWAP1 PUSH2 0x24B9 JUMP JUMPDEST PUSH1 0x40 MLOAD DUP1 SWAP2 SUB SWAP1 REVERT JUMPDEST PUSH0 PUSH20 0xFFFFFFFFFFFFFFFFFFFFFFFFFFFFFFFFFFFFFFFF AND DUP3 PUSH20 0xFFFFFFFFFFFFFFFFFFFFFFFFFFFFFFFFFFFFFFFF AND SUB PUSH2 0x1A82 JUMPI PUSH0 PUSH1 0x40 MLOAD PUSH32 0xEC442F0500000000000000000000000000000000000000000000000000000000 DUP2 MSTORE PUSH1 0x4 ADD PUSH2 0x1A79 SWAP2 SWAP1 PUSH2 0x24B9 JUMP JUMPDEST PUSH1 0x40 MLOAD DUP1 SWAP2 SUB SWAP1 REVERT JUMPDEST PUSH2 0x1A8D DUP4 DUP4 DUP4 PUSH2 0x1FBB JUMP JUMPDEST POP POP POP JUMP JUMPDEST PUSH1 0x2 PUSH1 0x5 SLOAD SUB PUSH2 0x1AD7 JUMPI PUSH1 0x40 MLOAD PUSH32 0x8C379A000000000000000000000000000000000000000000000000000000000 DUP2 MSTORE PUSH1 0x4 ADD PUSH2 0x1ACE SWAP1 PUSH2 0x2F76 JUMP JUMPDEST PUSH1 0x40 MLOAD DUP1 SWAP2 SUB SWAP1 REVERT JUMPDEST PUSH1 0x2 PUSH1 0x5 DUP2 SWAP1 SSTORE POP JUMP JUMPDEST PUSH2 0x1B5D DUP5 DUP6 PUSH20 0xFFFFFFFFFFFFFFFFFFFFFFFFFFFFFFFFFFFFFFFF AND PUSH4 0x23B872DD DUP7 DUP7 DUP7 PUSH1 0x40 MLOAD PUSH1 0x24 ADD PUSH2 0x1B16 SWAP4 SWAP3 SWAP2 SWAP1 PUSH2 0x2F94 JUMP JUMPDEST PUSH1 0x40 MLOAD PUSH1 0x20 DUP2 DUP4 SUB SUB DUP2 MSTORE SWAP1 PUSH1 0x40 MSTORE SWAP2 POP PUSH1 0xE0 SHL PUSH1 0x20 DUP3 ADD DUP1 MLOAD PUSH28 0xFFFFFFFFFFFFFFFFFFFFFFFFFFFFFFFFFFFFFFFFFFFFFFFFFFFFFFFF DUP4 DUP2 DUP4 AND OR DUP4 MSTORE POP POP POP POP PUSH2 0x21D4 JUMP JUMPDEST POP POP POP POP JUMP JUMPDEST PUSH2 0x1BDD DUP4 DUP5 PUSH20 0xFFFFFFFFFFFFFFFFFFFFFFFFFFFFFFFFFFFFFFFF AND PUSH4 0xA9059CBB DUP6 DUP6 PUSH1 0x40 MLOAD PUSH1 0x24 ADD PUSH2 0x1B96 SWAP3 SWAP2 SWAP1 PUSH2 0x2FC9 JUMP JUMPDEST PUSH1 0x40 MLOAD PUSH1 0x20 DUP2 DUP4 SUB SUB DUP2 MSTORE SWAP1 PUSH1 0x40 MSTORE SWAP2 POP PUSH1 0xE0 SHL PUSH1 0x20 DUP3 ADD DUP1 MLOAD PUSH28 0xFFFFFFFFFFFFFFFFFFFFFFFFFFFFFFFFFFFFFFFFFFFFFFFFFFFFFFFF DUP4 DUP2 DUP4 AND OR DUP4 MSTORE POP POP POP POP PUSH2 0x21D4 JUMP JUMPDEST POP POP POP JUMP JUMPDEST PUSH1 0xD SLOAD PUSH1 0x10 SLOAD PUSH2 0x1BF2 SWAP2 SWAP1 PUSH2 0x28DC JUMP JUMPDEST TIMESTAMP LT PUSH2 0x1C53 JUMPI PUSH1 0x8 SLOAD PUSH1 0xE DUP2 SWAP1 SSTORE POP PUSH1 0x9 SLOAD PUSH1 0xF DUP2 SWAP1 SSTORE POP TIMESTAMP PUSH1 0x10 DUP2 SWAP1 SSTORE POP PUSH32 0x9CFE07A59EBB9A772E1FEE2ABD40B53001DE7C2F0B2E713DE333F564118C32C4 PUSH1 0xE SLOAD PUSH1 0xF SLOAD PUSH1 0x10 SLOAD PUSH1 0x40 MLOAD PUSH2 0x1C4A SWAP4 SWAP3 SWAP2 SWAP1 PUSH2 0x2CE4 JUMP JUMPDEST PUSH1 0x40 MLOAD DUP1 SWAP2 SUB SWAP1 LOG1 JUMPDEST JUMP JUMPDEST PUSH1 0x1 PUSH1 0x5 DUP2 SWAP1 SSTORE POP JUMP JUMPDEST PUSH0 PUSH20 0xFFFFFFFFFFFFFFFFFFFFFFFFFFFFFFFFFFFFFFFF AND DUP3 PUSH20 0xFFFFFFFFFFFFFFFFFFFFFFFFFFFFFFFFFFFFFFFF AND SUB PUSH2 0x1CCF JUMPI PUSH0 PUSH1 0x40 MLOAD PUSH32 0x96C6FD1E00000000000000000000000000000000000000000000000000000000 DUP2 MSTORE PUSH1 0x4 ADD PUSH2 0x1CC6 SWAP2 SWAP1 PUSH2 0x24B9 JUMP JUMPDEST PUSH1 0x40 MLOAD DUP1 SWAP2 SUB SWAP1 REVERT JUMPDEST PUSH2 0x1CDA DUP3 PUSH0 DUP4 PUSH2 0x1FBB JUMP JUMPDEST POP POP JUMP JUMPDEST PUSH0 PUSH1 0x3 DUP3 GT ISZERO PUSH2 0x1D43 JUMPI DUP2 SWAP1 POP PUSH0 PUSH1 0x1 PUSH1 0x2 DUP5 PUSH2 0x1CFB SWAP2 SWAP1 PUSH2 0x293C JUMP JUMPDEST PUSH2 0x1D05 SWAP2 SWAP1 PUSH2 0x28DC JUMP JUMPDEST SWAP1 POP JUMPDEST DUP2 DUP2 LT ISZERO PUSH2 0x1D3D JUMPI DUP1 SWAP2 POP PUSH1 0x2 DUP2 DUP3 DUP6 PUSH2 0x1D22 SWAP2 SWAP1 PUSH2 0x293C JUMP JUMPDEST PUSH2 0x1D2C SWAP2 SWAP1 PUSH2 0x28DC JUMP JUMPDEST PUSH2 0x1D36 SWAP2 SWAP1 PUSH2 0x293C JUMP JUMPDEST SWAP1 POP PUSH2 0x1D08 JUMP JUMPDEST POP PUSH2 0x1D50 JUMP JUMPDEST PUSH0 DUP3 EQ PUSH2 0x1D4F JUMPI PUSH1 0x1 SWAP1 POP JUMPDEST JUMPDEST SWAP2 SWAP1 POP JUMP JUMPDEST PUSH0 DUP2 DUP4 LT PUSH2 0x1D63 JUMPI DUP2 PUSH2 0x1D65 JUMP JUMPDEST DUP3 JUMPDEST SWAP1 POP SWAP3 SWAP2 POP POP JUMP JUMPDEST PUSH0 PUSH20 0xFFFFFFFFFFFFFFFFFFFFFFFFFFFFFFFFFFFFFFFF AND DUP3 PUSH20 0xFFFFFFFFFFFFFFFFFFFFFFFFFFFFFFFFFFFFFFFF AND SUB PUSH2 0x1DDD JUMPI PUSH0 PUSH1 0x40 MLOAD PUSH32 0xEC442F0500000000000000000000000000000000000000000000000000000000 DUP2 MSTORE PUSH1 0x4 ADD PUSH2 0x1DD4 SWAP2 SWAP1 PUSH2 0x24B9 JUMP JUMPDEST PUSH1 0x40 MLOAD DUP1 SWAP2 SUB SWAP1 REVERT JUMPDEST PUSH2 0x1DE8 PUSH0 DUP4 DUP4 PUSH2 0x1FBB JUMP JUMPDEST POP POP JUMP JUMPDEST PUSH0 PUSH20 0xFFFFFFFFFFFFFFFFFFFFFFFFFFFFFFFFFFFFFFFF AND DUP5 PUSH20 0xFFFFFFFFFFFFFFFFFFFFFFFFFFFFFFFFFFFFFFFF AND SUB PUSH2 0x1E5C JUMPI PUSH0 PUSH1 0x40 MLOAD PUSH32 0xE602DF0500000000000000000000000000000000000000000000000000000000 DUP2 MSTORE PUSH1 0x4 ADD PUSH2 0x1E53 SWAP2 SWAP1 PUSH2 0x24B9 JUMP JUMPDEST PUSH1 0x40 MLOAD DUP1 SWAP2 SUB SWAP1 REVERT JUMPDEST PUSH0 PUSH20 0xFFFFFFFFFFFFFFFFFFFFFFFFFFFFFFFFFFFFFFFF AND DUP4 PUSH20 0xFFFFFFFFFFFFFFFFFFFFFFFFFFFFFFFFFFFFFFFF AND SUB PUSH2 0x1ECC JUMPI PUSH0 PUSH1 0x40 MLOAD PUSH32 0x94280D6200000000000000000000000000000000000000000000000000000000 DUP2 MSTORE PUSH1 0x4 ADD PUSH2 0x1EC3 SWAP2 SWAP1 PUSH2 0x24B9 JUMP JUMPDEST PUSH1 0x40 MLOAD DUP1 SWAP2 SUB SWAP1 REVERT JUMPDEST DUP2 PUSH1 0x1 PUSH0 DUP7 PUSH20 0xFFFFFFFFFFFFFFFFFFFFFFFFFFFFFFFFFFFFFFFF AND PUSH20 0xFFFFFFFFFFFFFFFFFFFFFFFFFFFFFFFFFFFFFFFF AND DUP2 MSTORE PUSH1 0x20 ADD SWAP1 DUP2 MSTORE PUSH1 0x20 ADD PUSH0 KECCAK256 PUSH0 DUP6 PUSH20 0xFFFFFFFFFFFFFFFFFFFFFFFFFFFFFFFFFFFFFFFF AND PUSH20 0xFFFFFFFFFFFFFFFFFFFFFFFFFFFFFFFFFFFFFFFF AND DUP2 MSTORE PUSH1 0x20 ADD SWAP1 DUP2 MSTORE PUSH1 0x20 ADD PUSH0 KECCAK256 DUP2 SWAP1 SSTORE POP DUP1 ISZERO PUSH2 0x1FB5 JUMPI DUP3 PUSH20 0xFFFFFFFFFFFFFFFFFFFFFFFFFFFFFFFFFFFFFFFF AND DUP5 PUSH20 0xFFFFFFFFFFFFFFFFFFFFFFFFFFFFFFFFFFFFFFFF AND PUSH32 0x8C5BE1E5EBEC7D5BD14F71427D1E84F3DD0314C0F7B2291E5B200AC8C7C3B925 DUP5 PUSH1 0x40 MLOAD PUSH2 0x1FAC SWAP2 SWAP1 PUSH2 0x2531 JUMP JUMPDEST PUSH1 0x40 MLOAD DUP1 SWAP2 SUB SWAP1 LOG3 JUMPDEST POP POP POP POP JUMP JUMPDEST PUSH0 PUSH20 0xFFFFFFFFFFFFFFFFFFFFFFFFFFFFFFFFFFFFFFFF AND DUP4 PUSH20 0xFFFFFFFFFFFFFFFFFFFFFFFFFFFFFFFFFFFFFFFF AND SUB PUSH2 0x200B JUMPI DUP1 PUSH1 0x2 PUSH0 DUP3 DUP3 SLOAD PUSH2 0x1FFF SWAP2 SWAP1 PUSH2 0x28DC JUMP JUMPDEST SWAP3 POP POP DUP2 SWAP1 SSTORE POP PUSH2 0x20D9 JUMP JUMPDEST PUSH0 DUP1 PUSH0 DUP6 PUSH20 0xFFFFFFFFFFFFFFFFFFFFFFFFFFFFFFFFFFFFFFFF AND PUSH20 0xFFFFFFFFFFFFFFFFFFFFFFFFFFFFFFFFFFFFFFFF AND DUP2 MSTORE PUSH1 0x20 ADD SWAP1 DUP2 MSTORE PUSH1 0x20 ADD PUSH0 KECCAK256 SLOAD SWAP1 POP DUP2 DUP2 LT ISZERO PUSH2 0x2094 JUMPI DUP4 DUP2 DUP4 PUSH1 0x40 MLOAD PUSH32 0xE450D38C00000000000000000000000000000000000000000000000000000000 DUP2 MSTORE PUSH1 0x4 ADD PUSH2 0x208B SWAP4 SWAP3 SWAP2 SWAP1 PUSH2 0x2EF7 JUMP JUMPDEST PUSH1 0x40 MLOAD DUP1 SWAP2 SUB SWAP1 REVERT JUMPDEST DUP2 DUP2 SUB PUSH0 DUP1 DUP7 PUSH20 0xFFFFFFFFFFFFFFFFFFFFFFFFFFFFFFFFFFFFFFFF AND PUSH20 0xFFFFFFFFFFFFFFFFFFFFFFFFFFFFFFFFFFFFFFFF AND DUP2 MSTORE PUSH1 0x20 ADD SWAP1 DUP2 MSTORE PUSH1 0x20 ADD PUSH0 KECCAK256 DUP2 SWAP1 SSTORE POP POP JUMPDEST PUSH0 PUSH20 0xFFFFFFFFFFFFFFFFFFFFFFFFFFFFFFFFFFFFFFFF AND DUP3 PUSH20 0xFFFFFFFFFFFFFFFFFFFFFFFFFFFFFFFFFFFFFFFF AND SUB PUSH2 0x2120 JUMPI DUP1 PUSH1 0x2 PUSH0 DUP3 DUP3 SLOAD SUB SWAP3 POP POP DUP2 SWAP1 SSTORE POP PUSH2 0x216A JUMP JUMPDEST DUP1 PUSH0 DUP1 DUP5 PUSH20 0xFFFFFFFFFFFFFFFFFFFFFFFFFFFFFFFFFFFFFFFF AND PUSH20 0xFFFFFFFFFFFFFFFFFFFFFFFFFFFFFFFFFFFFFFFF AND DUP2 MSTORE PUSH1 0x20 ADD SWAP1 DUP2 MSTORE PUSH1 0x20 ADD PUSH0 KECCAK256 PUSH0 DUP3 DUP3 SLOAD ADD SWAP3 POP POP DUP2 SWAP1 SSTORE POP JUMPDEST DUP2 PUSH20 0xFFFFFFFFFFFFFFFFFFFFFFFFFFFFFFFFFFFFFFFF AND DUP4 PUSH20 0xFFFFFFFFFFFFFFFFFFFFFFFFFFFFFFFFFFFFFFFF AND PUSH32 0xDDF252AD1BE2C89B69C2B068FC378DAA952BA7F163C4A11628F55A4DF523B3EF DUP4 PUSH1 0x40 MLOAD PUSH2 0x21C7 SWAP2 SWAP1 PUSH2 0x2531 JUMP JUMPDEST PUSH1 0x40 MLOAD DUP1 SWAP2 SUB SWAP1 LOG3 POP POP POP JUMP JUMPDEST PUSH0 PUSH2 0x21FE DUP3 DUP5 PUSH20 0xFFFFFFFFFFFFFFFFFFFFFFFFFFFFFFFFFFFFFFFF AND PUSH2 0x2269 SWAP1 SWAP2 SWAP1 PUSH4 0xFFFFFFFF AND JUMP JUMPDEST SWAP1 POP PUSH0 DUP2 MLOAD EQ ISZERO DUP1 ISZERO PUSH2 0x2222 JUMPI POP DUP1 DUP1 PUSH1 0x20 ADD SWAP1 MLOAD DUP2 ADD SWAP1 PUSH2 0x2220 SWAP2 SWAP1 PUSH2 0x301A JUMP JUMPDEST ISZERO JUMPDEST ISZERO PUSH2 0x2264 JUMPI DUP3 PUSH1 0x40 MLOAD PUSH32 0x5274AFE700000000000000000000000000000000000000000000000000000000 DUP2 MSTORE PUSH1 0x4 ADD PUSH2 0x225B SWAP2 SWAP1 PUSH2 0x24B9 JUMP JUMPDEST PUSH1 0x40 MLOAD DUP1 SWAP2 SUB SWAP1 REVERT JUMPDEST POP POP POP JUMP JUMPDEST PUSH1 0x60 PUSH2 0x2276 DUP4 DUP4 PUSH0 PUSH2 0x227E JUMP JUMPDEST SWAP1 POP SWAP3 SWAP2 POP POP JUMP JUMPDEST PUSH1 0x60 DUP2 SELFBALANCE LT ISZERO PUSH2 0x22C5 JUMPI ADDRESS PUSH1 0x40 MLOAD PUSH32 0xCD78605900000000000000000000000000000000000000000000000000000000 DUP2 MSTORE PUSH1 0x4 ADD PUSH2 0x22BC SWAP2 SWAP1 PUSH2 0x24B9 JUMP JUMPDEST PUSH1 0x40 MLOAD DUP1 SWAP2 SUB SWAP1 REVERT JUMPDEST PUSH0 DUP1 DUP6 PUSH20 0xFFFFFFFFFFFFFFFFFFFFFFFFFFFFFFFFFFFFFFFF AND DUP5 DUP7 PUSH1 0x40 MLOAD PUSH2 0x22ED SWAP2 SWAP1 PUSH2 0x3089 JUMP JUMPDEST PUSH0 PUSH1 0x40 MLOAD DUP1 DUP4 SUB DUP2 DUP6 DUP8 GAS CALL SWAP3 POP POP POP RETURNDATASIZE DUP1 PUSH0 DUP2 EQ PUSH2 0x2327 JUMPI PUSH1 0x40 MLOAD SWAP2 POP PUSH1 0x1F NOT PUSH1 0x3F RETURNDATASIZE ADD AND DUP3 ADD PUSH1 0x40 MSTORE RETURNDATASIZE DUP3 MSTORE RETURNDATASIZE PUSH0 PUSH1 0x20 DUP5 ADD RETURNDATACOPY PUSH2 0x232C JUMP JUMPDEST PUSH1 0x60 SWAP2 POP JUMPDEST POP SWAP2 POP SWAP2 POP PUSH2 0x233C DUP7 DUP4 DUP4 PUSH2 0x2347 JUMP JUMPDEST SWAP3 POP POP POP SWAP4 SWAP3 POP POP POP JUMP JUMPDEST PUSH1 0x60 DUP3 PUSH2 0x235C JUMPI PUSH2 0x2357 DUP3 PUSH2 0x23D4 JUMP JUMPDEST PUSH2 0x23CC JUMP JUMPDEST PUSH0 DUP3 MLOAD EQ DUP1 ISZERO PUSH2 0x2382 JUMPI POP PUSH0 DUP5 PUSH20 0xFFFFFFFFFFFFFFFFFFFFFFFFFFFFFFFFFFFFFFFF AND EXTCODESIZE EQ JUMPDEST ISZERO PUSH2 0x23C4 JUMPI DUP4 PUSH1 0x40 MLOAD PUSH32 0x9996B31500000000000000000000000000000000000000000000000000000000 DUP2 MSTORE PUSH1 0x4 ADD PUSH2 0x23BB SWAP2 SWAP1 PUSH2 0x24B9 JUMP JUMPDEST PUSH1 0x40 MLOAD DUP1 SWAP2 SUB SWAP1 REVERT JUMPDEST DUP2 SWAP1 POP PUSH2 0x23CD JUMP JUMPDEST JUMPDEST SWAP4 SWAP3 POP POP POP JUMP JUMPDEST PUSH0 DUP2 MLOAD GT ISZERO PUSH2 0x23E6 JUMPI DUP1 MLOAD DUP1 DUP3 PUSH1 0x20 ADD REVERT JUMPDEST PUSH1 0x40 MLOAD PUSH32 0x1425EA4200000000000000000000000000000000000000000000000000000000 DUP2 MSTORE PUSH1 0x4 ADD PUSH1 0x40 MLOAD DUP1 SWAP2 SUB SWAP1 REVERT JUMPDEST PUSH0 DUP1 REVERT JUMPDEST PUSH0 DUP2 SWAP1 POP SWAP2 SWAP1 POP JUMP JUMPDEST PUSH2 0x242E DUP2 PUSH2 0x241C JUMP JUMPDEST DUP2 EQ PUSH2 0x2438 JUMPI PUSH0 DUP1 REVERT JUMPDEST POP JUMP JUMPDEST PUSH0 DUP2 CALLDATALOAD SWAP1 POP PUSH2 0x2449 DUP2 PUSH2 0x2425 JUMP JUMPDEST SWAP3 SWAP2 POP POP JUMP JUMPDEST PUSH0 PUSH1 0x20 DUP3 DUP5 SUB SLT ISZERO PUSH2 0x2464 JUMPI PUSH2 0x2463 PUSH2 0x2418 JUMP JUMPDEST JUMPDEST PUSH0 PUSH2 0x2471 DUP5 DUP3 DUP6 ADD PUSH2 0x243B JUMP JUMPDEST SWAP2 POP POP SWAP3 SWAP2 POP POP JUMP JUMPDEST PUSH0 PUSH20 0xFFFFFFFFFFFFFFFFFFFFFFFFFFFFFFFFFFFFFFFF DUP3 AND SWAP1 POP SWAP2 SWAP1 POP JUMP JUMPDEST PUSH0 PUSH2 0x24A3 DUP3 PUSH2 0x247A JUMP JUMPDEST SWAP1 POP SWAP2 SWAP1 POP JUMP JUMPDEST PUSH2 0x24B3 DUP2 PUSH2 0x2499 JUMP JUMPDEST DUP3 MSTORE POP POP JUMP JUMPDEST PUSH0 PUSH1 0x20 DUP3 ADD SWAP1 POP PUSH2 0x24CC PUSH0 DUP4 ADD DUP5 PUSH2 0x24AA JUMP JUMPDEST SWAP3 SWAP2 POP POP JUMP JUMPDEST PUSH0 DUP1 PUSH0 PUSH1 0x60 DUP5 DUP7 SUB SLT ISZERO PUSH2 0x24E9 JUMPI PUSH2 0x24E8 PUSH2 0x2418 JUMP JUMPDEST JUMPDEST PUSH0 PUSH2 0x24F6 DUP7 DUP3 DUP8 ADD PUSH2 0x243B JUMP JUMPDEST SWAP4 POP POP PUSH1 0x20 PUSH2 0x2507 DUP7 DUP3 DUP8 ADD PUSH2 0x243B JUMP JUMPDEST SWAP3 POP POP PUSH1 0x40 PUSH2 0x2518 DUP7 DUP3 DUP8 ADD PUSH2 0x243B JUMP JUMPDEST SWAP2 POP POP SWAP3 POP SWAP3 POP SWAP3 JUMP JUMPDEST PUSH2 0x252B DUP2 PUSH2 0x241C JUMP JUMPDEST DUP3 MSTORE POP POP JUMP JUMPDEST PUSH0 PUSH1 0x20 DUP3 ADD SWAP1 POP PUSH2 0x2544 PUSH0 DUP4 ADD DUP5 PUSH2 0x2522 JUMP JUMPDEST SWAP3 SWAP2 POP POP JUMP JUMPDEST PUSH0 DUP2 MLOAD SWAP1 POP SWAP2 SWAP1 POP JUMP JUMPDEST PUSH0 DUP3 DUP3 MSTORE PUSH1 0x20 DUP3 ADD SWAP1 POP SWAP3 SWAP2 POP POP JUMP JUMPDEST DUP3 DUP2 DUP4 MCOPY PUSH0 DUP4 DUP4 ADD MSTORE POP POP POP JUMP JUMPDEST PUSH0 PUSH1 0x1F NOT PUSH1 0x1F DUP4 ADD AND SWAP1 POP SWAP2 SWAP1 POP JUMP JUMPDEST PUSH0 PUSH2 0x258C DUP3 PUSH2 0x254A JUMP JUMPDEST PUSH2 0x2596 DUP2 DUP6 PUSH2 0x2554 JUMP JUMPDEST SWAP4 POP PUSH2 0x25A6 DUP2 DUP6 PUSH1 0x20 DUP7 ADD PUSH2 0x2564 JUMP JUMPDEST PUSH2 0x25AF DUP2 PUSH2 0x2572 JUMP JUMPDEST DUP5 ADD SWAP2 POP POP SWAP3 SWAP2 POP POP JUMP JUMPDEST PUSH0 PUSH1 0x20 DUP3 ADD SWAP1 POP DUP2 DUP2 SUB PUSH0 DUP4 ADD MSTORE PUSH2 0x25D2 DUP2 DUP5 PUSH2 0x2582 JUMP JUMPDEST SWAP1 POP SWAP3 SWAP2 POP POP JUMP JUMPDEST PUSH0 PUSH1 0x40 DUP3 ADD SWAP1 POP PUSH2 0x25ED PUSH0 DUP4 ADD DUP6 PUSH2 0x2522 JUMP JUMPDEST PUSH2 0x25FA PUSH1 0x20 DUP4 ADD DUP5 PUSH2 0x2522 JUMP JUMPDEST SWAP4 SWAP3 POP POP POP JUMP JUMPDEST PUSH2 0x260A DUP2 PUSH2 0x2499 JUMP JUMPDEST DUP2 EQ PUSH2 0x2614 JUMPI PUSH0 DUP1 REVERT JUMPDEST POP JUMP JUMPDEST PUSH0 DUP2 CALLDATALOAD SWAP1 POP PUSH2 0x2625 DUP2 PUSH2 0x2601 JUMP JUMPDEST SWAP3 SWAP2 POP POP JUMP JUMPDEST PUSH0 DUP1 PUSH1 0x40 DUP4 DUP6 SUB SLT ISZERO PUSH2 0x2641 JUMPI PUSH2 0x2640 PUSH2 0x2418 JUMP JUMPDEST JUMPDEST PUSH0 PUSH2 0x264E DUP6 DUP3 DUP7 ADD PUSH2 0x2617 JUMP JUMPDEST SWAP3 POP POP PUSH1 0x20 PUSH2 0x265F DUP6 DUP3 DUP7 ADD PUSH2 0x243B JUMP JUMPDEST SWAP2 POP POP SWAP3 POP SWAP3 SWAP1 POP JUMP JUMPDEST PUSH0 DUP2 ISZERO ISZERO SWAP1 POP SWAP2 SWAP1 POP JUMP JUMPDEST PUSH2 0x267D DUP2 PUSH2 0x2669 JUMP JUMPDEST DUP3 MSTORE POP POP JUMP JUMPDEST PUSH0 PUSH1 0x20 DUP3 ADD SWAP1 POP PUSH2 0x2696 PUSH0 DUP4 ADD DUP5 PUSH2 0x2674 JUMP JUMPDEST SWAP3 SWAP2 POP POP JUMP JUMPDEST PUSH0 DUP2 SWAP1 POP SWAP2 SWAP1 POP JUMP JUMPDEST PUSH0 PUSH2 0x26BF PUSH2 0x26BA PUSH2 0x26B5 DUP5 PUSH2 0x247A JUMP JUMPDEST PUSH2 0x269C JUMP JUMPDEST PUSH2 0x247A JUMP JUMPDEST SWAP1 POP SWAP2 SWAP1 POP JUMP JUMPDEST PUSH0 PUSH2 0x26D0 DUP3 PUSH2 0x26A5 JUMP JUMPDEST SWAP1 POP SWAP2 SWAP1 POP JUMP JUMPDEST PUSH0 PUSH2 0x26E1 DUP3 PUSH2 0x26C6 JUMP JUMPDEST SWAP1 POP SWAP2 SWAP1 POP JUMP JUMPDEST PUSH2 0x26F1 DUP2 PUSH2 0x26D7 JUMP JUMPDEST DUP3 MSTORE POP POP JUMP JUMPDEST PUSH0 PUSH1 0x20 DUP3 ADD SWAP1 POP PUSH2 0x270A PUSH0 DUP4 ADD DUP5 PUSH2 0x26E8 JUMP JUMPDEST SWAP3 SWAP2 POP POP JUMP JUMPDEST PUSH0 DUP1 PUSH0 PUSH1 0x60 DUP5 DUP7 SUB SLT ISZERO PUSH2 0x2727 JUMPI PUSH2 0x2726 PUSH2 0x2418 JUMP JUMPDEST JUMPDEST PUSH0 PUSH2 0x2734 DUP7 DUP3 DUP8 ADD PUSH2 0x2617 JUMP JUMPDEST SWAP4 POP POP PUSH1 0x20 PUSH2 0x2745 DUP7 DUP3 DUP8 ADD PUSH2 0x2617 JUMP JUMPDEST SWAP3 POP POP PUSH1 0x40 PUSH2 0x2756 DUP7 DUP3 DUP8 ADD PUSH2 0x243B JUMP JUMPDEST SWAP2 POP POP SWAP3 POP SWAP3 POP SWAP3 JUMP JUMPDEST PUSH0 DUP1 PUSH1 0x40 DUP4 DUP6 SUB SLT ISZERO PUSH2 0x2776 JUMPI PUSH2 0x2775 PUSH2 0x2418 JUMP JUMPDEST JUMPDEST PUSH0 PUSH2 0x2783 DUP6 DUP3 DUP7 ADD PUSH2 0x243B JUMP JUMPDEST SWAP3 POP POP PUSH1 0x20 PUSH2 0x2794 DUP6 DUP3 DUP7 ADD PUSH2 0x243B JUMP JUMPDEST SWAP2 POP POP SWAP3 POP SWAP3 SWAP1 POP JUMP JUMPDEST PUSH0 PUSH1 0xFF DUP3 AND SWAP1 POP SWAP2 SWAP1 POP JUMP JUMPDEST PUSH2 0x27B3 DUP2 PUSH2 0x279E JUMP JUMPDEST DUP3 MSTORE POP POP JUMP JUMPDEST PUSH0 PUSH1 0x20 DUP3 ADD SWAP1 POP PUSH2 0x27CC PUSH0 DUP4 ADD DUP5 PUSH2 0x27AA JUMP JUMPDEST SWAP3 SWAP2 POP POP JUMP JUMPDEST PUSH0 PUSH1 0x20 DUP3 DUP5 SUB SLT ISZERO PUSH2 0x27E7 JUMPI PUSH2 0x27E6 PUSH2 0x2418 JUMP JUMPDEST JUMPDEST PUSH0 PUSH2 0x27F4 DUP5 DUP3 DUP6 ADD PUSH2 0x2617 JUMP JUMPDEST SWAP2 POP POP SWAP3 SWAP2 POP POP JUMP JUMPDEST PUSH0 DUP1 PUSH1 0x40 DUP4 DUP6 SUB SLT ISZERO PUSH2 0x2813 JUMPI PUSH2 0x2812 PUSH2 0x2418 JUMP JUMPDEST JUMPDEST PUSH0 PUSH2 0x2820 DUP6 DUP3 DUP7 ADD PUSH2 0x2617 JUMP JUMPDEST SWAP3 POP POP PUSH1 0x20 PUSH2 0x2831 DUP6 DUP3 DUP7 ADD PUSH2 0x2617 JUMP JUMPDEST SWAP2 POP POP SWAP3 POP SWAP3 SWAP1 POP JUMP JUMPDEST PUSH32 0x4E487B7100000000000000000000000000000000000000000000000000000000 PUSH0 MSTORE PUSH1 0x11 PUSH1 0x4 MSTORE PUSH1 0x24 PUSH0 REVERT JUMPDEST PUSH0 PUSH2 0x2872 DUP3 PUSH2 0x241C JUMP JUMPDEST SWAP2 POP PUSH2 0x287D DUP4 PUSH2 0x241C JUMP JUMPDEST SWAP3 POP DUP3 DUP3 SUB SWAP1 POP DUP2 DUP2 GT ISZERO PUSH2 0x2895 JUMPI PUSH2 0x2894 PUSH2 0x283B JUMP JUMPDEST JUMPDEST SWAP3 SWAP2 POP POP JUMP JUMPDEST PUSH0 PUSH2 0x28A5 DUP3 PUSH2 0x241C JUMP JUMPDEST SWAP2 POP PUSH2 0x28B0 DUP4 PUSH2 0x241C JUMP JUMPDEST SWAP3 POP DUP3 DUP3 MUL PUSH2 0x28BE DUP2 PUSH2 0x241C JUMP JUMPDEST SWAP2 POP DUP3 DUP3 DIV DUP5 EQ DUP4 ISZERO OR PUSH2 0x28D5 JUMPI PUSH2 0x28D4 PUSH2 0x283B JUMP JUMPDEST JUMPDEST POP SWAP3 SWAP2 POP POP JUMP JUMPDEST PUSH0 PUSH2 0x28E6 DUP3 PUSH2 0x241C JUMP JUMPDEST SWAP2 POP PUSH2 0x28F1 DUP4 PUSH2 0x241C JUMP JUMPDEST SWAP3 POP DUP3 DUP3 ADD SWAP1 POP DUP1 DUP3 GT ISZERO PUSH2 0x2909 JUMPI PUSH2 0x2908 PUSH2 0x283B JUMP JUMPDEST JUMPDEST SWAP3 SWAP2 POP POP JUMP JUMPDEST PUSH32 0x4E487B7100000000000000000000000000000000000000000000000000000000 PUSH0 MSTORE PUSH1 0x12 PUSH1 0x4 MSTORE PUSH1 0x24 PUSH0 REVERT JUMPDEST PUSH0 PUSH2 0x2946 DUP3 PUSH2 0x241C JUMP JUMPDEST SWAP2 POP PUSH2 0x2951 DUP4 PUSH2 0x241C JUMP JUMPDEST SWAP3 POP DUP3 PUSH2 0x2961 JUMPI PUSH2 0x2960 PUSH2 0x290F JUMP JUMPDEST JUMPDEST DUP3 DUP3 DIV SWAP1 POP SWAP3 SWAP2 POP POP JUMP JUMPDEST PUSH32 0x4E487B7100000000000000000000000000000000000000000000000000000000 PUSH0 MSTORE PUSH1 0x22 PUSH1 0x4 MSTORE PUSH1 0x24 PUSH0 REVERT JUMPDEST PUSH0 PUSH1 0x2 DUP3 DIV SWAP1 POP PUSH1 0x1 DUP3 AND DUP1 PUSH2 0x29B0 JUMPI PUSH1 0x7F DUP3 AND SWAP2 POP JUMPDEST PUSH1 0x20 DUP3 LT DUP2 SUB PUSH2 0x29C3 JUMPI PUSH2 0x29C2 PUSH2 0x296C JUMP JUMPDEST JUMPDEST POP SWAP2 SWAP1 POP JUMP JUMPDEST PUSH32 0x414D4D3A20496E76616C696420696E70757420616D6F756E7400000000000000 PUSH0 DUP3 ADD MSTORE POP JUMP JUMPDEST PUSH0 PUSH2 0x29FD PUSH1 0x19 DUP4 PUSH2 0x2554 JUMP JUMPDEST SWAP2 POP PUSH2 0x2A08 DUP3 PUSH2 0x29C9 JUMP JUMPDEST PUSH1 0x20 DUP3 ADD SWAP1 POP SWAP2 SWAP1 POP JUMP JUMPDEST PUSH0 PUSH1 0x20 DUP3 ADD SWAP1 POP DUP2 DUP2 SUB PUSH0 DUP4 ADD MSTORE PUSH2 0x2A2A DUP2 PUSH2 0x29F1 JUMP JUMPDEST SWAP1 POP SWAP2 SWAP1 POP JUMP JUMPDEST PUSH32 0x414D4D3A20496E73756666696369656E74206F757470757420616D6F756E7400 PUSH0 DUP3 ADD MSTORE POP JUMP JUMPDEST PUSH0 PUSH2 0x2A65 PUSH1 0x1F DUP4 PUSH2 0x2554 JUMP JUMPDEST SWAP2 POP PUSH2 0x2A70 DUP3 PUSH2 0x2A31 JUMP JUMPDEST PUSH1 0x20 DUP3 ADD SWAP1 POP SWAP2 SWAP1 POP JUMP JUMPDEST PUSH0 PUSH1 0x20 DUP3 ADD SWAP1 POP DUP2 DUP2 SUB PUSH0 DUP4 ADD MSTORE PUSH2 0x2A92 DUP2 PUSH2 0x2A59 JUMP JUMPDEST SWAP1 POP SWAP2 SWAP1 POP JUMP JUMPDEST PUSH0 PUSH1 0x80 DUP3 ADD SWAP1 POP PUSH2 0x2AAC PUSH0 DUP4 ADD DUP8 PUSH2 0x2522 JUMP JUMPDEST PUSH2 0x2AB9 PUSH1 0x20 DUP4 ADD DUP7 PUSH2 0x2522 JUMP JUMPDEST PUSH2 0x2AC6 PUSH1 0x40 DUP4 ADD DUP6 PUSH2 0x24AA JUMP JUMPDEST PUSH2 0x2AD3 PUSH1 0x60 DUP4 ADD DUP5 PUSH2 0x24AA JUMP JUMPDEST SWAP6 SWAP5 POP POP POP POP POP JUMP JUMPDEST PUSH32 0x414D4D3A2063616C6C6572206973206E6F74206120676F7665726E6F72000000 PUSH0 DUP3 ADD MSTORE POP JUMP JUMPDEST PUSH0 PUSH2 0x2B10 PUSH1 0x1D DUP4 PUSH2 0x2554 JUMP JUMPDEST SWAP2 POP PUSH2 0x2B1B DUP3 PUSH2 0x2ADC JUMP JUMPDEST PUSH1 0x20 DUP3 ADD SWAP1 POP SWAP2 SWAP1 POP JUMP JUMPDEST PUSH0 PUSH1 0x20 DUP3 ADD SWAP1 POP DUP2 DUP2 SUB PUSH0 DUP4 ADD MSTORE PUSH2 0x2B3D DUP2 PUSH2 0x2B04 JUMP JUMPDEST SWAP1 POP SWAP2 SWAP1 POP JUMP JUMPDEST PUSH32 0x414D4D3A20496E76616C696420676F7665726E6F722061646472657373000000 PUSH0 DUP3 ADD MSTORE POP JUMP JUMPDEST PUSH0 PUSH2 0x2B78 PUSH1 0x1D DUP4 PUSH2 0x2554 JUMP JUMPDEST SWAP2 POP PUSH2 0x2B83 DUP3 PUSH2 0x2B44 JUMP JUMPDEST PUSH1 0x20 DUP3 ADD SWAP1 POP SWAP2 SWAP1 POP JUMP JUMPDEST PUSH0 PUSH1 0x20 DUP3 ADD SWAP1 POP DUP2 DUP2 SUB PUSH0 DUP4 ADD MSTORE PUSH2 0x2BA5 DUP2 PUSH2 0x2B6C JUMP JUMPDEST SWAP1 POP SWAP2 SWAP1 POP JUMP JUMPDEST PUSH32 0x414D4D3A20416C7265616479206120676F7665726E6F72000000000000000000 PUSH0 DUP3 ADD MSTORE POP JUMP JUMPDEST PUSH0 PUSH2 0x2BE0 PUSH1 0x17 DUP4 PUSH2 0x2554 JUMP JUMPDEST SWAP2 POP PUSH2 0x2BEB DUP3 PUSH2 0x2BAC JUMP JUMPDEST PUSH1 0x20 DUP3 ADD SWAP1 POP SWAP2 SWAP1 POP JUMP JUMPDEST PUSH0 PUSH1 0x20 DUP3 ADD SWAP1 POP DUP2 DUP2 SUB PUSH0 DUP4 ADD MSTORE PUSH2 0x2C0D DUP2 PUSH2 0x2BD4 JUMP JUMPDEST SWAP1 POP SWAP2 SWAP1 POP JUMP JUMPDEST PUSH32 0x414D4D3A20496E76616C69642066656500000000000000000000000000000000 PUSH0 DUP3 ADD MSTORE POP JUMP JUMPDEST PUSH0 PUSH2 0x2C48 PUSH1 0x10 DUP4 PUSH2 0x2554 JUMP JUMPDEST SWAP2 POP PUSH2 0x2C53 DUP3 PUSH2 0x2C14 JUMP JUMPDEST PUSH1 0x20 DUP3 ADD SWAP1 POP SWAP2 SWAP1 POP JUMP JUMPDEST PUSH0 PUSH1 0x20 DUP3 ADD SWAP1 POP DUP2 DUP2 SUB PUSH0 DUP4 ADD MSTORE PUSH2 0x2C75 DUP2 PUSH2 0x2C3C JUMP JUMPDEST SWAP1 POP SWAP2 SWAP1 POP JUMP JUMPDEST PUSH32 0x414D4D3A20496E76616C6964206C697175696469747920616D6F756E74000000 PUSH0 DUP3 ADD MSTORE POP JUMP JUMPDEST PUSH0 PUSH2 0x2CB0 PUSH1 0x1D DUP4 PUSH2 0x2554 JUMP JUMPDEST SWAP2 POP PUSH2 0x2CBB DUP3 PUSH2 0x2C7C JUMP JUMPDEST PUSH1 0x20 DUP3 ADD SWAP1 POP SWAP2 SWAP1 POP JUMP JUMPDEST PUSH0 PUSH1 0x20 DUP3 ADD SWAP1 POP DUP2 DUP2 SUB PUSH0 DUP4 ADD MSTORE PUSH2 0x2CDD DUP2 PUSH2 0x2CA4 JUMP JUMPDEST SWAP1 POP SWAP2 SWAP1 POP JUMP JUMPDEST PUSH0 PUSH1 0x60 DUP3 ADD SWAP1 POP PUSH2 0x2CF7 PUSH0 DUP4 ADD DUP7 PUSH2 0x2522 JUMP JUMPDEST PUSH2 0x2D04 PUSH1 0x20 DUP4 ADD DUP6 PUSH2 0x2522 JUMP JUMPDEST PUSH2 0x2D11 PUSH1 0x40 DUP4 ADD DUP5 PUSH2 0x2522 JUMP JUMPDEST SWAP5 SWAP4 POP POP POP POP JUMP JUMPDEST PUSH32 0x414D4D3A20556E62616C616E636564206C69717569646974792070726F766964 PUSH0 DUP3 ADD MSTORE PUSH32 0x6564000000000000000000000000000000000000000000000000000000000000 PUSH1 0x20 DUP3 ADD MSTORE POP JUMP JUMPDEST PUSH0 PUSH2 0x2D73 PUSH1 0x22 DUP4 PUSH2 0x2554 JUMP JUMPDEST SWAP2 POP PUSH2 0x2D7E DUP3 PUSH2 0x2D19 JUMP JUMPDEST PUSH1 0x40 DUP3 ADD SWAP1 POP SWAP2 SWAP1 POP JUMP JUMPDEST PUSH0 PUSH1 0x20 DUP3 ADD SWAP1 POP DUP2 DUP2 SUB PUSH0 DUP4 ADD MSTORE PUSH2 0x2DA0 DUP2 PUSH2 0x2D67 JUMP JUMPDEST SWAP1 POP SWAP2 SWAP1 POP JUMP JUMPDEST PUSH32 0x414D4D3A20496E73756666696369656E74206C69717569646974792070726F76 PUSH0 DUP3 ADD MSTORE PUSH32 0x6964656400000000000000000000000000000000000000000000000000000000 PUSH1 0x20 DUP3 ADD MSTORE POP JUMP JUMPDEST PUSH0 PUSH2 0x2E01 PUSH1 0x24 DUP4 PUSH2 0x2554 JUMP JUMPDEST SWAP2 POP PUSH2 0x2E0C DUP3 PUSH2 0x2DA7 JUMP JUMPDEST PUSH1 0x40 DUP3 ADD SWAP1 POP SWAP2 SWAP1 POP JUMP JUMPDEST PUSH0 PUSH1 0x20 DUP3 ADD SWAP1 POP DUP2 DUP2 SUB PUSH0 DUP4 ADD MSTORE PUSH2 0x2E2E DUP2 PUSH2 0x2DF5 JUMP JUMPDEST SWAP1 POP SWAP2 SWAP1 POP JUMP JUMPDEST PUSH32 0x414D4D3A204E6F74206120676F7665726E6F7200000000000000000000000000 PUSH0 DUP3 ADD MSTORE POP JUMP JUMPDEST PUSH0 PUSH2 0x2E69 PUSH1 0x13 DUP4 PUSH2 0x2554 JUMP JUMPDEST SWAP2 POP PUSH2 0x2E74 DUP3 PUSH2 0x2E35 JUMP JUMPDEST PUSH1 0x20 DUP3 ADD SWAP1 POP SWAP2 SWAP1 POP JUMP JUMPDEST PUSH0 PUSH1 0x20 DUP3 ADD SWAP1 POP DUP2 DUP2 SUB PUSH0 DUP4 ADD MSTORE PUSH2 0x2E96 DUP2 PUSH2 0x2E5D JUMP JUMPDEST SWAP1 POP SWAP2 SWAP1 POP JUMP JUMPDEST PUSH32 0x4E487B7100000000000000000000000000000000000000000000000000000000 PUSH0 MSTORE PUSH1 0x32 PUSH1 0x4 MSTORE PUSH1 0x24 PUSH0 REVERT JUMPDEST PUSH32 0x4E487B7100000000000000000000000000000000000000000000000000000000 PUSH0 MSTORE PUSH1 0x31 PUSH1 0x4 MSTORE PUSH1 0x24 PUSH0 REVERT JUMPDEST PUSH0 PUSH1 0x60 DUP3 ADD SWAP1 POP PUSH2 0x2F0A PUSH0 DUP4 ADD DUP7 PUSH2 0x24AA JUMP JUMPDEST PUSH2 0x2F17 PUSH1 0x20 DUP4 ADD DUP6 PUSH2 0x2522 JUMP JUMPDEST PUSH2 0x2F24 PUSH1 0x40 DUP4 ADD DUP5 PUSH2 0x2522 JUMP JUMPDEST SWAP5 SWAP4 POP POP POP POP JUMP JUMPDEST PUSH32 0x5265656E7472616E637947756172643A207265656E7472616E742063616C6C00 PUSH0 DUP3 ADD MSTORE POP JUMP JUMPDEST PUSH0 PUSH2 0x2F60 PUSH1 0x1F DUP4 PUSH2 0x2554 JUMP JUMPDEST SWAP2 POP PUSH2 0x2F6B DUP3 PUSH2 0x2F2C JUMP JUMPDEST PUSH1 0x20 DUP3 ADD SWAP1 POP SWAP2 SWAP1 POP JUMP JUMPDEST PUSH0 PUSH1 0x20 DUP3 ADD SWAP1 POP DUP2 DUP2 SUB PUSH0 DUP4 ADD MSTORE PUSH2 0x2F8D DUP2 PUSH2 0x2F54 JUMP JUMPDEST SWAP1 POP SWAP2 SWAP1 POP JUMP JUMPDEST PUSH0 PUSH1 0x60 DUP3 ADD SWAP1 POP PUSH2 0x2FA7 PUSH0 DUP4 ADD DUP7 PUSH2 0x24AA JUMP JUMPDEST PUSH2 0x2FB4 PUSH1 0x20 DUP4 ADD DUP6 PUSH2 0x24AA JUMP JUMPDEST PUSH2 0x2FC1 PUSH1 0x40 DUP4 ADD DUP5 PUSH2 0x2522 JUMP JUMPDEST SWAP5 SWAP4 POP POP POP POP JUMP JUMPDEST PUSH0 PUSH1 0x40 DUP3 ADD SWAP1 POP PUSH2 0x2FDC PUSH0 DUP4 ADD DUP6 PUSH2 0x24AA JUMP JUMPDEST PUSH2 0x2FE9 PUSH1 0x20 DUP4 ADD DUP5 PUSH2 0x2522 JUMP JUMPDEST SWAP4 SWAP3 POP POP POP JUMP JUMPDEST PUSH2 0x2FF9 DUP2 PUSH2 0x2669 JUMP JUMPDEST DUP2 EQ PUSH2 0x3003 JUMPI PUSH0 DUP1 REVERT JUMPDEST POP JUMP JUMPDEST PUSH0 DUP2 MLOAD SWAP1 POP PUSH2 0x3014 DUP2 PUSH2 0x2FF0 JUMP JUMPDEST SWAP3 SWAP2 POP POP JUMP JUMPDEST PUSH0 PUSH1 0x20 DUP3 DUP5 SUB SLT ISZERO PUSH2 0x302F JUMPI PUSH2 0x302E PUSH2 0x2418 JUMP JUMPDEST JUMPDEST PUSH0 PUSH2 0x303C DUP5 DUP3 DUP6 ADD PUSH2 0x3006 JUMP JUMPDEST SWAP2 POP POP SWAP3 SWAP2 POP POP JUMP JUMPDEST PUSH0 DUP2 MLOAD SWAP1 POP SWAP2 SWAP1 POP JUMP JUMPDEST PUSH0 DUP2 SWAP1 POP SWAP3 SWAP2 POP POP JUMP JUMPDEST PUSH0 PUSH2 0x3063 DUP3 PUSH2 0x3045 JUMP JUMPDEST PUSH2 0x306D DUP2 DUP6 PUSH2 0x304F JUMP JUMPDEST SWAP4 POP PUSH2 0x307D DUP2 DUP6 PUSH1 0x20 DUP7 ADD PUSH2 0x2564 JUMP JUMPDEST DUP1 DUP5 ADD SWAP2 POP POP SWAP3 SWAP2 POP POP JUMP JUMPDEST PUSH0 PUSH2 0x3094 DUP3 DUP5 PUSH2 0x3059 JUMP JUMPDEST SWAP2 POP DUP2 SWAP1 POP SWAP3 SWAP2 POP POP JUMP INVALID LOG2 PUSH5 0x6970667358 0x22 SLT KECCAK256 LOG0 DUP6 0x24 DUP2 SLT 0xC0 0x2C ORIGIN PUSH19 0xB66EB04C4C555C4A703DB89E5DED1E477594EE 0xD2 AND 0xC2 CODESIZE PUSH5 0x736F6C6343 STOP ADDMOD NOT STOP CALLER "
				},
				"gasEstimates": {
					"creation": {
						"codeDepositCost": "2500200",
						"executionCost": "infinite",
						"totalCost": "infinite"
					},
					"external": {
						"BASIS_POINTS_DIVISOR()": "437",
						"addGovernor(address)": "79167",
						"addLiquidity(uint256,uint256)": "infinite",
						"allowance(address,address)": "infinite",
						"approve(address,uint256)": "infinite",
						"balanceOf(address)": "2919",
						"decimals()": "405",
						"feeBasisPoints()": "2514",
						"getAmountOut(uint256,uint256,uint256)": "infinite",
						"getReserves()": "infinite",
						"governorList(uint256)": "4991",
						"governors(address)": "2921",
						"lastTwapPriceX()": "2471",
						"lastTwapPriceY()": "2515",
						"lastTwapTimestamp()": "2536",
						"name()": "infinite",
						"removeGovernor(address)": "infinite",
						"removeLiquidity(uint256)": "infinite",
						"setFee(uint256)": "infinite",
						"swapXForY(uint256,uint256)": "infinite",
						"swapYForX(uint256,uint256)": "infinite",
						"symbol()": "infinite",
						"tokenX()": "infinite",
						"tokenY()": "infinite",
						"totalSupply()": "2500",
						"transfer(address,uint256)": "infinite",
						"transferFrom(address,address,uint256)": "infinite",
						"twapInterval()": "2514"
					},
					"internal": {
						"min(uint256,uint256)": "63",
						"sqrt(uint256)": "infinite",
						"updateTwap()": "infinite"
					}
				},
				"methodIdentifiers": {
					"BASIS_POINTS_DIVISOR()": "126082cf",
					"addGovernor(address)": "3c4a25d0",
					"addLiquidity(uint256,uint256)": "9cd441da",
					"allowance(address,address)": "dd62ed3e",
					"approve(address,uint256)": "095ea7b3",
					"balanceOf(address)": "70a08231",
					"decimals()": "313ce567",
					"feeBasisPoints()": "b8606eef",
					"getAmountOut(uint256,uint256,uint256)": "054d50d4",
					"getReserves()": "0902f1ac",
					"governorList(uint256)": "02aac7b2",
					"governors(address)": "e3eece26",
					"lastTwapPriceX()": "58d50f0a",
					"lastTwapPriceY()": "10f669b3",
					"lastTwapTimestamp()": "9d6f09c1",
					"name()": "06fdde03",
					"removeGovernor(address)": "eecdac88",
					"removeLiquidity(uint256)": "9c8f9f23",
					"setFee(uint256)": "69fe0e2d",
					"swapXForY(uint256,uint256)": "c7f8a78d",
					"swapYForX(uint256,uint256)": "31018339",
					"symbol()": "95d89b41",
					"tokenX()": "16dc165b",
					"tokenY()": "b7d19fc4",
					"totalSupply()": "18160ddd",
					"transfer(address,uint256)": "a9059cbb",
					"transferFrom(address,address,uint256)": "23b872dd",
					"twapInterval()": "3c1d5df0"
				}
			},
			"storageLayout": {
				"storage": [
					{
						"astId": 224,
						"contract": "contracts/AMM.sol:AMM",
						"label": "_balances",
						"offset": 0,
						"slot": "0",
						"type": "t_mapping(t_address,t_uint256)"
					},
					{
						"astId": 230,
						"contract": "contracts/AMM.sol:AMM",
						"label": "_allowances",
						"offset": 0,
						"slot": "1",
						"type": "t_mapping(t_address,t_mapping(t_address,t_uint256))"
					},
					{
						"astId": 232,
						"contract": "contracts/AMM.sol:AMM",
						"label": "_totalSupply",
						"offset": 0,
						"slot": "2",
						"type": "t_uint256"
					},
					{
						"astId": 234,
						"contract": "contracts/AMM.sol:AMM",
						"label": "_name",
						"offset": 0,
						"slot": "3",
						"type": "t_string_storage"
					},
					{
						"astId": 236,
						"contract": "contracts/AMM.sol:AMM",
						"label": "_symbol",
						"offset": 0,
						"slot": "4",
						"type": "t_string_storage"
					},
					{
						"astId": 147,
						"contract": "contracts/AMM.sol:AMM",
						"label": "_status",
						"offset": 0,
						"slot": "5",
						"type": "t_uint256"
					},
					{
						"astId": 1450,
						"contract": "contracts/AMM.sol:AMM",
						"label": "tokenX",
						"offset": 0,
						"slot": "6",
						"type": "t_contract(IERC20)794"
					},
					{
						"astId": 1453,
						"contract": "contracts/AMM.sol:AMM",
						"label": "tokenY",
						"offset": 0,
						"slot": "7",
						"type": "t_contract(IERC20)794"
					},
					{
						"astId": 1455,
						"contract": "contracts/AMM.sol:AMM",
						"label": "reserveX",
						"offset": 0,
						"slot": "8",
						"type": "t_uint256"
					},
					{
						"astId": 1457,
						"contract": "contracts/AMM.sol:AMM",
						"label": "reserveY",
						"offset": 0,
						"slot": "9",
						"type": "t_uint256"
					},
					{
						"astId": 1460,
						"contract": "contracts/AMM.sol:AMM",
						"label": "feeBasisPoints",
						"offset": 0,
						"slot": "10",
						"type": "t_uint256"
					},
					{
						"astId": 1467,
						"contract": "contracts/AMM.sol:AMM",
						"label": "governors",
						"offset": 0,
						"slot": "11",
						"type": "t_mapping(t_address,t_bool)"
					},
					{
						"astId": 1470,
						"contract": "contracts/AMM.sol:AMM",
						"label": "governorList",
						"offset": 0,
						"slot": "12",
						"type": "t_array(t_address)dyn_storage"
					},
					{
						"astId": 1473,
						"contract": "contracts/AMM.sol:AMM",
						"label": "twapInterval",
						"offset": 0,
						"slot": "13",
						"type": "t_uint256"
					},
					{
						"astId": 1475,
						"contract": "contracts/AMM.sol:AMM",
						"label": "lastTwapPriceX",
						"offset": 0,
						"slot": "14",
						"type": "t_uint256"
					},
					{
						"astId": 1477,
						"contract": "contracts/AMM.sol:AMM",
						"label": "lastTwapPriceY",
						"offset": 0,
						"slot": "15",
						"type": "t_uint256"
					},
					{
						"astId": 1479,
						"contract": "contracts/AMM.sol:AMM",
						"label": "lastTwapTimestamp",
						"offset": 0,
						"slot": "16",
						"type": "t_uint256"
					}
				],
				"types": {
					"t_address": {
						"encoding": "inplace",
						"label": "address",
						"numberOfBytes": "20"
					},
					"t_array(t_address)dyn_storage": {
						"base": "t_address",
						"encoding": "dynamic_array",
						"label": "address[]",
						"numberOfBytes": "32"
					},
					"t_bool": {
						"encoding": "inplace",
						"label": "bool",
						"numberOfBytes": "1"
					},
					"t_contract(IERC20)794": {
						"encoding": "inplace",
						"label": "contract IERC20",
						"numberOfBytes": "20"
					},
					"t_mapping(t_address,t_bool)": {
						"encoding": "mapping",
						"key": "t_address",
						"label": "mapping(address => bool)",
						"numberOfBytes": "32",
						"value": "t_bool"
					},
					"t_mapping(t_address,t_mapping(t_address,t_uint256))": {
						"encoding": "mapping",
						"key": "t_address",
						"label": "mapping(address => mapping(address => uint256))",
						"numberOfBytes": "32",
						"value": "t_mapping(t_address,t_uint256)"
					},
					"t_mapping(t_address,t_uint256)": {
						"encoding": "mapping",
						"key": "t_address",
						"label": "mapping(address => uint256)",
						"numberOfBytes": "32",
						"value": "t_uint256"
					},
					"t_string_storage": {
						"encoding": "bytes",
						"label": "string",
						"numberOfBytes": "32"
					},
					"t_uint256": {
						"encoding": "inplace",
						"label": "uint256",
						"numberOfBytes": "32"
					}
				}
			},
			"userdoc": {
				"kind": "user",
				"methods": {
					"addGovernor(address)": {
						"notice": "Adds a new governor."
					},
					"addLiquidity(uint256,uint256)": {
						"notice": "Adds liquidity to the pool."
					},
					"getAmountOut(uint256,uint256,uint256)": {
						"notice": "Calculates the output amount for a given input amount using the constant product formula."
					},
					"getReserves()": {
						"notice": "Returns the reserves of Token X and Token Y."
					},
					"removeGovernor(address)": {
						"notice": "Removes an existing governor."
					},
					"removeLiquidity(uint256)": {
						"notice": "Removes liquidity from the pool."
					},
					"setFee(uint256)": {
						"notice": "Sets the fee in basis points."
					},
					"swapXForY(uint256,uint256)": {
						"notice": "Swaps Token X for Token Y."
					},
					"swapYForX(uint256,uint256)": {
						"notice": "Swaps Token Y for Token X."
					}
				},
				"version": 1
			}
		}
	}
}